{
	"docs.chain.link/samples/Automation/tutorials/EthBalanceMonitor.sol": {
		"EthBalanceMonitor": {
			"abi": [
				{
					"inputs": [
						{
							"internalType": "uint256",
							"name": "minWaitPeriodSeconds",
							"type": "uint256"
						}
					],
					"stateMutability": "nonpayable",
					"type": "constructor"
				},
				{
					"inputs": [
						{
							"internalType": "address",
							"name": "duplicate",
							"type": "address"
						}
					],
					"name": "DuplicateAddress",
					"type": "error"
				},
				{
					"inputs": [],
					"name": "InvalidWatchList",
					"type": "error"
				},
				{
					"inputs": [],
					"name": "OnlyForwarder",
					"type": "error"
				},
				{
					"anonymous": false,
					"inputs": [
						{
							"indexed": false,
							"internalType": "address",
							"name": "oldAddress",
							"type": "address"
						},
						{
							"indexed": false,
							"internalType": "address",
							"name": "newAddress",
							"type": "address"
						}
					],
					"name": "ForwarderAddressUpdated",
					"type": "event"
				},
				{
					"anonymous": false,
					"inputs": [
						{
							"indexed": false,
							"internalType": "uint256",
							"name": "amountAdded",
							"type": "uint256"
						},
						{
							"indexed": false,
							"internalType": "uint256",
							"name": "newBalance",
							"type": "uint256"
						},
						{
							"indexed": false,
							"internalType": "address",
							"name": "sender",
							"type": "address"
						}
					],
					"name": "FundsAdded",
					"type": "event"
				},
				{
					"anonymous": false,
					"inputs": [
						{
							"indexed": false,
							"internalType": "uint256",
							"name": "amountWithdrawn",
							"type": "uint256"
						},
						{
							"indexed": false,
							"internalType": "address",
							"name": "payee",
							"type": "address"
						}
					],
					"name": "FundsWithdrawn",
					"type": "event"
				},
				{
					"anonymous": false,
					"inputs": [
						{
							"indexed": false,
							"internalType": "uint256",
							"name": "oldMinWaitPeriod",
							"type": "uint256"
						},
						{
							"indexed": false,
							"internalType": "uint256",
							"name": "newMinWaitPeriod",
							"type": "uint256"
						}
					],
					"name": "MinWaitPeriodUpdated",
					"type": "event"
				},
				{
					"anonymous": false,
					"inputs": [
						{
							"indexed": true,
							"internalType": "address",
							"name": "from",
							"type": "address"
						},
						{
							"indexed": true,
							"internalType": "address",
							"name": "to",
							"type": "address"
						}
					],
					"name": "OwnershipTransferRequested",
					"type": "event"
				},
				{
					"anonymous": false,
					"inputs": [
						{
							"indexed": true,
							"internalType": "address",
							"name": "from",
							"type": "address"
						},
						{
							"indexed": true,
							"internalType": "address",
							"name": "to",
							"type": "address"
						}
					],
					"name": "OwnershipTransferred",
					"type": "event"
				},
				{
					"anonymous": false,
					"inputs": [
						{
							"indexed": false,
							"internalType": "address",
							"name": "account",
							"type": "address"
						}
					],
					"name": "Paused",
					"type": "event"
				},
				{
					"anonymous": false,
					"inputs": [
						{
							"indexed": true,
							"internalType": "address",
							"name": "recipient",
							"type": "address"
						}
					],
					"name": "TopUpFailed",
					"type": "event"
				},
				{
					"anonymous": false,
					"inputs": [
						{
							"indexed": true,
							"internalType": "address",
							"name": "recipient",
							"type": "address"
						}
					],
					"name": "TopUpSucceeded",
					"type": "event"
				},
				{
					"anonymous": false,
					"inputs": [
						{
							"indexed": false,
							"internalType": "address",
							"name": "account",
							"type": "address"
						}
					],
					"name": "Unpaused",
					"type": "event"
				},
				{
					"inputs": [],
					"name": "acceptOwnership",
					"outputs": [],
					"stateMutability": "nonpayable",
					"type": "function"
				},
				{
					"inputs": [
						{
							"internalType": "bytes",
							"name": "",
							"type": "bytes"
						}
					],
					"name": "checkUpkeep",
					"outputs": [
						{
							"internalType": "bool",
							"name": "upkeepNeeded",
							"type": "bool"
						},
						{
							"internalType": "bytes",
							"name": "performData",
							"type": "bytes"
						}
					],
					"stateMutability": "view",
					"type": "function"
				},
				{
					"inputs": [
						{
							"internalType": "address",
							"name": "targetAddress",
							"type": "address"
						}
					],
					"name": "getAccountInfo",
					"outputs": [
						{
							"internalType": "bool",
							"name": "isActive",
							"type": "bool"
						},
						{
							"internalType": "uint96",
							"name": "minBalanceWei",
							"type": "uint96"
						},
						{
							"internalType": "uint96",
							"name": "topUpAmountWei",
							"type": "uint96"
						},
						{
							"internalType": "uint56",
							"name": "lastTopUpTimestamp",
							"type": "uint56"
						}
					],
					"stateMutability": "view",
					"type": "function"
				},
				{
					"inputs": [],
					"name": "getForwarderAddress",
					"outputs": [
						{
							"internalType": "address",
							"name": "forwarderAddress",
							"type": "address"
						}
					],
					"stateMutability": "view",
					"type": "function"
				},
				{
					"inputs": [],
					"name": "getMinWaitPeriodSeconds",
					"outputs": [
						{
							"internalType": "uint256",
							"name": "",
							"type": "uint256"
						}
					],
					"stateMutability": "view",
					"type": "function"
				},
				{
					"inputs": [],
					"name": "getUnderfundedAddresses",
					"outputs": [
						{
							"internalType": "address[]",
							"name": "",
							"type": "address[]"
						}
					],
					"stateMutability": "view",
					"type": "function"
				},
				{
					"inputs": [],
					"name": "getWatchList",
					"outputs": [
						{
							"internalType": "address[]",
							"name": "",
							"type": "address[]"
						}
					],
					"stateMutability": "view",
					"type": "function"
				},
				{
					"inputs": [],
					"name": "owner",
					"outputs": [
						{
							"internalType": "address",
							"name": "",
							"type": "address"
						}
					],
					"stateMutability": "view",
					"type": "function"
				},
				{
					"inputs": [],
					"name": "pause",
					"outputs": [],
					"stateMutability": "nonpayable",
					"type": "function"
				},
				{
					"inputs": [],
					"name": "paused",
					"outputs": [
						{
							"internalType": "bool",
							"name": "",
							"type": "bool"
						}
					],
					"stateMutability": "view",
					"type": "function"
				},
				{
					"inputs": [
						{
							"internalType": "bytes",
							"name": "performData",
							"type": "bytes"
						}
					],
					"name": "performUpkeep",
					"outputs": [],
					"stateMutability": "nonpayable",
					"type": "function"
				},
				{
					"inputs": [
						{
							"internalType": "address",
							"name": "forwarderAddress",
							"type": "address"
						}
					],
					"name": "setForwarderAddress",
					"outputs": [],
					"stateMutability": "nonpayable",
					"type": "function"
				},
				{
					"inputs": [
						{
							"internalType": "uint256",
							"name": "period",
							"type": "uint256"
						}
					],
					"name": "setMinWaitPeriodSeconds",
					"outputs": [],
					"stateMutability": "nonpayable",
					"type": "function"
				},
				{
					"inputs": [
						{
							"internalType": "address[]",
							"name": "addresses",
							"type": "address[]"
						},
						{
							"internalType": "uint96[]",
							"name": "minBalancesWei",
							"type": "uint96[]"
						},
						{
							"internalType": "uint96[]",
							"name": "topUpAmountsWei",
							"type": "uint96[]"
						}
					],
					"name": "setWatchList",
					"outputs": [],
					"stateMutability": "nonpayable",
					"type": "function"
				},
				{
					"inputs": [
						{
							"internalType": "address[]",
							"name": "needsFunding",
							"type": "address[]"
						}
					],
					"name": "topUp",
					"outputs": [],
					"stateMutability": "nonpayable",
					"type": "function"
				},
				{
					"inputs": [
						{
							"internalType": "address",
							"name": "to",
							"type": "address"
						}
					],
					"name": "transferOwnership",
					"outputs": [],
					"stateMutability": "nonpayable",
					"type": "function"
				},
				{
					"inputs": [],
					"name": "unpause",
					"outputs": [],
					"stateMutability": "nonpayable",
					"type": "function"
				},
				{
					"inputs": [
						{
							"internalType": "uint256",
							"name": "amount",
							"type": "uint256"
						},
						{
							"internalType": "address payable",
							"name": "payee",
							"type": "address"
						}
					],
					"name": "withdraw",
					"outputs": [],
					"stateMutability": "nonpayable",
					"type": "function"
				},
				{
					"stateMutability": "payable",
					"type": "receive"
				}
			],
			"devdoc": {
				"events": {
					"Paused(address)": {
						"details": "Emitted when the pause is triggered by `account`."
					},
					"Unpaused(address)": {
						"details": "Emitted when the pause is lifted by `account`."
					}
				},
				"kind": "dev",
				"methods": {
					"checkUpkeep(bytes)": {
						"returns": {
							"upkeepNeeded": "signals if upkeep is needed, performData is an abi encoded list of addresses that need funds"
						}
					},
					"constructor": {
						"params": {
							"minWaitPeriodSeconds": "The minimum wait period for addresses between funding"
						}
					},
					"getUnderfundedAddresses()": {
						"returns": {
							"_0": "list of addresses that are underfunded"
						}
					},
					"paused()": {
						"details": "Returns true if the contract is paused, and false otherwise."
					},
					"performUpkeep(bytes)": {
						"params": {
							"performData": "The abi encoded list of addresses to fund"
						}
					},
					"setWatchList(address[],uint96[],uint96[])": {
						"params": {
							"addresses": "the list of addresses to watch",
							"minBalancesWei": "the minimum balances for each address",
							"topUpAmountsWei": "the amount to top up each address"
						}
					},
					"topUp(address[])": {
						"params": {
							"needsFunding": "the list of addresses to fund (addresses must be pre-approved)"
						}
					},
					"withdraw(uint256,address)": {
						"params": {
							"amount": "The amount of eth (in wei) to withdraw",
							"payee": "The address to pay"
						}
					}
				},
				"version": 1
			},
			"evm": {
				"assembly": "    /* \"docs.chain.link/samples/Automation/tutorials/EthBalanceMonitor.sol\":628:9865  contract EthBalanceMonitor is... */\n  mstore(0x40, 0x80)\n    /* \"docs.chain.link/samples/Automation/tutorials/EthBalanceMonitor.sol\":1829:1960  constructor(uint256 minWaitPeriodSeconds) ConfirmedOwner(msg.sender) {... */\n  callvalue\n  dup1\n  iszero\n  tag_1\n  jumpi\n  0x00\n  dup1\n  revert\ntag_1:\n  pop\n  mload(0x40)\n  sub(codesize, bytecodeSize)\n  dup1\n  bytecodeSize\n  dup4\n  codecopy\n  dup2\n  dup2\n  add\n  0x40\n  mstore\n  dup2\n  add\n  swap1\n  tag_2\n  swap2\n  swap1\n  tag_3\n  jump\t// in\ntag_2:\n    /* \"docs.chain.link/samples/Automation/tutorials/EthBalanceMonitor.sol\":1886:1896  msg.sender */\n  caller\n    /* \"@chainlink/contracts@1.1.0/src/v0.8/shared/access/ConfirmedOwner.sol\":355:363  newOwner */\n  dup1\n    /* \"@chainlink/contracts@1.1.0/src/v0.8/shared/access/ConfirmedOwner.sol\":373:374  0 */\n  0x00\n    /* \"@chainlink/contracts@1.1.0/src/v0.8/shared/access/ConfirmedOwnerWithProposal.sol\":618:619  0 */\n  dup1\n    /* \"@chainlink/contracts@1.1.0/src/v0.8/shared/access/ConfirmedOwnerWithProposal.sol\":598:620  newOwner != address(0) */\n  0xffffffffffffffffffffffffffffffffffffffff\n  and\n    /* \"@chainlink/contracts@1.1.0/src/v0.8/shared/access/ConfirmedOwnerWithProposal.sol\":598:606  newOwner */\n  dup3\n    /* \"@chainlink/contracts@1.1.0/src/v0.8/shared/access/ConfirmedOwnerWithProposal.sol\":598:620  newOwner != address(0) */\n  0xffffffffffffffffffffffffffffffffffffffff\n  and\n  sub\n    /* \"@chainlink/contracts@1.1.0/src/v0.8/shared/access/ConfirmedOwnerWithProposal.sol\":590:649  require(newOwner != address(0), \"Cannot set owner to zero\") */\n  tag_9\n  jumpi\n  mload(0x40)\n  0x08c379a000000000000000000000000000000000000000000000000000000000\n  dup2\n  mstore\n  0x04\n  add\n  tag_10\n  swap1\n  tag_11\n  jump\t// in\ntag_10:\n  mload(0x40)\n  dup1\n  swap2\n  sub\n  swap1\n  revert\ntag_9:\n    /* \"@chainlink/contracts@1.1.0/src/v0.8/shared/access/ConfirmedOwnerWithProposal.sol\":666:674  newOwner */\n  dup2\n    /* \"@chainlink/contracts@1.1.0/src/v0.8/shared/access/ConfirmedOwnerWithProposal.sol\":656:663  s_owner */\n  0x00\n  dup1\n    /* \"@chainlink/contracts@1.1.0/src/v0.8/shared/access/ConfirmedOwnerWithProposal.sol\":656:674  s_owner = newOwner */\n  0x0100\n  exp\n  dup2\n  sload\n  dup2\n  0xffffffffffffffffffffffffffffffffffffffff\n  mul\n  not\n  and\n  swap1\n  dup4\n  0xffffffffffffffffffffffffffffffffffffffff\n  and\n  mul\n  or\n  swap1\n  sstore\n  pop\n    /* \"@chainlink/contracts@1.1.0/src/v0.8/shared/access/ConfirmedOwnerWithProposal.sol\":708:709  0 */\n  0x00\n    /* \"@chainlink/contracts@1.1.0/src/v0.8/shared/access/ConfirmedOwnerWithProposal.sol\":684:710  pendingOwner != address(0) */\n  0xffffffffffffffffffffffffffffffffffffffff\n  and\n    /* \"@chainlink/contracts@1.1.0/src/v0.8/shared/access/ConfirmedOwnerWithProposal.sol\":684:696  pendingOwner */\n  dup2\n    /* \"@chainlink/contracts@1.1.0/src/v0.8/shared/access/ConfirmedOwnerWithProposal.sol\":684:710  pendingOwner != address(0) */\n  0xffffffffffffffffffffffffffffffffffffffff\n  and\n  eq\n    /* \"@chainlink/contracts@1.1.0/src/v0.8/shared/access/ConfirmedOwnerWithProposal.sol\":680:759  if (pendingOwner != address(0)) {... */\n  tag_12\n  jumpi\n    /* \"@chainlink/contracts@1.1.0/src/v0.8/shared/access/ConfirmedOwnerWithProposal.sol\":720:752  _transferOwnership(pendingOwner) */\n  tag_13\n    /* \"@chainlink/contracts@1.1.0/src/v0.8/shared/access/ConfirmedOwnerWithProposal.sol\":739:751  pendingOwner */\n  dup2\n    /* \"@chainlink/contracts@1.1.0/src/v0.8/shared/access/ConfirmedOwnerWithProposal.sol\":720:738  _transferOwnership */\n  shl(0x20, tag_14)\n    /* \"@chainlink/contracts@1.1.0/src/v0.8/shared/access/ConfirmedOwnerWithProposal.sol\":720:752  _transferOwnership(pendingOwner) */\n  0x20\n  shr\n  jump\t// in\ntag_13:\n    /* \"@chainlink/contracts@1.1.0/src/v0.8/shared/access/ConfirmedOwnerWithProposal.sol\":680:759  if (pendingOwner != address(0)) {... */\ntag_12:\n    /* \"@chainlink/contracts@1.1.0/src/v0.8/shared/access/ConfirmedOwnerWithProposal.sol\":481:763  constructor(address newOwner, address pendingOwner) {... */\n  pop\n  pop\n    /* \"@chainlink/contracts@1.1.0/src/v0.8/shared/access/ConfirmedOwner.sol\":298:379  constructor(address newOwner) ConfirmedOwnerWithProposal(newOwner, address(0)) {} */\n  pop\n    /* \"@openzeppelin/contracts/security/Pausable.sol\":1006:1011  false */\n  0x00\n    /* \"@openzeppelin/contracts/security/Pausable.sol\":996:1003  _paused */\n  0x01\n  0x14\n    /* \"@openzeppelin/contracts/security/Pausable.sol\":996:1011  _paused = false */\n  0x0100\n  exp\n  dup2\n  sload\n  dup2\n  0xff\n  mul\n  not\n  and\n  swap1\n  dup4\n  iszero\n  iszero\n  mul\n  or\n  swap1\n  sstore\n  pop\n    /* \"docs.chain.link/samples/Automation/tutorials/EthBalanceMonitor.sol\":1908:1953  setMinWaitPeriodSeconds(minWaitPeriodSeconds) */\n  tag_18\n    /* \"docs.chain.link/samples/Automation/tutorials/EthBalanceMonitor.sol\":1932:1952  minWaitPeriodSeconds */\n  dup2\n    /* \"docs.chain.link/samples/Automation/tutorials/EthBalanceMonitor.sol\":1908:1931  setMinWaitPeriodSeconds */\n  shl(0x20, tag_19)\n    /* \"docs.chain.link/samples/Automation/tutorials/EthBalanceMonitor.sol\":1908:1953  setMinWaitPeriodSeconds(minWaitPeriodSeconds) */\n  0x20\n  shr\n  jump\t// in\ntag_18:\n    /* \"docs.chain.link/samples/Automation/tutorials/EthBalanceMonitor.sol\":1829:1960  constructor(uint256 minWaitPeriodSeconds) ConfirmedOwner(msg.sender) {... */\n  pop\n    /* \"docs.chain.link/samples/Automation/tutorials/EthBalanceMonitor.sol\":628:9865  contract EthBalanceMonitor is... */\n  jump(tag_20)\n    /* \"@chainlink/contracts@1.1.0/src/v0.8/shared/access/ConfirmedOwnerWithProposal.sol\":1536:1775  function _transferOwnership(address to) private {... */\ntag_14:\n    /* \"@chainlink/contracts@1.1.0/src/v0.8/shared/access/ConfirmedOwnerWithProposal.sol\":1655:1665  msg.sender */\n  caller\n    /* \"@chainlink/contracts@1.1.0/src/v0.8/shared/access/ConfirmedOwnerWithProposal.sol\":1649:1665  to != msg.sender */\n  0xffffffffffffffffffffffffffffffffffffffff\n  and\n    /* \"@chainlink/contracts@1.1.0/src/v0.8/shared/access/ConfirmedOwnerWithProposal.sol\":1649:1651  to */\n  dup2\n    /* \"@chainlink/contracts@1.1.0/src/v0.8/shared/access/ConfirmedOwnerWithProposal.sol\":1649:1665  to != msg.sender */\n  0xffffffffffffffffffffffffffffffffffffffff\n  and\n  sub\n    /* \"@chainlink/contracts@1.1.0/src/v0.8/shared/access/ConfirmedOwnerWithProposal.sol\":1641:1693  require(to != msg.sender, \"Cannot transfer to self\") */\n  tag_22\n  jumpi\n  mload(0x40)\n  0x08c379a000000000000000000000000000000000000000000000000000000000\n  dup2\n  mstore\n  0x04\n  add\n  tag_23\n  swap1\n  tag_24\n  jump\t// in\ntag_23:\n  mload(0x40)\n  dup1\n  swap2\n  sub\n  swap1\n  revert\ntag_22:\n    /* \"@chainlink/contracts@1.1.0/src/v0.8/shared/access/ConfirmedOwnerWithProposal.sol\":1717:1719  to */\n  dup1\n    /* \"@chainlink/contracts@1.1.0/src/v0.8/shared/access/ConfirmedOwnerWithProposal.sol\":1700:1714  s_pendingOwner */\n  0x01\n  0x00\n    /* \"@chainlink/contracts@1.1.0/src/v0.8/shared/access/ConfirmedOwnerWithProposal.sol\":1700:1719  s_pendingOwner = to */\n  0x0100\n  exp\n  dup2\n  sload\n  dup2\n  0xffffffffffffffffffffffffffffffffffffffff\n  mul\n  not\n  and\n  swap1\n  dup4\n  0xffffffffffffffffffffffffffffffffffffffff\n  and\n  mul\n  or\n  swap1\n  sstore\n  pop\n    /* \"@chainlink/contracts@1.1.0/src/v0.8/shared/access/ConfirmedOwnerWithProposal.sol\":1767:1769  to */\n  dup1\n    /* \"@chainlink/contracts@1.1.0/src/v0.8/shared/access/ConfirmedOwnerWithProposal.sol\":1731:1770  OwnershipTransferRequested(s_owner, to) */\n  0xffffffffffffffffffffffffffffffffffffffff\n  and\n    /* \"@chainlink/contracts@1.1.0/src/v0.8/shared/access/ConfirmedOwnerWithProposal.sol\":1758:1765  s_owner */\n  0x00\n  dup1\n  sload\n  swap1\n  0x0100\n  exp\n  swap1\n  div\n  0xffffffffffffffffffffffffffffffffffffffff\n  and\n    /* \"@chainlink/contracts@1.1.0/src/v0.8/shared/access/ConfirmedOwnerWithProposal.sol\":1731:1770  OwnershipTransferRequested(s_owner, to) */\n  0xffffffffffffffffffffffffffffffffffffffff\n  and\n  0xed8889f560326eb138920d842192f0eb3dd22b4f139c87a2c57538e05bae1278\n  mload(0x40)\n  mload(0x40)\n  dup1\n  swap2\n  sub\n  swap1\n  log3\n    /* \"@chainlink/contracts@1.1.0/src/v0.8/shared/access/ConfirmedOwnerWithProposal.sol\":1536:1775  function _transferOwnership(address to) private {... */\n  pop\n  jump\t// out\n    /* \"docs.chain.link/samples/Automation/tutorials/EthBalanceMonitor.sol\":8066:8247  function setMinWaitPeriodSeconds(uint256 period) public onlyOwner {... */\ntag_19:\n    /* \"@chainlink/contracts@1.1.0/src/v0.8/shared/access/ConfirmedOwnerWithProposal.sol\":2075:2095  _validateOwnership() */\n  tag_26\n    /* \"@chainlink/contracts@1.1.0/src/v0.8/shared/access/ConfirmedOwnerWithProposal.sol\":2075:2093  _validateOwnership */\n  shl(0x20, tag_27)\n    /* \"@chainlink/contracts@1.1.0/src/v0.8/shared/access/ConfirmedOwnerWithProposal.sol\":2075:2095  _validateOwnership() */\n  0x20\n  shr\n  jump\t// in\ntag_26:\n    /* \"docs.chain.link/samples/Automation/tutorials/EthBalanceMonitor.sol\":8147:8199  MinWaitPeriodUpdated(s_minWaitPeriodSeconds, period) */\n  0x04330086c73b1fe1e13cd47a61c692e7c4399b5de08ed94b7ab824684af09323\n    /* \"docs.chain.link/samples/Automation/tutorials/EthBalanceMonitor.sol\":8168:8190  s_minWaitPeriodSeconds */\n  sload(0x03)\n    /* \"docs.chain.link/samples/Automation/tutorials/EthBalanceMonitor.sol\":8192:8198  period */\n  dup3\n    /* \"docs.chain.link/samples/Automation/tutorials/EthBalanceMonitor.sol\":8147:8199  MinWaitPeriodUpdated(s_minWaitPeriodSeconds, period) */\n  mload(0x40)\n  tag_29\n  swap3\n  swap2\n  swap1\n  tag_30\n  jump\t// in\ntag_29:\n  mload(0x40)\n  dup1\n  swap2\n  sub\n  swap1\n  log1\n    /* \"docs.chain.link/samples/Automation/tutorials/EthBalanceMonitor.sol\":8234:8240  period */\n  dup1\n    /* \"docs.chain.link/samples/Automation/tutorials/EthBalanceMonitor.sol\":8209:8231  s_minWaitPeriodSeconds */\n  0x03\n    /* \"docs.chain.link/samples/Automation/tutorials/EthBalanceMonitor.sol\":8209:8240  s_minWaitPeriodSeconds = period */\n  dup2\n  swap1\n  sstore\n  pop\n    /* \"docs.chain.link/samples/Automation/tutorials/EthBalanceMonitor.sol\":8066:8247  function setMinWaitPeriodSeconds(uint256 period) public onlyOwner {... */\n  pop\n  jump\t// out\n    /* \"@chainlink/contracts@1.1.0/src/v0.8/shared/access/ConfirmedOwnerWithProposal.sol\":1809:1971  function _validateOwnership() internal view {... */\ntag_27:\n    /* \"@chainlink/contracts@1.1.0/src/v0.8/shared/access/ConfirmedOwnerWithProposal.sol\":1932:1939  s_owner */\n  0x00\n  dup1\n  sload\n  swap1\n  0x0100\n  exp\n  swap1\n  div\n  0xffffffffffffffffffffffffffffffffffffffff\n  and\n    /* \"@chainlink/contracts@1.1.0/src/v0.8/shared/access/ConfirmedOwnerWithProposal.sol\":1918:1939  msg.sender == s_owner */\n  0xffffffffffffffffffffffffffffffffffffffff\n  and\n    /* \"@chainlink/contracts@1.1.0/src/v0.8/shared/access/ConfirmedOwnerWithProposal.sol\":1918:1928  msg.sender */\n  caller\n    /* \"@chainlink/contracts@1.1.0/src/v0.8/shared/access/ConfirmedOwnerWithProposal.sol\":1918:1939  msg.sender == s_owner */\n  0xffffffffffffffffffffffffffffffffffffffff\n  and\n  eq\n    /* \"@chainlink/contracts@1.1.0/src/v0.8/shared/access/ConfirmedOwnerWithProposal.sol\":1910:1966  require(msg.sender == s_owner, \"Only callable by owner\") */\n  tag_32\n  jumpi\n  mload(0x40)\n  0x08c379a000000000000000000000000000000000000000000000000000000000\n  dup2\n  mstore\n  0x04\n  add\n  tag_33\n  swap1\n  tag_34\n  jump\t// in\ntag_33:\n  mload(0x40)\n  dup1\n  swap2\n  sub\n  swap1\n  revert\ntag_32:\n    /* \"@chainlink/contracts@1.1.0/src/v0.8/shared/access/ConfirmedOwnerWithProposal.sol\":1809:1971  function _validateOwnership() internal view {... */\n  jump\t// out\n    /* \"#utility.yul\":88:205   */\ntag_36:\n    /* \"#utility.yul\":197:198   */\n  0x00\n    /* \"#utility.yul\":194:195   */\n  dup1\n    /* \"#utility.yul\":187:199   */\n  revert\n    /* \"#utility.yul\":334:411   */\ntag_38:\n    /* \"#utility.yul\":371:378   */\n  0x00\n    /* \"#utility.yul\":400:405   */\n  dup2\n    /* \"#utility.yul\":389:405   */\n  swap1\n  pop\n    /* \"#utility.yul\":334:411   */\n  swap2\n  swap1\n  pop\n  jump\t// out\n    /* \"#utility.yul\":417:539   */\ntag_39:\n    /* \"#utility.yul\":490:514   */\n  tag_55\n    /* \"#utility.yul\":508:513   */\n  dup2\n    /* \"#utility.yul\":490:514   */\n  tag_38\n  jump\t// in\ntag_55:\n    /* \"#utility.yul\":483:488   */\n  dup2\n    /* \"#utility.yul\":480:515   */\n  eq\n    /* \"#utility.yul\":470:533   */\n  tag_56\n  jumpi\n    /* \"#utility.yul\":529:530   */\n  0x00\n    /* \"#utility.yul\":526:527   */\n  dup1\n    /* \"#utility.yul\":519:531   */\n  revert\n    /* \"#utility.yul\":470:533   */\ntag_56:\n    /* \"#utility.yul\":417:539   */\n  pop\n  jump\t// out\n    /* \"#utility.yul\":545:688   */\ntag_40:\n    /* \"#utility.yul\":602:607   */\n  0x00\n    /* \"#utility.yul\":633:639   */\n  dup2\n    /* \"#utility.yul\":627:640   */\n  mload\n    /* \"#utility.yul\":618:640   */\n  swap1\n  pop\n    /* \"#utility.yul\":649:682   */\n  tag_58\n    /* \"#utility.yul\":676:681   */\n  dup2\n    /* \"#utility.yul\":649:682   */\n  tag_39\n  jump\t// in\ntag_58:\n    /* \"#utility.yul\":545:688   */\n  swap3\n  swap2\n  pop\n  pop\n  jump\t// out\n    /* \"#utility.yul\":694:1045   */\ntag_3:\n    /* \"#utility.yul\":764:770   */\n  0x00\n    /* \"#utility.yul\":813:815   */\n  0x20\n    /* \"#utility.yul\":801:810   */\n  dup3\n    /* \"#utility.yul\":792:799   */\n  dup5\n    /* \"#utility.yul\":788:811   */\n  sub\n    /* \"#utility.yul\":784:816   */\n  slt\n    /* \"#utility.yul\":781:900   */\n  iszero\n  tag_60\n  jumpi\n    /* \"#utility.yul\":819:898   */\n  tag_61\n  tag_36\n  jump\t// in\ntag_61:\n    /* \"#utility.yul\":781:900   */\ntag_60:\n    /* \"#utility.yul\":939:940   */\n  0x00\n    /* \"#utility.yul\":964:1028   */\n  tag_62\n    /* \"#utility.yul\":1020:1027   */\n  dup5\n    /* \"#utility.yul\":1011:1017   */\n  dup3\n    /* \"#utility.yul\":1000:1009   */\n  dup6\n    /* \"#utility.yul\":996:1018   */\n  add\n    /* \"#utility.yul\":964:1028   */\n  tag_40\n  jump\t// in\ntag_62:\n    /* \"#utility.yul\":954:1028   */\n  swap2\n  pop\n    /* \"#utility.yul\":910:1038   */\n  pop\n    /* \"#utility.yul\":694:1045   */\n  swap3\n  swap2\n  pop\n  pop\n  jump\t// out\n    /* \"#utility.yul\":1051:1220   */\ntag_41:\n    /* \"#utility.yul\":1135:1146   */\n  0x00\n    /* \"#utility.yul\":1169:1175   */\n  dup3\n    /* \"#utility.yul\":1164:1167   */\n  dup3\n    /* \"#utility.yul\":1157:1176   */\n  mstore\n    /* \"#utility.yul\":1209:1213   */\n  0x20\n    /* \"#utility.yul\":1204:1207   */\n  dup3\n    /* \"#utility.yul\":1200:1214   */\n  add\n    /* \"#utility.yul\":1185:1214   */\n  swap1\n  pop\n    /* \"#utility.yul\":1051:1220   */\n  swap3\n  swap2\n  pop\n  pop\n  jump\t// out\n    /* \"#utility.yul\":1226:1400   */\ntag_42:\n    /* \"#utility.yul\":1366:1392   */\n  0x43616e6e6f7420736574206f776e657220746f207a65726f0000000000000000\n    /* \"#utility.yul\":1362:1363   */\n  0x00\n    /* \"#utility.yul\":1354:1360   */\n  dup3\n    /* \"#utility.yul\":1350:1364   */\n  add\n    /* \"#utility.yul\":1343:1393   */\n  mstore\n    /* \"#utility.yul\":1226:1400   */\n  pop\n  jump\t// out\n    /* \"#utility.yul\":1406:1772   */\ntag_43:\n    /* \"#utility.yul\":1548:1551   */\n  0x00\n    /* \"#utility.yul\":1569:1636   */\n  tag_66\n    /* \"#utility.yul\":1633:1635   */\n  0x18\n    /* \"#utility.yul\":1628:1631   */\n  dup4\n    /* \"#utility.yul\":1569:1636   */\n  tag_41\n  jump\t// in\ntag_66:\n    /* \"#utility.yul\":1562:1636   */\n  swap2\n  pop\n    /* \"#utility.yul\":1645:1738   */\n  tag_67\n    /* \"#utility.yul\":1734:1737   */\n  dup3\n    /* \"#utility.yul\":1645:1738   */\n  tag_42\n  jump\t// in\ntag_67:\n    /* \"#utility.yul\":1763:1765   */\n  0x20\n    /* \"#utility.yul\":1758:1761   */\n  dup3\n    /* \"#utility.yul\":1754:1766   */\n  add\n    /* \"#utility.yul\":1747:1766   */\n  swap1\n  pop\n    /* \"#utility.yul\":1406:1772   */\n  swap2\n  swap1\n  pop\n  jump\t// out\n    /* \"#utility.yul\":1778:2197   */\ntag_11:\n    /* \"#utility.yul\":1944:1948   */\n  0x00\n    /* \"#utility.yul\":1982:1984   */\n  0x20\n    /* \"#utility.yul\":1971:1980   */\n  dup3\n    /* \"#utility.yul\":1967:1985   */\n  add\n    /* \"#utility.yul\":1959:1985   */\n  swap1\n  pop\n    /* \"#utility.yul\":2031:2040   */\n  dup2\n    /* \"#utility.yul\":2025:2029   */\n  dup2\n    /* \"#utility.yul\":2021:2041   */\n  sub\n    /* \"#utility.yul\":2017:2018   */\n  0x00\n    /* \"#utility.yul\":2006:2015   */\n  dup4\n    /* \"#utility.yul\":2002:2019   */\n  add\n    /* \"#utility.yul\":1995:2042   */\n  mstore\n    /* \"#utility.yul\":2059:2190   */\n  tag_69\n    /* \"#utility.yul\":2185:2189   */\n  dup2\n    /* \"#utility.yul\":2059:2190   */\n  tag_43\n  jump\t// in\ntag_69:\n    /* \"#utility.yul\":2051:2190   */\n  swap1\n  pop\n    /* \"#utility.yul\":1778:2197   */\n  swap2\n  swap1\n  pop\n  jump\t// out\n    /* \"#utility.yul\":2203:2376   */\ntag_44:\n    /* \"#utility.yul\":2343:2368   */\n  0x43616e6e6f74207472616e7366657220746f2073656c66000000000000000000\n    /* \"#utility.yul\":2339:2340   */\n  0x00\n    /* \"#utility.yul\":2331:2337   */\n  dup3\n    /* \"#utility.yul\":2327:2341   */\n  add\n    /* \"#utility.yul\":2320:2369   */\n  mstore\n    /* \"#utility.yul\":2203:2376   */\n  pop\n  jump\t// out\n    /* \"#utility.yul\":2382:2748   */\ntag_45:\n    /* \"#utility.yul\":2524:2527   */\n  0x00\n    /* \"#utility.yul\":2545:2612   */\n  tag_72\n    /* \"#utility.yul\":2609:2611   */\n  0x17\n    /* \"#utility.yul\":2604:2607   */\n  dup4\n    /* \"#utility.yul\":2545:2612   */\n  tag_41\n  jump\t// in\ntag_72:\n    /* \"#utility.yul\":2538:2612   */\n  swap2\n  pop\n    /* \"#utility.yul\":2621:2714   */\n  tag_73\n    /* \"#utility.yul\":2710:2713   */\n  dup3\n    /* \"#utility.yul\":2621:2714   */\n  tag_44\n  jump\t// in\ntag_73:\n    /* \"#utility.yul\":2739:2741   */\n  0x20\n    /* \"#utility.yul\":2734:2737   */\n  dup3\n    /* \"#utility.yul\":2730:2742   */\n  add\n    /* \"#utility.yul\":2723:2742   */\n  swap1\n  pop\n    /* \"#utility.yul\":2382:2748   */\n  swap2\n  swap1\n  pop\n  jump\t// out\n    /* \"#utility.yul\":2754:3173   */\ntag_24:\n    /* \"#utility.yul\":2920:2924   */\n  0x00\n    /* \"#utility.yul\":2958:2960   */\n  0x20\n    /* \"#utility.yul\":2947:2956   */\n  dup3\n    /* \"#utility.yul\":2943:2961   */\n  add\n    /* \"#utility.yul\":2935:2961   */\n  swap1\n  pop\n    /* \"#utility.yul\":3007:3016   */\n  dup2\n    /* \"#utility.yul\":3001:3005   */\n  dup2\n    /* \"#utility.yul\":2997:3017   */\n  sub\n    /* \"#utility.yul\":2993:2994   */\n  0x00\n    /* \"#utility.yul\":2982:2991   */\n  dup4\n    /* \"#utility.yul\":2978:2995   */\n  add\n    /* \"#utility.yul\":2971:3018   */\n  mstore\n    /* \"#utility.yul\":3035:3166   */\n  tag_75\n    /* \"#utility.yul\":3161:3165   */\n  dup2\n    /* \"#utility.yul\":3035:3166   */\n  tag_45\n  jump\t// in\ntag_75:\n    /* \"#utility.yul\":3027:3166   */\n  swap1\n  pop\n    /* \"#utility.yul\":2754:3173   */\n  swap2\n  swap1\n  pop\n  jump\t// out\n    /* \"#utility.yul\":3179:3297   */\ntag_46:\n    /* \"#utility.yul\":3266:3290   */\n  tag_77\n    /* \"#utility.yul\":3284:3289   */\n  dup2\n    /* \"#utility.yul\":3266:3290   */\n  tag_38\n  jump\t// in\ntag_77:\n    /* \"#utility.yul\":3261:3264   */\n  dup3\n    /* \"#utility.yul\":3254:3291   */\n  mstore\n    /* \"#utility.yul\":3179:3297   */\n  pop\n  pop\n  jump\t// out\n    /* \"#utility.yul\":3303:3635   */\ntag_30:\n    /* \"#utility.yul\":3424:3428   */\n  0x00\n    /* \"#utility.yul\":3462:3464   */\n  0x40\n    /* \"#utility.yul\":3451:3460   */\n  dup3\n    /* \"#utility.yul\":3447:3465   */\n  add\n    /* \"#utility.yul\":3439:3465   */\n  swap1\n  pop\n    /* \"#utility.yul\":3475:3546   */\n  tag_79\n    /* \"#utility.yul\":3543:3544   */\n  0x00\n    /* \"#utility.yul\":3532:3541   */\n  dup4\n    /* \"#utility.yul\":3528:3545   */\n  add\n    /* \"#utility.yul\":3519:3525   */\n  dup6\n    /* \"#utility.yul\":3475:3546   */\n  tag_46\n  jump\t// in\ntag_79:\n    /* \"#utility.yul\":3556:3628   */\n  tag_80\n    /* \"#utility.yul\":3624:3626   */\n  0x20\n    /* \"#utility.yul\":3613:3622   */\n  dup4\n    /* \"#utility.yul\":3609:3627   */\n  add\n    /* \"#utility.yul\":3600:3606   */\n  dup5\n    /* \"#utility.yul\":3556:3628   */\n  tag_46\n  jump\t// in\ntag_80:\n    /* \"#utility.yul\":3303:3635   */\n  swap4\n  swap3\n  pop\n  pop\n  pop\n  jump\t// out\n    /* \"#utility.yul\":3641:3813   */\ntag_47:\n    /* \"#utility.yul\":3781:3805   */\n  0x4f6e6c792063616c6c61626c65206279206f776e657200000000000000000000\n    /* \"#utility.yul\":3777:3778   */\n  0x00\n    /* \"#utility.yul\":3769:3775   */\n  dup3\n    /* \"#utility.yul\":3765:3779   */\n  add\n    /* \"#utility.yul\":3758:3806   */\n  mstore\n    /* \"#utility.yul\":3641:3813   */\n  pop\n  jump\t// out\n    /* \"#utility.yul\":3819:4185   */\ntag_48:\n    /* \"#utility.yul\":3961:3964   */\n  0x00\n    /* \"#utility.yul\":3982:4049   */\n  tag_83\n    /* \"#utility.yul\":4046:4048   */\n  0x16\n    /* \"#utility.yul\":4041:4044   */\n  dup4\n    /* \"#utility.yul\":3982:4049   */\n  tag_41\n  jump\t// in\ntag_83:\n    /* \"#utility.yul\":3975:4049   */\n  swap2\n  pop\n    /* \"#utility.yul\":4058:4151   */\n  tag_84\n    /* \"#utility.yul\":4147:4150   */\n  dup3\n    /* \"#utility.yul\":4058:4151   */\n  tag_47\n  jump\t// in\ntag_84:\n    /* \"#utility.yul\":4176:4178   */\n  0x20\n    /* \"#utility.yul\":4171:4174   */\n  dup3\n    /* \"#utility.yul\":4167:4179   */\n  add\n    /* \"#utility.yul\":4160:4179   */\n  swap1\n  pop\n    /* \"#utility.yul\":3819:4185   */\n  swap2\n  swap1\n  pop\n  jump\t// out\n    /* \"#utility.yul\":4191:4610   */\ntag_34:\n    /* \"#utility.yul\":4357:4361   */\n  0x00\n    /* \"#utility.yul\":4395:4397   */\n  0x20\n    /* \"#utility.yul\":4384:4393   */\n  dup3\n    /* \"#utility.yul\":4380:4398   */\n  add\n    /* \"#utility.yul\":4372:4398   */\n  swap1\n  pop\n    /* \"#utility.yul\":4444:4453   */\n  dup2\n    /* \"#utility.yul\":4438:4442   */\n  dup2\n    /* \"#utility.yul\":4434:4454   */\n  sub\n    /* \"#utility.yul\":4430:4431   */\n  0x00\n    /* \"#utility.yul\":4419:4428   */\n  dup4\n    /* \"#utility.yul\":4415:4432   */\n  add\n    /* \"#utility.yul\":4408:4455   */\n  mstore\n    /* \"#utility.yul\":4472:4603   */\n  tag_86\n    /* \"#utility.yul\":4598:4602   */\n  dup2\n    /* \"#utility.yul\":4472:4603   */\n  tag_48\n  jump\t// in\ntag_86:\n    /* \"#utility.yul\":4464:4603   */\n  swap1\n  pop\n    /* \"#utility.yul\":4191:4610   */\n  swap2\n  swap1\n  pop\n  jump\t// out\n    /* \"docs.chain.link/samples/Automation/tutorials/EthBalanceMonitor.sol\":628:9865  contract EthBalanceMonitor is... */\ntag_20:\n  dataSize(sub_0)\n  dup1\n  dataOffset(sub_0)\n  0x00\n  codecopy\n  0x00\n  return\nstop\n\nsub_0: assembly {\n        /* \"docs.chain.link/samples/Automation/tutorials/EthBalanceMonitor.sol\":628:9865  contract EthBalanceMonitor is... */\n      mstore(0x40, 0x80)\n      jumpi(tag_1, lt(calldatasize, 0x04))\n      shr(0xe0, calldataload(0x00))\n      dup1\n      0x6e04ff0d\n      gt\n      tag_21\n      jumpi\n      dup1\n      0x8456cb59\n      gt\n      tag_22\n      jumpi\n      dup1\n      0x8456cb59\n      eq\n      tag_16\n      jumpi\n      dup1\n      0x8da5cb5b\n      eq\n      tag_17\n      jumpi\n      dup1\n      0xb1d52fa0\n      eq\n      tag_18\n      jumpi\n      dup1\n      0xd777cc6d\n      eq\n      tag_19\n      jumpi\n      dup1\n      0xf2fde38b\n      eq\n      tag_20\n      jumpi\n      jump(tag_2)\n    tag_22:\n      dup1\n      0x6e04ff0d\n      eq\n      tag_12\n      jumpi\n      dup1\n      0x728584b7\n      eq\n      tag_13\n      jumpi\n      dup1\n      0x79ba5097\n      eq\n      tag_14\n      jumpi\n      dup1\n      0x7b510fe8\n      eq\n      tag_15\n      jumpi\n      jump(tag_2)\n    tag_21:\n      dup1\n      0x3f4ba83a\n      gt\n      tag_23\n      jumpi\n      dup1\n      0x3f4ba83a\n      eq\n      tag_7\n      jumpi\n      dup1\n      0x3f85861f\n      eq\n      tag_8\n      jumpi\n      dup1\n      0x41d2052e\n      eq\n      tag_9\n      jumpi\n      dup1\n      0x4585e33b\n      eq\n      tag_10\n      jumpi\n      dup1\n      0x5c975abb\n      eq\n      tag_11\n      jumpi\n      jump(tag_2)\n    tag_23:\n      dup1\n      0xf714ce\n      eq\n      tag_3\n      jumpi\n      dup1\n      0x0b67ddce\n      eq\n      tag_4\n      jumpi\n      dup1\n      0x3441856f\n      eq\n      tag_5\n      jumpi\n      dup1\n      0x3e4ca677\n      eq\n      tag_6\n      jumpi\n      jump(tag_2)\n    tag_1:\n      jumpi(tag_2, calldatasize)\n        /* \"docs.chain.link/samples/Automation/tutorials/EthBalanceMonitor.sol\":7438:7494  FundsAdded(msg.value, address(this).balance, msg.sender) */\n      0xc6f3fb0fec49e4877342d4625d77a632541f55b7aae0f9d0b34c69b3478706dc\n        /* \"docs.chain.link/samples/Automation/tutorials/EthBalanceMonitor.sol\":7449:7458  msg.value */\n      callvalue\n        /* \"docs.chain.link/samples/Automation/tutorials/EthBalanceMonitor.sol\":7460:7481  address(this).balance */\n      selfbalance\n        /* \"docs.chain.link/samples/Automation/tutorials/EthBalanceMonitor.sol\":7483:7493  msg.sender */\n      caller\n        /* \"docs.chain.link/samples/Automation/tutorials/EthBalanceMonitor.sol\":7438:7494  FundsAdded(msg.value, address(this).balance, msg.sender) */\n      mload(0x40)\n      tag_26\n      swap4\n      swap3\n      swap2\n      swap1\n      tag_27\n      jump\t// in\n    tag_26:\n      mload(0x40)\n      dup1\n      swap2\n      sub\n      swap1\n      log1\n        /* \"docs.chain.link/samples/Automation/tutorials/EthBalanceMonitor.sol\":628:9865  contract EthBalanceMonitor is... */\n      stop\n    tag_2:\n      0x00\n      dup1\n      revert\n        /* \"docs.chain.link/samples/Automation/tutorials/EthBalanceMonitor.sol\":7126:7345  function withdraw(... */\n    tag_3:\n      callvalue\n      dup1\n      iszero\n      tag_28\n      jumpi\n      0x00\n      dup1\n      revert\n    tag_28:\n      pop\n      tag_29\n      0x04\n      dup1\n      calldatasize\n      sub\n      dup2\n      add\n      swap1\n      tag_30\n      swap2\n      swap1\n      tag_31\n      jump\t// in\n    tag_30:\n      tag_32\n      jump\t// in\n    tag_29:\n      stop\n        /* \"docs.chain.link/samples/Automation/tutorials/EthBalanceMonitor.sol\":3616:4634  function getUnderfundedAddresses() public view returns (address[] memory) {... */\n    tag_4:\n      callvalue\n      dup1\n      iszero\n      tag_33\n      jumpi\n      0x00\n      dup1\n      revert\n    tag_33:\n      pop\n      tag_34\n      tag_35\n      jump\t// in\n    tag_34:\n      mload(0x40)\n      tag_36\n      swap2\n      swap1\n      tag_37\n      jump\t// in\n    tag_36:\n      mload(0x40)\n      dup1\n      swap2\n      sub\n      swap1\n      return\n        /* \"docs.chain.link/samples/Automation/tutorials/EthBalanceMonitor.sol\":8346:8496  function getForwarderAddress()... */\n    tag_5:\n      callvalue\n      dup1\n      iszero\n      tag_38\n      jumpi\n      0x00\n      dup1\n      revert\n    tag_38:\n      pop\n      tag_39\n      tag_40\n      jump\t// in\n    tag_39:\n      mload(0x40)\n      tag_41\n      swap2\n      swap1\n      tag_42\n      jump\t// in\n    tag_41:\n      mload(0x40)\n      dup1\n      swap2\n      sub\n      swap1\n      return\n        /* \"docs.chain.link/samples/Automation/tutorials/EthBalanceMonitor.sol\":4798:5889  function topUp(address[] memory needsFunding) public whenNotPaused {... */\n    tag_6:\n      callvalue\n      dup1\n      iszero\n      tag_43\n      jumpi\n      0x00\n      dup1\n      revert\n    tag_43:\n      pop\n      tag_44\n      0x04\n      dup1\n      calldatasize\n      sub\n      dup2\n      add\n      swap1\n      tag_45\n      swap2\n      swap1\n      tag_46\n      jump\t// in\n    tag_45:\n      tag_47\n      jump\t// in\n    tag_44:\n      stop\n        /* \"docs.chain.link/samples/Automation/tutorials/EthBalanceMonitor.sol\":9655:9720  function unpause() external onlyOwner {... */\n    tag_7:\n      callvalue\n      dup1\n      iszero\n      tag_48\n      jumpi\n      0x00\n      dup1\n      revert\n    tag_48:\n      pop\n      tag_49\n      tag_50\n      jump\t// in\n    tag_49:\n      stop\n        /* \"docs.chain.link/samples/Automation/tutorials/EthBalanceMonitor.sol\":8066:8247  function setMinWaitPeriodSeconds(uint256 period) public onlyOwner {... */\n    tag_8:\n      callvalue\n      dup1\n      iszero\n      tag_51\n      jumpi\n      0x00\n      dup1\n      revert\n    tag_51:\n      pop\n      tag_52\n      0x04\n      dup1\n      calldatasize\n      sub\n      dup2\n      add\n      swap1\n      tag_53\n      swap2\n      swap1\n      tag_54\n      jump\t// in\n    tag_53:\n      tag_55\n      jump\t// in\n    tag_52:\n      stop\n        /* \"docs.chain.link/samples/Automation/tutorials/EthBalanceMonitor.sol\":8562:8675  function getMinWaitPeriodSeconds() external view returns (uint256) {... */\n    tag_9:\n      callvalue\n      dup1\n      iszero\n      tag_56\n      jumpi\n      0x00\n      dup1\n      revert\n    tag_56:\n      pop\n      tag_57\n      tag_58\n      jump\t// in\n    tag_57:\n      mload(0x40)\n      tag_59\n      swap2\n      swap1\n      tag_60\n      jump\t// in\n    tag_59:\n      mload(0x40)\n      dup1\n      swap2\n      sub\n      swap1\n      return\n        /* \"docs.chain.link/samples/Automation/tutorials/EthBalanceMonitor.sol\":6734:6959  function performUpkeep(... */\n    tag_10:\n      callvalue\n      dup1\n      iszero\n      tag_61\n      jumpi\n      0x00\n      dup1\n      revert\n    tag_61:\n      pop\n      tag_62\n      0x04\n      dup1\n      calldatasize\n      sub\n      dup2\n      add\n      swap1\n      tag_63\n      swap2\n      swap1\n      tag_64\n      jump\t// in\n    tag_63:\n      tag_65\n      jump\t// in\n    tag_62:\n      stop\n        /* \"@openzeppelin/contracts/security/Pausable.sol\":1615:1699  function paused() public view virtual returns (bool) {... */\n    tag_11:\n      callvalue\n      dup1\n      iszero\n      tag_66\n      jumpi\n      0x00\n      dup1\n      revert\n    tag_66:\n      pop\n      tag_67\n      tag_68\n      jump\t// in\n    tag_67:\n      mload(0x40)\n      tag_69\n      swap2\n      swap1\n      tag_70\n      jump\t// in\n    tag_69:\n      mload(0x40)\n      dup1\n      swap2\n      sub\n      swap1\n      return\n        /* \"docs.chain.link/samples/Automation/tutorials/EthBalanceMonitor.sol\":6154:6554  function checkUpkeep(... */\n    tag_12:\n      callvalue\n      dup1\n      iszero\n      tag_71\n      jumpi\n      0x00\n      dup1\n      revert\n    tag_71:\n      pop\n      tag_72\n      0x04\n      dup1\n      calldatasize\n      sub\n      dup2\n      add\n      swap1\n      tag_73\n      swap2\n      swap1\n      tag_64\n      jump\t// in\n    tag_73:\n      tag_74\n      jump\t// in\n    tag_72:\n      mload(0x40)\n      tag_75\n      swap3\n      swap2\n      swap1\n      tag_76\n      jump\t// in\n    tag_75:\n      mload(0x40)\n      dup1\n      swap2\n      sub\n      swap1\n      return\n        /* \"docs.chain.link/samples/Automation/tutorials/EthBalanceMonitor.sol\":8753:8853  function getWatchList() external view returns (address[] memory) {... */\n    tag_13:\n      callvalue\n      dup1\n      iszero\n      tag_77\n      jumpi\n      0x00\n      dup1\n      revert\n    tag_77:\n      pop\n      tag_78\n      tag_79\n      jump\t// in\n    tag_78:\n      mload(0x40)\n      tag_80\n      swap2\n      swap1\n      tag_37\n      jump\t// in\n    tag_80:\n      mload(0x40)\n      dup1\n      swap2\n      sub\n      swap1\n      return\n        /* \"@chainlink/contracts@1.1.0/src/v0.8/shared/access/ConfirmedOwnerWithProposal.sol\":1026:1342  function acceptOwnership() external override {... */\n    tag_14:\n      callvalue\n      dup1\n      iszero\n      tag_81\n      jumpi\n      0x00\n      dup1\n      revert\n    tag_81:\n      pop\n      tag_82\n      tag_83\n      jump\t// in\n    tag_82:\n      stop\n        /* \"docs.chain.link/samples/Automation/tutorials/EthBalanceMonitor.sol\":8953:9438  function getAccountInfo(... */\n    tag_15:\n      callvalue\n      dup1\n      iszero\n      tag_84\n      jumpi\n      0x00\n      dup1\n      revert\n    tag_84:\n      pop\n      tag_85\n      0x04\n      dup1\n      calldatasize\n      sub\n      dup2\n      add\n      swap1\n      tag_86\n      swap2\n      swap1\n      tag_87\n      jump\t// in\n    tag_86:\n      tag_88\n      jump\t// in\n    tag_85:\n      mload(0x40)\n      tag_89\n      swap5\n      swap4\n      swap3\n      swap2\n      swap1\n      tag_90\n      jump\t// in\n    tag_89:\n      mload(0x40)\n      dup1\n      swap2\n      sub\n      swap1\n      return\n        /* \"docs.chain.link/samples/Automation/tutorials/EthBalanceMonitor.sol\":9535:9596  function pause() external onlyOwner {... */\n    tag_16:\n      callvalue\n      dup1\n      iszero\n      tag_91\n      jumpi\n      0x00\n      dup1\n      revert\n    tag_91:\n      pop\n      tag_92\n      tag_93\n      jump\t// in\n    tag_92:\n      stop\n        /* \"@chainlink/contracts@1.1.0/src/v0.8/shared/access/ConfirmedOwnerWithProposal.sol\":1382:1463  function owner() public view override returns (address) {... */\n    tag_17:\n      callvalue\n      dup1\n      iszero\n      tag_94\n      jumpi\n      0x00\n      dup1\n      revert\n    tag_94:\n      pop\n      tag_95\n      tag_96\n      jump\t// in\n    tag_95:\n      mload(0x40)\n      tag_97\n      swap2\n      swap1\n      tag_42\n      jump\t// in\n    tag_97:\n      mload(0x40)\n      dup1\n      swap2\n      sub\n      swap1\n      return\n        /* \"docs.chain.link/samples/Automation/tutorials/EthBalanceMonitor.sol\":2248:3478  function setWatchList(... */\n    tag_18:\n      callvalue\n      dup1\n      iszero\n      tag_98\n      jumpi\n      0x00\n      dup1\n      revert\n    tag_98:\n      pop\n      tag_99\n      0x04\n      dup1\n      calldatasize\n      sub\n      dup2\n      add\n      swap1\n      tag_100\n      swap2\n      swap1\n      tag_101\n      jump\t// in\n    tag_100:\n      tag_102\n      jump\t// in\n    tag_99:\n      stop\n        /* \"docs.chain.link/samples/Automation/tutorials/EthBalanceMonitor.sol\":7706:7957  function setForwarderAddress(address forwarderAddress) public onlyOwner {... */\n    tag_19:\n      callvalue\n      dup1\n      iszero\n      tag_103\n      jumpi\n      0x00\n      dup1\n      revert\n    tag_103:\n      pop\n      tag_104\n      0x04\n      dup1\n      calldatasize\n      sub\n      dup2\n      add\n      swap1\n      tag_105\n      swap2\n      swap1\n      tag_87\n      jump\t// in\n    tag_105:\n      tag_106\n      jump\t// in\n    tag_104:\n      stop\n        /* \"@chainlink/contracts@1.1.0/src/v0.8/shared/access/ConfirmedOwnerWithProposal.sol\":847:945  function transferOwnership(address to) public override onlyOwner {... */\n    tag_20:\n      callvalue\n      dup1\n      iszero\n      tag_107\n      jumpi\n      0x00\n      dup1\n      revert\n    tag_107:\n      pop\n      tag_108\n      0x04\n      dup1\n      calldatasize\n      sub\n      dup2\n      add\n      swap1\n      tag_109\n      swap2\n      swap1\n      tag_87\n      jump\t// in\n    tag_109:\n      tag_110\n      jump\t// in\n    tag_108:\n      stop\n        /* \"docs.chain.link/samples/Automation/tutorials/EthBalanceMonitor.sol\":7126:7345  function withdraw(... */\n    tag_32:\n        /* \"@chainlink/contracts@1.1.0/src/v0.8/shared/access/ConfirmedOwnerWithProposal.sol\":2075:2095  _validateOwnership() */\n      tag_112\n        /* \"@chainlink/contracts@1.1.0/src/v0.8/shared/access/ConfirmedOwnerWithProposal.sol\":2075:2093  _validateOwnership */\n      tag_113\n        /* \"@chainlink/contracts@1.1.0/src/v0.8/shared/access/ConfirmedOwnerWithProposal.sol\":2075:2095  _validateOwnership() */\n      jump\t// in\n    tag_112:\n        /* \"docs.chain.link/samples/Automation/tutorials/EthBalanceMonitor.sol\":7259:7260  0 */\n      0x00\n        /* \"docs.chain.link/samples/Automation/tutorials/EthBalanceMonitor.sol\":7242:7261  payee != address(0) */\n      0xffffffffffffffffffffffffffffffffffffffff\n      and\n        /* \"docs.chain.link/samples/Automation/tutorials/EthBalanceMonitor.sol\":7242:7247  payee */\n      dup2\n        /* \"docs.chain.link/samples/Automation/tutorials/EthBalanceMonitor.sol\":7242:7261  payee != address(0) */\n      0xffffffffffffffffffffffffffffffffffffffff\n      and\n      sub\n        /* \"docs.chain.link/samples/Automation/tutorials/EthBalanceMonitor.sol\":7234:7262  require(payee != address(0)) */\n      tag_115\n      jumpi\n      0x00\n      dup1\n      revert\n    tag_115:\n        /* \"docs.chain.link/samples/Automation/tutorials/EthBalanceMonitor.sol\":7277:7306  FundsWithdrawn(amount, payee) */\n      0x6141b54b56b8a52a8c6f5cd2a857f6117b18ffbf4d46bd3106f300a839cbf5ea\n        /* \"docs.chain.link/samples/Automation/tutorials/EthBalanceMonitor.sol\":7292:7298  amount */\n      dup3\n        /* \"docs.chain.link/samples/Automation/tutorials/EthBalanceMonitor.sol\":7300:7305  payee */\n      dup3\n        /* \"docs.chain.link/samples/Automation/tutorials/EthBalanceMonitor.sol\":7277:7306  FundsWithdrawn(amount, payee) */\n      mload(0x40)\n      tag_116\n      swap3\n      swap2\n      swap1\n      tag_117\n      jump\t// in\n    tag_116:\n      mload(0x40)\n      dup1\n      swap2\n      sub\n      swap1\n      log1\n        /* \"docs.chain.link/samples/Automation/tutorials/EthBalanceMonitor.sol\":7316:7321  payee */\n      dup1\n        /* \"docs.chain.link/samples/Automation/tutorials/EthBalanceMonitor.sol\":7316:7330  payee.transfer */\n      0xffffffffffffffffffffffffffffffffffffffff\n      and\n        /* \"docs.chain.link/samples/Automation/tutorials/EthBalanceMonitor.sol\":7316:7338  payee.transfer(amount) */\n      0x08fc\n        /* \"docs.chain.link/samples/Automation/tutorials/EthBalanceMonitor.sol\":7331:7337  amount */\n      dup4\n        /* \"docs.chain.link/samples/Automation/tutorials/EthBalanceMonitor.sol\":7316:7338  payee.transfer(amount) */\n      swap1\n      dup2\n      iszero\n      mul\n      swap1\n      mload(0x40)\n      0x00\n      mload(0x40)\n      dup1\n      dup4\n      sub\n      dup2\n      dup6\n      dup9\n      dup9\n      call\n      swap4\n      pop\n      pop\n      pop\n      pop\n      iszero\n      dup1\n      iszero\n      tag_119\n      jumpi\n      returndatasize\n      0x00\n      dup1\n      returndatacopy\n      revert(0x00, returndatasize)\n    tag_119:\n      pop\n        /* \"docs.chain.link/samples/Automation/tutorials/EthBalanceMonitor.sol\":7126:7345  function withdraw(... */\n      pop\n      pop\n      jump\t// out\n        /* \"docs.chain.link/samples/Automation/tutorials/EthBalanceMonitor.sol\":3616:4634  function getUnderfundedAddresses() public view returns (address[] memory) {... */\n    tag_35:\n        /* \"docs.chain.link/samples/Automation/tutorials/EthBalanceMonitor.sol\":3672:3688  address[] memory */\n      0x60\n        /* \"docs.chain.link/samples/Automation/tutorials/EthBalanceMonitor.sol\":3700:3726  address[] memory watchList */\n      0x00\n        /* \"docs.chain.link/samples/Automation/tutorials/EthBalanceMonitor.sol\":3729:3740  s_watchList */\n      0x04\n        /* \"docs.chain.link/samples/Automation/tutorials/EthBalanceMonitor.sol\":3700:3740  address[] memory watchList = s_watchList */\n      dup1\n      sload\n      dup1\n      0x20\n      mul\n      0x20\n      add\n      mload(0x40)\n      swap1\n      dup2\n      add\n      0x40\n      mstore\n      dup1\n      swap3\n      swap2\n      swap1\n      dup2\n      dup2\n      mstore\n      0x20\n      add\n      dup3\n      dup1\n      sload\n      dup1\n      iszero\n      tag_121\n      jumpi\n      0x20\n      mul\n      dup3\n      add\n      swap2\n      swap1\n      0x00\n      mstore\n      keccak256(0x00, 0x20)\n      swap1\n    tag_122:\n      dup2\n      0x00\n      swap1\n      sload\n      swap1\n      0x0100\n      exp\n      swap1\n      div\n      0xffffffffffffffffffffffffffffffffffffffff\n      and\n      0xffffffffffffffffffffffffffffffffffffffff\n      and\n      dup2\n      mstore\n      0x20\n      add\n      swap1\n      0x01\n      add\n      swap1\n      dup1\n      dup4\n      gt\n      tag_122\n      jumpi\n    tag_121:\n      pop\n      pop\n      pop\n      pop\n      pop\n      swap1\n      pop\n        /* \"docs.chain.link/samples/Automation/tutorials/EthBalanceMonitor.sol\":3750:3779  address[] memory needsFunding */\n      0x00\n        /* \"docs.chain.link/samples/Automation/tutorials/EthBalanceMonitor.sol\":3796:3805  watchList */\n      dup2\n        /* \"docs.chain.link/samples/Automation/tutorials/EthBalanceMonitor.sol\":3796:3812  watchList.length */\n      mload\n        /* \"docs.chain.link/samples/Automation/tutorials/EthBalanceMonitor.sol\":3782:3813  new address[](watchList.length) */\n      0xffffffffffffffff\n      dup2\n      gt\n      iszero\n      tag_123\n      jumpi\n      tag_124\n      tag_125\n      jump\t// in\n    tag_124:\n    tag_123:\n      mload(0x40)\n      swap1\n      dup1\n      dup3\n      mstore\n      dup1\n      0x20\n      mul\n      0x20\n      add\n      dup3\n      add\n      0x40\n      mstore\n      dup1\n      iszero\n      tag_126\n      jumpi\n      dup2\n      0x20\n      add\n      0x20\n      dup3\n      mul\n      dup1\n      calldatasize\n      dup4\n      calldatacopy\n      dup1\n      dup3\n      add\n      swap2\n      pop\n      pop\n      swap1\n      pop\n    tag_126:\n      pop\n        /* \"docs.chain.link/samples/Automation/tutorials/EthBalanceMonitor.sol\":3750:3813  address[] memory needsFunding = new address[](watchList.length) */\n      swap1\n      pop\n        /* \"docs.chain.link/samples/Automation/tutorials/EthBalanceMonitor.sol\":3823:3836  uint256 count */\n      0x00\n        /* \"docs.chain.link/samples/Automation/tutorials/EthBalanceMonitor.sol\":3850:3871  uint256 minWaitPeriod */\n      dup1\n        /* \"docs.chain.link/samples/Automation/tutorials/EthBalanceMonitor.sol\":3874:3896  s_minWaitPeriodSeconds */\n      sload(0x03)\n        /* \"docs.chain.link/samples/Automation/tutorials/EthBalanceMonitor.sol\":3850:3896  uint256 minWaitPeriod = s_minWaitPeriodSeconds */\n      swap1\n      pop\n        /* \"docs.chain.link/samples/Automation/tutorials/EthBalanceMonitor.sol\":3906:3921  uint256 balance */\n      0x00\n        /* \"docs.chain.link/samples/Automation/tutorials/EthBalanceMonitor.sol\":3924:3945  address(this).balance */\n      selfbalance\n        /* \"docs.chain.link/samples/Automation/tutorials/EthBalanceMonitor.sol\":3906:3945  uint256 balance = address(this).balance */\n      swap1\n      pop\n        /* \"docs.chain.link/samples/Automation/tutorials/EthBalanceMonitor.sol\":3955:3975  Target memory target */\n      tag_127\n      tag_128\n      jump\t// in\n    tag_127:\n        /* \"docs.chain.link/samples/Automation/tutorials/EthBalanceMonitor.sol\":3990:4001  uint256 idx */\n      0x00\n        /* \"docs.chain.link/samples/Automation/tutorials/EthBalanceMonitor.sol\":3985:4467  for (uint256 idx = 0; idx < watchList.length; idx++) {... */\n    tag_129:\n        /* \"docs.chain.link/samples/Automation/tutorials/EthBalanceMonitor.sol\":4013:4022  watchList */\n      dup7\n        /* \"docs.chain.link/samples/Automation/tutorials/EthBalanceMonitor.sol\":4013:4029  watchList.length */\n      mload\n        /* \"docs.chain.link/samples/Automation/tutorials/EthBalanceMonitor.sol\":4007:4010  idx */\n      dup2\n        /* \"docs.chain.link/samples/Automation/tutorials/EthBalanceMonitor.sol\":4007:4029  idx < watchList.length */\n      lt\n        /* \"docs.chain.link/samples/Automation/tutorials/EthBalanceMonitor.sol\":3985:4467  for (uint256 idx = 0; idx < watchList.length; idx++) {... */\n      iszero\n      tag_130\n      jumpi\n        /* \"docs.chain.link/samples/Automation/tutorials/EthBalanceMonitor.sol\":4061:4070  s_targets */\n      0x05\n        /* \"docs.chain.link/samples/Automation/tutorials/EthBalanceMonitor.sol\":4061:4086  s_targets[watchList[idx]] */\n      0x00\n        /* \"docs.chain.link/samples/Automation/tutorials/EthBalanceMonitor.sol\":4071:4080  watchList */\n      dup9\n        /* \"docs.chain.link/samples/Automation/tutorials/EthBalanceMonitor.sol\":4081:4084  idx */\n      dup4\n        /* \"docs.chain.link/samples/Automation/tutorials/EthBalanceMonitor.sol\":4071:4085  watchList[idx] */\n      dup2\n      mload\n      dup2\n      lt\n      tag_132\n      jumpi\n      tag_133\n      tag_134\n      jump\t// in\n    tag_133:\n    tag_132:\n      0x20\n      mul\n      0x20\n      add\n      add\n      mload\n        /* \"docs.chain.link/samples/Automation/tutorials/EthBalanceMonitor.sol\":4061:4086  s_targets[watchList[idx]] */\n      0xffffffffffffffffffffffffffffffffffffffff\n      and\n      0xffffffffffffffffffffffffffffffffffffffff\n      and\n      dup2\n      mstore\n      0x20\n      add\n      swap1\n      dup2\n      mstore\n      0x20\n      add\n      0x00\n      keccak256\n        /* \"docs.chain.link/samples/Automation/tutorials/EthBalanceMonitor.sol\":4052:4086  target = s_targets[watchList[idx]] */\n      mload(0x40)\n      dup1\n      0x80\n      add\n      0x40\n      mstore\n      swap1\n      dup2\n      0x00\n      dup3\n      add\n      0x00\n      swap1\n      sload\n      swap1\n      0x0100\n      exp\n      swap1\n      div\n      0xff\n      and\n      iszero\n      iszero\n      iszero\n      iszero\n      dup2\n      mstore\n      0x20\n      add\n      0x00\n      dup3\n      add\n      0x01\n      swap1\n      sload\n      swap1\n      0x0100\n      exp\n      swap1\n      div\n      0xffffffffffffffffffffffff\n      and\n      0xffffffffffffffffffffffff\n      and\n      0xffffffffffffffffffffffff\n      and\n      dup2\n      mstore\n      0x20\n      add\n      0x00\n      dup3\n      add\n      0x0d\n      swap1\n      sload\n      swap1\n      0x0100\n      exp\n      swap1\n      div\n      0xffffffffffffffffffffffff\n      and\n      0xffffffffffffffffffffffff\n      and\n      0xffffffffffffffffffffffff\n      and\n      dup2\n      mstore\n      0x20\n      add\n      0x00\n      dup3\n      add\n      0x19\n      swap1\n      sload\n      swap1\n      0x0100\n      exp\n      swap1\n      div\n      0xffffffffffffff\n      and\n      0xffffffffffffff\n      and\n      0xffffffffffffff\n      and\n      dup2\n      mstore\n      pop\n      pop\n      swap2\n      pop\n        /* \"docs.chain.link/samples/Automation/tutorials/EthBalanceMonitor.sol\":4166:4181  block.timestamp */\n      timestamp\n        /* \"docs.chain.link/samples/Automation/tutorials/EthBalanceMonitor.sol\":4149:4162  minWaitPeriod */\n      dup5\n        /* \"docs.chain.link/samples/Automation/tutorials/EthBalanceMonitor.sol\":4121:4127  target */\n      dup4\n        /* \"docs.chain.link/samples/Automation/tutorials/EthBalanceMonitor.sol\":4121:4146  target.lastTopUpTimestamp */\n      0x60\n      add\n      mload\n        /* \"docs.chain.link/samples/Automation/tutorials/EthBalanceMonitor.sol\":4121:4162  target.lastTopUpTimestamp + minWaitPeriod */\n      0xffffffffffffff\n      and\n      tag_135\n      swap2\n      swap1\n      tag_136\n      jump\t// in\n    tag_135:\n        /* \"docs.chain.link/samples/Automation/tutorials/EthBalanceMonitor.sol\":4121:4181  target.lastTopUpTimestamp + minWaitPeriod <= block.timestamp */\n      gt\n      iszero\n        /* \"docs.chain.link/samples/Automation/tutorials/EthBalanceMonitor.sol\":4121:4233  target.lastTopUpTimestamp + minWaitPeriod <= block.timestamp &&... */\n      dup1\n      iszero\n      tag_137\n      jumpi\n      pop\n        /* \"docs.chain.link/samples/Automation/tutorials/EthBalanceMonitor.sol\":4212:4218  target */\n      dup2\n        /* \"docs.chain.link/samples/Automation/tutorials/EthBalanceMonitor.sol\":4212:4233  target.topUpAmountWei */\n      0x40\n      add\n      mload\n        /* \"docs.chain.link/samples/Automation/tutorials/EthBalanceMonitor.sol\":4201:4233  balance >= target.topUpAmountWei */\n      0xffffffffffffffffffffffff\n      and\n        /* \"docs.chain.link/samples/Automation/tutorials/EthBalanceMonitor.sol\":4201:4208  balance */\n      dup4\n        /* \"docs.chain.link/samples/Automation/tutorials/EthBalanceMonitor.sol\":4201:4233  balance >= target.topUpAmountWei */\n      lt\n      iszero\n        /* \"docs.chain.link/samples/Automation/tutorials/EthBalanceMonitor.sol\":4121:4233  target.lastTopUpTimestamp + minWaitPeriod <= block.timestamp &&... */\n    tag_137:\n        /* \"docs.chain.link/samples/Automation/tutorials/EthBalanceMonitor.sol\":4121:4298  target.lastTopUpTimestamp + minWaitPeriod <= block.timestamp &&... */\n      dup1\n      iszero\n      tag_138\n      jumpi\n      pop\n        /* \"docs.chain.link/samples/Automation/tutorials/EthBalanceMonitor.sol\":4278:4284  target */\n      dup2\n        /* \"docs.chain.link/samples/Automation/tutorials/EthBalanceMonitor.sol\":4278:4298  target.minBalanceWei */\n      0x20\n      add\n      mload\n        /* \"docs.chain.link/samples/Automation/tutorials/EthBalanceMonitor.sol\":4253:4298  watchList[idx].balance < target.minBalanceWei */\n      0xffffffffffffffffffffffff\n      and\n        /* \"docs.chain.link/samples/Automation/tutorials/EthBalanceMonitor.sol\":4253:4262  watchList */\n      dup8\n        /* \"docs.chain.link/samples/Automation/tutorials/EthBalanceMonitor.sol\":4263:4266  idx */\n      dup3\n        /* \"docs.chain.link/samples/Automation/tutorials/EthBalanceMonitor.sol\":4253:4267  watchList[idx] */\n      dup2\n      mload\n      dup2\n      lt\n      tag_139\n      jumpi\n      tag_140\n      tag_134\n      jump\t// in\n    tag_140:\n    tag_139:\n      0x20\n      mul\n      0x20\n      add\n      add\n      mload\n        /* \"docs.chain.link/samples/Automation/tutorials/EthBalanceMonitor.sol\":4253:4275  watchList[idx].balance */\n      0xffffffffffffffffffffffffffffffffffffffff\n      and\n      balance\n        /* \"docs.chain.link/samples/Automation/tutorials/EthBalanceMonitor.sol\":4253:4298  watchList[idx].balance < target.minBalanceWei */\n      lt\n        /* \"docs.chain.link/samples/Automation/tutorials/EthBalanceMonitor.sol\":4121:4298  target.lastTopUpTimestamp + minWaitPeriod <= block.timestamp &&... */\n    tag_138:\n        /* \"docs.chain.link/samples/Automation/tutorials/EthBalanceMonitor.sol\":4100:4457  if (... */\n      iszero\n      tag_141\n      jumpi\n        /* \"docs.chain.link/samples/Automation/tutorials/EthBalanceMonitor.sol\":4353:4362  watchList */\n      dup7\n        /* \"docs.chain.link/samples/Automation/tutorials/EthBalanceMonitor.sol\":4363:4366  idx */\n      dup2\n        /* \"docs.chain.link/samples/Automation/tutorials/EthBalanceMonitor.sol\":4353:4367  watchList[idx] */\n      dup2\n      mload\n      dup2\n      lt\n      tag_142\n      jumpi\n      tag_143\n      tag_134\n      jump\t// in\n    tag_143:\n    tag_142:\n      0x20\n      mul\n      0x20\n      add\n      add\n      mload\n        /* \"docs.chain.link/samples/Automation/tutorials/EthBalanceMonitor.sol\":4331:4343  needsFunding */\n      dup7\n        /* \"docs.chain.link/samples/Automation/tutorials/EthBalanceMonitor.sol\":4344:4349  count */\n      dup7\n        /* \"docs.chain.link/samples/Automation/tutorials/EthBalanceMonitor.sol\":4331:4350  needsFunding[count] */\n      dup2\n      mload\n      dup2\n      lt\n      tag_144\n      jumpi\n      tag_145\n      tag_134\n      jump\t// in\n    tag_145:\n    tag_144:\n      0x20\n      mul\n      0x20\n      add\n      add\n        /* \"docs.chain.link/samples/Automation/tutorials/EthBalanceMonitor.sol\":4331:4367  needsFunding[count] = watchList[idx] */\n      swap1\n      0xffffffffffffffffffffffffffffffffffffffff\n      and\n      swap1\n      dup2\n      0xffffffffffffffffffffffffffffffffffffffff\n      and\n      dup2\n      mstore\n      pop\n      pop\n        /* \"docs.chain.link/samples/Automation/tutorials/EthBalanceMonitor.sol\":4385:4392  count++ */\n      dup5\n      dup1\n      tag_146\n      swap1\n      tag_147\n      jump\t// in\n    tag_146:\n      swap6\n      pop\n      pop\n        /* \"docs.chain.link/samples/Automation/tutorials/EthBalanceMonitor.sol\":4421:4427  target */\n      dup2\n        /* \"docs.chain.link/samples/Automation/tutorials/EthBalanceMonitor.sol\":4421:4442  target.topUpAmountWei */\n      0x40\n      add\n      mload\n        /* \"docs.chain.link/samples/Automation/tutorials/EthBalanceMonitor.sol\":4410:4442  balance -= target.topUpAmountWei */\n      0xffffffffffffffffffffffff\n      and\n      dup4\n      tag_148\n      swap2\n      swap1\n      tag_149\n      jump\t// in\n    tag_148:\n      swap3\n      pop\n        /* \"docs.chain.link/samples/Automation/tutorials/EthBalanceMonitor.sol\":4100:4457  if (... */\n    tag_141:\n        /* \"docs.chain.link/samples/Automation/tutorials/EthBalanceMonitor.sol\":4031:4036  idx++ */\n      dup1\n      dup1\n      0x01\n      add\n      swap2\n      pop\n      pop\n        /* \"docs.chain.link/samples/Automation/tutorials/EthBalanceMonitor.sol\":3985:4467  for (uint256 idx = 0; idx < watchList.length; idx++) {... */\n      jump(tag_129)\n    tag_130:\n      pop\n        /* \"docs.chain.link/samples/Automation/tutorials/EthBalanceMonitor.sol\":4489:4498  watchList */\n      dup6\n        /* \"docs.chain.link/samples/Automation/tutorials/EthBalanceMonitor.sol\":4489:4505  watchList.length */\n      mload\n        /* \"docs.chain.link/samples/Automation/tutorials/EthBalanceMonitor.sol\":4480:4485  count */\n      dup5\n        /* \"docs.chain.link/samples/Automation/tutorials/EthBalanceMonitor.sol\":4480:4505  count != watchList.length */\n      eq\n        /* \"docs.chain.link/samples/Automation/tutorials/EthBalanceMonitor.sol\":4476:4599  if (count != watchList.length) {... */\n      tag_150\n      jumpi\n        /* \"docs.chain.link/samples/Automation/tutorials/EthBalanceMonitor.sol\":4569:4574  count */\n      dup4\n        /* \"docs.chain.link/samples/Automation/tutorials/EthBalanceMonitor.sol\":4555:4567  needsFunding */\n      dup6\n        /* \"docs.chain.link/samples/Automation/tutorials/EthBalanceMonitor.sol\":4548:4575  mstore(needsFunding, count) */\n      mstore\n        /* \"docs.chain.link/samples/Automation/tutorials/EthBalanceMonitor.sol\":4476:4599  if (count != watchList.length) {... */\n    tag_150:\n        /* \"docs.chain.link/samples/Automation/tutorials/EthBalanceMonitor.sol\":4615:4627  needsFunding */\n      dup5\n        /* \"docs.chain.link/samples/Automation/tutorials/EthBalanceMonitor.sol\":4608:4627  return needsFunding */\n      swap7\n      pop\n      pop\n      pop\n      pop\n      pop\n      pop\n      pop\n        /* \"docs.chain.link/samples/Automation/tutorials/EthBalanceMonitor.sol\":3616:4634  function getUnderfundedAddresses() public view returns (address[] memory) {... */\n      swap1\n      jump\t// out\n        /* \"docs.chain.link/samples/Automation/tutorials/EthBalanceMonitor.sol\":8346:8496  function getForwarderAddress()... */\n    tag_40:\n        /* \"docs.chain.link/samples/Automation/tutorials/EthBalanceMonitor.sol\":8424:8448  address forwarderAddress */\n      0x00\n        /* \"docs.chain.link/samples/Automation/tutorials/EthBalanceMonitor.sol\":8471:8489  s_forwarderAddress */\n      0x02\n      0x00\n      swap1\n      sload\n      swap1\n      0x0100\n      exp\n      swap1\n      div\n      0xffffffffffffffffffffffffffffffffffffffff\n      and\n        /* \"docs.chain.link/samples/Automation/tutorials/EthBalanceMonitor.sol\":8464:8489  return s_forwarderAddress */\n      swap1\n      pop\n        /* \"docs.chain.link/samples/Automation/tutorials/EthBalanceMonitor.sol\":8346:8496  function getForwarderAddress()... */\n      swap1\n      jump\t// out\n        /* \"docs.chain.link/samples/Automation/tutorials/EthBalanceMonitor.sol\":4798:5889  function topUp(address[] memory needsFunding) public whenNotPaused {... */\n    tag_47:\n        /* \"@openzeppelin/contracts/security/Pausable.sol\":1239:1258  _requireNotPaused() */\n      tag_153\n        /* \"@openzeppelin/contracts/security/Pausable.sol\":1239:1256  _requireNotPaused */\n      tag_154\n        /* \"@openzeppelin/contracts/security/Pausable.sol\":1239:1258  _requireNotPaused() */\n      jump\t// in\n    tag_153:\n        /* \"docs.chain.link/samples/Automation/tutorials/EthBalanceMonitor.sol\":4875:4903  uint256 minWaitPeriodSeconds */\n      0x00\n        /* \"docs.chain.link/samples/Automation/tutorials/EthBalanceMonitor.sol\":4906:4928  s_minWaitPeriodSeconds */\n      sload(0x03)\n        /* \"docs.chain.link/samples/Automation/tutorials/EthBalanceMonitor.sol\":4875:4928  uint256 minWaitPeriodSeconds = s_minWaitPeriodSeconds */\n      swap1\n      pop\n        /* \"docs.chain.link/samples/Automation/tutorials/EthBalanceMonitor.sol\":4938:4958  Target memory target */\n      tag_156\n      tag_128\n      jump\t// in\n    tag_156:\n        /* \"docs.chain.link/samples/Automation/tutorials/EthBalanceMonitor.sol\":4973:4984  uint256 idx */\n      0x00\n        /* \"docs.chain.link/samples/Automation/tutorials/EthBalanceMonitor.sol\":4968:5883  for (uint256 idx = 0; idx < needsFunding.length; idx++) {... */\n    tag_157:\n        /* \"docs.chain.link/samples/Automation/tutorials/EthBalanceMonitor.sol\":4996:5008  needsFunding */\n      dup4\n        /* \"docs.chain.link/samples/Automation/tutorials/EthBalanceMonitor.sol\":4996:5015  needsFunding.length */\n      mload\n        /* \"docs.chain.link/samples/Automation/tutorials/EthBalanceMonitor.sol\":4990:4993  idx */\n      dup2\n        /* \"docs.chain.link/samples/Automation/tutorials/EthBalanceMonitor.sol\":4990:5015  idx < needsFunding.length */\n      lt\n        /* \"docs.chain.link/samples/Automation/tutorials/EthBalanceMonitor.sol\":4968:5883  for (uint256 idx = 0; idx < needsFunding.length; idx++) {... */\n      iszero\n      tag_158\n      jumpi\n        /* \"docs.chain.link/samples/Automation/tutorials/EthBalanceMonitor.sol\":5047:5056  s_targets */\n      0x05\n        /* \"docs.chain.link/samples/Automation/tutorials/EthBalanceMonitor.sol\":5047:5075  s_targets[needsFunding[idx]] */\n      0x00\n        /* \"docs.chain.link/samples/Automation/tutorials/EthBalanceMonitor.sol\":5057:5069  needsFunding */\n      dup6\n        /* \"docs.chain.link/samples/Automation/tutorials/EthBalanceMonitor.sol\":5070:5073  idx */\n      dup4\n        /* \"docs.chain.link/samples/Automation/tutorials/EthBalanceMonitor.sol\":5057:5074  needsFunding[idx] */\n      dup2\n      mload\n      dup2\n      lt\n      tag_160\n      jumpi\n      tag_161\n      tag_134\n      jump\t// in\n    tag_161:\n    tag_160:\n      0x20\n      mul\n      0x20\n      add\n      add\n      mload\n        /* \"docs.chain.link/samples/Automation/tutorials/EthBalanceMonitor.sol\":5047:5075  s_targets[needsFunding[idx]] */\n      0xffffffffffffffffffffffffffffffffffffffff\n      and\n      0xffffffffffffffffffffffffffffffffffffffff\n      and\n      dup2\n      mstore\n      0x20\n      add\n      swap1\n      dup2\n      mstore\n      0x20\n      add\n      0x00\n      keccak256\n        /* \"docs.chain.link/samples/Automation/tutorials/EthBalanceMonitor.sol\":5038:5075  target = s_targets[needsFunding[idx]] */\n      mload(0x40)\n      dup1\n      0x80\n      add\n      0x40\n      mstore\n      swap1\n      dup2\n      0x00\n      dup3\n      add\n      0x00\n      swap1\n      sload\n      swap1\n      0x0100\n      exp\n      swap1\n      div\n      0xff\n      and\n      iszero\n      iszero\n      iszero\n      iszero\n      dup2\n      mstore\n      0x20\n      add\n      0x00\n      dup3\n      add\n      0x01\n      swap1\n      sload\n      swap1\n      0x0100\n      exp\n      swap1\n      div\n      0xffffffffffffffffffffffff\n      and\n      0xffffffffffffffffffffffff\n      and\n      0xffffffffffffffffffffffff\n      and\n      dup2\n      mstore\n      0x20\n      add\n      0x00\n      dup3\n      add\n      0x0d\n      swap1\n      sload\n      swap1\n      0x0100\n      exp\n      swap1\n      div\n      0xffffffffffffffffffffffff\n      and\n      0xffffffffffffffffffffffff\n      and\n      0xffffffffffffffffffffffff\n      and\n      dup2\n      mstore\n      0x20\n      add\n      0x00\n      dup3\n      add\n      0x19\n      swap1\n      sload\n      swap1\n      0x0100\n      exp\n      swap1\n      div\n      0xffffffffffffff\n      and\n      0xffffffffffffff\n      and\n      0xffffffffffffff\n      and\n      dup2\n      mstore\n      pop\n      pop\n      swap2\n      pop\n        /* \"docs.chain.link/samples/Automation/tutorials/EthBalanceMonitor.sol\":5110:5116  target */\n      dup2\n        /* \"docs.chain.link/samples/Automation/tutorials/EthBalanceMonitor.sol\":5110:5125  target.isActive */\n      0x00\n      add\n      mload\n        /* \"docs.chain.link/samples/Automation/tutorials/EthBalanceMonitor.sol\":5110:5228  target.isActive &&... */\n      dup1\n      iszero\n      tag_162\n      jumpi\n      pop\n        /* \"docs.chain.link/samples/Automation/tutorials/EthBalanceMonitor.sol\":5213:5228  block.timestamp */\n      timestamp\n        /* \"docs.chain.link/samples/Automation/tutorials/EthBalanceMonitor.sol\":5173:5193  minWaitPeriodSeconds */\n      dup4\n        /* \"docs.chain.link/samples/Automation/tutorials/EthBalanceMonitor.sol\":5145:5151  target */\n      dup4\n        /* \"docs.chain.link/samples/Automation/tutorials/EthBalanceMonitor.sol\":5145:5170  target.lastTopUpTimestamp */\n      0x60\n      add\n      mload\n        /* \"docs.chain.link/samples/Automation/tutorials/EthBalanceMonitor.sol\":5145:5193  target.lastTopUpTimestamp + minWaitPeriodSeconds */\n      0xffffffffffffff\n      and\n      tag_163\n      swap2\n      swap1\n      tag_136\n      jump\t// in\n    tag_163:\n        /* \"docs.chain.link/samples/Automation/tutorials/EthBalanceMonitor.sol\":5145:5228  target.lastTopUpTimestamp + minWaitPeriodSeconds <=... */\n      gt\n      iszero\n        /* \"docs.chain.link/samples/Automation/tutorials/EthBalanceMonitor.sol\":5110:5228  target.isActive &&... */\n    tag_162:\n        /* \"docs.chain.link/samples/Automation/tutorials/EthBalanceMonitor.sol\":5110:5296  target.isActive &&... */\n      dup1\n      iszero\n      tag_164\n      jumpi\n      pop\n        /* \"docs.chain.link/samples/Automation/tutorials/EthBalanceMonitor.sol\":5276:5282  target */\n      dup2\n        /* \"docs.chain.link/samples/Automation/tutorials/EthBalanceMonitor.sol\":5276:5296  target.minBalanceWei */\n      0x20\n      add\n      mload\n        /* \"docs.chain.link/samples/Automation/tutorials/EthBalanceMonitor.sol\":5248:5296  needsFunding[idx].balance < target.minBalanceWei */\n      0xffffffffffffffffffffffff\n      and\n        /* \"docs.chain.link/samples/Automation/tutorials/EthBalanceMonitor.sol\":5248:5260  needsFunding */\n      dup5\n        /* \"docs.chain.link/samples/Automation/tutorials/EthBalanceMonitor.sol\":5261:5264  idx */\n      dup3\n        /* \"docs.chain.link/samples/Automation/tutorials/EthBalanceMonitor.sol\":5248:5265  needsFunding[idx] */\n      dup2\n      mload\n      dup2\n      lt\n      tag_165\n      jumpi\n      tag_166\n      tag_134\n      jump\t// in\n    tag_166:\n    tag_165:\n      0x20\n      mul\n      0x20\n      add\n      add\n      mload\n        /* \"docs.chain.link/samples/Automation/tutorials/EthBalanceMonitor.sol\":5248:5273  needsFunding[idx].balance */\n      0xffffffffffffffffffffffffffffffffffffffff\n      and\n      balance\n        /* \"docs.chain.link/samples/Automation/tutorials/EthBalanceMonitor.sol\":5248:5296  needsFunding[idx].balance < target.minBalanceWei */\n      lt\n        /* \"docs.chain.link/samples/Automation/tutorials/EthBalanceMonitor.sol\":5110:5296  target.isActive &&... */\n    tag_164:\n        /* \"docs.chain.link/samples/Automation/tutorials/EthBalanceMonitor.sol\":5089:5783  if (... */\n      iszero\n      tag_167\n      jumpi\n        /* \"docs.chain.link/samples/Automation/tutorials/EthBalanceMonitor.sol\":5329:5341  bool success */\n      0x00\n        /* \"docs.chain.link/samples/Automation/tutorials/EthBalanceMonitor.sol\":5352:5364  needsFunding */\n      dup5\n        /* \"docs.chain.link/samples/Automation/tutorials/EthBalanceMonitor.sol\":5365:5368  idx */\n      dup3\n        /* \"docs.chain.link/samples/Automation/tutorials/EthBalanceMonitor.sol\":5352:5369  needsFunding[idx] */\n      dup2\n      mload\n      dup2\n      lt\n      tag_168\n      jumpi\n      tag_169\n      tag_134\n      jump\t// in\n    tag_169:\n    tag_168:\n      0x20\n      mul\n      0x20\n      add\n      add\n      mload\n        /* \"docs.chain.link/samples/Automation/tutorials/EthBalanceMonitor.sol\":5344:5375  payable(needsFunding[idx]).send */\n      0xffffffffffffffffffffffffffffffffffffffff\n      and\n        /* \"docs.chain.link/samples/Automation/tutorials/EthBalanceMonitor.sol\":5344:5436  payable(needsFunding[idx]).send(... */\n      0x08fc\n        /* \"docs.chain.link/samples/Automation/tutorials/EthBalanceMonitor.sol\":5397:5403  target */\n      dup5\n        /* \"docs.chain.link/samples/Automation/tutorials/EthBalanceMonitor.sol\":5397:5418  target.topUpAmountWei */\n      0x40\n      add\n      mload\n        /* \"docs.chain.link/samples/Automation/tutorials/EthBalanceMonitor.sol\":5344:5436  payable(needsFunding[idx]).send(... */\n      0xffffffffffffffffffffffff\n      and\n      swap1\n      dup2\n      iszero\n      mul\n      swap1\n      mload(0x40)\n      0x00\n      mload(0x40)\n      dup1\n      dup4\n      sub\n      dup2\n      dup6\n      dup9\n      dup9\n      call\n      swap4\n      pop\n      pop\n      pop\n      pop\n        /* \"docs.chain.link/samples/Automation/tutorials/EthBalanceMonitor.sol\":5329:5436  bool success = payable(needsFunding[idx]).send(... */\n      swap1\n      pop\n        /* \"docs.chain.link/samples/Automation/tutorials/EthBalanceMonitor.sol\":5458:5465  success */\n      dup1\n        /* \"docs.chain.link/samples/Automation/tutorials/EthBalanceMonitor.sol\":5454:5769  if (success) {... */\n      iszero\n      tag_171\n      jumpi\n        /* \"docs.chain.link/samples/Automation/tutorials/EthBalanceMonitor.sol\":5571:5586  block.timestamp */\n      timestamp\n        /* \"docs.chain.link/samples/Automation/tutorials/EthBalanceMonitor.sol\":5489:5498  s_targets */\n      0x05\n        /* \"docs.chain.link/samples/Automation/tutorials/EthBalanceMonitor.sol\":5489:5517  s_targets[needsFunding[idx]] */\n      0x00\n        /* \"docs.chain.link/samples/Automation/tutorials/EthBalanceMonitor.sol\":5499:5511  needsFunding */\n      dup8\n        /* \"docs.chain.link/samples/Automation/tutorials/EthBalanceMonitor.sol\":5512:5515  idx */\n      dup6\n        /* \"docs.chain.link/samples/Automation/tutorials/EthBalanceMonitor.sol\":5499:5516  needsFunding[idx] */\n      dup2\n      mload\n      dup2\n      lt\n      tag_172\n      jumpi\n      tag_173\n      tag_134\n      jump\t// in\n    tag_173:\n    tag_172:\n      0x20\n      mul\n      0x20\n      add\n      add\n      mload\n        /* \"docs.chain.link/samples/Automation/tutorials/EthBalanceMonitor.sol\":5489:5517  s_targets[needsFunding[idx]] */\n      0xffffffffffffffffffffffffffffffffffffffff\n      and\n      0xffffffffffffffffffffffffffffffffffffffff\n      and\n      dup2\n      mstore\n      0x20\n      add\n      swap1\n      dup2\n      mstore\n      0x20\n      add\n      0x00\n      keccak256\n        /* \"docs.chain.link/samples/Automation/tutorials/EthBalanceMonitor.sol\":5489:5536  s_targets[needsFunding[idx]].lastTopUpTimestamp */\n      0x00\n      add\n      0x19\n        /* \"docs.chain.link/samples/Automation/tutorials/EthBalanceMonitor.sol\":5489:5608  s_targets[needsFunding[idx]].lastTopUpTimestamp = uint56(... */\n      0x0100\n      exp\n      dup2\n      sload\n      dup2\n      0xffffffffffffff\n      mul\n      not\n      and\n      swap1\n      dup4\n      0xffffffffffffff\n      and\n      mul\n      or\n      swap1\n      sstore\n      pop\n        /* \"docs.chain.link/samples/Automation/tutorials/EthBalanceMonitor.sol\":5650:5662  needsFunding */\n      dup5\n        /* \"docs.chain.link/samples/Automation/tutorials/EthBalanceMonitor.sol\":5663:5666  idx */\n      dup3\n        /* \"docs.chain.link/samples/Automation/tutorials/EthBalanceMonitor.sol\":5650:5667  needsFunding[idx] */\n      dup2\n      mload\n      dup2\n      lt\n      tag_174\n      jumpi\n      tag_175\n      tag_134\n      jump\t// in\n    tag_175:\n    tag_174:\n      0x20\n      mul\n      0x20\n      add\n      add\n      mload\n        /* \"docs.chain.link/samples/Automation/tutorials/EthBalanceMonitor.sol\":5635:5668  TopUpSucceeded(needsFunding[idx]) */\n      0xffffffffffffffffffffffffffffffffffffffff\n      and\n      0x9eec55c371a49ce19e0a5792787c79b32dcf7d3490aa737436b49c0978ce9ce9\n      mload(0x40)\n      mload(0x40)\n      dup1\n      swap2\n      sub\n      swap1\n      log2\n        /* \"docs.chain.link/samples/Automation/tutorials/EthBalanceMonitor.sol\":5454:5769  if (success) {... */\n      jump(tag_176)\n    tag_171:\n        /* \"docs.chain.link/samples/Automation/tutorials/EthBalanceMonitor.sol\":5732:5744  needsFunding */\n      dup5\n        /* \"docs.chain.link/samples/Automation/tutorials/EthBalanceMonitor.sol\":5745:5748  idx */\n      dup3\n        /* \"docs.chain.link/samples/Automation/tutorials/EthBalanceMonitor.sol\":5732:5749  needsFunding[idx] */\n      dup2\n      mload\n      dup2\n      lt\n      tag_177\n      jumpi\n      tag_178\n      tag_134\n      jump\t// in\n    tag_178:\n    tag_177:\n      0x20\n      mul\n      0x20\n      add\n      add\n      mload\n        /* \"docs.chain.link/samples/Automation/tutorials/EthBalanceMonitor.sol\":5720:5750  TopUpFailed(needsFunding[idx]) */\n      0xffffffffffffffffffffffffffffffffffffffff\n      and\n      0xa9ff7a9b96721b0e16adb7de9db0764fbfd6a4516d4d165f9564e8c3755eb105\n      mload(0x40)\n      mload(0x40)\n      dup1\n      swap2\n      sub\n      swap1\n      log2\n        /* \"docs.chain.link/samples/Automation/tutorials/EthBalanceMonitor.sol\":5454:5769  if (success) {... */\n    tag_176:\n        /* \"docs.chain.link/samples/Automation/tutorials/EthBalanceMonitor.sol\":5311:5783  {... */\n      pop\n        /* \"docs.chain.link/samples/Automation/tutorials/EthBalanceMonitor.sol\":5089:5783  if (... */\n    tag_167:\n        /* \"docs.chain.link/samples/Automation/tutorials/EthBalanceMonitor.sol\":822:828  55_000 */\n      0xd6d8\n        /* \"docs.chain.link/samples/Automation/tutorials/EthBalanceMonitor.sol\":5800:5809  gasleft() */\n      gas\n        /* \"docs.chain.link/samples/Automation/tutorials/EthBalanceMonitor.sol\":5800:5832  gasleft() < MIN_GAS_FOR_TRANSFER */\n      lt\n        /* \"docs.chain.link/samples/Automation/tutorials/EthBalanceMonitor.sol\":5796:5873  if (gasleft() < MIN_GAS_FOR_TRANSFER) {... */\n      iszero\n      tag_179\n      jumpi\n        /* \"docs.chain.link/samples/Automation/tutorials/EthBalanceMonitor.sol\":5852:5859  return; */\n      pop\n      pop\n      pop\n      jump(tag_155)\n        /* \"docs.chain.link/samples/Automation/tutorials/EthBalanceMonitor.sol\":5796:5873  if (gasleft() < MIN_GAS_FOR_TRANSFER) {... */\n    tag_179:\n        /* \"docs.chain.link/samples/Automation/tutorials/EthBalanceMonitor.sol\":5017:5022  idx++ */\n      dup1\n      dup1\n      0x01\n      add\n      swap2\n      pop\n      pop\n        /* \"docs.chain.link/samples/Automation/tutorials/EthBalanceMonitor.sol\":4968:5883  for (uint256 idx = 0; idx < needsFunding.length; idx++) {... */\n      jump(tag_157)\n    tag_158:\n      pop\n        /* \"docs.chain.link/samples/Automation/tutorials/EthBalanceMonitor.sol\":4865:5889  {... */\n      pop\n      pop\n        /* \"@openzeppelin/contracts/security/Pausable.sol\":1268:1269  _ */\n    tag_155:\n        /* \"docs.chain.link/samples/Automation/tutorials/EthBalanceMonitor.sol\":4798:5889  function topUp(address[] memory needsFunding) public whenNotPaused {... */\n      pop\n      jump\t// out\n        /* \"docs.chain.link/samples/Automation/tutorials/EthBalanceMonitor.sol\":9655:9720  function unpause() external onlyOwner {... */\n    tag_50:\n        /* \"@chainlink/contracts@1.1.0/src/v0.8/shared/access/ConfirmedOwnerWithProposal.sol\":2075:2095  _validateOwnership() */\n      tag_181\n        /* \"@chainlink/contracts@1.1.0/src/v0.8/shared/access/ConfirmedOwnerWithProposal.sol\":2075:2093  _validateOwnership */\n      tag_113\n        /* \"@chainlink/contracts@1.1.0/src/v0.8/shared/access/ConfirmedOwnerWithProposal.sol\":2075:2095  _validateOwnership() */\n      jump\t// in\n    tag_181:\n        /* \"docs.chain.link/samples/Automation/tutorials/EthBalanceMonitor.sol\":9703:9713  _unpause() */\n      tag_183\n        /* \"docs.chain.link/samples/Automation/tutorials/EthBalanceMonitor.sol\":9703:9711  _unpause */\n      tag_184\n        /* \"docs.chain.link/samples/Automation/tutorials/EthBalanceMonitor.sol\":9703:9713  _unpause() */\n      jump\t// in\n    tag_183:\n        /* \"docs.chain.link/samples/Automation/tutorials/EthBalanceMonitor.sol\":9655:9720  function unpause() external onlyOwner {... */\n      jump\t// out\n        /* \"docs.chain.link/samples/Automation/tutorials/EthBalanceMonitor.sol\":8066:8247  function setMinWaitPeriodSeconds(uint256 period) public onlyOwner {... */\n    tag_55:\n        /* \"@chainlink/contracts@1.1.0/src/v0.8/shared/access/ConfirmedOwnerWithProposal.sol\":2075:2095  _validateOwnership() */\n      tag_186\n        /* \"@chainlink/contracts@1.1.0/src/v0.8/shared/access/ConfirmedOwnerWithProposal.sol\":2075:2093  _validateOwnership */\n      tag_113\n        /* \"@chainlink/contracts@1.1.0/src/v0.8/shared/access/ConfirmedOwnerWithProposal.sol\":2075:2095  _validateOwnership() */\n      jump\t// in\n    tag_186:\n        /* \"docs.chain.link/samples/Automation/tutorials/EthBalanceMonitor.sol\":8147:8199  MinWaitPeriodUpdated(s_minWaitPeriodSeconds, period) */\n      0x04330086c73b1fe1e13cd47a61c692e7c4399b5de08ed94b7ab824684af09323\n        /* \"docs.chain.link/samples/Automation/tutorials/EthBalanceMonitor.sol\":8168:8190  s_minWaitPeriodSeconds */\n      sload(0x03)\n        /* \"docs.chain.link/samples/Automation/tutorials/EthBalanceMonitor.sol\":8192:8198  period */\n      dup3\n        /* \"docs.chain.link/samples/Automation/tutorials/EthBalanceMonitor.sol\":8147:8199  MinWaitPeriodUpdated(s_minWaitPeriodSeconds, period) */\n      mload(0x40)\n      tag_188\n      swap3\n      swap2\n      swap1\n      tag_189\n      jump\t// in\n    tag_188:\n      mload(0x40)\n      dup1\n      swap2\n      sub\n      swap1\n      log1\n        /* \"docs.chain.link/samples/Automation/tutorials/EthBalanceMonitor.sol\":8234:8240  period */\n      dup1\n        /* \"docs.chain.link/samples/Automation/tutorials/EthBalanceMonitor.sol\":8209:8231  s_minWaitPeriodSeconds */\n      0x03\n        /* \"docs.chain.link/samples/Automation/tutorials/EthBalanceMonitor.sol\":8209:8240  s_minWaitPeriodSeconds = period */\n      dup2\n      swap1\n      sstore\n      pop\n        /* \"docs.chain.link/samples/Automation/tutorials/EthBalanceMonitor.sol\":8066:8247  function setMinWaitPeriodSeconds(uint256 period) public onlyOwner {... */\n      pop\n      jump\t// out\n        /* \"docs.chain.link/samples/Automation/tutorials/EthBalanceMonitor.sol\":8562:8675  function getMinWaitPeriodSeconds() external view returns (uint256) {... */\n    tag_58:\n        /* \"docs.chain.link/samples/Automation/tutorials/EthBalanceMonitor.sol\":8620:8627  uint256 */\n      0x00\n        /* \"docs.chain.link/samples/Automation/tutorials/EthBalanceMonitor.sol\":8646:8668  s_minWaitPeriodSeconds */\n      sload(0x03)\n        /* \"docs.chain.link/samples/Automation/tutorials/EthBalanceMonitor.sol\":8639:8668  return s_minWaitPeriodSeconds */\n      swap1\n      pop\n        /* \"docs.chain.link/samples/Automation/tutorials/EthBalanceMonitor.sol\":8562:8675  function getMinWaitPeriodSeconds() external view returns (uint256) {... */\n      swap1\n      jump\t// out\n        /* \"docs.chain.link/samples/Automation/tutorials/EthBalanceMonitor.sol\":6734:6959  function performUpkeep(... */\n    tag_65:\n        /* \"docs.chain.link/samples/Automation/tutorials/EthBalanceMonitor.sol\":9779:9797  s_forwarderAddress */\n      0x02\n      0x00\n      swap1\n      sload\n      swap1\n      0x0100\n      exp\n      swap1\n      div\n      0xffffffffffffffffffffffffffffffffffffffff\n      and\n        /* \"docs.chain.link/samples/Automation/tutorials/EthBalanceMonitor.sol\":9765:9797  msg.sender != s_forwarderAddress */\n      0xffffffffffffffffffffffffffffffffffffffff\n      and\n        /* \"docs.chain.link/samples/Automation/tutorials/EthBalanceMonitor.sol\":9765:9775  msg.sender */\n      caller\n        /* \"docs.chain.link/samples/Automation/tutorials/EthBalanceMonitor.sol\":9765:9797  msg.sender != s_forwarderAddress */\n      0xffffffffffffffffffffffffffffffffffffffff\n      and\n      eq\n        /* \"docs.chain.link/samples/Automation/tutorials/EthBalanceMonitor.sol\":9761:9846  if (msg.sender != s_forwarderAddress) {... */\n      tag_192\n      jumpi\n        /* \"docs.chain.link/samples/Automation/tutorials/EthBalanceMonitor.sol\":9820:9835  OnlyForwarder() */\n      mload(0x40)\n      0xa73d374100000000000000000000000000000000000000000000000000000000\n      dup2\n      mstore\n      0x04\n      add\n      mload(0x40)\n      dup1\n      swap2\n      sub\n      swap1\n      revert\n        /* \"docs.chain.link/samples/Automation/tutorials/EthBalanceMonitor.sol\":9761:9846  if (msg.sender != s_forwarderAddress) {... */\n    tag_192:\n        /* \"@openzeppelin/contracts/security/Pausable.sol\":1239:1258  _requireNotPaused() */\n      tag_194\n        /* \"@openzeppelin/contracts/security/Pausable.sol\":1239:1256  _requireNotPaused */\n      tag_154\n        /* \"@openzeppelin/contracts/security/Pausable.sol\":1239:1258  _requireNotPaused() */\n      jump\t// in\n    tag_194:\n        /* \"docs.chain.link/samples/Automation/tutorials/EthBalanceMonitor.sol\":6855:6884  address[] memory needsFunding */\n      0x00\n        /* \"docs.chain.link/samples/Automation/tutorials/EthBalanceMonitor.sol\":6898:6909  performData */\n      dup3\n      dup3\n        /* \"docs.chain.link/samples/Automation/tutorials/EthBalanceMonitor.sol\":6887:6923  abi.decode(performData, (address[])) */\n      dup2\n      add\n      swap1\n      tag_196\n      swap2\n      swap1\n      tag_46\n      jump\t// in\n    tag_196:\n        /* \"docs.chain.link/samples/Automation/tutorials/EthBalanceMonitor.sol\":6855:6923  address[] memory needsFunding = abi.decode(performData, (address[])) */\n      swap1\n      pop\n        /* \"docs.chain.link/samples/Automation/tutorials/EthBalanceMonitor.sol\":6933:6952  topUp(needsFunding) */\n      tag_197\n        /* \"docs.chain.link/samples/Automation/tutorials/EthBalanceMonitor.sol\":6939:6951  needsFunding */\n      dup2\n        /* \"docs.chain.link/samples/Automation/tutorials/EthBalanceMonitor.sol\":6933:6938  topUp */\n      tag_47\n        /* \"docs.chain.link/samples/Automation/tutorials/EthBalanceMonitor.sol\":6933:6952  topUp(needsFunding) */\n      jump\t// in\n    tag_197:\n        /* \"docs.chain.link/samples/Automation/tutorials/EthBalanceMonitor.sol\":6845:6959  {... */\n      pop\n        /* \"docs.chain.link/samples/Automation/tutorials/EthBalanceMonitor.sol\":6734:6959  function performUpkeep(... */\n      pop\n      pop\n      jump\t// out\n        /* \"@openzeppelin/contracts/security/Pausable.sol\":1615:1699  function paused() public view virtual returns (bool) {... */\n    tag_68:\n        /* \"@openzeppelin/contracts/security/Pausable.sol\":1662:1666  bool */\n      0x00\n        /* \"@openzeppelin/contracts/security/Pausable.sol\":1685:1692  _paused */\n      0x01\n      0x14\n      swap1\n      sload\n      swap1\n      0x0100\n      exp\n      swap1\n      div\n      0xff\n      and\n        /* \"@openzeppelin/contracts/security/Pausable.sol\":1678:1692  return _paused */\n      swap1\n      pop\n        /* \"@openzeppelin/contracts/security/Pausable.sol\":1615:1699  function paused() public view virtual returns (bool) {... */\n      swap1\n      jump\t// out\n        /* \"docs.chain.link/samples/Automation/tutorials/EthBalanceMonitor.sol\":6154:6554  function checkUpkeep(... */\n    tag_74:\n        /* \"docs.chain.link/samples/Automation/tutorials/EthBalanceMonitor.sol\":6291:6308  bool upkeepNeeded */\n      0x00\n        /* \"docs.chain.link/samples/Automation/tutorials/EthBalanceMonitor.sol\":6310:6334  bytes memory performData */\n      0x60\n        /* \"@openzeppelin/contracts/security/Pausable.sol\":1239:1258  _requireNotPaused() */\n      tag_200\n        /* \"@openzeppelin/contracts/security/Pausable.sol\":1239:1256  _requireNotPaused */\n      tag_154\n        /* \"@openzeppelin/contracts/security/Pausable.sol\":1239:1258  _requireNotPaused() */\n      jump\t// in\n    tag_200:\n        /* \"docs.chain.link/samples/Automation/tutorials/EthBalanceMonitor.sol\":6350:6379  address[] memory needsFunding */\n      0x00\n        /* \"docs.chain.link/samples/Automation/tutorials/EthBalanceMonitor.sol\":6382:6407  getUnderfundedAddresses() */\n      tag_202\n        /* \"docs.chain.link/samples/Automation/tutorials/EthBalanceMonitor.sol\":6382:6405  getUnderfundedAddresses */\n      tag_35\n        /* \"docs.chain.link/samples/Automation/tutorials/EthBalanceMonitor.sol\":6382:6407  getUnderfundedAddresses() */\n      jump\t// in\n    tag_202:\n        /* \"docs.chain.link/samples/Automation/tutorials/EthBalanceMonitor.sol\":6350:6407  address[] memory needsFunding = getUnderfundedAddresses() */\n      swap1\n      pop\n        /* \"docs.chain.link/samples/Automation/tutorials/EthBalanceMonitor.sol\":6454:6455  0 */\n      0x00\n        /* \"docs.chain.link/samples/Automation/tutorials/EthBalanceMonitor.sol\":6432:6444  needsFunding */\n      dup2\n        /* \"docs.chain.link/samples/Automation/tutorials/EthBalanceMonitor.sol\":6432:6451  needsFunding.length */\n      mload\n        /* \"docs.chain.link/samples/Automation/tutorials/EthBalanceMonitor.sol\":6432:6455  needsFunding.length > 0 */\n      gt\n        /* \"docs.chain.link/samples/Automation/tutorials/EthBalanceMonitor.sol\":6417:6455  upkeepNeeded = needsFunding.length > 0 */\n      swap3\n      pop\n        /* \"docs.chain.link/samples/Automation/tutorials/EthBalanceMonitor.sol\":6490:6502  needsFunding */\n      dup1\n        /* \"docs.chain.link/samples/Automation/tutorials/EthBalanceMonitor.sol\":6479:6503  abi.encode(needsFunding) */\n      add(0x20, mload(0x40))\n      tag_203\n      swap2\n      swap1\n      tag_37\n      jump\t// in\n    tag_203:\n      mload(0x40)\n      0x20\n      dup2\n      dup4\n      sub\n      sub\n      dup2\n      mstore\n      swap1\n      0x40\n      mstore\n        /* \"docs.chain.link/samples/Automation/tutorials/EthBalanceMonitor.sol\":6465:6503  performData = abi.encode(needsFunding) */\n      swap2\n      pop\n        /* \"docs.chain.link/samples/Automation/tutorials/EthBalanceMonitor.sol\":6513:6547  return (upkeepNeeded, performData) */\n      pop\n        /* \"docs.chain.link/samples/Automation/tutorials/EthBalanceMonitor.sol\":6154:6554  function checkUpkeep(... */\n      swap3\n      pop\n      swap3\n      swap1\n      pop\n      jump\t// out\n        /* \"docs.chain.link/samples/Automation/tutorials/EthBalanceMonitor.sol\":8753:8853  function getWatchList() external view returns (address[] memory) {... */\n    tag_79:\n        /* \"docs.chain.link/samples/Automation/tutorials/EthBalanceMonitor.sol\":8800:8816  address[] memory */\n      0x60\n        /* \"docs.chain.link/samples/Automation/tutorials/EthBalanceMonitor.sol\":8835:8846  s_watchList */\n      0x04\n        /* \"docs.chain.link/samples/Automation/tutorials/EthBalanceMonitor.sol\":8828:8846  return s_watchList */\n      dup1\n      sload\n      dup1\n      0x20\n      mul\n      0x20\n      add\n      mload(0x40)\n      swap1\n      dup2\n      add\n      0x40\n      mstore\n      dup1\n      swap3\n      swap2\n      swap1\n      dup2\n      dup2\n      mstore\n      0x20\n      add\n      dup3\n      dup1\n      sload\n      dup1\n      iszero\n      tag_205\n      jumpi\n      0x20\n      mul\n      dup3\n      add\n      swap2\n      swap1\n      0x00\n      mstore\n      keccak256(0x00, 0x20)\n      swap1\n    tag_206:\n      dup2\n      0x00\n      swap1\n      sload\n      swap1\n      0x0100\n      exp\n      swap1\n      div\n      0xffffffffffffffffffffffffffffffffffffffff\n      and\n      0xffffffffffffffffffffffffffffffffffffffff\n      and\n      dup2\n      mstore\n      0x20\n      add\n      swap1\n      0x01\n      add\n      swap1\n      dup1\n      dup4\n      gt\n      tag_206\n      jumpi\n    tag_205:\n      pop\n      pop\n      pop\n      pop\n      pop\n      swap1\n      pop\n        /* \"docs.chain.link/samples/Automation/tutorials/EthBalanceMonitor.sol\":8753:8853  function getWatchList() external view returns (address[] memory) {... */\n      swap1\n      jump\t// out\n        /* \"@chainlink/contracts@1.1.0/src/v0.8/shared/access/ConfirmedOwnerWithProposal.sol\":1026:1342  function acceptOwnership() external override {... */\n    tag_83:\n        /* \"@chainlink/contracts@1.1.0/src/v0.8/shared/access/ConfirmedOwnerWithProposal.sol\":1150:1164  s_pendingOwner */\n      0x01\n      0x00\n      swap1\n      sload\n      swap1\n      0x0100\n      exp\n      swap1\n      div\n      0xffffffffffffffffffffffffffffffffffffffff\n      and\n        /* \"@chainlink/contracts@1.1.0/src/v0.8/shared/access/ConfirmedOwnerWithProposal.sol\":1136:1164  msg.sender == s_pendingOwner */\n      0xffffffffffffffffffffffffffffffffffffffff\n      and\n        /* \"@chainlink/contracts@1.1.0/src/v0.8/shared/access/ConfirmedOwnerWithProposal.sol\":1136:1146  msg.sender */\n      caller\n        /* \"@chainlink/contracts@1.1.0/src/v0.8/shared/access/ConfirmedOwnerWithProposal.sol\":1136:1164  msg.sender == s_pendingOwner */\n      0xffffffffffffffffffffffffffffffffffffffff\n      and\n      eq\n        /* \"@chainlink/contracts@1.1.0/src/v0.8/shared/access/ConfirmedOwnerWithProposal.sol\":1128:1191  require(msg.sender == s_pendingOwner, \"Must be proposed owner\") */\n      tag_208\n      jumpi\n      mload(0x40)\n      0x08c379a000000000000000000000000000000000000000000000000000000000\n      dup2\n      mstore\n      0x04\n      add\n      tag_209\n      swap1\n      tag_210\n      jump\t// in\n    tag_209:\n      mload(0x40)\n      dup1\n      swap2\n      sub\n      swap1\n      revert\n    tag_208:\n        /* \"@chainlink/contracts@1.1.0/src/v0.8/shared/access/ConfirmedOwnerWithProposal.sol\":1198:1214  address oldOwner */\n      0x00\n        /* \"@chainlink/contracts@1.1.0/src/v0.8/shared/access/ConfirmedOwnerWithProposal.sol\":1217:1224  s_owner */\n      dup1\n      0x00\n      swap1\n      sload\n      swap1\n      0x0100\n      exp\n      swap1\n      div\n      0xffffffffffffffffffffffffffffffffffffffff\n      and\n        /* \"@chainlink/contracts@1.1.0/src/v0.8/shared/access/ConfirmedOwnerWithProposal.sol\":1198:1224  address oldOwner = s_owner */\n      swap1\n      pop\n        /* \"@chainlink/contracts@1.1.0/src/v0.8/shared/access/ConfirmedOwnerWithProposal.sol\":1240:1250  msg.sender */\n      caller\n        /* \"@chainlink/contracts@1.1.0/src/v0.8/shared/access/ConfirmedOwnerWithProposal.sol\":1230:1237  s_owner */\n      0x00\n      dup1\n        /* \"@chainlink/contracts@1.1.0/src/v0.8/shared/access/ConfirmedOwnerWithProposal.sol\":1230:1250  s_owner = msg.sender */\n      0x0100\n      exp\n      dup2\n      sload\n      dup2\n      0xffffffffffffffffffffffffffffffffffffffff\n      mul\n      not\n      and\n      swap1\n      dup4\n      0xffffffffffffffffffffffffffffffffffffffff\n      and\n      mul\n      or\n      swap1\n      sstore\n      pop\n        /* \"@chainlink/contracts@1.1.0/src/v0.8/shared/access/ConfirmedOwnerWithProposal.sol\":1281:1282  0 */\n      0x00\n        /* \"@chainlink/contracts@1.1.0/src/v0.8/shared/access/ConfirmedOwnerWithProposal.sol\":1256:1270  s_pendingOwner */\n      0x01\n      0x00\n        /* \"@chainlink/contracts@1.1.0/src/v0.8/shared/access/ConfirmedOwnerWithProposal.sol\":1256:1283  s_pendingOwner = address(0) */\n      0x0100\n      exp\n      dup2\n      sload\n      dup2\n      0xffffffffffffffffffffffffffffffffffffffff\n      mul\n      not\n      and\n      swap1\n      dup4\n      0xffffffffffffffffffffffffffffffffffffffff\n      and\n      mul\n      or\n      swap1\n      sstore\n      pop\n        /* \"@chainlink/contracts@1.1.0/src/v0.8/shared/access/ConfirmedOwnerWithProposal.sol\":1326:1336  msg.sender */\n      caller\n        /* \"@chainlink/contracts@1.1.0/src/v0.8/shared/access/ConfirmedOwnerWithProposal.sol\":1295:1337  OwnershipTransferred(oldOwner, msg.sender) */\n      0xffffffffffffffffffffffffffffffffffffffff\n      and\n        /* \"@chainlink/contracts@1.1.0/src/v0.8/shared/access/ConfirmedOwnerWithProposal.sol\":1316:1324  oldOwner */\n      dup2\n        /* \"@chainlink/contracts@1.1.0/src/v0.8/shared/access/ConfirmedOwnerWithProposal.sol\":1295:1337  OwnershipTransferred(oldOwner, msg.sender) */\n      0xffffffffffffffffffffffffffffffffffffffff\n      and\n      0x8be0079c531659141344cd1fd0a4f28419497f9722a3daafe3b4186f6b6457e0\n      mload(0x40)\n      mload(0x40)\n      dup1\n      swap2\n      sub\n      swap1\n      log3\n        /* \"@chainlink/contracts@1.1.0/src/v0.8/shared/access/ConfirmedOwnerWithProposal.sol\":1071:1342  {... */\n      pop\n        /* \"@chainlink/contracts@1.1.0/src/v0.8/shared/access/ConfirmedOwnerWithProposal.sol\":1026:1342  function acceptOwnership() external override {... */\n      jump\t// out\n        /* \"docs.chain.link/samples/Automation/tutorials/EthBalanceMonitor.sol\":8953:9438  function getAccountInfo(... */\n    tag_88:\n        /* \"docs.chain.link/samples/Automation/tutorials/EthBalanceMonitor.sol\":9074:9087  bool isActive */\n      0x00\n        /* \"docs.chain.link/samples/Automation/tutorials/EthBalanceMonitor.sol\":9101:9121  uint96 minBalanceWei */\n      dup1\n        /* \"docs.chain.link/samples/Automation/tutorials/EthBalanceMonitor.sol\":9135:9156  uint96 topUpAmountWei */\n      0x00\n        /* \"docs.chain.link/samples/Automation/tutorials/EthBalanceMonitor.sol\":9170:9195  uint56 lastTopUpTimestamp */\n      dup1\n        /* \"docs.chain.link/samples/Automation/tutorials/EthBalanceMonitor.sol\":9220:9240  Target memory target */\n      0x00\n        /* \"docs.chain.link/samples/Automation/tutorials/EthBalanceMonitor.sol\":9243:9252  s_targets */\n      0x05\n        /* \"docs.chain.link/samples/Automation/tutorials/EthBalanceMonitor.sol\":9243:9267  s_targets[targetAddress] */\n      0x00\n        /* \"docs.chain.link/samples/Automation/tutorials/EthBalanceMonitor.sol\":9253:9266  targetAddress */\n      dup8\n        /* \"docs.chain.link/samples/Automation/tutorials/EthBalanceMonitor.sol\":9243:9267  s_targets[targetAddress] */\n      0xffffffffffffffffffffffffffffffffffffffff\n      and\n      0xffffffffffffffffffffffffffffffffffffffff\n      and\n      dup2\n      mstore\n      0x20\n      add\n      swap1\n      dup2\n      mstore\n      0x20\n      add\n      0x00\n      keccak256\n        /* \"docs.chain.link/samples/Automation/tutorials/EthBalanceMonitor.sol\":9220:9267  Target memory target = s_targets[targetAddress] */\n      mload(0x40)\n      dup1\n      0x80\n      add\n      0x40\n      mstore\n      swap1\n      dup2\n      0x00\n      dup3\n      add\n      0x00\n      swap1\n      sload\n      swap1\n      0x0100\n      exp\n      swap1\n      div\n      0xff\n      and\n      iszero\n      iszero\n      iszero\n      iszero\n      dup2\n      mstore\n      0x20\n      add\n      0x00\n      dup3\n      add\n      0x01\n      swap1\n      sload\n      swap1\n      0x0100\n      exp\n      swap1\n      div\n      0xffffffffffffffffffffffff\n      and\n      0xffffffffffffffffffffffff\n      and\n      0xffffffffffffffffffffffff\n      and\n      dup2\n      mstore\n      0x20\n      add\n      0x00\n      dup3\n      add\n      0x0d\n      swap1\n      sload\n      swap1\n      0x0100\n      exp\n      swap1\n      div\n      0xffffffffffffffffffffffff\n      and\n      0xffffffffffffffffffffffff\n      and\n      0xffffffffffffffffffffffff\n      and\n      dup2\n      mstore\n      0x20\n      add\n      0x00\n      dup3\n      add\n      0x19\n      swap1\n      sload\n      swap1\n      0x0100\n      exp\n      swap1\n      div\n      0xffffffffffffff\n      and\n      0xffffffffffffff\n      and\n      0xffffffffffffff\n      and\n      dup2\n      mstore\n      pop\n      pop\n      swap1\n      pop\n        /* \"docs.chain.link/samples/Automation/tutorials/EthBalanceMonitor.sol\":9298:9304  target */\n      dup1\n        /* \"docs.chain.link/samples/Automation/tutorials/EthBalanceMonitor.sol\":9298:9313  target.isActive */\n      0x00\n      add\n      mload\n        /* \"docs.chain.link/samples/Automation/tutorials/EthBalanceMonitor.sol\":9327:9333  target */\n      dup2\n        /* \"docs.chain.link/samples/Automation/tutorials/EthBalanceMonitor.sol\":9327:9347  target.minBalanceWei */\n      0x20\n      add\n      mload\n        /* \"docs.chain.link/samples/Automation/tutorials/EthBalanceMonitor.sol\":9361:9367  target */\n      dup3\n        /* \"docs.chain.link/samples/Automation/tutorials/EthBalanceMonitor.sol\":9361:9382  target.topUpAmountWei */\n      0x40\n      add\n      mload\n        /* \"docs.chain.link/samples/Automation/tutorials/EthBalanceMonitor.sol\":9396:9402  target */\n      dup4\n        /* \"docs.chain.link/samples/Automation/tutorials/EthBalanceMonitor.sol\":9396:9421  target.lastTopUpTimestamp */\n      0x60\n      add\n      mload\n        /* \"docs.chain.link/samples/Automation/tutorials/EthBalanceMonitor.sol\":9277:9431  return (... */\n      swap5\n      pop\n      swap5\n      pop\n      swap5\n      pop\n      swap5\n      pop\n      pop\n        /* \"docs.chain.link/samples/Automation/tutorials/EthBalanceMonitor.sol\":8953:9438  function getAccountInfo(... */\n      swap2\n      swap4\n      pop\n      swap2\n      swap4\n      jump\t// out\n        /* \"docs.chain.link/samples/Automation/tutorials/EthBalanceMonitor.sol\":9535:9596  function pause() external onlyOwner {... */\n    tag_93:\n        /* \"@chainlink/contracts@1.1.0/src/v0.8/shared/access/ConfirmedOwnerWithProposal.sol\":2075:2095  _validateOwnership() */\n      tag_213\n        /* \"@chainlink/contracts@1.1.0/src/v0.8/shared/access/ConfirmedOwnerWithProposal.sol\":2075:2093  _validateOwnership */\n      tag_113\n        /* \"@chainlink/contracts@1.1.0/src/v0.8/shared/access/ConfirmedOwnerWithProposal.sol\":2075:2095  _validateOwnership() */\n      jump\t// in\n    tag_213:\n        /* \"docs.chain.link/samples/Automation/tutorials/EthBalanceMonitor.sol\":9581:9589  _pause() */\n      tag_215\n        /* \"docs.chain.link/samples/Automation/tutorials/EthBalanceMonitor.sol\":9581:9587  _pause */\n      tag_216\n        /* \"docs.chain.link/samples/Automation/tutorials/EthBalanceMonitor.sol\":9581:9589  _pause() */\n      jump\t// in\n    tag_215:\n        /* \"docs.chain.link/samples/Automation/tutorials/EthBalanceMonitor.sol\":9535:9596  function pause() external onlyOwner {... */\n      jump\t// out\n        /* \"@chainlink/contracts@1.1.0/src/v0.8/shared/access/ConfirmedOwnerWithProposal.sol\":1382:1463  function owner() public view override returns (address) {... */\n    tag_96:\n        /* \"@chainlink/contracts@1.1.0/src/v0.8/shared/access/ConfirmedOwnerWithProposal.sol\":1429:1436  address */\n      0x00\n        /* \"@chainlink/contracts@1.1.0/src/v0.8/shared/access/ConfirmedOwnerWithProposal.sol\":1451:1458  s_owner */\n      dup1\n      0x00\n      swap1\n      sload\n      swap1\n      0x0100\n      exp\n      swap1\n      div\n      0xffffffffffffffffffffffffffffffffffffffff\n      and\n        /* \"@chainlink/contracts@1.1.0/src/v0.8/shared/access/ConfirmedOwnerWithProposal.sol\":1444:1458  return s_owner */\n      swap1\n      pop\n        /* \"@chainlink/contracts@1.1.0/src/v0.8/shared/access/ConfirmedOwnerWithProposal.sol\":1382:1463  function owner() public view override returns (address) {... */\n      swap1\n      jump\t// out\n        /* \"docs.chain.link/samples/Automation/tutorials/EthBalanceMonitor.sol\":2248:3478  function setWatchList(... */\n    tag_102:\n        /* \"@chainlink/contracts@1.1.0/src/v0.8/shared/access/ConfirmedOwnerWithProposal.sol\":2075:2095  _validateOwnership() */\n      tag_219\n        /* \"@chainlink/contracts@1.1.0/src/v0.8/shared/access/ConfirmedOwnerWithProposal.sol\":2075:2093  _validateOwnership */\n      tag_113\n        /* \"@chainlink/contracts@1.1.0/src/v0.8/shared/access/ConfirmedOwnerWithProposal.sol\":2075:2095  _validateOwnership() */\n      jump\t// in\n    tag_219:\n        /* \"docs.chain.link/samples/Automation/tutorials/EthBalanceMonitor.sol\":2465:2479  minBalancesWei */\n      dup4\n      dup4\n        /* \"docs.chain.link/samples/Automation/tutorials/EthBalanceMonitor.sol\":2465:2486  minBalancesWei.length */\n      swap1\n      pop\n        /* \"docs.chain.link/samples/Automation/tutorials/EthBalanceMonitor.sol\":2445:2454  addresses */\n      dup7\n      dup7\n        /* \"docs.chain.link/samples/Automation/tutorials/EthBalanceMonitor.sol\":2445:2461  addresses.length */\n      swap1\n      pop\n        /* \"docs.chain.link/samples/Automation/tutorials/EthBalanceMonitor.sol\":2445:2486  addresses.length != minBalancesWei.length */\n      eq\n      iszero\n        /* \"docs.chain.link/samples/Automation/tutorials/EthBalanceMonitor.sol\":2445:2544  addresses.length != minBalancesWei.length ||... */\n      dup1\n      tag_221\n      jumpi\n      pop\n        /* \"docs.chain.link/samples/Automation/tutorials/EthBalanceMonitor.sol\":2522:2537  topUpAmountsWei */\n      dup2\n      dup2\n        /* \"docs.chain.link/samples/Automation/tutorials/EthBalanceMonitor.sol\":2522:2544  topUpAmountsWei.length */\n      swap1\n      pop\n        /* \"docs.chain.link/samples/Automation/tutorials/EthBalanceMonitor.sol\":2502:2511  addresses */\n      dup7\n      dup7\n        /* \"docs.chain.link/samples/Automation/tutorials/EthBalanceMonitor.sol\":2502:2518  addresses.length */\n      swap1\n      pop\n        /* \"docs.chain.link/samples/Automation/tutorials/EthBalanceMonitor.sol\":2502:2544  addresses.length != topUpAmountsWei.length */\n      eq\n      iszero\n        /* \"docs.chain.link/samples/Automation/tutorials/EthBalanceMonitor.sol\":2445:2544  addresses.length != minBalancesWei.length ||... */\n    tag_221:\n        /* \"docs.chain.link/samples/Automation/tutorials/EthBalanceMonitor.sol\":2428:2605  if (... */\n      iszero\n      tag_222\n      jumpi\n        /* \"docs.chain.link/samples/Automation/tutorials/EthBalanceMonitor.sol\":2576:2594  InvalidWatchList() */\n      mload(0x40)\n      0x3869bbe600000000000000000000000000000000000000000000000000000000\n      dup2\n      mstore\n      0x04\n      add\n      mload(0x40)\n      dup1\n      swap2\n      sub\n      swap1\n      revert\n        /* \"docs.chain.link/samples/Automation/tutorials/EthBalanceMonitor.sol\":2428:2605  if (... */\n    tag_222:\n        /* \"docs.chain.link/samples/Automation/tutorials/EthBalanceMonitor.sol\":2614:2643  address[] memory oldWatchList */\n      0x00\n        /* \"docs.chain.link/samples/Automation/tutorials/EthBalanceMonitor.sol\":2646:2657  s_watchList */\n      0x04\n        /* \"docs.chain.link/samples/Automation/tutorials/EthBalanceMonitor.sol\":2614:2657  address[] memory oldWatchList = s_watchList */\n      dup1\n      sload\n      dup1\n      0x20\n      mul\n      0x20\n      add\n      mload(0x40)\n      swap1\n      dup2\n      add\n      0x40\n      mstore\n      dup1\n      swap3\n      swap2\n      swap1\n      dup2\n      dup2\n      mstore\n      0x20\n      add\n      dup3\n      dup1\n      sload\n      dup1\n      iszero\n      tag_223\n      jumpi\n      0x20\n      mul\n      dup3\n      add\n      swap2\n      swap1\n      0x00\n      mstore\n      keccak256(0x00, 0x20)\n      swap1\n    tag_224:\n      dup2\n      0x00\n      swap1\n      sload\n      swap1\n      0x0100\n      exp\n      swap1\n      div\n      0xffffffffffffffffffffffffffffffffffffffff\n      and\n      0xffffffffffffffffffffffffffffffffffffffff\n      and\n      dup2\n      mstore\n      0x20\n      add\n      swap1\n      0x01\n      add\n      swap1\n      dup1\n      dup4\n      gt\n      tag_224\n      jumpi\n    tag_223:\n      pop\n      pop\n      pop\n      pop\n      pop\n      swap1\n      pop\n        /* \"docs.chain.link/samples/Automation/tutorials/EthBalanceMonitor.sol\":2672:2683  uint256 idx */\n      0x00\n        /* \"docs.chain.link/samples/Automation/tutorials/EthBalanceMonitor.sol\":2667:2793  for (uint256 idx = 0; idx < oldWatchList.length; idx++) {... */\n    tag_225:\n        /* \"docs.chain.link/samples/Automation/tutorials/EthBalanceMonitor.sol\":2695:2707  oldWatchList */\n      dup2\n        /* \"docs.chain.link/samples/Automation/tutorials/EthBalanceMonitor.sol\":2695:2714  oldWatchList.length */\n      mload\n        /* \"docs.chain.link/samples/Automation/tutorials/EthBalanceMonitor.sol\":2689:2692  idx */\n      dup2\n        /* \"docs.chain.link/samples/Automation/tutorials/EthBalanceMonitor.sol\":2689:2714  idx < oldWatchList.length */\n      lt\n        /* \"docs.chain.link/samples/Automation/tutorials/EthBalanceMonitor.sol\":2667:2793  for (uint256 idx = 0; idx < oldWatchList.length; idx++) {... */\n      iszero\n      tag_226\n      jumpi\n        /* \"docs.chain.link/samples/Automation/tutorials/EthBalanceMonitor.sol\":2777:2782  false */\n      0x00\n        /* \"docs.chain.link/samples/Automation/tutorials/EthBalanceMonitor.sol\":2737:2746  s_targets */\n      0x05\n        /* \"docs.chain.link/samples/Automation/tutorials/EthBalanceMonitor.sol\":2737:2765  s_targets[oldWatchList[idx]] */\n      0x00\n        /* \"docs.chain.link/samples/Automation/tutorials/EthBalanceMonitor.sol\":2747:2759  oldWatchList */\n      dup5\n        /* \"docs.chain.link/samples/Automation/tutorials/EthBalanceMonitor.sol\":2760:2763  idx */\n      dup5\n        /* \"docs.chain.link/samples/Automation/tutorials/EthBalanceMonitor.sol\":2747:2764  oldWatchList[idx] */\n      dup2\n      mload\n      dup2\n      lt\n      tag_228\n      jumpi\n      tag_229\n      tag_134\n      jump\t// in\n    tag_229:\n    tag_228:\n      0x20\n      mul\n      0x20\n      add\n      add\n      mload\n        /* \"docs.chain.link/samples/Automation/tutorials/EthBalanceMonitor.sol\":2737:2765  s_targets[oldWatchList[idx]] */\n      0xffffffffffffffffffffffffffffffffffffffff\n      and\n      0xffffffffffffffffffffffffffffffffffffffff\n      and\n      dup2\n      mstore\n      0x20\n      add\n      swap1\n      dup2\n      mstore\n      0x20\n      add\n      0x00\n      keccak256\n        /* \"docs.chain.link/samples/Automation/tutorials/EthBalanceMonitor.sol\":2737:2774  s_targets[oldWatchList[idx]].isActive */\n      0x00\n      add\n      0x00\n        /* \"docs.chain.link/samples/Automation/tutorials/EthBalanceMonitor.sol\":2737:2782  s_targets[oldWatchList[idx]].isActive = false */\n      0x0100\n      exp\n      dup2\n      sload\n      dup2\n      0xff\n      mul\n      not\n      and\n      swap1\n      dup4\n      iszero\n      iszero\n      mul\n      or\n      swap1\n      sstore\n      pop\n        /* \"docs.chain.link/samples/Automation/tutorials/EthBalanceMonitor.sol\":2716:2721  idx++ */\n      dup1\n      dup1\n      0x01\n      add\n      swap2\n      pop\n      pop\n        /* \"docs.chain.link/samples/Automation/tutorials/EthBalanceMonitor.sol\":2667:2793  for (uint256 idx = 0; idx < oldWatchList.length; idx++) {... */\n      jump(tag_225)\n    tag_226:\n      pop\n        /* \"docs.chain.link/samples/Automation/tutorials/EthBalanceMonitor.sol\":2807:2818  uint256 idx */\n      0x00\n        /* \"docs.chain.link/samples/Automation/tutorials/EthBalanceMonitor.sol\":2802:3439  for (uint256 idx = 0; idx < addresses.length; idx++) {... */\n    tag_230:\n        /* \"docs.chain.link/samples/Automation/tutorials/EthBalanceMonitor.sol\":2830:2839  addresses */\n      dup8\n      dup8\n        /* \"docs.chain.link/samples/Automation/tutorials/EthBalanceMonitor.sol\":2830:2846  addresses.length */\n      swap1\n      pop\n        /* \"docs.chain.link/samples/Automation/tutorials/EthBalanceMonitor.sol\":2824:2827  idx */\n      dup2\n        /* \"docs.chain.link/samples/Automation/tutorials/EthBalanceMonitor.sol\":2824:2846  idx < addresses.length */\n      lt\n        /* \"docs.chain.link/samples/Automation/tutorials/EthBalanceMonitor.sol\":2802:3439  for (uint256 idx = 0; idx < addresses.length; idx++) {... */\n      iszero\n      tag_231\n      jumpi\n        /* \"docs.chain.link/samples/Automation/tutorials/EthBalanceMonitor.sol\":2873:2882  s_targets */\n      0x05\n        /* \"docs.chain.link/samples/Automation/tutorials/EthBalanceMonitor.sol\":2873:2898  s_targets[addresses[idx]] */\n      0x00\n        /* \"docs.chain.link/samples/Automation/tutorials/EthBalanceMonitor.sol\":2883:2892  addresses */\n      dup10\n      dup10\n        /* \"docs.chain.link/samples/Automation/tutorials/EthBalanceMonitor.sol\":2893:2896  idx */\n      dup5\n        /* \"docs.chain.link/samples/Automation/tutorials/EthBalanceMonitor.sol\":2883:2897  addresses[idx] */\n      dup2\n      dup2\n      lt\n      tag_233\n      jumpi\n      tag_234\n      tag_134\n      jump\t// in\n    tag_234:\n    tag_233:\n      swap1\n      pop\n      0x20\n      mul\n      add\n      0x20\n      dup2\n      add\n      swap1\n      tag_235\n      swap2\n      swap1\n      tag_87\n      jump\t// in\n    tag_235:\n        /* \"docs.chain.link/samples/Automation/tutorials/EthBalanceMonitor.sol\":2873:2898  s_targets[addresses[idx]] */\n      0xffffffffffffffffffffffffffffffffffffffff\n      and\n      0xffffffffffffffffffffffffffffffffffffffff\n      and\n      dup2\n      mstore\n      0x20\n      add\n      swap1\n      dup2\n      mstore\n      0x20\n      add\n      0x00\n      keccak256\n        /* \"docs.chain.link/samples/Automation/tutorials/EthBalanceMonitor.sol\":2873:2907  s_targets[addresses[idx]].isActive */\n      0x00\n      add\n      0x00\n      swap1\n      sload\n      swap1\n      0x0100\n      exp\n      swap1\n      div\n      0xff\n      and\n        /* \"docs.chain.link/samples/Automation/tutorials/EthBalanceMonitor.sol\":2869:2981  if (s_targets[addresses[idx]].isActive) {... */\n      iszero\n      tag_236\n      jumpi\n        /* \"docs.chain.link/samples/Automation/tutorials/EthBalanceMonitor.sol\":2951:2960  addresses */\n      dup8\n      dup8\n        /* \"docs.chain.link/samples/Automation/tutorials/EthBalanceMonitor.sol\":2961:2964  idx */\n      dup3\n        /* \"docs.chain.link/samples/Automation/tutorials/EthBalanceMonitor.sol\":2951:2965  addresses[idx] */\n      dup2\n      dup2\n      lt\n      tag_237\n      jumpi\n      tag_238\n      tag_134\n      jump\t// in\n    tag_238:\n    tag_237:\n      swap1\n      pop\n      0x20\n      mul\n      add\n      0x20\n      dup2\n      add\n      swap1\n      tag_239\n      swap2\n      swap1\n      tag_87\n      jump\t// in\n    tag_239:\n        /* \"docs.chain.link/samples/Automation/tutorials/EthBalanceMonitor.sol\":2934:2966  DuplicateAddress(addresses[idx]) */\n      mload(0x40)\n      0x9f2277f300000000000000000000000000000000000000000000000000000000\n      dup2\n      mstore\n      0x04\n      add\n      tag_240\n      swap2\n      swap1\n      tag_42\n      jump\t// in\n    tag_240:\n      mload(0x40)\n      dup1\n      swap2\n      sub\n      swap1\n      revert\n        /* \"docs.chain.link/samples/Automation/tutorials/EthBalanceMonitor.sol\":2869:2981  if (s_targets[addresses[idx]].isActive) {... */\n    tag_236:\n        /* \"docs.chain.link/samples/Automation/tutorials/EthBalanceMonitor.sol\":3024:3025  0 */\n      0x00\n        /* \"docs.chain.link/samples/Automation/tutorials/EthBalanceMonitor.sol\":2998:3026  addresses[idx] == address(0) */\n      0xffffffffffffffffffffffffffffffffffffffff\n      and\n        /* \"docs.chain.link/samples/Automation/tutorials/EthBalanceMonitor.sol\":2998:3007  addresses */\n      dup9\n      dup9\n        /* \"docs.chain.link/samples/Automation/tutorials/EthBalanceMonitor.sol\":3008:3011  idx */\n      dup4\n        /* \"docs.chain.link/samples/Automation/tutorials/EthBalanceMonitor.sol\":2998:3012  addresses[idx] */\n      dup2\n      dup2\n      lt\n      tag_241\n      jumpi\n      tag_242\n      tag_134\n      jump\t// in\n    tag_242:\n    tag_241:\n      swap1\n      pop\n      0x20\n      mul\n      add\n      0x20\n      dup2\n      add\n      swap1\n      tag_243\n      swap2\n      swap1\n      tag_87\n      jump\t// in\n    tag_243:\n        /* \"docs.chain.link/samples/Automation/tutorials/EthBalanceMonitor.sol\":2998:3026  addresses[idx] == address(0) */\n      0xffffffffffffffffffffffffffffffffffffffff\n      and\n      sub\n        /* \"docs.chain.link/samples/Automation/tutorials/EthBalanceMonitor.sol\":2994:3086  if (addresses[idx] == address(0)) {... */\n      tag_244\n      jumpi\n        /* \"docs.chain.link/samples/Automation/tutorials/EthBalanceMonitor.sol\":3053:3071  InvalidWatchList() */\n      mload(0x40)\n      0x3869bbe600000000000000000000000000000000000000000000000000000000\n      dup2\n      mstore\n      0x04\n      add\n      mload(0x40)\n      dup1\n      swap2\n      sub\n      swap1\n      revert\n        /* \"docs.chain.link/samples/Automation/tutorials/EthBalanceMonitor.sol\":2994:3086  if (addresses[idx] == address(0)) {... */\n    tag_244:\n        /* \"docs.chain.link/samples/Automation/tutorials/EthBalanceMonitor.sol\":3127:3128  0 */\n      0x00\n        /* \"docs.chain.link/samples/Automation/tutorials/EthBalanceMonitor.sol\":3103:3118  topUpAmountsWei */\n      dup5\n      dup5\n        /* \"docs.chain.link/samples/Automation/tutorials/EthBalanceMonitor.sol\":3119:3122  idx */\n      dup4\n        /* \"docs.chain.link/samples/Automation/tutorials/EthBalanceMonitor.sol\":3103:3123  topUpAmountsWei[idx] */\n      dup2\n      dup2\n      lt\n      tag_245\n      jumpi\n      tag_246\n      tag_134\n      jump\t// in\n    tag_246:\n    tag_245:\n      swap1\n      pop\n      0x20\n      mul\n      add\n      0x20\n      dup2\n      add\n      swap1\n      tag_247\n      swap2\n      swap1\n      tag_248\n      jump\t// in\n    tag_247:\n        /* \"docs.chain.link/samples/Automation/tutorials/EthBalanceMonitor.sol\":3103:3128  topUpAmountsWei[idx] == 0 */\n      0xffffffffffffffffffffffff\n      and\n      sub\n        /* \"docs.chain.link/samples/Automation/tutorials/EthBalanceMonitor.sol\":3099:3188  if (topUpAmountsWei[idx] == 0) {... */\n      tag_249\n      jumpi\n        /* \"docs.chain.link/samples/Automation/tutorials/EthBalanceMonitor.sol\":3155:3173  InvalidWatchList() */\n      mload(0x40)\n      0x3869bbe600000000000000000000000000000000000000000000000000000000\n      dup2\n      mstore\n      0x04\n      add\n      mload(0x40)\n      dup1\n      swap2\n      sub\n      swap1\n      revert\n        /* \"docs.chain.link/samples/Automation/tutorials/EthBalanceMonitor.sol\":3099:3188  if (topUpAmountsWei[idx] == 0) {... */\n    tag_249:\n        /* \"docs.chain.link/samples/Automation/tutorials/EthBalanceMonitor.sol\":3229:3428  Target({... */\n      mload(0x40)\n      dup1\n      0x80\n      add\n      0x40\n      mstore\n      dup1\n        /* \"docs.chain.link/samples/Automation/tutorials/EthBalanceMonitor.sol\":3264:3268  true */\n      0x01\n        /* \"docs.chain.link/samples/Automation/tutorials/EthBalanceMonitor.sol\":3229:3428  Target({... */\n      iszero\n      iszero\n      dup2\n      mstore\n      0x20\n      add\n        /* \"docs.chain.link/samples/Automation/tutorials/EthBalanceMonitor.sol\":3301:3315  minBalancesWei */\n      dup8\n      dup8\n        /* \"docs.chain.link/samples/Automation/tutorials/EthBalanceMonitor.sol\":3316:3319  idx */\n      dup5\n        /* \"docs.chain.link/samples/Automation/tutorials/EthBalanceMonitor.sol\":3301:3320  minBalancesWei[idx] */\n      dup2\n      dup2\n      lt\n      tag_250\n      jumpi\n      tag_251\n      tag_134\n      jump\t// in\n    tag_251:\n    tag_250:\n      swap1\n      pop\n      0x20\n      mul\n      add\n      0x20\n      dup2\n      add\n      swap1\n      tag_252\n      swap2\n      swap1\n      tag_248\n      jump\t// in\n    tag_252:\n        /* \"docs.chain.link/samples/Automation/tutorials/EthBalanceMonitor.sol\":3229:3428  Target({... */\n      0xffffffffffffffffffffffff\n      and\n      dup2\n      mstore\n      0x20\n      add\n        /* \"docs.chain.link/samples/Automation/tutorials/EthBalanceMonitor.sol\":3354:3369  topUpAmountsWei */\n      dup6\n      dup6\n        /* \"docs.chain.link/samples/Automation/tutorials/EthBalanceMonitor.sol\":3370:3373  idx */\n      dup5\n        /* \"docs.chain.link/samples/Automation/tutorials/EthBalanceMonitor.sol\":3354:3374  topUpAmountsWei[idx] */\n      dup2\n      dup2\n      lt\n      tag_253\n      jumpi\n      tag_254\n      tag_134\n      jump\t// in\n    tag_254:\n    tag_253:\n      swap1\n      pop\n      0x20\n      mul\n      add\n      0x20\n      dup2\n      add\n      swap1\n      tag_255\n      swap2\n      swap1\n      tag_248\n      jump\t// in\n    tag_255:\n        /* \"docs.chain.link/samples/Automation/tutorials/EthBalanceMonitor.sol\":3229:3428  Target({... */\n      0xffffffffffffffffffffffff\n      and\n      dup2\n      mstore\n      0x20\n      add\n        /* \"docs.chain.link/samples/Automation/tutorials/EthBalanceMonitor.sol\":3412:3413  0 */\n      0x00\n        /* \"docs.chain.link/samples/Automation/tutorials/EthBalanceMonitor.sol\":3229:3428  Target({... */\n      0xffffffffffffff\n      and\n      dup2\n      mstore\n      pop\n        /* \"docs.chain.link/samples/Automation/tutorials/EthBalanceMonitor.sol\":3201:3210  s_targets */\n      0x05\n        /* \"docs.chain.link/samples/Automation/tutorials/EthBalanceMonitor.sol\":3201:3226  s_targets[addresses[idx]] */\n      0x00\n        /* \"docs.chain.link/samples/Automation/tutorials/EthBalanceMonitor.sol\":3211:3220  addresses */\n      dup11\n      dup11\n        /* \"docs.chain.link/samples/Automation/tutorials/EthBalanceMonitor.sol\":3221:3224  idx */\n      dup6\n        /* \"docs.chain.link/samples/Automation/tutorials/EthBalanceMonitor.sol\":3211:3225  addresses[idx] */\n      dup2\n      dup2\n      lt\n      tag_256\n      jumpi\n      tag_257\n      tag_134\n      jump\t// in\n    tag_257:\n    tag_256:\n      swap1\n      pop\n      0x20\n      mul\n      add\n      0x20\n      dup2\n      add\n      swap1\n      tag_258\n      swap2\n      swap1\n      tag_87\n      jump\t// in\n    tag_258:\n        /* \"docs.chain.link/samples/Automation/tutorials/EthBalanceMonitor.sol\":3201:3226  s_targets[addresses[idx]] */\n      0xffffffffffffffffffffffffffffffffffffffff\n      and\n      0xffffffffffffffffffffffffffffffffffffffff\n      and\n      dup2\n      mstore\n      0x20\n      add\n      swap1\n      dup2\n      mstore\n      0x20\n      add\n      0x00\n      keccak256\n        /* \"docs.chain.link/samples/Automation/tutorials/EthBalanceMonitor.sol\":3201:3428  s_targets[addresses[idx]] = Target({... */\n      0x00\n      dup3\n      add\n      mload\n      dup2\n      0x00\n      add\n      exp(0x0100, 0x00)\n      dup2\n      sload\n      dup2\n      0xff\n      mul\n      not\n      and\n      swap1\n      dup4\n      iszero\n      iszero\n      mul\n      or\n      swap1\n      sstore\n      pop\n      0x20\n      dup3\n      add\n      mload\n      dup2\n      0x00\n      add\n      exp(0x0100, 0x01)\n      dup2\n      sload\n      dup2\n      0xffffffffffffffffffffffff\n      mul\n      not\n      and\n      swap1\n      dup4\n      0xffffffffffffffffffffffff\n      and\n      mul\n      or\n      swap1\n      sstore\n      pop\n      0x40\n      dup3\n      add\n      mload\n      dup2\n      0x00\n      add\n      exp(0x0100, 0x0d)\n      dup2\n      sload\n      dup2\n      0xffffffffffffffffffffffff\n      mul\n      not\n      and\n      swap1\n      dup4\n      0xffffffffffffffffffffffff\n      and\n      mul\n      or\n      swap1\n      sstore\n      pop\n      0x60\n      dup3\n      add\n      mload\n      dup2\n      0x00\n      add\n      exp(0x0100, 0x19)\n      dup2\n      sload\n      dup2\n      0xffffffffffffff\n      mul\n      not\n      and\n      swap1\n      dup4\n      0xffffffffffffff\n      and\n      mul\n      or\n      swap1\n      sstore\n      pop\n      swap1\n      pop\n      pop\n        /* \"docs.chain.link/samples/Automation/tutorials/EthBalanceMonitor.sol\":2848:2853  idx++ */\n      dup1\n      dup1\n      0x01\n      add\n      swap2\n      pop\n      pop\n        /* \"docs.chain.link/samples/Automation/tutorials/EthBalanceMonitor.sol\":2802:3439  for (uint256 idx = 0; idx < addresses.length; idx++) {... */\n      jump(tag_230)\n    tag_231:\n      pop\n        /* \"docs.chain.link/samples/Automation/tutorials/EthBalanceMonitor.sol\":3462:3471  addresses */\n      dup7\n      dup7\n        /* \"docs.chain.link/samples/Automation/tutorials/EthBalanceMonitor.sol\":3448:3459  s_watchList */\n      0x04\n        /* \"docs.chain.link/samples/Automation/tutorials/EthBalanceMonitor.sol\":3448:3471  s_watchList = addresses */\n      swap2\n      swap1\n      tag_259\n      swap3\n      swap2\n      swap1\n      tag_260\n      jump\t// in\n    tag_259:\n      pop\n        /* \"docs.chain.link/samples/Automation/tutorials/EthBalanceMonitor.sol\":2418:3478  {... */\n      pop\n        /* \"docs.chain.link/samples/Automation/tutorials/EthBalanceMonitor.sol\":2248:3478  function setWatchList(... */\n      pop\n      pop\n      pop\n      pop\n      pop\n      pop\n      jump\t// out\n        /* \"docs.chain.link/samples/Automation/tutorials/EthBalanceMonitor.sol\":7706:7957  function setForwarderAddress(address forwarderAddress) public onlyOwner {... */\n    tag_106:\n        /* \"@chainlink/contracts@1.1.0/src/v0.8/shared/access/ConfirmedOwnerWithProposal.sol\":2075:2095  _validateOwnership() */\n      tag_262\n        /* \"@chainlink/contracts@1.1.0/src/v0.8/shared/access/ConfirmedOwnerWithProposal.sol\":2075:2093  _validateOwnership */\n      tag_113\n        /* \"@chainlink/contracts@1.1.0/src/v0.8/shared/access/ConfirmedOwnerWithProposal.sol\":2075:2095  _validateOwnership() */\n      jump\t// in\n    tag_262:\n        /* \"docs.chain.link/samples/Automation/tutorials/EthBalanceMonitor.sol\":7824:7825  0 */\n      0x00\n        /* \"docs.chain.link/samples/Automation/tutorials/EthBalanceMonitor.sol\":7796:7826  forwarderAddress != address(0) */\n      0xffffffffffffffffffffffffffffffffffffffff\n      and\n        /* \"docs.chain.link/samples/Automation/tutorials/EthBalanceMonitor.sol\":7796:7812  forwarderAddress */\n      dup2\n        /* \"docs.chain.link/samples/Automation/tutorials/EthBalanceMonitor.sol\":7796:7826  forwarderAddress != address(0) */\n      0xffffffffffffffffffffffffffffffffffffffff\n      and\n      sub\n        /* \"docs.chain.link/samples/Automation/tutorials/EthBalanceMonitor.sol\":7788:7827  require(forwarderAddress != address(0)) */\n      tag_264\n      jumpi\n      0x00\n      dup1\n      revert\n    tag_264:\n        /* \"docs.chain.link/samples/Automation/tutorials/EthBalanceMonitor.sol\":7842:7903  ForwarderAddressUpdated(s_forwarderAddress, forwarderAddress) */\n      0x039ad854736757070884dd787ef1a7f58db33546639d1f3efddcf4a33fb8997e\n        /* \"docs.chain.link/samples/Automation/tutorials/EthBalanceMonitor.sol\":7866:7884  s_forwarderAddress */\n      0x02\n      0x00\n      swap1\n      sload\n      swap1\n      0x0100\n      exp\n      swap1\n      div\n      0xffffffffffffffffffffffffffffffffffffffff\n      and\n        /* \"docs.chain.link/samples/Automation/tutorials/EthBalanceMonitor.sol\":7886:7902  forwarderAddress */\n      dup3\n        /* \"docs.chain.link/samples/Automation/tutorials/EthBalanceMonitor.sol\":7842:7903  ForwarderAddressUpdated(s_forwarderAddress, forwarderAddress) */\n      mload(0x40)\n      tag_265\n      swap3\n      swap2\n      swap1\n      tag_266\n      jump\t// in\n    tag_265:\n      mload(0x40)\n      dup1\n      swap2\n      sub\n      swap1\n      log1\n        /* \"docs.chain.link/samples/Automation/tutorials/EthBalanceMonitor.sol\":7934:7950  forwarderAddress */\n      dup1\n        /* \"docs.chain.link/samples/Automation/tutorials/EthBalanceMonitor.sol\":7913:7931  s_forwarderAddress */\n      0x02\n      0x00\n        /* \"docs.chain.link/samples/Automation/tutorials/EthBalanceMonitor.sol\":7913:7950  s_forwarderAddress = forwarderAddress */\n      0x0100\n      exp\n      dup2\n      sload\n      dup2\n      0xffffffffffffffffffffffffffffffffffffffff\n      mul\n      not\n      and\n      swap1\n      dup4\n      0xffffffffffffffffffffffffffffffffffffffff\n      and\n      mul\n      or\n      swap1\n      sstore\n      pop\n        /* \"docs.chain.link/samples/Automation/tutorials/EthBalanceMonitor.sol\":7706:7957  function setForwarderAddress(address forwarderAddress) public onlyOwner {... */\n      pop\n      jump\t// out\n        /* \"@chainlink/contracts@1.1.0/src/v0.8/shared/access/ConfirmedOwnerWithProposal.sol\":847:945  function transferOwnership(address to) public override onlyOwner {... */\n    tag_110:\n        /* \"@chainlink/contracts@1.1.0/src/v0.8/shared/access/ConfirmedOwnerWithProposal.sol\":2075:2095  _validateOwnership() */\n      tag_268\n        /* \"@chainlink/contracts@1.1.0/src/v0.8/shared/access/ConfirmedOwnerWithProposal.sol\":2075:2093  _validateOwnership */\n      tag_113\n        /* \"@chainlink/contracts@1.1.0/src/v0.8/shared/access/ConfirmedOwnerWithProposal.sol\":2075:2095  _validateOwnership() */\n      jump\t// in\n    tag_268:\n        /* \"@chainlink/contracts@1.1.0/src/v0.8/shared/access/ConfirmedOwnerWithProposal.sol\":918:940  _transferOwnership(to) */\n      tag_270\n        /* \"@chainlink/contracts@1.1.0/src/v0.8/shared/access/ConfirmedOwnerWithProposal.sol\":937:939  to */\n      dup2\n        /* \"@chainlink/contracts@1.1.0/src/v0.8/shared/access/ConfirmedOwnerWithProposal.sol\":918:936  _transferOwnership */\n      tag_271\n        /* \"@chainlink/contracts@1.1.0/src/v0.8/shared/access/ConfirmedOwnerWithProposal.sol\":918:940  _transferOwnership(to) */\n      jump\t// in\n    tag_270:\n        /* \"@chainlink/contracts@1.1.0/src/v0.8/shared/access/ConfirmedOwnerWithProposal.sol\":847:945  function transferOwnership(address to) public override onlyOwner {... */\n      pop\n      jump\t// out\n        /* \"@chainlink/contracts@1.1.0/src/v0.8/shared/access/ConfirmedOwnerWithProposal.sol\":1809:1971  function _validateOwnership() internal view {... */\n    tag_113:\n        /* \"@chainlink/contracts@1.1.0/src/v0.8/shared/access/ConfirmedOwnerWithProposal.sol\":1932:1939  s_owner */\n      0x00\n      dup1\n      sload\n      swap1\n      0x0100\n      exp\n      swap1\n      div\n      0xffffffffffffffffffffffffffffffffffffffff\n      and\n        /* \"@chainlink/contracts@1.1.0/src/v0.8/shared/access/ConfirmedOwnerWithProposal.sol\":1918:1939  msg.sender == s_owner */\n      0xffffffffffffffffffffffffffffffffffffffff\n      and\n        /* \"@chainlink/contracts@1.1.0/src/v0.8/shared/access/ConfirmedOwnerWithProposal.sol\":1918:1928  msg.sender */\n      caller\n        /* \"@chainlink/contracts@1.1.0/src/v0.8/shared/access/ConfirmedOwnerWithProposal.sol\":1918:1939  msg.sender == s_owner */\n      0xffffffffffffffffffffffffffffffffffffffff\n      and\n      eq\n        /* \"@chainlink/contracts@1.1.0/src/v0.8/shared/access/ConfirmedOwnerWithProposal.sol\":1910:1966  require(msg.sender == s_owner, \"Only callable by owner\") */\n      tag_273\n      jumpi\n      mload(0x40)\n      0x08c379a000000000000000000000000000000000000000000000000000000000\n      dup2\n      mstore\n      0x04\n      add\n      tag_274\n      swap1\n      tag_275\n      jump\t// in\n    tag_274:\n      mload(0x40)\n      dup1\n      swap2\n      sub\n      swap1\n      revert\n    tag_273:\n        /* \"@chainlink/contracts@1.1.0/src/v0.8/shared/access/ConfirmedOwnerWithProposal.sol\":1809:1971  function _validateOwnership() internal view {... */\n      jump\t// out\n        /* \"@openzeppelin/contracts/security/Pausable.sol\":1767:1873  function _requireNotPaused() internal view virtual {... */\n    tag_154:\n        /* \"@openzeppelin/contracts/security/Pausable.sol\":1837:1845  paused() */\n      tag_277\n        /* \"@openzeppelin/contracts/security/Pausable.sol\":1837:1843  paused */\n      tag_68\n        /* \"@openzeppelin/contracts/security/Pausable.sol\":1837:1845  paused() */\n      jump\t// in\n    tag_277:\n        /* \"@openzeppelin/contracts/security/Pausable.sol\":1836:1845  !paused() */\n      iszero\n        /* \"@openzeppelin/contracts/security/Pausable.sol\":1828:1866  require(!paused(), \"Pausable: paused\") */\n      tag_278\n      jumpi\n      mload(0x40)\n      0x08c379a000000000000000000000000000000000000000000000000000000000\n      dup2\n      mstore\n      0x04\n      add\n      tag_279\n      swap1\n      tag_280\n      jump\t// in\n    tag_279:\n      mload(0x40)\n      dup1\n      swap2\n      sub\n      swap1\n      revert\n    tag_278:\n        /* \"@openzeppelin/contracts/security/Pausable.sol\":1767:1873  function _requireNotPaused() internal view virtual {... */\n      jump\t// out\n        /* \"@openzeppelin/contracts/security/Pausable.sol\":2433:2550  function _unpause() internal virtual whenPaused {... */\n    tag_184:\n        /* \"@openzeppelin/contracts/security/Pausable.sol\":1486:1502  _requirePaused() */\n      tag_282\n        /* \"@openzeppelin/contracts/security/Pausable.sol\":1486:1500  _requirePaused */\n      tag_283\n        /* \"@openzeppelin/contracts/security/Pausable.sol\":1486:1502  _requirePaused() */\n      jump\t// in\n    tag_282:\n        /* \"@openzeppelin/contracts/security/Pausable.sol\":2501:2506  false */\n      0x00\n        /* \"@openzeppelin/contracts/security/Pausable.sol\":2491:2498  _paused */\n      0x01\n      0x14\n        /* \"@openzeppelin/contracts/security/Pausable.sol\":2491:2506  _paused = false */\n      0x0100\n      exp\n      dup2\n      sload\n      dup2\n      0xff\n      mul\n      not\n      and\n      swap1\n      dup4\n      iszero\n      iszero\n      mul\n      or\n      swap1\n      sstore\n      pop\n        /* \"@openzeppelin/contracts/security/Pausable.sol\":2521:2543  Unpaused(_msgSender()) */\n      0x5db9ee0a495bf2e6ff9c91a7834c1ba4fdd244a5e8aa4e537bd38aeae4b073aa\n        /* \"@openzeppelin/contracts/security/Pausable.sol\":2530:2542  _msgSender() */\n      tag_285\n        /* \"@openzeppelin/contracts/security/Pausable.sol\":2530:2540  _msgSender */\n      tag_286\n        /* \"@openzeppelin/contracts/security/Pausable.sol\":2530:2542  _msgSender() */\n      jump\t// in\n    tag_285:\n        /* \"@openzeppelin/contracts/security/Pausable.sol\":2521:2543  Unpaused(_msgSender()) */\n      mload(0x40)\n      tag_287\n      swap2\n      swap1\n      tag_42\n      jump\t// in\n    tag_287:\n      mload(0x40)\n      dup1\n      swap2\n      sub\n      swap1\n      log1\n        /* \"@openzeppelin/contracts/security/Pausable.sol\":2433:2550  function _unpause() internal virtual whenPaused {... */\n      jump\t// out\n        /* \"@openzeppelin/contracts/security/Pausable.sol\":2186:2301  function _pause() internal virtual whenNotPaused {... */\n    tag_216:\n        /* \"@openzeppelin/contracts/security/Pausable.sol\":1239:1258  _requireNotPaused() */\n      tag_289\n        /* \"@openzeppelin/contracts/security/Pausable.sol\":1239:1256  _requireNotPaused */\n      tag_154\n        /* \"@openzeppelin/contracts/security/Pausable.sol\":1239:1258  _requireNotPaused() */\n      jump\t// in\n    tag_289:\n        /* \"@openzeppelin/contracts/security/Pausable.sol\":2255:2259  true */\n      0x01\n        /* \"@openzeppelin/contracts/security/Pausable.sol\":2245:2252  _paused */\n      dup1\n      0x14\n        /* \"@openzeppelin/contracts/security/Pausable.sol\":2245:2259  _paused = true */\n      0x0100\n      exp\n      dup2\n      sload\n      dup2\n      0xff\n      mul\n      not\n      and\n      swap1\n      dup4\n      iszero\n      iszero\n      mul\n      or\n      swap1\n      sstore\n      pop\n        /* \"@openzeppelin/contracts/security/Pausable.sol\":2274:2294  Paused(_msgSender()) */\n      0x62e78cea01bee320cd4e420270b5ea74000d11b0c9f74754ebdbfc544b05a258\n        /* \"@openzeppelin/contracts/security/Pausable.sol\":2281:2293  _msgSender() */\n      tag_291\n        /* \"@openzeppelin/contracts/security/Pausable.sol\":2281:2291  _msgSender */\n      tag_286\n        /* \"@openzeppelin/contracts/security/Pausable.sol\":2281:2293  _msgSender() */\n      jump\t// in\n    tag_291:\n        /* \"@openzeppelin/contracts/security/Pausable.sol\":2274:2294  Paused(_msgSender()) */\n      mload(0x40)\n      tag_292\n      swap2\n      swap1\n      tag_42\n      jump\t// in\n    tag_292:\n      mload(0x40)\n      dup1\n      swap2\n      sub\n      swap1\n      log1\n        /* \"@openzeppelin/contracts/security/Pausable.sol\":2186:2301  function _pause() internal virtual whenNotPaused {... */\n      jump\t// out\n        /* \"@chainlink/contracts@1.1.0/src/v0.8/shared/access/ConfirmedOwnerWithProposal.sol\":1536:1775  function _transferOwnership(address to) private {... */\n    tag_271:\n        /* \"@chainlink/contracts@1.1.0/src/v0.8/shared/access/ConfirmedOwnerWithProposal.sol\":1655:1665  msg.sender */\n      caller\n        /* \"@chainlink/contracts@1.1.0/src/v0.8/shared/access/ConfirmedOwnerWithProposal.sol\":1649:1665  to != msg.sender */\n      0xffffffffffffffffffffffffffffffffffffffff\n      and\n        /* \"@chainlink/contracts@1.1.0/src/v0.8/shared/access/ConfirmedOwnerWithProposal.sol\":1649:1651  to */\n      dup2\n        /* \"@chainlink/contracts@1.1.0/src/v0.8/shared/access/ConfirmedOwnerWithProposal.sol\":1649:1665  to != msg.sender */\n      0xffffffffffffffffffffffffffffffffffffffff\n      and\n      sub\n        /* \"@chainlink/contracts@1.1.0/src/v0.8/shared/access/ConfirmedOwnerWithProposal.sol\":1641:1693  require(to != msg.sender, \"Cannot transfer to self\") */\n      tag_294\n      jumpi\n      mload(0x40)\n      0x08c379a000000000000000000000000000000000000000000000000000000000\n      dup2\n      mstore\n      0x04\n      add\n      tag_295\n      swap1\n      tag_296\n      jump\t// in\n    tag_295:\n      mload(0x40)\n      dup1\n      swap2\n      sub\n      swap1\n      revert\n    tag_294:\n        /* \"@chainlink/contracts@1.1.0/src/v0.8/shared/access/ConfirmedOwnerWithProposal.sol\":1717:1719  to */\n      dup1\n        /* \"@chainlink/contracts@1.1.0/src/v0.8/shared/access/ConfirmedOwnerWithProposal.sol\":1700:1714  s_pendingOwner */\n      0x01\n      0x00\n        /* \"@chainlink/contracts@1.1.0/src/v0.8/shared/access/ConfirmedOwnerWithProposal.sol\":1700:1719  s_pendingOwner = to */\n      0x0100\n      exp\n      dup2\n      sload\n      dup2\n      0xffffffffffffffffffffffffffffffffffffffff\n      mul\n      not\n      and\n      swap1\n      dup4\n      0xffffffffffffffffffffffffffffffffffffffff\n      and\n      mul\n      or\n      swap1\n      sstore\n      pop\n        /* \"@chainlink/contracts@1.1.0/src/v0.8/shared/access/ConfirmedOwnerWithProposal.sol\":1767:1769  to */\n      dup1\n        /* \"@chainlink/contracts@1.1.0/src/v0.8/shared/access/ConfirmedOwnerWithProposal.sol\":1731:1770  OwnershipTransferRequested(s_owner, to) */\n      0xffffffffffffffffffffffffffffffffffffffff\n      and\n        /* \"@chainlink/contracts@1.1.0/src/v0.8/shared/access/ConfirmedOwnerWithProposal.sol\":1758:1765  s_owner */\n      0x00\n      dup1\n      sload\n      swap1\n      0x0100\n      exp\n      swap1\n      div\n      0xffffffffffffffffffffffffffffffffffffffff\n      and\n        /* \"@chainlink/contracts@1.1.0/src/v0.8/shared/access/ConfirmedOwnerWithProposal.sol\":1731:1770  OwnershipTransferRequested(s_owner, to) */\n      0xffffffffffffffffffffffffffffffffffffffff\n      and\n      0xed8889f560326eb138920d842192f0eb3dd22b4f139c87a2c57538e05bae1278\n      mload(0x40)\n      mload(0x40)\n      dup1\n      swap2\n      sub\n      swap1\n      log3\n        /* \"@chainlink/contracts@1.1.0/src/v0.8/shared/access/ConfirmedOwnerWithProposal.sol\":1536:1775  function _transferOwnership(address to) private {... */\n      pop\n      jump\t// out\n        /* \"@openzeppelin/contracts/security/Pausable.sol\":1945:2051  function _requirePaused() internal view virtual {... */\n    tag_283:\n        /* \"@openzeppelin/contracts/security/Pausable.sol\":2011:2019  paused() */\n      tag_298\n        /* \"@openzeppelin/contracts/security/Pausable.sol\":2011:2017  paused */\n      tag_68\n        /* \"@openzeppelin/contracts/security/Pausable.sol\":2011:2019  paused() */\n      jump\t// in\n    tag_298:\n        /* \"@openzeppelin/contracts/security/Pausable.sol\":2003:2044  require(paused(), \"Pausable: not paused\") */\n      tag_299\n      jumpi\n      mload(0x40)\n      0x08c379a000000000000000000000000000000000000000000000000000000000\n      dup2\n      mstore\n      0x04\n      add\n      tag_300\n      swap1\n      tag_301\n      jump\t// in\n    tag_300:\n      mload(0x40)\n      dup1\n      swap2\n      sub\n      swap1\n      revert\n    tag_299:\n        /* \"@openzeppelin/contracts/security/Pausable.sol\":1945:2051  function _requirePaused() internal view virtual {... */\n      jump\t// out\n        /* \"@openzeppelin/contracts/utils/Context.sol\":656:752  function _msgSender() internal view virtual returns (address) {... */\n    tag_286:\n        /* \"@openzeppelin/contracts/utils/Context.sol\":709:716  address */\n      0x00\n        /* \"@openzeppelin/contracts/utils/Context.sol\":735:745  msg.sender */\n      caller\n        /* \"@openzeppelin/contracts/utils/Context.sol\":728:745  return msg.sender */\n      swap1\n      pop\n        /* \"@openzeppelin/contracts/utils/Context.sol\":656:752  function _msgSender() internal view virtual returns (address) {... */\n      swap1\n      jump\t// out\n    tag_128:\n      mload(0x40)\n      dup1\n      0x80\n      add\n      0x40\n      mstore\n      dup1\n      iszero(iszero(0x00))\n      dup2\n      mstore\n      0x20\n      add\n      and(0xffffffffffffffffffffffff, 0x00)\n      dup2\n      mstore\n      0x20\n      add\n      and(0xffffffffffffffffffffffff, 0x00)\n      dup2\n      mstore\n      0x20\n      add\n      and(0xffffffffffffff, 0x00)\n      dup2\n      mstore\n      pop\n      swap1\n      jump\t// out\n    tag_260:\n      dup3\n      dup1\n      sload\n      dup3\n      dup3\n      sstore\n      swap1\n      0x00\n      mstore\n      keccak256(0x00, 0x20)\n      swap1\n      dup2\n      add\n      swap3\n      dup3\n      iszero\n      tag_303\n      jumpi\n      swap2\n      0x20\n      mul\n      dup3\n      add\n    tag_304:\n      dup3\n      dup2\n      gt\n      iszero\n      tag_305\n      jumpi\n      dup3\n      calldataload\n      0xffffffffffffffffffffffffffffffffffffffff\n      and\n      dup3\n      exp(0x0100, 0x00)\n      dup2\n      sload\n      dup2\n      0xffffffffffffffffffffffffffffffffffffffff\n      mul\n      not\n      and\n      swap1\n      dup4\n      0xffffffffffffffffffffffffffffffffffffffff\n      and\n      mul\n      or\n      swap1\n      sstore\n      pop\n      swap2\n      0x20\n      add\n      swap2\n      swap1\n      0x01\n      add\n      swap1\n      jump(tag_304)\n    tag_305:\n    tag_303:\n      pop\n      swap1\n      pop\n      tag_306\n      swap2\n      swap1\n      tag_307\n      jump\t// in\n    tag_306:\n      pop\n      swap1\n      jump\t// out\n    tag_307:\n    tag_308:\n      dup1\n      dup3\n      gt\n      iszero\n      tag_309\n      jumpi\n      0x00\n      dup2\n      0x00\n      swap1\n      sstore\n      pop\n      0x01\n      add\n      jump(tag_308)\n    tag_309:\n      pop\n      swap1\n      jump\t// out\n        /* \"#utility.yul\":7:84   */\n    tag_310:\n        /* \"#utility.yul\":44:51   */\n      0x00\n        /* \"#utility.yul\":73:78   */\n      dup2\n        /* \"#utility.yul\":62:78   */\n      swap1\n      pop\n        /* \"#utility.yul\":7:84   */\n      swap2\n      swap1\n      pop\n      jump\t// out\n        /* \"#utility.yul\":90:208   */\n    tag_311:\n        /* \"#utility.yul\":177:201   */\n      tag_376\n        /* \"#utility.yul\":195:200   */\n      dup2\n        /* \"#utility.yul\":177:201   */\n      tag_310\n      jump\t// in\n    tag_376:\n        /* \"#utility.yul\":172:175   */\n      dup3\n        /* \"#utility.yul\":165:202   */\n      mstore\n        /* \"#utility.yul\":90:208   */\n      pop\n      pop\n      jump\t// out\n        /* \"#utility.yul\":214:340   */\n    tag_312:\n        /* \"#utility.yul\":251:258   */\n      0x00\n        /* \"#utility.yul\":291:333   */\n      0xffffffffffffffffffffffffffffffffffffffff\n        /* \"#utility.yul\":284:289   */\n      dup3\n        /* \"#utility.yul\":280:334   */\n      and\n        /* \"#utility.yul\":269:334   */\n      swap1\n      pop\n        /* \"#utility.yul\":214:340   */\n      swap2\n      swap1\n      pop\n      jump\t// out\n        /* \"#utility.yul\":346:442   */\n    tag_313:\n        /* \"#utility.yul\":383:390   */\n      0x00\n        /* \"#utility.yul\":412:436   */\n      tag_379\n        /* \"#utility.yul\":430:435   */\n      dup3\n        /* \"#utility.yul\":412:436   */\n      tag_312\n      jump\t// in\n    tag_379:\n        /* \"#utility.yul\":401:436   */\n      swap1\n      pop\n        /* \"#utility.yul\":346:442   */\n      swap2\n      swap1\n      pop\n      jump\t// out\n        /* \"#utility.yul\":448:566   */\n    tag_314:\n        /* \"#utility.yul\":535:559   */\n      tag_381\n        /* \"#utility.yul\":553:558   */\n      dup2\n        /* \"#utility.yul\":535:559   */\n      tag_313\n      jump\t// in\n    tag_381:\n        /* \"#utility.yul\":530:533   */\n      dup3\n        /* \"#utility.yul\":523:560   */\n      mstore\n        /* \"#utility.yul\":448:566   */\n      pop\n      pop\n      jump\t// out\n        /* \"#utility.yul\":572:1014   */\n    tag_27:\n        /* \"#utility.yul\":721:725   */\n      0x00\n        /* \"#utility.yul\":759:761   */\n      0x60\n        /* \"#utility.yul\":748:757   */\n      dup3\n        /* \"#utility.yul\":744:762   */\n      add\n        /* \"#utility.yul\":736:762   */\n      swap1\n      pop\n        /* \"#utility.yul\":772:843   */\n      tag_383\n        /* \"#utility.yul\":840:841   */\n      0x00\n        /* \"#utility.yul\":829:838   */\n      dup4\n        /* \"#utility.yul\":825:842   */\n      add\n        /* \"#utility.yul\":816:822   */\n      dup7\n        /* \"#utility.yul\":772:843   */\n      tag_311\n      jump\t// in\n    tag_383:\n        /* \"#utility.yul\":853:925   */\n      tag_384\n        /* \"#utility.yul\":921:923   */\n      0x20\n        /* \"#utility.yul\":910:919   */\n      dup4\n        /* \"#utility.yul\":906:924   */\n      add\n        /* \"#utility.yul\":897:903   */\n      dup6\n        /* \"#utility.yul\":853:925   */\n      tag_311\n      jump\t// in\n    tag_384:\n        /* \"#utility.yul\":935:1007   */\n      tag_385\n        /* \"#utility.yul\":1003:1005   */\n      0x40\n        /* \"#utility.yul\":992:1001   */\n      dup4\n        /* \"#utility.yul\":988:1006   */\n      add\n        /* \"#utility.yul\":979:985   */\n      dup5\n        /* \"#utility.yul\":935:1007   */\n      tag_314\n      jump\t// in\n    tag_385:\n        /* \"#utility.yul\":572:1014   */\n      swap5\n      swap4\n      pop\n      pop\n      pop\n      pop\n      jump\t// out\n        /* \"#utility.yul\":1020:1095   */\n    tag_315:\n        /* \"#utility.yul\":1053:1059   */\n      0x00\n        /* \"#utility.yul\":1086:1088   */\n      0x40\n        /* \"#utility.yul\":1080:1089   */\n      mload\n        /* \"#utility.yul\":1070:1089   */\n      swap1\n      pop\n        /* \"#utility.yul\":1020:1095   */\n      swap1\n      jump\t// out\n        /* \"#utility.yul\":1101:1218   */\n    tag_316:\n        /* \"#utility.yul\":1210:1211   */\n      0x00\n        /* \"#utility.yul\":1207:1208   */\n      dup1\n        /* \"#utility.yul\":1200:1212   */\n      revert\n        /* \"#utility.yul\":1224:1341   */\n    tag_317:\n        /* \"#utility.yul\":1333:1334   */\n      0x00\n        /* \"#utility.yul\":1330:1331   */\n      dup1\n        /* \"#utility.yul\":1323:1335   */\n      revert\n        /* \"#utility.yul\":1347:1469   */\n    tag_318:\n        /* \"#utility.yul\":1420:1444   */\n      tag_390\n        /* \"#utility.yul\":1438:1443   */\n      dup2\n        /* \"#utility.yul\":1420:1444   */\n      tag_310\n      jump\t// in\n    tag_390:\n        /* \"#utility.yul\":1413:1418   */\n      dup2\n        /* \"#utility.yul\":1410:1445   */\n      eq\n        /* \"#utility.yul\":1400:1463   */\n      tag_391\n      jumpi\n        /* \"#utility.yul\":1459:1460   */\n      0x00\n        /* \"#utility.yul\":1456:1457   */\n      dup1\n        /* \"#utility.yul\":1449:1461   */\n      revert\n        /* \"#utility.yul\":1400:1463   */\n    tag_391:\n        /* \"#utility.yul\":1347:1469   */\n      pop\n      jump\t// out\n        /* \"#utility.yul\":1475:1614   */\n    tag_319:\n        /* \"#utility.yul\":1521:1526   */\n      0x00\n        /* \"#utility.yul\":1559:1565   */\n      dup2\n        /* \"#utility.yul\":1546:1566   */\n      calldataload\n        /* \"#utility.yul\":1537:1566   */\n      swap1\n      pop\n        /* \"#utility.yul\":1575:1608   */\n      tag_393\n        /* \"#utility.yul\":1602:1607   */\n      dup2\n        /* \"#utility.yul\":1575:1608   */\n      tag_318\n      jump\t// in\n    tag_393:\n        /* \"#utility.yul\":1475:1614   */\n      swap3\n      swap2\n      pop\n      pop\n      jump\t// out\n        /* \"#utility.yul\":1620:1724   */\n    tag_320:\n        /* \"#utility.yul\":1665:1672   */\n      0x00\n        /* \"#utility.yul\":1694:1718   */\n      tag_395\n        /* \"#utility.yul\":1712:1717   */\n      dup3\n        /* \"#utility.yul\":1694:1718   */\n      tag_312\n      jump\t// in\n    tag_395:\n        /* \"#utility.yul\":1683:1718   */\n      swap1\n      pop\n        /* \"#utility.yul\":1620:1724   */\n      swap2\n      swap1\n      pop\n      jump\t// out\n        /* \"#utility.yul\":1730:1868   */\n    tag_321:\n        /* \"#utility.yul\":1811:1843   */\n      tag_397\n        /* \"#utility.yul\":1837:1842   */\n      dup2\n        /* \"#utility.yul\":1811:1843   */\n      tag_320\n      jump\t// in\n    tag_397:\n        /* \"#utility.yul\":1804:1809   */\n      dup2\n        /* \"#utility.yul\":1801:1844   */\n      eq\n        /* \"#utility.yul\":1791:1862   */\n      tag_398\n      jumpi\n        /* \"#utility.yul\":1858:1859   */\n      0x00\n        /* \"#utility.yul\":1855:1856   */\n      dup1\n        /* \"#utility.yul\":1848:1860   */\n      revert\n        /* \"#utility.yul\":1791:1862   */\n    tag_398:\n        /* \"#utility.yul\":1730:1868   */\n      pop\n      jump\t// out\n        /* \"#utility.yul\":1874:2029   */\n    tag_322:\n        /* \"#utility.yul\":1928:1933   */\n      0x00\n        /* \"#utility.yul\":1966:1972   */\n      dup2\n        /* \"#utility.yul\":1953:1973   */\n      calldataload\n        /* \"#utility.yul\":1944:1973   */\n      swap1\n      pop\n        /* \"#utility.yul\":1982:2023   */\n      tag_400\n        /* \"#utility.yul\":2017:2022   */\n      dup2\n        /* \"#utility.yul\":1982:2023   */\n      tag_321\n      jump\t// in\n    tag_400:\n        /* \"#utility.yul\":1874:2029   */\n      swap3\n      swap2\n      pop\n      pop\n      jump\t// out\n        /* \"#utility.yul\":2035:2525   */\n    tag_31:\n        /* \"#utility.yul\":2111:2117   */\n      0x00\n        /* \"#utility.yul\":2119:2125   */\n      dup1\n        /* \"#utility.yul\":2168:2170   */\n      0x40\n        /* \"#utility.yul\":2156:2165   */\n      dup4\n        /* \"#utility.yul\":2147:2154   */\n      dup6\n        /* \"#utility.yul\":2143:2166   */\n      sub\n        /* \"#utility.yul\":2139:2171   */\n      slt\n        /* \"#utility.yul\":2136:2255   */\n      iszero\n      tag_402\n      jumpi\n        /* \"#utility.yul\":2174:2253   */\n      tag_403\n      tag_316\n      jump\t// in\n    tag_403:\n        /* \"#utility.yul\":2136:2255   */\n    tag_402:\n        /* \"#utility.yul\":2294:2295   */\n      0x00\n        /* \"#utility.yul\":2319:2372   */\n      tag_404\n        /* \"#utility.yul\":2364:2371   */\n      dup6\n        /* \"#utility.yul\":2355:2361   */\n      dup3\n        /* \"#utility.yul\":2344:2353   */\n      dup7\n        /* \"#utility.yul\":2340:2362   */\n      add\n        /* \"#utility.yul\":2319:2372   */\n      tag_319\n      jump\t// in\n    tag_404:\n        /* \"#utility.yul\":2309:2372   */\n      swap3\n      pop\n        /* \"#utility.yul\":2265:2382   */\n      pop\n        /* \"#utility.yul\":2421:2423   */\n      0x20\n        /* \"#utility.yul\":2447:2508   */\n      tag_405\n        /* \"#utility.yul\":2500:2507   */\n      dup6\n        /* \"#utility.yul\":2491:2497   */\n      dup3\n        /* \"#utility.yul\":2480:2489   */\n      dup7\n        /* \"#utility.yul\":2476:2498   */\n      add\n        /* \"#utility.yul\":2447:2508   */\n      tag_322\n      jump\t// in\n    tag_405:\n        /* \"#utility.yul\":2437:2508   */\n      swap2\n      pop\n        /* \"#utility.yul\":2392:2518   */\n      pop\n        /* \"#utility.yul\":2035:2525   */\n      swap3\n      pop\n      swap3\n      swap1\n      pop\n      jump\t// out\n        /* \"#utility.yul\":2531:2645   */\n    tag_323:\n        /* \"#utility.yul\":2598:2604   */\n      0x00\n        /* \"#utility.yul\":2632:2637   */\n      dup2\n        /* \"#utility.yul\":2626:2638   */\n      mload\n        /* \"#utility.yul\":2616:2638   */\n      swap1\n      pop\n        /* \"#utility.yul\":2531:2645   */\n      swap2\n      swap1\n      pop\n      jump\t// out\n        /* \"#utility.yul\":2651:2835   */\n    tag_324:\n        /* \"#utility.yul\":2750:2761   */\n      0x00\n        /* \"#utility.yul\":2784:2790   */\n      dup3\n        /* \"#utility.yul\":2779:2782   */\n      dup3\n        /* \"#utility.yul\":2772:2791   */\n      mstore\n        /* \"#utility.yul\":2824:2828   */\n      0x20\n        /* \"#utility.yul\":2819:2822   */\n      dup3\n        /* \"#utility.yul\":2815:2829   */\n      add\n        /* \"#utility.yul\":2800:2829   */\n      swap1\n      pop\n        /* \"#utility.yul\":2651:2835   */\n      swap3\n      swap2\n      pop\n      pop\n      jump\t// out\n        /* \"#utility.yul\":2841:2973   */\n    tag_325:\n        /* \"#utility.yul\":2908:2912   */\n      0x00\n        /* \"#utility.yul\":2931:2934   */\n      dup2\n        /* \"#utility.yul\":2923:2934   */\n      swap1\n      pop\n        /* \"#utility.yul\":2961:2965   */\n      0x20\n        /* \"#utility.yul\":2956:2959   */\n      dup3\n        /* \"#utility.yul\":2952:2966   */\n      add\n        /* \"#utility.yul\":2944:2966   */\n      swap1\n      pop\n        /* \"#utility.yul\":2841:2973   */\n      swap2\n      swap1\n      pop\n      jump\t// out\n        /* \"#utility.yul\":2979:3087   */\n    tag_326:\n        /* \"#utility.yul\":3056:3080   */\n      tag_410\n        /* \"#utility.yul\":3074:3079   */\n      dup2\n        /* \"#utility.yul\":3056:3080   */\n      tag_313\n      jump\t// in\n    tag_410:\n        /* \"#utility.yul\":3051:3054   */\n      dup3\n        /* \"#utility.yul\":3044:3081   */\n      mstore\n        /* \"#utility.yul\":2979:3087   */\n      pop\n      pop\n      jump\t// out\n        /* \"#utility.yul\":3093:3272   */\n    tag_327:\n        /* \"#utility.yul\":3162:3172   */\n      0x00\n        /* \"#utility.yul\":3183:3229   */\n      tag_412\n        /* \"#utility.yul\":3225:3228   */\n      dup4\n        /* \"#utility.yul\":3217:3223   */\n      dup4\n        /* \"#utility.yul\":3183:3229   */\n      tag_326\n      jump\t// in\n    tag_412:\n        /* \"#utility.yul\":3261:3265   */\n      0x20\n        /* \"#utility.yul\":3256:3259   */\n      dup4\n        /* \"#utility.yul\":3252:3266   */\n      add\n        /* \"#utility.yul\":3238:3266   */\n      swap1\n      pop\n        /* \"#utility.yul\":3093:3272   */\n      swap3\n      swap2\n      pop\n      pop\n      jump\t// out\n        /* \"#utility.yul\":3278:3391   */\n    tag_328:\n        /* \"#utility.yul\":3348:3352   */\n      0x00\n        /* \"#utility.yul\":3380:3384   */\n      0x20\n        /* \"#utility.yul\":3375:3378   */\n      dup3\n        /* \"#utility.yul\":3371:3385   */\n      add\n        /* \"#utility.yul\":3363:3385   */\n      swap1\n      pop\n        /* \"#utility.yul\":3278:3391   */\n      swap2\n      swap1\n      pop\n      jump\t// out\n        /* \"#utility.yul\":3427:4159   */\n    tag_329:\n        /* \"#utility.yul\":3546:3549   */\n      0x00\n        /* \"#utility.yul\":3575:3629   */\n      tag_415\n        /* \"#utility.yul\":3623:3628   */\n      dup3\n        /* \"#utility.yul\":3575:3629   */\n      tag_323\n      jump\t// in\n    tag_415:\n        /* \"#utility.yul\":3645:3731   */\n      tag_416\n        /* \"#utility.yul\":3724:3730   */\n      dup2\n        /* \"#utility.yul\":3719:3722   */\n      dup6\n        /* \"#utility.yul\":3645:3731   */\n      tag_324\n      jump\t// in\n    tag_416:\n        /* \"#utility.yul\":3638:3731   */\n      swap4\n      pop\n        /* \"#utility.yul\":3755:3811   */\n      tag_417\n        /* \"#utility.yul\":3805:3810   */\n      dup4\n        /* \"#utility.yul\":3755:3811   */\n      tag_325\n      jump\t// in\n    tag_417:\n        /* \"#utility.yul\":3834:3841   */\n      dup1\n        /* \"#utility.yul\":3865:3866   */\n      0x00\n        /* \"#utility.yul\":3850:4134   */\n    tag_418:\n        /* \"#utility.yul\":3875:3881   */\n      dup4\n        /* \"#utility.yul\":3872:3873   */\n      dup2\n        /* \"#utility.yul\":3869:3882   */\n      lt\n        /* \"#utility.yul\":3850:4134   */\n      iszero\n      tag_420\n      jumpi\n        /* \"#utility.yul\":3951:3957   */\n      dup2\n        /* \"#utility.yul\":3945:3958   */\n      mload\n        /* \"#utility.yul\":3978:4041   */\n      tag_421\n        /* \"#utility.yul\":4037:4040   */\n      dup9\n        /* \"#utility.yul\":4022:4035   */\n      dup3\n        /* \"#utility.yul\":3978:4041   */\n      tag_327\n      jump\t// in\n    tag_421:\n        /* \"#utility.yul\":3971:4041   */\n      swap8\n      pop\n        /* \"#utility.yul\":4064:4124   */\n      tag_422\n        /* \"#utility.yul\":4117:4123   */\n      dup4\n        /* \"#utility.yul\":4064:4124   */\n      tag_328\n      jump\t// in\n    tag_422:\n        /* \"#utility.yul\":4054:4124   */\n      swap3\n      pop\n        /* \"#utility.yul\":3910:4134   */\n      pop\n        /* \"#utility.yul\":3897:3898   */\n      0x01\n        /* \"#utility.yul\":3894:3895   */\n      dup2\n        /* \"#utility.yul\":3890:3899   */\n      add\n        /* \"#utility.yul\":3885:3899   */\n      swap1\n      pop\n        /* \"#utility.yul\":3850:4134   */\n      jump(tag_418)\n    tag_420:\n        /* \"#utility.yul\":3854:3868   */\n      pop\n        /* \"#utility.yul\":4150:4153   */\n      dup6\n        /* \"#utility.yul\":4143:4153   */\n      swap4\n      pop\n        /* \"#utility.yul\":3551:4159   */\n      pop\n      pop\n      pop\n        /* \"#utility.yul\":3427:4159   */\n      swap3\n      swap2\n      pop\n      pop\n      jump\t// out\n        /* \"#utility.yul\":4165:4538   */\n    tag_37:\n        /* \"#utility.yul\":4308:4312   */\n      0x00\n        /* \"#utility.yul\":4346:4348   */\n      0x20\n        /* \"#utility.yul\":4335:4344   */\n      dup3\n        /* \"#utility.yul\":4331:4349   */\n      add\n        /* \"#utility.yul\":4323:4349   */\n      swap1\n      pop\n        /* \"#utility.yul\":4395:4404   */\n      dup2\n        /* \"#utility.yul\":4389:4393   */\n      dup2\n        /* \"#utility.yul\":4385:4405   */\n      sub\n        /* \"#utility.yul\":4381:4382   */\n      0x00\n        /* \"#utility.yul\":4370:4379   */\n      dup4\n        /* \"#utility.yul\":4366:4383   */\n      add\n        /* \"#utility.yul\":4359:4406   */\n      mstore\n        /* \"#utility.yul\":4423:4531   */\n      tag_424\n        /* \"#utility.yul\":4526:4530   */\n      dup2\n        /* \"#utility.yul\":4517:4523   */\n      dup5\n        /* \"#utility.yul\":4423:4531   */\n      tag_329\n      jump\t// in\n    tag_424:\n        /* \"#utility.yul\":4415:4531   */\n      swap1\n      pop\n        /* \"#utility.yul\":4165:4538   */\n      swap3\n      swap2\n      pop\n      pop\n      jump\t// out\n        /* \"#utility.yul\":4544:4766   */\n    tag_42:\n        /* \"#utility.yul\":4637:4641   */\n      0x00\n        /* \"#utility.yul\":4675:4677   */\n      0x20\n        /* \"#utility.yul\":4664:4673   */\n      dup3\n        /* \"#utility.yul\":4660:4678   */\n      add\n        /* \"#utility.yul\":4652:4678   */\n      swap1\n      pop\n        /* \"#utility.yul\":4688:4759   */\n      tag_426\n        /* \"#utility.yul\":4756:4757   */\n      0x00\n        /* \"#utility.yul\":4745:4754   */\n      dup4\n        /* \"#utility.yul\":4741:4758   */\n      add\n        /* \"#utility.yul\":4732:4738   */\n      dup5\n        /* \"#utility.yul\":4688:4759   */\n      tag_314\n      jump\t// in\n    tag_426:\n        /* \"#utility.yul\":4544:4766   */\n      swap3\n      swap2\n      pop\n      pop\n      jump\t// out\n        /* \"#utility.yul\":4772:4889   */\n    tag_330:\n        /* \"#utility.yul\":4881:4882   */\n      0x00\n        /* \"#utility.yul\":4878:4879   */\n      dup1\n        /* \"#utility.yul\":4871:4883   */\n      revert\n        /* \"#utility.yul\":4895:4997   */\n    tag_331:\n        /* \"#utility.yul\":4936:4942   */\n      0x00\n        /* \"#utility.yul\":4987:4989   */\n      0x1f\n        /* \"#utility.yul\":4983:4990   */\n      not\n        /* \"#utility.yul\":4978:4980   */\n      0x1f\n        /* \"#utility.yul\":4971:4976   */\n      dup4\n        /* \"#utility.yul\":4967:4981   */\n      add\n        /* \"#utility.yul\":4963:4991   */\n      and\n        /* \"#utility.yul\":4953:4991   */\n      swap1\n      pop\n        /* \"#utility.yul\":4895:4997   */\n      swap2\n      swap1\n      pop\n      jump\t// out\n        /* \"#utility.yul\":5003:5183   */\n    tag_125:\n        /* \"#utility.yul\":5051:5128   */\n      0x4e487b7100000000000000000000000000000000000000000000000000000000\n        /* \"#utility.yul\":5048:5049   */\n      0x00\n        /* \"#utility.yul\":5041:5129   */\n      mstore\n        /* \"#utility.yul\":5148:5152   */\n      0x41\n        /* \"#utility.yul\":5145:5146   */\n      0x04\n        /* \"#utility.yul\":5138:5153   */\n      mstore\n        /* \"#utility.yul\":5172:5176   */\n      0x24\n        /* \"#utility.yul\":5169:5170   */\n      0x00\n        /* \"#utility.yul\":5162:5177   */\n      revert\n        /* \"#utility.yul\":5189:5470   */\n    tag_332:\n        /* \"#utility.yul\":5272:5299   */\n      tag_431\n        /* \"#utility.yul\":5294:5298   */\n      dup3\n        /* \"#utility.yul\":5272:5299   */\n      tag_331\n      jump\t// in\n    tag_431:\n        /* \"#utility.yul\":5264:5270   */\n      dup2\n        /* \"#utility.yul\":5260:5300   */\n      add\n        /* \"#utility.yul\":5402:5408   */\n      dup2\n        /* \"#utility.yul\":5390:5400   */\n      dup2\n        /* \"#utility.yul\":5387:5409   */\n      lt\n        /* \"#utility.yul\":5366:5384   */\n      0xffffffffffffffff\n        /* \"#utility.yul\":5354:5364   */\n      dup3\n        /* \"#utility.yul\":5351:5385   */\n      gt\n        /* \"#utility.yul\":5348:5410   */\n      or\n        /* \"#utility.yul\":5345:5433   */\n      iszero\n      tag_432\n      jumpi\n        /* \"#utility.yul\":5413:5431   */\n      tag_433\n      tag_125\n      jump\t// in\n    tag_433:\n        /* \"#utility.yul\":5345:5433   */\n    tag_432:\n        /* \"#utility.yul\":5453:5463   */\n      dup1\n        /* \"#utility.yul\":5449:5451   */\n      0x40\n        /* \"#utility.yul\":5442:5464   */\n      mstore\n        /* \"#utility.yul\":5232:5470   */\n      pop\n        /* \"#utility.yul\":5189:5470   */\n      pop\n      pop\n      jump\t// out\n        /* \"#utility.yul\":5476:5605   */\n    tag_333:\n        /* \"#utility.yul\":5510:5516   */\n      0x00\n        /* \"#utility.yul\":5537:5557   */\n      tag_435\n      tag_315\n      jump\t// in\n    tag_435:\n        /* \"#utility.yul\":5527:5557   */\n      swap1\n      pop\n        /* \"#utility.yul\":5566:5599   */\n      tag_436\n        /* \"#utility.yul\":5594:5598   */\n      dup3\n        /* \"#utility.yul\":5586:5592   */\n      dup3\n        /* \"#utility.yul\":5566:5599   */\n      tag_332\n      jump\t// in\n    tag_436:\n        /* \"#utility.yul\":5476:5605   */\n      swap2\n      swap1\n      pop\n      jump\t// out\n        /* \"#utility.yul\":5611:5922   */\n    tag_334:\n        /* \"#utility.yul\":5688:5692   */\n      0x00\n        /* \"#utility.yul\":5778:5796   */\n      0xffffffffffffffff\n        /* \"#utility.yul\":5770:5776   */\n      dup3\n        /* \"#utility.yul\":5767:5797   */\n      gt\n        /* \"#utility.yul\":5764:5820   */\n      iszero\n      tag_438\n      jumpi\n        /* \"#utility.yul\":5800:5818   */\n      tag_439\n      tag_125\n      jump\t// in\n    tag_439:\n        /* \"#utility.yul\":5764:5820   */\n    tag_438:\n        /* \"#utility.yul\":5850:5854   */\n      0x20\n        /* \"#utility.yul\":5842:5848   */\n      dup3\n        /* \"#utility.yul\":5838:5855   */\n      mul\n        /* \"#utility.yul\":5830:5855   */\n      swap1\n      pop\n        /* \"#utility.yul\":5910:5914   */\n      0x20\n        /* \"#utility.yul\":5904:5908   */\n      dup2\n        /* \"#utility.yul\":5900:5915   */\n      add\n        /* \"#utility.yul\":5892:5915   */\n      swap1\n      pop\n        /* \"#utility.yul\":5611:5922   */\n      swap2\n      swap1\n      pop\n      jump\t// out\n        /* \"#utility.yul\":5928:6045   */\n    tag_335:\n        /* \"#utility.yul\":6037:6038   */\n      0x00\n        /* \"#utility.yul\":6034:6035   */\n      dup1\n        /* \"#utility.yul\":6027:6039   */\n      revert\n        /* \"#utility.yul\":6051:6173   */\n    tag_336:\n        /* \"#utility.yul\":6124:6148   */\n      tag_442\n        /* \"#utility.yul\":6142:6147   */\n      dup2\n        /* \"#utility.yul\":6124:6148   */\n      tag_313\n      jump\t// in\n    tag_442:\n        /* \"#utility.yul\":6117:6122   */\n      dup2\n        /* \"#utility.yul\":6114:6149   */\n      eq\n        /* \"#utility.yul\":6104:6167   */\n      tag_443\n      jumpi\n        /* \"#utility.yul\":6163:6164   */\n      0x00\n        /* \"#utility.yul\":6160:6161   */\n      dup1\n        /* \"#utility.yul\":6153:6165   */\n      revert\n        /* \"#utility.yul\":6104:6167   */\n    tag_443:\n        /* \"#utility.yul\":6051:6173   */\n      pop\n      jump\t// out\n        /* \"#utility.yul\":6179:6318   */\n    tag_337:\n        /* \"#utility.yul\":6225:6230   */\n      0x00\n        /* \"#utility.yul\":6263:6269   */\n      dup2\n        /* \"#utility.yul\":6250:6270   */\n      calldataload\n        /* \"#utility.yul\":6241:6270   */\n      swap1\n      pop\n        /* \"#utility.yul\":6279:6312   */\n      tag_445\n        /* \"#utility.yul\":6306:6311   */\n      dup2\n        /* \"#utility.yul\":6279:6312   */\n      tag_336\n      jump\t// in\n    tag_445:\n        /* \"#utility.yul\":6179:6318   */\n      swap3\n      swap2\n      pop\n      pop\n      jump\t// out\n        /* \"#utility.yul\":6341:7051   */\n    tag_338:\n        /* \"#utility.yul\":6437:6442   */\n      0x00\n        /* \"#utility.yul\":6462:6543   */\n      tag_447\n        /* \"#utility.yul\":6478:6542   */\n      tag_448\n        /* \"#utility.yul\":6535:6541   */\n      dup5\n        /* \"#utility.yul\":6478:6542   */\n      tag_334\n      jump\t// in\n    tag_448:\n        /* \"#utility.yul\":6462:6543   */\n      tag_333\n      jump\t// in\n    tag_447:\n        /* \"#utility.yul\":6453:6543   */\n      swap1\n      pop\n        /* \"#utility.yul\":6563:6568   */\n      dup1\n        /* \"#utility.yul\":6592:6598   */\n      dup4\n        /* \"#utility.yul\":6585:6590   */\n      dup3\n        /* \"#utility.yul\":6578:6599   */\n      mstore\n        /* \"#utility.yul\":6626:6630   */\n      0x20\n        /* \"#utility.yul\":6619:6624   */\n      dup3\n        /* \"#utility.yul\":6615:6631   */\n      add\n        /* \"#utility.yul\":6608:6631   */\n      swap1\n      pop\n        /* \"#utility.yul\":6679:6683   */\n      0x20\n        /* \"#utility.yul\":6671:6677   */\n      dup5\n        /* \"#utility.yul\":6667:6684   */\n      mul\n        /* \"#utility.yul\":6659:6665   */\n      dup4\n        /* \"#utility.yul\":6655:6685   */\n      add\n        /* \"#utility.yul\":6708:6711   */\n      dup6\n        /* \"#utility.yul\":6700:6706   */\n      dup2\n        /* \"#utility.yul\":6697:6712   */\n      gt\n        /* \"#utility.yul\":6694:6816   */\n      iszero\n      tag_449\n      jumpi\n        /* \"#utility.yul\":6727:6806   */\n      tag_450\n      tag_335\n      jump\t// in\n    tag_450:\n        /* \"#utility.yul\":6694:6816   */\n    tag_449:\n        /* \"#utility.yul\":6842:6848   */\n      dup4\n        /* \"#utility.yul\":6825:7045   */\n    tag_451:\n        /* \"#utility.yul\":6859:6865   */\n      dup2\n        /* \"#utility.yul\":6854:6857   */\n      dup2\n        /* \"#utility.yul\":6851:6866   */\n      lt\n        /* \"#utility.yul\":6825:7045   */\n      iszero\n      tag_453\n      jumpi\n        /* \"#utility.yul\":6934:6937   */\n      dup1\n        /* \"#utility.yul\":6963:7000   */\n      tag_454\n        /* \"#utility.yul\":6996:6999   */\n      dup9\n        /* \"#utility.yul\":6984:6994   */\n      dup3\n        /* \"#utility.yul\":6963:7000   */\n      tag_337\n      jump\t// in\n    tag_454:\n        /* \"#utility.yul\":6958:6961   */\n      dup5\n        /* \"#utility.yul\":6951:7001   */\n      mstore\n        /* \"#utility.yul\":7030:7034   */\n      0x20\n        /* \"#utility.yul\":7025:7028   */\n      dup5\n        /* \"#utility.yul\":7021:7035   */\n      add\n        /* \"#utility.yul\":7014:7035   */\n      swap4\n      pop\n        /* \"#utility.yul\":6901:7045   */\n      pop\n        /* \"#utility.yul\":6885:6889   */\n      0x20\n        /* \"#utility.yul\":6880:6883   */\n      dup2\n        /* \"#utility.yul\":6876:6890   */\n      add\n        /* \"#utility.yul\":6869:6890   */\n      swap1\n      pop\n        /* \"#utility.yul\":6825:7045   */\n      jump(tag_451)\n    tag_453:\n        /* \"#utility.yul\":6829:6850   */\n      pop\n        /* \"#utility.yul\":6443:7051   */\n      pop\n      pop\n        /* \"#utility.yul\":6341:7051   */\n      swap4\n      swap3\n      pop\n      pop\n      pop\n      jump\t// out\n        /* \"#utility.yul\":7074:7444   */\n    tag_339:\n        /* \"#utility.yul\":7145:7150   */\n      0x00\n        /* \"#utility.yul\":7194:7197   */\n      dup3\n        /* \"#utility.yul\":7187:7191   */\n      0x1f\n        /* \"#utility.yul\":7179:7185   */\n      dup4\n        /* \"#utility.yul\":7175:7192   */\n      add\n        /* \"#utility.yul\":7171:7198   */\n      slt\n        /* \"#utility.yul\":7161:7283   */\n      tag_456\n      jumpi\n        /* \"#utility.yul\":7202:7281   */\n      tag_457\n      tag_330\n      jump\t// in\n    tag_457:\n        /* \"#utility.yul\":7161:7283   */\n    tag_456:\n        /* \"#utility.yul\":7319:7325   */\n      dup2\n        /* \"#utility.yul\":7306:7326   */\n      calldataload\n        /* \"#utility.yul\":7344:7438   */\n      tag_458\n        /* \"#utility.yul\":7434:7437   */\n      dup5\n        /* \"#utility.yul\":7426:7432   */\n      dup3\n        /* \"#utility.yul\":7419:7423   */\n      0x20\n        /* \"#utility.yul\":7411:7417   */\n      dup7\n        /* \"#utility.yul\":7407:7424   */\n      add\n        /* \"#utility.yul\":7344:7438   */\n      tag_338\n      jump\t// in\n    tag_458:\n        /* \"#utility.yul\":7335:7438   */\n      swap2\n      pop\n        /* \"#utility.yul\":7151:7444   */\n      pop\n        /* \"#utility.yul\":7074:7444   */\n      swap3\n      swap2\n      pop\n      pop\n      jump\t// out\n        /* \"#utility.yul\":7450:7989   */\n    tag_46:\n        /* \"#utility.yul\":7534:7540   */\n      0x00\n        /* \"#utility.yul\":7583:7585   */\n      0x20\n        /* \"#utility.yul\":7571:7580   */\n      dup3\n        /* \"#utility.yul\":7562:7569   */\n      dup5\n        /* \"#utility.yul\":7558:7581   */\n      sub\n        /* \"#utility.yul\":7554:7586   */\n      slt\n        /* \"#utility.yul\":7551:7670   */\n      iszero\n      tag_460\n      jumpi\n        /* \"#utility.yul\":7589:7668   */\n      tag_461\n      tag_316\n      jump\t// in\n    tag_461:\n        /* \"#utility.yul\":7551:7670   */\n    tag_460:\n        /* \"#utility.yul\":7737:7738   */\n      0x00\n        /* \"#utility.yul\":7726:7735   */\n      dup3\n        /* \"#utility.yul\":7722:7739   */\n      add\n        /* \"#utility.yul\":7709:7740   */\n      calldataload\n        /* \"#utility.yul\":7767:7785   */\n      0xffffffffffffffff\n        /* \"#utility.yul\":7759:7765   */\n      dup2\n        /* \"#utility.yul\":7756:7786   */\n      gt\n        /* \"#utility.yul\":7753:7870   */\n      iszero\n      tag_462\n      jumpi\n        /* \"#utility.yul\":7789:7868   */\n      tag_463\n      tag_317\n      jump\t// in\n    tag_463:\n        /* \"#utility.yul\":7753:7870   */\n    tag_462:\n        /* \"#utility.yul\":7894:7972   */\n      tag_464\n        /* \"#utility.yul\":7964:7971   */\n      dup5\n        /* \"#utility.yul\":7955:7961   */\n      dup3\n        /* \"#utility.yul\":7944:7953   */\n      dup6\n        /* \"#utility.yul\":7940:7962   */\n      add\n        /* \"#utility.yul\":7894:7972   */\n      tag_339\n      jump\t// in\n    tag_464:\n        /* \"#utility.yul\":7884:7972   */\n      swap2\n      pop\n        /* \"#utility.yul\":7680:7982   */\n      pop\n        /* \"#utility.yul\":7450:7989   */\n      swap3\n      swap2\n      pop\n      pop\n      jump\t// out\n        /* \"#utility.yul\":7995:8324   */\n    tag_54:\n        /* \"#utility.yul\":8054:8060   */\n      0x00\n        /* \"#utility.yul\":8103:8105   */\n      0x20\n        /* \"#utility.yul\":8091:8100   */\n      dup3\n        /* \"#utility.yul\":8082:8089   */\n      dup5\n        /* \"#utility.yul\":8078:8101   */\n      sub\n        /* \"#utility.yul\":8074:8106   */\n      slt\n        /* \"#utility.yul\":8071:8190   */\n      iszero\n      tag_466\n      jumpi\n        /* \"#utility.yul\":8109:8188   */\n      tag_467\n      tag_316\n      jump\t// in\n    tag_467:\n        /* \"#utility.yul\":8071:8190   */\n    tag_466:\n        /* \"#utility.yul\":8229:8230   */\n      0x00\n        /* \"#utility.yul\":8254:8307   */\n      tag_468\n        /* \"#utility.yul\":8299:8306   */\n      dup5\n        /* \"#utility.yul\":8290:8296   */\n      dup3\n        /* \"#utility.yul\":8279:8288   */\n      dup6\n        /* \"#utility.yul\":8275:8297   */\n      add\n        /* \"#utility.yul\":8254:8307   */\n      tag_319\n      jump\t// in\n    tag_468:\n        /* \"#utility.yul\":8244:8307   */\n      swap2\n      pop\n        /* \"#utility.yul\":8200:8317   */\n      pop\n        /* \"#utility.yul\":7995:8324   */\n      swap3\n      swap2\n      pop\n      pop\n      jump\t// out\n        /* \"#utility.yul\":8330:8552   */\n    tag_60:\n        /* \"#utility.yul\":8423:8427   */\n      0x00\n        /* \"#utility.yul\":8461:8463   */\n      0x20\n        /* \"#utility.yul\":8450:8459   */\n      dup3\n        /* \"#utility.yul\":8446:8464   */\n      add\n        /* \"#utility.yul\":8438:8464   */\n      swap1\n      pop\n        /* \"#utility.yul\":8474:8545   */\n      tag_470\n        /* \"#utility.yul\":8542:8543   */\n      0x00\n        /* \"#utility.yul\":8531:8540   */\n      dup4\n        /* \"#utility.yul\":8527:8544   */\n      add\n        /* \"#utility.yul\":8518:8524   */\n      dup5\n        /* \"#utility.yul\":8474:8545   */\n      tag_311\n      jump\t// in\n    tag_470:\n        /* \"#utility.yul\":8330:8552   */\n      swap3\n      swap2\n      pop\n      pop\n      jump\t// out\n        /* \"#utility.yul\":8558:8675   */\n    tag_340:\n        /* \"#utility.yul\":8667:8668   */\n      0x00\n        /* \"#utility.yul\":8664:8665   */\n      dup1\n        /* \"#utility.yul\":8657:8669   */\n      revert\n        /* \"#utility.yul\":8694:9246   */\n    tag_341:\n        /* \"#utility.yul\":8751:8759   */\n      0x00\n        /* \"#utility.yul\":8761:8767   */\n      dup1\n        /* \"#utility.yul\":8811:8814   */\n      dup4\n        /* \"#utility.yul\":8804:8808   */\n      0x1f\n        /* \"#utility.yul\":8796:8802   */\n      dup5\n        /* \"#utility.yul\":8792:8809   */\n      add\n        /* \"#utility.yul\":8788:8815   */\n      slt\n        /* \"#utility.yul\":8778:8900   */\n      tag_473\n      jumpi\n        /* \"#utility.yul\":8819:8898   */\n      tag_474\n      tag_330\n      jump\t// in\n    tag_474:\n        /* \"#utility.yul\":8778:8900   */\n    tag_473:\n        /* \"#utility.yul\":8932:8938   */\n      dup3\n        /* \"#utility.yul\":8919:8939   */\n      calldataload\n        /* \"#utility.yul\":8909:8939   */\n      swap1\n      pop\n        /* \"#utility.yul\":8962:8980   */\n      0xffffffffffffffff\n        /* \"#utility.yul\":8954:8960   */\n      dup2\n        /* \"#utility.yul\":8951:8981   */\n      gt\n        /* \"#utility.yul\":8948:9065   */\n      iszero\n      tag_475\n      jumpi\n        /* \"#utility.yul\":8984:9063   */\n      tag_476\n      tag_340\n      jump\t// in\n    tag_476:\n        /* \"#utility.yul\":8948:9065   */\n    tag_475:\n        /* \"#utility.yul\":9098:9102   */\n      0x20\n        /* \"#utility.yul\":9090:9096   */\n      dup4\n        /* \"#utility.yul\":9086:9103   */\n      add\n        /* \"#utility.yul\":9074:9103   */\n      swap2\n      pop\n        /* \"#utility.yul\":9152:9155   */\n      dup4\n        /* \"#utility.yul\":9144:9148   */\n      0x01\n        /* \"#utility.yul\":9136:9142   */\n      dup3\n        /* \"#utility.yul\":9132:9149   */\n      mul\n        /* \"#utility.yul\":9122:9130   */\n      dup4\n        /* \"#utility.yul\":9118:9150   */\n      add\n        /* \"#utility.yul\":9115:9156   */\n      gt\n        /* \"#utility.yul\":9112:9240   */\n      iszero\n      tag_477\n      jumpi\n        /* \"#utility.yul\":9159:9238   */\n      tag_478\n      tag_335\n      jump\t// in\n    tag_478:\n        /* \"#utility.yul\":9112:9240   */\n    tag_477:\n        /* \"#utility.yul\":8694:9246   */\n      swap3\n      pop\n      swap3\n      swap1\n      pop\n      jump\t// out\n        /* \"#utility.yul\":9252:9779   */\n    tag_64:\n        /* \"#utility.yul\":9322:9328   */\n      0x00\n        /* \"#utility.yul\":9330:9336   */\n      dup1\n        /* \"#utility.yul\":9379:9381   */\n      0x20\n        /* \"#utility.yul\":9367:9376   */\n      dup4\n        /* \"#utility.yul\":9358:9365   */\n      dup6\n        /* \"#utility.yul\":9354:9377   */\n      sub\n        /* \"#utility.yul\":9350:9382   */\n      slt\n        /* \"#utility.yul\":9347:9466   */\n      iszero\n      tag_480\n      jumpi\n        /* \"#utility.yul\":9385:9464   */\n      tag_481\n      tag_316\n      jump\t// in\n    tag_481:\n        /* \"#utility.yul\":9347:9466   */\n    tag_480:\n        /* \"#utility.yul\":9533:9534   */\n      0x00\n        /* \"#utility.yul\":9522:9531   */\n      dup4\n        /* \"#utility.yul\":9518:9535   */\n      add\n        /* \"#utility.yul\":9505:9536   */\n      calldataload\n        /* \"#utility.yul\":9563:9581   */\n      0xffffffffffffffff\n        /* \"#utility.yul\":9555:9561   */\n      dup2\n        /* \"#utility.yul\":9552:9582   */\n      gt\n        /* \"#utility.yul\":9549:9666   */\n      iszero\n      tag_482\n      jumpi\n        /* \"#utility.yul\":9585:9664   */\n      tag_483\n      tag_317\n      jump\t// in\n    tag_483:\n        /* \"#utility.yul\":9549:9666   */\n    tag_482:\n        /* \"#utility.yul\":9698:9762   */\n      tag_484\n        /* \"#utility.yul\":9754:9761   */\n      dup6\n        /* \"#utility.yul\":9745:9751   */\n      dup3\n        /* \"#utility.yul\":9734:9743   */\n      dup7\n        /* \"#utility.yul\":9730:9752   */\n      add\n        /* \"#utility.yul\":9698:9762   */\n      tag_341\n      jump\t// in\n    tag_484:\n        /* \"#utility.yul\":9680:9762   */\n      swap3\n      pop\n      swap3\n      pop\n        /* \"#utility.yul\":9476:9772   */\n      pop\n        /* \"#utility.yul\":9252:9779   */\n      swap3\n      pop\n      swap3\n      swap1\n      pop\n      jump\t// out\n        /* \"#utility.yul\":9785:9875   */\n    tag_342:\n        /* \"#utility.yul\":9819:9826   */\n      0x00\n        /* \"#utility.yul\":9862:9867   */\n      dup2\n        /* \"#utility.yul\":9855:9868   */\n      iszero\n        /* \"#utility.yul\":9848:9869   */\n      iszero\n        /* \"#utility.yul\":9837:9869   */\n      swap1\n      pop\n        /* \"#utility.yul\":9785:9875   */\n      swap2\n      swap1\n      pop\n      jump\t// out\n        /* \"#utility.yul\":9881:9990   */\n    tag_343:\n        /* \"#utility.yul\":9962:9983   */\n      tag_487\n        /* \"#utility.yul\":9977:9982   */\n      dup2\n        /* \"#utility.yul\":9962:9983   */\n      tag_342\n      jump\t// in\n    tag_487:\n        /* \"#utility.yul\":9957:9960   */\n      dup3\n        /* \"#utility.yul\":9950:9984   */\n      mstore\n        /* \"#utility.yul\":9881:9990   */\n      pop\n      pop\n      jump\t// out\n        /* \"#utility.yul\":9996:10206   */\n    tag_70:\n        /* \"#utility.yul\":10083:10087   */\n      0x00\n        /* \"#utility.yul\":10121:10123   */\n      0x20\n        /* \"#utility.yul\":10110:10119   */\n      dup3\n        /* \"#utility.yul\":10106:10124   */\n      add\n        /* \"#utility.yul\":10098:10124   */\n      swap1\n      pop\n        /* \"#utility.yul\":10134:10199   */\n      tag_489\n        /* \"#utility.yul\":10196:10197   */\n      0x00\n        /* \"#utility.yul\":10185:10194   */\n      dup4\n        /* \"#utility.yul\":10181:10198   */\n      add\n        /* \"#utility.yul\":10172:10178   */\n      dup5\n        /* \"#utility.yul\":10134:10199   */\n      tag_343\n      jump\t// in\n    tag_489:\n        /* \"#utility.yul\":9996:10206   */\n      swap3\n      swap2\n      pop\n      pop\n      jump\t// out\n        /* \"#utility.yul\":10212:10310   */\n    tag_344:\n        /* \"#utility.yul\":10263:10269   */\n      0x00\n        /* \"#utility.yul\":10297:10302   */\n      dup2\n        /* \"#utility.yul\":10291:10303   */\n      mload\n        /* \"#utility.yul\":10281:10303   */\n      swap1\n      pop\n        /* \"#utility.yul\":10212:10310   */\n      swap2\n      swap1\n      pop\n      jump\t// out\n        /* \"#utility.yul\":10316:10484   */\n    tag_345:\n        /* \"#utility.yul\":10399:10410   */\n      0x00\n        /* \"#utility.yul\":10433:10439   */\n      dup3\n        /* \"#utility.yul\":10428:10431   */\n      dup3\n        /* \"#utility.yul\":10421:10440   */\n      mstore\n        /* \"#utility.yul\":10473:10477   */\n      0x20\n        /* \"#utility.yul\":10468:10471   */\n      dup3\n        /* \"#utility.yul\":10464:10478   */\n      add\n        /* \"#utility.yul\":10449:10478   */\n      swap1\n      pop\n        /* \"#utility.yul\":10316:10484   */\n      swap3\n      swap2\n      pop\n      pop\n      jump\t// out\n        /* \"#utility.yul\":10490:10629   */\n    tag_346:\n        /* \"#utility.yul\":10579:10585   */\n      dup3\n        /* \"#utility.yul\":10574:10577   */\n      dup2\n        /* \"#utility.yul\":10569:10572   */\n      dup4\n        /* \"#utility.yul\":10563:10586   */\n      mcopy\n        /* \"#utility.yul\":10620:10621   */\n      0x00\n        /* \"#utility.yul\":10611:10617   */\n      dup4\n        /* \"#utility.yul\":10606:10609   */\n      dup4\n        /* \"#utility.yul\":10602:10618   */\n      add\n        /* \"#utility.yul\":10595:10622   */\n      mstore\n        /* \"#utility.yul\":10490:10629   */\n      pop\n      pop\n      pop\n      jump\t// out\n        /* \"#utility.yul\":10635:11008   */\n    tag_347:\n        /* \"#utility.yul\":10721:10724   */\n      0x00\n        /* \"#utility.yul\":10749:10787   */\n      tag_494\n        /* \"#utility.yul\":10781:10786   */\n      dup3\n        /* \"#utility.yul\":10749:10787   */\n      tag_344\n      jump\t// in\n    tag_494:\n        /* \"#utility.yul\":10803:10873   */\n      tag_495\n        /* \"#utility.yul\":10866:10872   */\n      dup2\n        /* \"#utility.yul\":10861:10864   */\n      dup6\n        /* \"#utility.yul\":10803:10873   */\n      tag_345\n      jump\t// in\n    tag_495:\n        /* \"#utility.yul\":10796:10873   */\n      swap4\n      pop\n        /* \"#utility.yul\":10882:10947   */\n      tag_496\n        /* \"#utility.yul\":10940:10946   */\n      dup2\n        /* \"#utility.yul\":10935:10938   */\n      dup6\n        /* \"#utility.yul\":10928:10932   */\n      0x20\n        /* \"#utility.yul\":10921:10926   */\n      dup7\n        /* \"#utility.yul\":10917:10933   */\n      add\n        /* \"#utility.yul\":10882:10947   */\n      tag_346\n      jump\t// in\n    tag_496:\n        /* \"#utility.yul\":10972:11001   */\n      tag_497\n        /* \"#utility.yul\":10994:11000   */\n      dup2\n        /* \"#utility.yul\":10972:11001   */\n      tag_331\n      jump\t// in\n    tag_497:\n        /* \"#utility.yul\":10967:10970   */\n      dup5\n        /* \"#utility.yul\":10963:11002   */\n      add\n        /* \"#utility.yul\":10956:11002   */\n      swap2\n      pop\n        /* \"#utility.yul\":10725:11008   */\n      pop\n        /* \"#utility.yul\":10635:11008   */\n      swap3\n      swap2\n      pop\n      pop\n      jump\t// out\n        /* \"#utility.yul\":11014:11421   */\n    tag_76:\n        /* \"#utility.yul\":11147:11151   */\n      0x00\n        /* \"#utility.yul\":11185:11187   */\n      0x40\n        /* \"#utility.yul\":11174:11183   */\n      dup3\n        /* \"#utility.yul\":11170:11188   */\n      add\n        /* \"#utility.yul\":11162:11188   */\n      swap1\n      pop\n        /* \"#utility.yul\":11198:11263   */\n      tag_499\n        /* \"#utility.yul\":11260:11261   */\n      0x00\n        /* \"#utility.yul\":11249:11258   */\n      dup4\n        /* \"#utility.yul\":11245:11262   */\n      add\n        /* \"#utility.yul\":11236:11242   */\n      dup6\n        /* \"#utility.yul\":11198:11263   */\n      tag_343\n      jump\t// in\n    tag_499:\n        /* \"#utility.yul\":11310:11319   */\n      dup2\n        /* \"#utility.yul\":11304:11308   */\n      dup2\n        /* \"#utility.yul\":11300:11320   */\n      sub\n        /* \"#utility.yul\":11295:11297   */\n      0x20\n        /* \"#utility.yul\":11284:11293   */\n      dup4\n        /* \"#utility.yul\":11280:11298   */\n      add\n        /* \"#utility.yul\":11273:11321   */\n      mstore\n        /* \"#utility.yul\":11338:11414   */\n      tag_500\n        /* \"#utility.yul\":11409:11413   */\n      dup2\n        /* \"#utility.yul\":11400:11406   */\n      dup5\n        /* \"#utility.yul\":11338:11414   */\n      tag_347\n      jump\t// in\n    tag_500:\n        /* \"#utility.yul\":11330:11414   */\n      swap1\n      pop\n        /* \"#utility.yul\":11014:11421   */\n      swap4\n      swap3\n      pop\n      pop\n      pop\n      jump\t// out\n        /* \"#utility.yul\":11427:11756   */\n    tag_87:\n        /* \"#utility.yul\":11486:11492   */\n      0x00\n        /* \"#utility.yul\":11535:11537   */\n      0x20\n        /* \"#utility.yul\":11523:11532   */\n      dup3\n        /* \"#utility.yul\":11514:11521   */\n      dup5\n        /* \"#utility.yul\":11510:11533   */\n      sub\n        /* \"#utility.yul\":11506:11538   */\n      slt\n        /* \"#utility.yul\":11503:11622   */\n      iszero\n      tag_502\n      jumpi\n        /* \"#utility.yul\":11541:11620   */\n      tag_503\n      tag_316\n      jump\t// in\n    tag_503:\n        /* \"#utility.yul\":11503:11622   */\n    tag_502:\n        /* \"#utility.yul\":11661:11662   */\n      0x00\n        /* \"#utility.yul\":11686:11739   */\n      tag_504\n        /* \"#utility.yul\":11731:11738   */\n      dup5\n        /* \"#utility.yul\":11722:11728   */\n      dup3\n        /* \"#utility.yul\":11711:11720   */\n      dup6\n        /* \"#utility.yul\":11707:11729   */\n      add\n        /* \"#utility.yul\":11686:11739   */\n      tag_337\n      jump\t// in\n    tag_504:\n        /* \"#utility.yul\":11676:11739   */\n      swap2\n      pop\n        /* \"#utility.yul\":11632:11749   */\n      pop\n        /* \"#utility.yul\":11427:11756   */\n      swap3\n      swap2\n      pop\n      pop\n      jump\t// out\n        /* \"#utility.yul\":11762:11871   */\n    tag_348:\n        /* \"#utility.yul\":11798:11805   */\n      0x00\n        /* \"#utility.yul\":11838:11864   */\n      0xffffffffffffffffffffffff\n        /* \"#utility.yul\":11831:11836   */\n      dup3\n        /* \"#utility.yul\":11827:11865   */\n      and\n        /* \"#utility.yul\":11816:11865   */\n      swap1\n      pop\n        /* \"#utility.yul\":11762:11871   */\n      swap2\n      swap1\n      pop\n      jump\t// out\n        /* \"#utility.yul\":11877:11992   */\n    tag_349:\n        /* \"#utility.yul\":11962:11985   */\n      tag_507\n        /* \"#utility.yul\":11979:11984   */\n      dup2\n        /* \"#utility.yul\":11962:11985   */\n      tag_348\n      jump\t// in\n    tag_507:\n        /* \"#utility.yul\":11957:11960   */\n      dup3\n        /* \"#utility.yul\":11950:11986   */\n      mstore\n        /* \"#utility.yul\":11877:11992   */\n      pop\n      pop\n      jump\t// out\n        /* \"#utility.yul\":11998:12097   */\n    tag_350:\n        /* \"#utility.yul\":12034:12041   */\n      0x00\n        /* \"#utility.yul\":12074:12090   */\n      0xffffffffffffff\n        /* \"#utility.yul\":12067:12072   */\n      dup3\n        /* \"#utility.yul\":12063:12091   */\n      and\n        /* \"#utility.yul\":12052:12091   */\n      swap1\n      pop\n        /* \"#utility.yul\":11998:12097   */\n      swap2\n      swap1\n      pop\n      jump\t// out\n        /* \"#utility.yul\":12103:12218   */\n    tag_351:\n        /* \"#utility.yul\":12188:12211   */\n      tag_510\n        /* \"#utility.yul\":12205:12210   */\n      dup2\n        /* \"#utility.yul\":12188:12211   */\n      tag_350\n      jump\t// in\n    tag_510:\n        /* \"#utility.yul\":12183:12186   */\n      dup3\n        /* \"#utility.yul\":12176:12212   */\n      mstore\n        /* \"#utility.yul\":12103:12218   */\n      pop\n      pop\n      jump\t// out\n        /* \"#utility.yul\":12224:12753   */\n    tag_90:\n        /* \"#utility.yul\":12389:12393   */\n      0x00\n        /* \"#utility.yul\":12427:12430   */\n      0x80\n        /* \"#utility.yul\":12416:12425   */\n      dup3\n        /* \"#utility.yul\":12412:12431   */\n      add\n        /* \"#utility.yul\":12404:12431   */\n      swap1\n      pop\n        /* \"#utility.yul\":12441:12506   */\n      tag_512\n        /* \"#utility.yul\":12503:12504   */\n      0x00\n        /* \"#utility.yul\":12492:12501   */\n      dup4\n        /* \"#utility.yul\":12488:12505   */\n      add\n        /* \"#utility.yul\":12479:12485   */\n      dup8\n        /* \"#utility.yul\":12441:12506   */\n      tag_343\n      jump\t// in\n    tag_512:\n        /* \"#utility.yul\":12516:12586   */\n      tag_513\n        /* \"#utility.yul\":12582:12584   */\n      0x20\n        /* \"#utility.yul\":12571:12580   */\n      dup4\n        /* \"#utility.yul\":12567:12585   */\n      add\n        /* \"#utility.yul\":12558:12564   */\n      dup7\n        /* \"#utility.yul\":12516:12586   */\n      tag_349\n      jump\t// in\n    tag_513:\n        /* \"#utility.yul\":12596:12666   */\n      tag_514\n        /* \"#utility.yul\":12662:12664   */\n      0x40\n        /* \"#utility.yul\":12651:12660   */\n      dup4\n        /* \"#utility.yul\":12647:12665   */\n      add\n        /* \"#utility.yul\":12638:12644   */\n      dup6\n        /* \"#utility.yul\":12596:12666   */\n      tag_349\n      jump\t// in\n    tag_514:\n        /* \"#utility.yul\":12676:12746   */\n      tag_515\n        /* \"#utility.yul\":12742:12744   */\n      0x60\n        /* \"#utility.yul\":12731:12740   */\n      dup4\n        /* \"#utility.yul\":12727:12745   */\n      add\n        /* \"#utility.yul\":12718:12724   */\n      dup5\n        /* \"#utility.yul\":12676:12746   */\n      tag_351\n      jump\t// in\n    tag_515:\n        /* \"#utility.yul\":12224:12753   */\n      swap6\n      swap5\n      pop\n      pop\n      pop\n      pop\n      pop\n      jump\t// out\n        /* \"#utility.yul\":12776:13344   */\n    tag_352:\n        /* \"#utility.yul\":12849:12857   */\n      0x00\n        /* \"#utility.yul\":12859:12865   */\n      dup1\n        /* \"#utility.yul\":12909:12912   */\n      dup4\n        /* \"#utility.yul\":12902:12906   */\n      0x1f\n        /* \"#utility.yul\":12894:12900   */\n      dup5\n        /* \"#utility.yul\":12890:12907   */\n      add\n        /* \"#utility.yul\":12886:12913   */\n      slt\n        /* \"#utility.yul\":12876:12998   */\n      tag_517\n      jumpi\n        /* \"#utility.yul\":12917:12996   */\n      tag_518\n      tag_330\n      jump\t// in\n    tag_518:\n        /* \"#utility.yul\":12876:12998   */\n    tag_517:\n        /* \"#utility.yul\":13030:13036   */\n      dup3\n        /* \"#utility.yul\":13017:13037   */\n      calldataload\n        /* \"#utility.yul\":13007:13037   */\n      swap1\n      pop\n        /* \"#utility.yul\":13060:13078   */\n      0xffffffffffffffff\n        /* \"#utility.yul\":13052:13058   */\n      dup2\n        /* \"#utility.yul\":13049:13079   */\n      gt\n        /* \"#utility.yul\":13046:13163   */\n      iszero\n      tag_519\n      jumpi\n        /* \"#utility.yul\":13082:13161   */\n      tag_520\n      tag_340\n      jump\t// in\n    tag_520:\n        /* \"#utility.yul\":13046:13163   */\n    tag_519:\n        /* \"#utility.yul\":13196:13200   */\n      0x20\n        /* \"#utility.yul\":13188:13194   */\n      dup4\n        /* \"#utility.yul\":13184:13201   */\n      add\n        /* \"#utility.yul\":13172:13201   */\n      swap2\n      pop\n        /* \"#utility.yul\":13250:13253   */\n      dup4\n        /* \"#utility.yul\":13242:13246   */\n      0x20\n        /* \"#utility.yul\":13234:13240   */\n      dup3\n        /* \"#utility.yul\":13230:13247   */\n      mul\n        /* \"#utility.yul\":13220:13228   */\n      dup4\n        /* \"#utility.yul\":13216:13248   */\n      add\n        /* \"#utility.yul\":13213:13254   */\n      gt\n        /* \"#utility.yul\":13210:13338   */\n      iszero\n      tag_521\n      jumpi\n        /* \"#utility.yul\":13257:13336   */\n      tag_522\n      tag_335\n      jump\t// in\n    tag_522:\n        /* \"#utility.yul\":13210:13338   */\n    tag_521:\n        /* \"#utility.yul\":12776:13344   */\n      swap3\n      pop\n      swap3\n      swap1\n      pop\n      jump\t// out\n        /* \"#utility.yul\":13366:13933   */\n    tag_353:\n        /* \"#utility.yul\":13438:13446   */\n      0x00\n        /* \"#utility.yul\":13448:13454   */\n      dup1\n        /* \"#utility.yul\":13498:13501   */\n      dup4\n        /* \"#utility.yul\":13491:13495   */\n      0x1f\n        /* \"#utility.yul\":13483:13489   */\n      dup5\n        /* \"#utility.yul\":13479:13496   */\n      add\n        /* \"#utility.yul\":13475:13502   */\n      slt\n        /* \"#utility.yul\":13465:13587   */\n      tag_524\n      jumpi\n        /* \"#utility.yul\":13506:13585   */\n      tag_525\n      tag_330\n      jump\t// in\n    tag_525:\n        /* \"#utility.yul\":13465:13587   */\n    tag_524:\n        /* \"#utility.yul\":13619:13625   */\n      dup3\n        /* \"#utility.yul\":13606:13626   */\n      calldataload\n        /* \"#utility.yul\":13596:13626   */\n      swap1\n      pop\n        /* \"#utility.yul\":13649:13667   */\n      0xffffffffffffffff\n        /* \"#utility.yul\":13641:13647   */\n      dup2\n        /* \"#utility.yul\":13638:13668   */\n      gt\n        /* \"#utility.yul\":13635:13752   */\n      iszero\n      tag_526\n      jumpi\n        /* \"#utility.yul\":13671:13750   */\n      tag_527\n      tag_340\n      jump\t// in\n    tag_527:\n        /* \"#utility.yul\":13635:13752   */\n    tag_526:\n        /* \"#utility.yul\":13785:13789   */\n      0x20\n        /* \"#utility.yul\":13777:13783   */\n      dup4\n        /* \"#utility.yul\":13773:13790   */\n      add\n        /* \"#utility.yul\":13761:13790   */\n      swap2\n      pop\n        /* \"#utility.yul\":13839:13842   */\n      dup4\n        /* \"#utility.yul\":13831:13835   */\n      0x20\n        /* \"#utility.yul\":13823:13829   */\n      dup3\n        /* \"#utility.yul\":13819:13836   */\n      mul\n        /* \"#utility.yul\":13809:13817   */\n      dup4\n        /* \"#utility.yul\":13805:13837   */\n      add\n        /* \"#utility.yul\":13802:13843   */\n      gt\n        /* \"#utility.yul\":13799:13927   */\n      iszero\n      tag_528\n      jumpi\n        /* \"#utility.yul\":13846:13925   */\n      tag_529\n      tag_335\n      jump\t// in\n    tag_529:\n        /* \"#utility.yul\":13799:13927   */\n    tag_528:\n        /* \"#utility.yul\":13366:13933   */\n      swap3\n      pop\n      swap3\n      swap1\n      pop\n      jump\t// out\n        /* \"#utility.yul\":13939:15244   */\n    tag_101:\n        /* \"#utility.yul\":14095:14101   */\n      0x00\n        /* \"#utility.yul\":14103:14109   */\n      dup1\n        /* \"#utility.yul\":14111:14117   */\n      0x00\n        /* \"#utility.yul\":14119:14125   */\n      dup1\n        /* \"#utility.yul\":14127:14133   */\n      0x00\n        /* \"#utility.yul\":14135:14141   */\n      dup1\n        /* \"#utility.yul\":14184:14186   */\n      0x60\n        /* \"#utility.yul\":14172:14181   */\n      dup8\n        /* \"#utility.yul\":14163:14170   */\n      dup10\n        /* \"#utility.yul\":14159:14182   */\n      sub\n        /* \"#utility.yul\":14155:14187   */\n      slt\n        /* \"#utility.yul\":14152:14271   */\n      iszero\n      tag_531\n      jumpi\n        /* \"#utility.yul\":14190:14269   */\n      tag_532\n      tag_316\n      jump\t// in\n    tag_532:\n        /* \"#utility.yul\":14152:14271   */\n    tag_531:\n        /* \"#utility.yul\":14338:14339   */\n      0x00\n        /* \"#utility.yul\":14327:14336   */\n      dup8\n        /* \"#utility.yul\":14323:14340   */\n      add\n        /* \"#utility.yul\":14310:14341   */\n      calldataload\n        /* \"#utility.yul\":14368:14386   */\n      0xffffffffffffffff\n        /* \"#utility.yul\":14360:14366   */\n      dup2\n        /* \"#utility.yul\":14357:14387   */\n      gt\n        /* \"#utility.yul\":14354:14471   */\n      iszero\n      tag_533\n      jumpi\n        /* \"#utility.yul\":14390:14469   */\n      tag_534\n      tag_317\n      jump\t// in\n    tag_534:\n        /* \"#utility.yul\":14354:14471   */\n    tag_533:\n        /* \"#utility.yul\":14503:14583   */\n      tag_535\n        /* \"#utility.yul\":14575:14582   */\n      dup10\n        /* \"#utility.yul\":14566:14572   */\n      dup3\n        /* \"#utility.yul\":14555:14564   */\n      dup11\n        /* \"#utility.yul\":14551:14573   */\n      add\n        /* \"#utility.yul\":14503:14583   */\n      tag_352\n      jump\t// in\n    tag_535:\n        /* \"#utility.yul\":14485:14583   */\n      swap7\n      pop\n      swap7\n      pop\n        /* \"#utility.yul\":14281:14593   */\n      pop\n        /* \"#utility.yul\":14660:14662   */\n      0x20\n        /* \"#utility.yul\":14649:14658   */\n      dup8\n        /* \"#utility.yul\":14645:14663   */\n      add\n        /* \"#utility.yul\":14632:14664   */\n      calldataload\n        /* \"#utility.yul\":14691:14709   */\n      0xffffffffffffffff\n        /* \"#utility.yul\":14683:14689   */\n      dup2\n        /* \"#utility.yul\":14680:14710   */\n      gt\n        /* \"#utility.yul\":14677:14794   */\n      iszero\n      tag_536\n      jumpi\n        /* \"#utility.yul\":14713:14792   */\n      tag_537\n      tag_317\n      jump\t// in\n    tag_537:\n        /* \"#utility.yul\":14677:14794   */\n    tag_536:\n        /* \"#utility.yul\":14826:14905   */\n      tag_538\n        /* \"#utility.yul\":14897:14904   */\n      dup10\n        /* \"#utility.yul\":14888:14894   */\n      dup3\n        /* \"#utility.yul\":14877:14886   */\n      dup11\n        /* \"#utility.yul\":14873:14895   */\n      add\n        /* \"#utility.yul\":14826:14905   */\n      tag_353\n      jump\t// in\n    tag_538:\n        /* \"#utility.yul\":14808:14905   */\n      swap5\n      pop\n      swap5\n      pop\n        /* \"#utility.yul\":14603:14915   */\n      pop\n        /* \"#utility.yul\":14982:14984   */\n      0x40\n        /* \"#utility.yul\":14971:14980   */\n      dup8\n        /* \"#utility.yul\":14967:14985   */\n      add\n        /* \"#utility.yul\":14954:14986   */\n      calldataload\n        /* \"#utility.yul\":15013:15031   */\n      0xffffffffffffffff\n        /* \"#utility.yul\":15005:15011   */\n      dup2\n        /* \"#utility.yul\":15002:15032   */\n      gt\n        /* \"#utility.yul\":14999:15116   */\n      iszero\n      tag_539\n      jumpi\n        /* \"#utility.yul\":15035:15114   */\n      tag_540\n      tag_317\n      jump\t// in\n    tag_540:\n        /* \"#utility.yul\":14999:15116   */\n    tag_539:\n        /* \"#utility.yul\":15148:15227   */\n      tag_541\n        /* \"#utility.yul\":15219:15226   */\n      dup10\n        /* \"#utility.yul\":15210:15216   */\n      dup3\n        /* \"#utility.yul\":15199:15208   */\n      dup11\n        /* \"#utility.yul\":15195:15217   */\n      add\n        /* \"#utility.yul\":15148:15227   */\n      tag_353\n      jump\t// in\n    tag_541:\n        /* \"#utility.yul\":15130:15227   */\n      swap3\n      pop\n      swap3\n      pop\n        /* \"#utility.yul\":14925:15237   */\n      pop\n        /* \"#utility.yul\":13939:15244   */\n      swap3\n      swap6\n      pop\n      swap3\n      swap6\n      pop\n      swap3\n      swap6\n      jump\t// out\n        /* \"#utility.yul\":15250:15310   */\n    tag_354:\n        /* \"#utility.yul\":15278:15281   */\n      0x00\n        /* \"#utility.yul\":15299:15304   */\n      dup2\n        /* \"#utility.yul\":15292:15304   */\n      swap1\n      pop\n        /* \"#utility.yul\":15250:15310   */\n      swap2\n      swap1\n      pop\n      jump\t// out\n        /* \"#utility.yul\":15316:15458   */\n    tag_355:\n        /* \"#utility.yul\":15366:15375   */\n      0x00\n        /* \"#utility.yul\":15399:15452   */\n      tag_544\n        /* \"#utility.yul\":15417:15451   */\n      tag_545\n        /* \"#utility.yul\":15426:15450   */\n      tag_546\n        /* \"#utility.yul\":15444:15449   */\n      dup5\n        /* \"#utility.yul\":15426:15450   */\n      tag_312\n      jump\t// in\n    tag_546:\n        /* \"#utility.yul\":15417:15451   */\n      tag_354\n      jump\t// in\n    tag_545:\n        /* \"#utility.yul\":15399:15452   */\n      tag_312\n      jump\t// in\n    tag_544:\n        /* \"#utility.yul\":15386:15452   */\n      swap1\n      pop\n        /* \"#utility.yul\":15316:15458   */\n      swap2\n      swap1\n      pop\n      jump\t// out\n        /* \"#utility.yul\":15464:15590   */\n    tag_356:\n        /* \"#utility.yul\":15514:15523   */\n      0x00\n        /* \"#utility.yul\":15547:15584   */\n      tag_548\n        /* \"#utility.yul\":15578:15583   */\n      dup3\n        /* \"#utility.yul\":15547:15584   */\n      tag_355\n      jump\t// in\n    tag_548:\n        /* \"#utility.yul\":15534:15584   */\n      swap1\n      pop\n        /* \"#utility.yul\":15464:15590   */\n      swap2\n      swap1\n      pop\n      jump\t// out\n        /* \"#utility.yul\":15596:15730   */\n    tag_357:\n        /* \"#utility.yul\":15654:15663   */\n      0x00\n        /* \"#utility.yul\":15687:15724   */\n      tag_550\n        /* \"#utility.yul\":15718:15723   */\n      dup3\n        /* \"#utility.yul\":15687:15724   */\n      tag_356\n      jump\t// in\n    tag_550:\n        /* \"#utility.yul\":15674:15724   */\n      swap1\n      pop\n        /* \"#utility.yul\":15596:15730   */\n      swap2\n      swap1\n      pop\n      jump\t// out\n        /* \"#utility.yul\":15736:15883   */\n    tag_358:\n        /* \"#utility.yul\":15831:15876   */\n      tag_552\n        /* \"#utility.yul\":15870:15875   */\n      dup2\n        /* \"#utility.yul\":15831:15876   */\n      tag_357\n      jump\t// in\n    tag_552:\n        /* \"#utility.yul\":15826:15829   */\n      dup3\n        /* \"#utility.yul\":15819:15877   */\n      mstore\n        /* \"#utility.yul\":15736:15883   */\n      pop\n      pop\n      jump\t// out\n        /* \"#utility.yul\":15889:16237   */\n    tag_117:\n        /* \"#utility.yul\":16018:16022   */\n      0x00\n        /* \"#utility.yul\":16056:16058   */\n      0x40\n        /* \"#utility.yul\":16045:16054   */\n      dup3\n        /* \"#utility.yul\":16041:16059   */\n      add\n        /* \"#utility.yul\":16033:16059   */\n      swap1\n      pop\n        /* \"#utility.yul\":16069:16140   */\n      tag_554\n        /* \"#utility.yul\":16137:16138   */\n      0x00\n        /* \"#utility.yul\":16126:16135   */\n      dup4\n        /* \"#utility.yul\":16122:16139   */\n      add\n        /* \"#utility.yul\":16113:16119   */\n      dup6\n        /* \"#utility.yul\":16069:16140   */\n      tag_311\n      jump\t// in\n    tag_554:\n        /* \"#utility.yul\":16150:16230   */\n      tag_555\n        /* \"#utility.yul\":16226:16228   */\n      0x20\n        /* \"#utility.yul\":16215:16224   */\n      dup4\n        /* \"#utility.yul\":16211:16229   */\n      add\n        /* \"#utility.yul\":16202:16208   */\n      dup5\n        /* \"#utility.yul\":16150:16230   */\n      tag_358\n      jump\t// in\n    tag_555:\n        /* \"#utility.yul\":15889:16237   */\n      swap4\n      swap3\n      pop\n      pop\n      pop\n      jump\t// out\n        /* \"#utility.yul\":16243:16423   */\n    tag_134:\n        /* \"#utility.yul\":16291:16368   */\n      0x4e487b7100000000000000000000000000000000000000000000000000000000\n        /* \"#utility.yul\":16288:16289   */\n      0x00\n        /* \"#utility.yul\":16281:16369   */\n      mstore\n        /* \"#utility.yul\":16388:16392   */\n      0x32\n        /* \"#utility.yul\":16385:16386   */\n      0x04\n        /* \"#utility.yul\":16378:16393   */\n      mstore\n        /* \"#utility.yul\":16412:16416   */\n      0x24\n        /* \"#utility.yul\":16409:16410   */\n      0x00\n        /* \"#utility.yul\":16402:16417   */\n      revert\n        /* \"#utility.yul\":16429:16609   */\n    tag_359:\n        /* \"#utility.yul\":16477:16554   */\n      0x4e487b7100000000000000000000000000000000000000000000000000000000\n        /* \"#utility.yul\":16474:16475   */\n      0x00\n        /* \"#utility.yul\":16467:16555   */\n      mstore\n        /* \"#utility.yul\":16574:16578   */\n      0x11\n        /* \"#utility.yul\":16571:16572   */\n      0x04\n        /* \"#utility.yul\":16564:16579   */\n      mstore\n        /* \"#utility.yul\":16598:16602   */\n      0x24\n        /* \"#utility.yul\":16595:16596   */\n      0x00\n        /* \"#utility.yul\":16588:16603   */\n      revert\n        /* \"#utility.yul\":16615:16806   */\n    tag_136:\n        /* \"#utility.yul\":16655:16658   */\n      0x00\n        /* \"#utility.yul\":16674:16694   */\n      tag_559\n        /* \"#utility.yul\":16692:16693   */\n      dup3\n        /* \"#utility.yul\":16674:16694   */\n      tag_310\n      jump\t// in\n    tag_559:\n        /* \"#utility.yul\":16669:16694   */\n      swap2\n      pop\n        /* \"#utility.yul\":16708:16728   */\n      tag_560\n        /* \"#utility.yul\":16726:16727   */\n      dup4\n        /* \"#utility.yul\":16708:16728   */\n      tag_310\n      jump\t// in\n    tag_560:\n        /* \"#utility.yul\":16703:16728   */\n      swap3\n      pop\n        /* \"#utility.yul\":16751:16752   */\n      dup3\n        /* \"#utility.yul\":16748:16749   */\n      dup3\n        /* \"#utility.yul\":16744:16753   */\n      add\n        /* \"#utility.yul\":16737:16753   */\n      swap1\n      pop\n        /* \"#utility.yul\":16772:16775   */\n      dup1\n        /* \"#utility.yul\":16769:16770   */\n      dup3\n        /* \"#utility.yul\":16766:16776   */\n      gt\n        /* \"#utility.yul\":16763:16799   */\n      iszero\n      tag_561\n      jumpi\n        /* \"#utility.yul\":16779:16797   */\n      tag_562\n      tag_359\n      jump\t// in\n    tag_562:\n        /* \"#utility.yul\":16763:16799   */\n    tag_561:\n        /* \"#utility.yul\":16615:16806   */\n      swap3\n      swap2\n      pop\n      pop\n      jump\t// out\n        /* \"#utility.yul\":16812:17045   */\n    tag_147:\n        /* \"#utility.yul\":16851:16854   */\n      0x00\n        /* \"#utility.yul\":16874:16898   */\n      tag_564\n        /* \"#utility.yul\":16892:16897   */\n      dup3\n        /* \"#utility.yul\":16874:16898   */\n      tag_310\n      jump\t// in\n    tag_564:\n        /* \"#utility.yul\":16865:16898   */\n      swap2\n      pop\n        /* \"#utility.yul\":16920:16986   */\n      0xffffffffffffffffffffffffffffffffffffffffffffffffffffffffffffffff\n        /* \"#utility.yul\":16913:16918   */\n      dup3\n        /* \"#utility.yul\":16910:16987   */\n      sub\n        /* \"#utility.yul\":16907:17010   */\n      tag_565\n      jumpi\n        /* \"#utility.yul\":16990:17008   */\n      tag_566\n      tag_359\n      jump\t// in\n    tag_566:\n        /* \"#utility.yul\":16907:17010   */\n    tag_565:\n        /* \"#utility.yul\":17037:17038   */\n      0x01\n        /* \"#utility.yul\":17030:17035   */\n      dup3\n        /* \"#utility.yul\":17026:17039   */\n      add\n        /* \"#utility.yul\":17019:17039   */\n      swap1\n      pop\n        /* \"#utility.yul\":16812:17045   */\n      swap2\n      swap1\n      pop\n      jump\t// out\n        /* \"#utility.yul\":17051:17245   */\n    tag_149:\n        /* \"#utility.yul\":17091:17095   */\n      0x00\n        /* \"#utility.yul\":17111:17131   */\n      tag_568\n        /* \"#utility.yul\":17129:17130   */\n      dup3\n        /* \"#utility.yul\":17111:17131   */\n      tag_310\n      jump\t// in\n    tag_568:\n        /* \"#utility.yul\":17106:17131   */\n      swap2\n      pop\n        /* \"#utility.yul\":17145:17165   */\n      tag_569\n        /* \"#utility.yul\":17163:17164   */\n      dup4\n        /* \"#utility.yul\":17145:17165   */\n      tag_310\n      jump\t// in\n    tag_569:\n        /* \"#utility.yul\":17140:17165   */\n      swap3\n      pop\n        /* \"#utility.yul\":17189:17190   */\n      dup3\n        /* \"#utility.yul\":17186:17187   */\n      dup3\n        /* \"#utility.yul\":17182:17191   */\n      sub\n        /* \"#utility.yul\":17174:17191   */\n      swap1\n      pop\n        /* \"#utility.yul\":17213:17214   */\n      dup2\n        /* \"#utility.yul\":17207:17211   */\n      dup2\n        /* \"#utility.yul\":17204:17215   */\n      gt\n        /* \"#utility.yul\":17201:17238   */\n      iszero\n      tag_570\n      jumpi\n        /* \"#utility.yul\":17218:17236   */\n      tag_571\n      tag_359\n      jump\t// in\n    tag_571:\n        /* \"#utility.yul\":17201:17238   */\n    tag_570:\n        /* \"#utility.yul\":17051:17245   */\n      swap3\n      swap2\n      pop\n      pop\n      jump\t// out\n        /* \"#utility.yul\":17251:17583   */\n    tag_189:\n        /* \"#utility.yul\":17372:17376   */\n      0x00\n        /* \"#utility.yul\":17410:17412   */\n      0x40\n        /* \"#utility.yul\":17399:17408   */\n      dup3\n        /* \"#utility.yul\":17395:17413   */\n      add\n        /* \"#utility.yul\":17387:17413   */\n      swap1\n      pop\n        /* \"#utility.yul\":17423:17494   */\n      tag_573\n        /* \"#utility.yul\":17491:17492   */\n      0x00\n        /* \"#utility.yul\":17480:17489   */\n      dup4\n        /* \"#utility.yul\":17476:17493   */\n      add\n        /* \"#utility.yul\":17467:17473   */\n      dup6\n        /* \"#utility.yul\":17423:17494   */\n      tag_311\n      jump\t// in\n    tag_573:\n        /* \"#utility.yul\":17504:17576   */\n      tag_574\n        /* \"#utility.yul\":17572:17574   */\n      0x20\n        /* \"#utility.yul\":17561:17570   */\n      dup4\n        /* \"#utility.yul\":17557:17575   */\n      add\n        /* \"#utility.yul\":17548:17554   */\n      dup5\n        /* \"#utility.yul\":17504:17576   */\n      tag_311\n      jump\t// in\n    tag_574:\n        /* \"#utility.yul\":17251:17583   */\n      swap4\n      swap3\n      pop\n      pop\n      pop\n      jump\t// out\n        /* \"#utility.yul\":17589:17758   */\n    tag_360:\n        /* \"#utility.yul\":17673:17684   */\n      0x00\n        /* \"#utility.yul\":17707:17713   */\n      dup3\n        /* \"#utility.yul\":17702:17705   */\n      dup3\n        /* \"#utility.yul\":17695:17714   */\n      mstore\n        /* \"#utility.yul\":17747:17751   */\n      0x20\n        /* \"#utility.yul\":17742:17745   */\n      dup3\n        /* \"#utility.yul\":17738:17752   */\n      add\n        /* \"#utility.yul\":17723:17752   */\n      swap1\n      pop\n        /* \"#utility.yul\":17589:17758   */\n      swap3\n      swap2\n      pop\n      pop\n      jump\t// out\n        /* \"#utility.yul\":17764:17936   */\n    tag_361:\n        /* \"#utility.yul\":17904:17928   */\n      0x4d7573742062652070726f706f736564206f776e657200000000000000000000\n        /* \"#utility.yul\":17900:17901   */\n      0x00\n        /* \"#utility.yul\":17892:17898   */\n      dup3\n        /* \"#utility.yul\":17888:17902   */\n      add\n        /* \"#utility.yul\":17881:17929   */\n      mstore\n        /* \"#utility.yul\":17764:17936   */\n      pop\n      jump\t// out\n        /* \"#utility.yul\":17942:18308   */\n    tag_362:\n        /* \"#utility.yul\":18084:18087   */\n      0x00\n        /* \"#utility.yul\":18105:18172   */\n      tag_578\n        /* \"#utility.yul\":18169:18171   */\n      0x16\n        /* \"#utility.yul\":18164:18167   */\n      dup4\n        /* \"#utility.yul\":18105:18172   */\n      tag_360\n      jump\t// in\n    tag_578:\n        /* \"#utility.yul\":18098:18172   */\n      swap2\n      pop\n        /* \"#utility.yul\":18181:18274   */\n      tag_579\n        /* \"#utility.yul\":18270:18273   */\n      dup3\n        /* \"#utility.yul\":18181:18274   */\n      tag_361\n      jump\t// in\n    tag_579:\n        /* \"#utility.yul\":18299:18301   */\n      0x20\n        /* \"#utility.yul\":18294:18297   */\n      dup3\n        /* \"#utility.yul\":18290:18302   */\n      add\n        /* \"#utility.yul\":18283:18302   */\n      swap1\n      pop\n        /* \"#utility.yul\":17942:18308   */\n      swap2\n      swap1\n      pop\n      jump\t// out\n        /* \"#utility.yul\":18314:18733   */\n    tag_210:\n        /* \"#utility.yul\":18480:18484   */\n      0x00\n        /* \"#utility.yul\":18518:18520   */\n      0x20\n        /* \"#utility.yul\":18507:18516   */\n      dup3\n        /* \"#utility.yul\":18503:18521   */\n      add\n        /* \"#utility.yul\":18495:18521   */\n      swap1\n      pop\n        /* \"#utility.yul\":18567:18576   */\n      dup2\n        /* \"#utility.yul\":18561:18565   */\n      dup2\n        /* \"#utility.yul\":18557:18577   */\n      sub\n        /* \"#utility.yul\":18553:18554   */\n      0x00\n        /* \"#utility.yul\":18542:18551   */\n      dup4\n        /* \"#utility.yul\":18538:18555   */\n      add\n        /* \"#utility.yul\":18531:18578   */\n      mstore\n        /* \"#utility.yul\":18595:18726   */\n      tag_581\n        /* \"#utility.yul\":18721:18725   */\n      dup2\n        /* \"#utility.yul\":18595:18726   */\n      tag_362\n      jump\t// in\n    tag_581:\n        /* \"#utility.yul\":18587:18726   */\n      swap1\n      pop\n        /* \"#utility.yul\":18314:18733   */\n      swap2\n      swap1\n      pop\n      jump\t// out\n        /* \"#utility.yul\":18739:18859   */\n    tag_363:\n        /* \"#utility.yul\":18811:18834   */\n      tag_583\n        /* \"#utility.yul\":18828:18833   */\n      dup2\n        /* \"#utility.yul\":18811:18834   */\n      tag_348\n      jump\t// in\n    tag_583:\n        /* \"#utility.yul\":18804:18809   */\n      dup2\n        /* \"#utility.yul\":18801:18835   */\n      eq\n        /* \"#utility.yul\":18791:18853   */\n      tag_584\n      jumpi\n        /* \"#utility.yul\":18849:18850   */\n      0x00\n        /* \"#utility.yul\":18846:18847   */\n      dup1\n        /* \"#utility.yul\":18839:18851   */\n      revert\n        /* \"#utility.yul\":18791:18853   */\n    tag_584:\n        /* \"#utility.yul\":18739:18859   */\n      pop\n      jump\t// out\n        /* \"#utility.yul\":18865:19002   */\n    tag_364:\n        /* \"#utility.yul\":18910:18915   */\n      0x00\n        /* \"#utility.yul\":18948:18954   */\n      dup2\n        /* \"#utility.yul\":18935:18955   */\n      calldataload\n        /* \"#utility.yul\":18926:18955   */\n      swap1\n      pop\n        /* \"#utility.yul\":18964:18996   */\n      tag_586\n        /* \"#utility.yul\":18990:18995   */\n      dup2\n        /* \"#utility.yul\":18964:18996   */\n      tag_363\n      jump\t// in\n    tag_586:\n        /* \"#utility.yul\":18865:19002   */\n      swap3\n      swap2\n      pop\n      pop\n      jump\t// out\n        /* \"#utility.yul\":19008:19335   */\n    tag_248:\n        /* \"#utility.yul\":19066:19072   */\n      0x00\n        /* \"#utility.yul\":19115:19117   */\n      0x20\n        /* \"#utility.yul\":19103:19112   */\n      dup3\n        /* \"#utility.yul\":19094:19101   */\n      dup5\n        /* \"#utility.yul\":19090:19113   */\n      sub\n        /* \"#utility.yul\":19086:19118   */\n      slt\n        /* \"#utility.yul\":19083:19202   */\n      iszero\n      tag_588\n      jumpi\n        /* \"#utility.yul\":19121:19200   */\n      tag_589\n      tag_316\n      jump\t// in\n    tag_589:\n        /* \"#utility.yul\":19083:19202   */\n    tag_588:\n        /* \"#utility.yul\":19241:19242   */\n      0x00\n        /* \"#utility.yul\":19266:19318   */\n      tag_590\n        /* \"#utility.yul\":19310:19317   */\n      dup5\n        /* \"#utility.yul\":19301:19307   */\n      dup3\n        /* \"#utility.yul\":19290:19299   */\n      dup6\n        /* \"#utility.yul\":19286:19308   */\n      add\n        /* \"#utility.yul\":19266:19318   */\n      tag_364\n      jump\t// in\n    tag_590:\n        /* \"#utility.yul\":19256:19318   */\n      swap2\n      pop\n        /* \"#utility.yul\":19212:19328   */\n      pop\n        /* \"#utility.yul\":19008:19335   */\n      swap3\n      swap2\n      pop\n      pop\n      jump\t// out\n        /* \"#utility.yul\":19341:19673   */\n    tag_266:\n        /* \"#utility.yul\":19462:19466   */\n      0x00\n        /* \"#utility.yul\":19500:19502   */\n      0x40\n        /* \"#utility.yul\":19489:19498   */\n      dup3\n        /* \"#utility.yul\":19485:19503   */\n      add\n        /* \"#utility.yul\":19477:19503   */\n      swap1\n      pop\n        /* \"#utility.yul\":19513:19584   */\n      tag_592\n        /* \"#utility.yul\":19581:19582   */\n      0x00\n        /* \"#utility.yul\":19570:19579   */\n      dup4\n        /* \"#utility.yul\":19566:19583   */\n      add\n        /* \"#utility.yul\":19557:19563   */\n      dup6\n        /* \"#utility.yul\":19513:19584   */\n      tag_314\n      jump\t// in\n    tag_592:\n        /* \"#utility.yul\":19594:19666   */\n      tag_593\n        /* \"#utility.yul\":19662:19664   */\n      0x20\n        /* \"#utility.yul\":19651:19660   */\n      dup4\n        /* \"#utility.yul\":19647:19665   */\n      add\n        /* \"#utility.yul\":19638:19644   */\n      dup5\n        /* \"#utility.yul\":19594:19666   */\n      tag_314\n      jump\t// in\n    tag_593:\n        /* \"#utility.yul\":19341:19673   */\n      swap4\n      swap3\n      pop\n      pop\n      pop\n      jump\t// out\n        /* \"#utility.yul\":19679:19851   */\n    tag_365:\n        /* \"#utility.yul\":19819:19843   */\n      0x4f6e6c792063616c6c61626c65206279206f776e657200000000000000000000\n        /* \"#utility.yul\":19815:19816   */\n      0x00\n        /* \"#utility.yul\":19807:19813   */\n      dup3\n        /* \"#utility.yul\":19803:19817   */\n      add\n        /* \"#utility.yul\":19796:19844   */\n      mstore\n        /* \"#utility.yul\":19679:19851   */\n      pop\n      jump\t// out\n        /* \"#utility.yul\":19857:20223   */\n    tag_366:\n        /* \"#utility.yul\":19999:20002   */\n      0x00\n        /* \"#utility.yul\":20020:20087   */\n      tag_596\n        /* \"#utility.yul\":20084:20086   */\n      0x16\n        /* \"#utility.yul\":20079:20082   */\n      dup4\n        /* \"#utility.yul\":20020:20087   */\n      tag_360\n      jump\t// in\n    tag_596:\n        /* \"#utility.yul\":20013:20087   */\n      swap2\n      pop\n        /* \"#utility.yul\":20096:20189   */\n      tag_597\n        /* \"#utility.yul\":20185:20188   */\n      dup3\n        /* \"#utility.yul\":20096:20189   */\n      tag_365\n      jump\t// in\n    tag_597:\n        /* \"#utility.yul\":20214:20216   */\n      0x20\n        /* \"#utility.yul\":20209:20212   */\n      dup3\n        /* \"#utility.yul\":20205:20217   */\n      add\n        /* \"#utility.yul\":20198:20217   */\n      swap1\n      pop\n        /* \"#utility.yul\":19857:20223   */\n      swap2\n      swap1\n      pop\n      jump\t// out\n        /* \"#utility.yul\":20229:20648   */\n    tag_275:\n        /* \"#utility.yul\":20395:20399   */\n      0x00\n        /* \"#utility.yul\":20433:20435   */\n      0x20\n        /* \"#utility.yul\":20422:20431   */\n      dup3\n        /* \"#utility.yul\":20418:20436   */\n      add\n        /* \"#utility.yul\":20410:20436   */\n      swap1\n      pop\n        /* \"#utility.yul\":20482:20491   */\n      dup2\n        /* \"#utility.yul\":20476:20480   */\n      dup2\n        /* \"#utility.yul\":20472:20492   */\n      sub\n        /* \"#utility.yul\":20468:20469   */\n      0x00\n        /* \"#utility.yul\":20457:20466   */\n      dup4\n        /* \"#utility.yul\":20453:20470   */\n      add\n        /* \"#utility.yul\":20446:20493   */\n      mstore\n        /* \"#utility.yul\":20510:20641   */\n      tag_599\n        /* \"#utility.yul\":20636:20640   */\n      dup2\n        /* \"#utility.yul\":20510:20641   */\n      tag_366\n      jump\t// in\n    tag_599:\n        /* \"#utility.yul\":20502:20641   */\n      swap1\n      pop\n        /* \"#utility.yul\":20229:20648   */\n      swap2\n      swap1\n      pop\n      jump\t// out\n        /* \"#utility.yul\":20654:20820   */\n    tag_367:\n        /* \"#utility.yul\":20794:20812   */\n      0x5061757361626c653a2070617573656400000000000000000000000000000000\n        /* \"#utility.yul\":20790:20791   */\n      0x00\n        /* \"#utility.yul\":20782:20788   */\n      dup3\n        /* \"#utility.yul\":20778:20792   */\n      add\n        /* \"#utility.yul\":20771:20813   */\n      mstore\n        /* \"#utility.yul\":20654:20820   */\n      pop\n      jump\t// out\n        /* \"#utility.yul\":20826:21192   */\n    tag_368:\n        /* \"#utility.yul\":20968:20971   */\n      0x00\n        /* \"#utility.yul\":20989:21056   */\n      tag_602\n        /* \"#utility.yul\":21053:21055   */\n      0x10\n        /* \"#utility.yul\":21048:21051   */\n      dup4\n        /* \"#utility.yul\":20989:21056   */\n      tag_360\n      jump\t// in\n    tag_602:\n        /* \"#utility.yul\":20982:21056   */\n      swap2\n      pop\n        /* \"#utility.yul\":21065:21158   */\n      tag_603\n        /* \"#utility.yul\":21154:21157   */\n      dup3\n        /* \"#utility.yul\":21065:21158   */\n      tag_367\n      jump\t// in\n    tag_603:\n        /* \"#utility.yul\":21183:21185   */\n      0x20\n        /* \"#utility.yul\":21178:21181   */\n      dup3\n        /* \"#utility.yul\":21174:21186   */\n      add\n        /* \"#utility.yul\":21167:21186   */\n      swap1\n      pop\n        /* \"#utility.yul\":20826:21192   */\n      swap2\n      swap1\n      pop\n      jump\t// out\n        /* \"#utility.yul\":21198:21617   */\n    tag_280:\n        /* \"#utility.yul\":21364:21368   */\n      0x00\n        /* \"#utility.yul\":21402:21404   */\n      0x20\n        /* \"#utility.yul\":21391:21400   */\n      dup3\n        /* \"#utility.yul\":21387:21405   */\n      add\n        /* \"#utility.yul\":21379:21405   */\n      swap1\n      pop\n        /* \"#utility.yul\":21451:21460   */\n      dup2\n        /* \"#utility.yul\":21445:21449   */\n      dup2\n        /* \"#utility.yul\":21441:21461   */\n      sub\n        /* \"#utility.yul\":21437:21438   */\n      0x00\n        /* \"#utility.yul\":21426:21435   */\n      dup4\n        /* \"#utility.yul\":21422:21439   */\n      add\n        /* \"#utility.yul\":21415:21462   */\n      mstore\n        /* \"#utility.yul\":21479:21610   */\n      tag_605\n        /* \"#utility.yul\":21605:21609   */\n      dup2\n        /* \"#utility.yul\":21479:21610   */\n      tag_368\n      jump\t// in\n    tag_605:\n        /* \"#utility.yul\":21471:21610   */\n      swap1\n      pop\n        /* \"#utility.yul\":21198:21617   */\n      swap2\n      swap1\n      pop\n      jump\t// out\n        /* \"#utility.yul\":21623:21796   */\n    tag_369:\n        /* \"#utility.yul\":21763:21788   */\n      0x43616e6e6f74207472616e7366657220746f2073656c66000000000000000000\n        /* \"#utility.yul\":21759:21760   */\n      0x00\n        /* \"#utility.yul\":21751:21757   */\n      dup3\n        /* \"#utility.yul\":21747:21761   */\n      add\n        /* \"#utility.yul\":21740:21789   */\n      mstore\n        /* \"#utility.yul\":21623:21796   */\n      pop\n      jump\t// out\n        /* \"#utility.yul\":21802:22168   */\n    tag_370:\n        /* \"#utility.yul\":21944:21947   */\n      0x00\n        /* \"#utility.yul\":21965:22032   */\n      tag_608\n        /* \"#utility.yul\":22029:22031   */\n      0x17\n        /* \"#utility.yul\":22024:22027   */\n      dup4\n        /* \"#utility.yul\":21965:22032   */\n      tag_360\n      jump\t// in\n    tag_608:\n        /* \"#utility.yul\":21958:22032   */\n      swap2\n      pop\n        /* \"#utility.yul\":22041:22134   */\n      tag_609\n        /* \"#utility.yul\":22130:22133   */\n      dup3\n        /* \"#utility.yul\":22041:22134   */\n      tag_369\n      jump\t// in\n    tag_609:\n        /* \"#utility.yul\":22159:22161   */\n      0x20\n        /* \"#utility.yul\":22154:22157   */\n      dup3\n        /* \"#utility.yul\":22150:22162   */\n      add\n        /* \"#utility.yul\":22143:22162   */\n      swap1\n      pop\n        /* \"#utility.yul\":21802:22168   */\n      swap2\n      swap1\n      pop\n      jump\t// out\n        /* \"#utility.yul\":22174:22593   */\n    tag_296:\n        /* \"#utility.yul\":22340:22344   */\n      0x00\n        /* \"#utility.yul\":22378:22380   */\n      0x20\n        /* \"#utility.yul\":22367:22376   */\n      dup3\n        /* \"#utility.yul\":22363:22381   */\n      add\n        /* \"#utility.yul\":22355:22381   */\n      swap1\n      pop\n        /* \"#utility.yul\":22427:22436   */\n      dup2\n        /* \"#utility.yul\":22421:22425   */\n      dup2\n        /* \"#utility.yul\":22417:22437   */\n      sub\n        /* \"#utility.yul\":22413:22414   */\n      0x00\n        /* \"#utility.yul\":22402:22411   */\n      dup4\n        /* \"#utility.yul\":22398:22415   */\n      add\n        /* \"#utility.yul\":22391:22438   */\n      mstore\n        /* \"#utility.yul\":22455:22586   */\n      tag_611\n        /* \"#utility.yul\":22581:22585   */\n      dup2\n        /* \"#utility.yul\":22455:22586   */\n      tag_370\n      jump\t// in\n    tag_611:\n        /* \"#utility.yul\":22447:22586   */\n      swap1\n      pop\n        /* \"#utility.yul\":22174:22593   */\n      swap2\n      swap1\n      pop\n      jump\t// out\n        /* \"#utility.yul\":22599:22769   */\n    tag_371:\n        /* \"#utility.yul\":22739:22761   */\n      0x5061757361626c653a206e6f7420706175736564000000000000000000000000\n        /* \"#utility.yul\":22735:22736   */\n      0x00\n        /* \"#utility.yul\":22727:22733   */\n      dup3\n        /* \"#utility.yul\":22723:22737   */\n      add\n        /* \"#utility.yul\":22716:22762   */\n      mstore\n        /* \"#utility.yul\":22599:22769   */\n      pop\n      jump\t// out\n        /* \"#utility.yul\":22775:23141   */\n    tag_372:\n        /* \"#utility.yul\":22917:22920   */\n      0x00\n        /* \"#utility.yul\":22938:23005   */\n      tag_614\n        /* \"#utility.yul\":23002:23004   */\n      0x14\n        /* \"#utility.yul\":22997:23000   */\n      dup4\n        /* \"#utility.yul\":22938:23005   */\n      tag_360\n      jump\t// in\n    tag_614:\n        /* \"#utility.yul\":22931:23005   */\n      swap2\n      pop\n        /* \"#utility.yul\":23014:23107   */\n      tag_615\n        /* \"#utility.yul\":23103:23106   */\n      dup3\n        /* \"#utility.yul\":23014:23107   */\n      tag_371\n      jump\t// in\n    tag_615:\n        /* \"#utility.yul\":23132:23134   */\n      0x20\n        /* \"#utility.yul\":23127:23130   */\n      dup3\n        /* \"#utility.yul\":23123:23135   */\n      add\n        /* \"#utility.yul\":23116:23135   */\n      swap1\n      pop\n        /* \"#utility.yul\":22775:23141   */\n      swap2\n      swap1\n      pop\n      jump\t// out\n        /* \"#utility.yul\":23147:23566   */\n    tag_301:\n        /* \"#utility.yul\":23313:23317   */\n      0x00\n        /* \"#utility.yul\":23351:23353   */\n      0x20\n        /* \"#utility.yul\":23340:23349   */\n      dup3\n        /* \"#utility.yul\":23336:23354   */\n      add\n        /* \"#utility.yul\":23328:23354   */\n      swap1\n      pop\n        /* \"#utility.yul\":23400:23409   */\n      dup2\n        /* \"#utility.yul\":23394:23398   */\n      dup2\n        /* \"#utility.yul\":23390:23410   */\n      sub\n        /* \"#utility.yul\":23386:23387   */\n      0x00\n        /* \"#utility.yul\":23375:23384   */\n      dup4\n        /* \"#utility.yul\":23371:23388   */\n      add\n        /* \"#utility.yul\":23364:23411   */\n      mstore\n        /* \"#utility.yul\":23428:23559   */\n      tag_617\n        /* \"#utility.yul\":23554:23558   */\n      dup2\n        /* \"#utility.yul\":23428:23559   */\n      tag_372\n      jump\t// in\n    tag_617:\n        /* \"#utility.yul\":23420:23559   */\n      swap1\n      pop\n        /* \"#utility.yul\":23147:23566   */\n      swap2\n      swap1\n      pop\n      jump\t// out\n\n    auxdata: 0xa2646970667358221220f9608d49dd850cc58519048a4d0479e22d47c68388a7e526e39883cdf209c7eb64736f6c63430008190033\n}\n",
				"bytecode": {
					"linkReferences": {},
					"object": "608060405234801561000f575f80fd5b50604051612c9b380380612c9b83398181016040528101906100319190610399565b33805f8073ffffffffffffffffffffffffffffffffffffffff168273ffffffffffffffffffffffffffffffffffffffff16036100a2576040517f08c379a00000000000000000000000000000000000000000000000000000000081526004016100999061041e565b60405180910390fd5b815f806101000a81548173ffffffffffffffffffffffffffffffffffffffff021916908373ffffffffffffffffffffffffffffffffffffffff1602179055505f73ffffffffffffffffffffffffffffffffffffffff168173ffffffffffffffffffffffffffffffffffffffff1614610124576101238161015660201b60201c565b5b5050505f600160146101000a81548160ff0219169083151502179055506101508161028060201b60201c565b50610542565b3373ffffffffffffffffffffffffffffffffffffffff168173ffffffffffffffffffffffffffffffffffffffff16036101c4576040517f08c379a00000000000000000000000000000000000000000000000000000000081526004016101bb90610486565b60405180910390fd5b8060015f6101000a81548173ffffffffffffffffffffffffffffffffffffffff021916908373ffffffffffffffffffffffffffffffffffffffff1602179055508073ffffffffffffffffffffffffffffffffffffffff165f8054906101000a900473ffffffffffffffffffffffffffffffffffffffff1673ffffffffffffffffffffffffffffffffffffffff167fed8889f560326eb138920d842192f0eb3dd22b4f139c87a2c57538e05bae127860405160405180910390a350565b61028e6102d360201b60201c565b7f04330086c73b1fe1e13cd47a61c692e7c4399b5de08ed94b7ab824684af09323600354826040516102c19291906104b3565b60405180910390a18060038190555050565b5f8054906101000a900473ffffffffffffffffffffffffffffffffffffffff1673ffffffffffffffffffffffffffffffffffffffff163373ffffffffffffffffffffffffffffffffffffffff1614610360576040517f08c379a000000000000000000000000000000000000000000000000000000000815260040161035790610524565b60405180910390fd5b565b5f80fd5b5f819050919050565b61037881610366565b8114610382575f80fd5b50565b5f815190506103938161036f565b92915050565b5f602082840312156103ae576103ad610362565b5b5f6103bb84828501610385565b91505092915050565b5f82825260208201905092915050565b7f43616e6e6f7420736574206f776e657220746f207a65726f00000000000000005f82015250565b5f6104086018836103c4565b9150610413826103d4565b602082019050919050565b5f6020820190508181035f830152610435816103fc565b9050919050565b7f43616e6e6f74207472616e7366657220746f2073656c660000000000000000005f82015250565b5f6104706017836103c4565b915061047b8261043c565b602082019050919050565b5f6020820190508181035f83015261049d81610464565b9050919050565b6104ad81610366565b82525050565b5f6040820190506104c65f8301856104a4565b6104d360208301846104a4565b9392505050565b7f4f6e6c792063616c6c61626c65206279206f776e6572000000000000000000005f82015250565b5f61050e6016836103c4565b9150610519826104da565b602082019050919050565b5f6020820190508181035f83015261053b81610502565b9050919050565b61274c8061054f5f395ff3fe60806040526004361061010b575f3560e01c80636e04ff0d116100945780638456cb59116100635780638456cb591461036b5780638da5cb5b14610381578063b1d52fa0146103ab578063d777cc6d146103d3578063f2fde38b146103fb5761014d565b80636e04ff0d146102af578063728584b7146102ec57806379ba5097146103165780637b510fe81461032c5761014d565b80633f4ba83a116100db5780633f4ba83a146101f55780633f85861f1461020b57806341d2052e146102335780634585e33b1461025d5780635c975abb146102855761014d565b8062f714ce146101515780630b67ddce146101795780633441856f146101a35780633e4ca677146101cd5761014d565b3661014d577fc6f3fb0fec49e4877342d4625d77a632541f55b7aae0f9d0b34c69b3478706dc34473360405161014393929190611b80565b60405180910390a1005b5f80fd5b34801561015c575f80fd5b5061017760048036038101906101729190611c2b565b610423565b005b348015610184575f80fd5b5061018d6104e3565b60405161019a9190611d20565b60405180910390f35b3480156101ae575f80fd5b506101b7610846565b6040516101c49190611d40565b60405180910390f35b3480156101d8575f80fd5b506101f360048036038101906101ee9190611ed3565b61086e565b005b348015610200575f80fd5b50610209610bfe565b005b348015610216575f80fd5b50610231600480360381019061022c9190611f1a565b610c10565b005b34801561023e575f80fd5b50610247610c5d565b6040516102549190611f45565b60405180910390f35b348015610268575f80fd5b50610283600480360381019061027e9190611fb7565b610c66565b005b348015610290575f80fd5b50610299610d14565b6040516102a6919061201c565b60405180910390f35b3480156102ba575f80fd5b506102d560048036038101906102d09190611fb7565b610d2a565b6040516102e3929190612095565b60405180910390f35b3480156102f7575f80fd5b50610300610d70565b60405161030d9190611d20565b60405180910390f35b348015610321575f80fd5b5061032a610dfb565b005b348015610337575f80fd5b50610352600480360381019061034d91906120c3565b610f8a565b6040516103629493929190612135565b60405180910390f35b348015610376575f80fd5b5061037f6110bd565b005b34801561038c575f80fd5b506103956110cf565b6040516103a29190611d40565b60405180910390f35b3480156103b6575f80fd5b506103d160048036038101906103cc9190612222565b6110f6565b005b3480156103de575f80fd5b506103f960048036038101906103f491906120c3565b61161f565b005b348015610406575f80fd5b50610421600480360381019061041c91906120c3565b6116fb565b005b61042b61170f565b5f73ffffffffffffffffffffffffffffffffffffffff168173ffffffffffffffffffffffffffffffffffffffff1603610462575f80fd5b7f6141b54b56b8a52a8c6f5cd2a857f6117b18ffbf4d46bd3106f300a839cbf5ea828260405161049392919061232d565b60405180910390a18073ffffffffffffffffffffffffffffffffffffffff166108fc8390811502906040515f60405180830381858888f193505050501580156104de573d5f803e3d5ffd5b505050565b60605f600480548060200260200160405190810160405280929190818152602001828054801561056557602002820191905f5260205f20905b815f9054906101000a900473ffffffffffffffffffffffffffffffffffffffff1673ffffffffffffffffffffffffffffffffffffffff168152602001906001019080831161051c575b505050505090505f815167ffffffffffffffff81111561058857610587611d6d565b5b6040519080825280602002602001820160405280156105b65781602001602082028036833780820191505090505b5090505f8060035490505f4790506105cc611a26565b5f5b865181101561082d5760055f8883815181106105ed576105ec612354565b5b602002602001015173ffffffffffffffffffffffffffffffffffffffff1673ffffffffffffffffffffffffffffffffffffffff1681526020019081526020015f206040518060800160405290815f82015f9054906101000a900460ff161515151581526020015f820160019054906101000a90046bffffffffffffffffffffffff166bffffffffffffffffffffffff166bffffffffffffffffffffffff1681526020015f8201600d9054906101000a90046bffffffffffffffffffffffff166bffffffffffffffffffffffff166bffffffffffffffffffffffff1681526020015f820160199054906101000a900466ffffffffffffff1666ffffffffffffff1666ffffffffffffff168152505091504284836060015166ffffffffffffff1661071691906123ae565b11158015610736575081604001516bffffffffffffffffffffffff168310155b8015610784575081602001516bffffffffffffffffffffffff1687828151811061076357610762612354565b5b602002602001015173ffffffffffffffffffffffffffffffffffffffff1631105b156108205786818151811061079c5761079b612354565b5b60200260200101518686815181106107b7576107b6612354565b5b602002602001019073ffffffffffffffffffffffffffffffffffffffff16908173ffffffffffffffffffffffffffffffffffffffff168152505084806107fc906123e1565b95505081604001516bffffffffffffffffffffffff168361081d9190612428565b92505b80806001019150506105ce565b508551841461083a578385525b84965050505050505090565b5f60025f9054906101000a900473ffffffffffffffffffffffffffffffffffffffff16905090565b61087661179e565b5f6003549050610884611a26565b5f5b8351811015610bf75760055f8583815181106108a5576108a4612354565b5b602002602001015173ffffffffffffffffffffffffffffffffffffffff1673ffffffffffffffffffffffffffffffffffffffff1681526020019081526020015f206040518060800160405290815f82015f9054906101000a900460ff161515151581526020015f820160019054906101000a90046bffffffffffffffffffffffff166bffffffffffffffffffffffff166bffffffffffffffffffffffff1681526020015f8201600d9054906101000a90046bffffffffffffffffffffffff166bffffffffffffffffffffffff166bffffffffffffffffffffffff1681526020015f820160199054906101000a900466ffffffffffffff1666ffffffffffffff1666ffffffffffffff16815250509150815f015180156109dc57504283836060015166ffffffffffffff166109d991906123ae565b11155b8015610a2a575081602001516bffffffffffffffffffffffff16848281518110610a0957610a08612354565b5b602002602001015173ffffffffffffffffffffffffffffffffffffffff1631105b15610bd8575f848281518110610a4357610a42612354565b5b602002602001015173ffffffffffffffffffffffffffffffffffffffff166108fc84604001516bffffffffffffffffffffffff1690811502906040515f60405180830381858888f1935050505090508015610b78574260055f878581518110610aaf57610aae612354565b5b602002602001015173ffffffffffffffffffffffffffffffffffffffff1673ffffffffffffffffffffffffffffffffffffffff1681526020019081526020015f205f0160196101000a81548166ffffffffffffff021916908366ffffffffffffff160217905550848281518110610b2957610b28612354565b5b602002602001015173ffffffffffffffffffffffffffffffffffffffff167f9eec55c371a49ce19e0a5792787c79b32dcf7d3490aa737436b49c0978ce9ce960405160405180910390a2610bd6565b848281518110610b8b57610b8a612354565b5b602002602001015173ffffffffffffffffffffffffffffffffffffffff167fa9ff7a9b96721b0e16adb7de9db0764fbfd6a4516d4d165f9564e8c3755eb10560405160405180910390a25b505b61d6d85a1015610bea57505050610bfb565b8080600101915050610886565b5050505b50565b610c0661170f565b610c0e6117e8565b565b610c1861170f565b7f04330086c73b1fe1e13cd47a61c692e7c4399b5de08ed94b7ab824684af0932360035482604051610c4b92919061245b565b60405180910390a18060038190555050565b5f600354905090565b60025f9054906101000a900473ffffffffffffffffffffffffffffffffffffffff1673ffffffffffffffffffffffffffffffffffffffff163373ffffffffffffffffffffffffffffffffffffffff1614610cec576040517fa73d374100000000000000000000000000000000000000000000000000000000815260040160405180910390fd5b610cf461179e565b5f8282810190610d049190611ed3565b9050610d0f8161086e565b505050565b5f600160149054906101000a900460ff16905090565b5f6060610d3561179e565b5f610d3e6104e3565b90505f815111925080604051602001610d579190611d20565b6040516020818303038152906040529150509250929050565b60606004805480602002602001604051908101604052809291908181526020018280548015610df157602002820191905f5260205f20905b815f9054906101000a900473ffffffffffffffffffffffffffffffffffffffff1673ffffffffffffffffffffffffffffffffffffffff1681526020019060010190808311610da8575b5050505050905090565b60015f9054906101000a900473ffffffffffffffffffffffffffffffffffffffff1673ffffffffffffffffffffffffffffffffffffffff163373ffffffffffffffffffffffffffffffffffffffff1614610e8a576040517f08c379a0000000000000000000000000000000000000000000000000000000008152600401610e81906124dc565b60405180910390fd5b5f805f9054906101000a900473ffffffffffffffffffffffffffffffffffffffff169050335f806101000a81548173ffffffffffffffffffffffffffffffffffffffff021916908373ffffffffffffffffffffffffffffffffffffffff1602179055505f60015f6101000a81548173ffffffffffffffffffffffffffffffffffffffff021916908373ffffffffffffffffffffffffffffffffffffffff1602179055503373ffffffffffffffffffffffffffffffffffffffff168173ffffffffffffffffffffffffffffffffffffffff167f8be0079c531659141344cd1fd0a4f28419497f9722a3daafe3b4186f6b6457e060405160405180910390a350565b5f805f805f60055f8773ffffffffffffffffffffffffffffffffffffffff1673ffffffffffffffffffffffffffffffffffffffff1681526020019081526020015f206040518060800160405290815f82015f9054906101000a900460ff161515151581526020015f820160019054906101000a90046bffffffffffffffffffffffff166bffffffffffffffffffffffff166bffffffffffffffffffffffff1681526020015f8201600d9054906101000a90046bffffffffffffffffffffffff166bffffffffffffffffffffffff166bffffffffffffffffffffffff1681526020015f820160199054906101000a900466ffffffffffffff1666ffffffffffffff1666ffffffffffffff16815250509050805f01518160200151826040015183606001519450945094509450509193509193565b6110c561170f565b6110cd61184a565b565b5f805f9054906101000a900473ffffffffffffffffffffffffffffffffffffffff16905090565b6110fe61170f565b83839050868690501415806111195750818190508686905014155b15611150576040517f3869bbe600000000000000000000000000000000000000000000000000000000815260040160405180910390fd5b5f60048054806020026020016040519081016040528092919081815260200182805480156111d057602002820191905f5260205f20905b815f9054906101000a900473ffffffffffffffffffffffffffffffffffffffff1673ffffffffffffffffffffffffffffffffffffffff1681526020019060010190808311611187575b505050505090505f5b815181101561125f575f60055f8484815181106111f9576111f8612354565b5b602002602001015173ffffffffffffffffffffffffffffffffffffffff1673ffffffffffffffffffffffffffffffffffffffff1681526020019081526020015f205f015f6101000a81548160ff02191690831515021790555080806001019150506111d9565b505f5b878790508110156116035760055f89898481811061128357611282612354565b5b905060200201602081019061129891906120c3565b73ffffffffffffffffffffffffffffffffffffffff1673ffffffffffffffffffffffffffffffffffffffff1681526020019081526020015f205f015f9054906101000a900460ff1615611349578787828181106112f8576112f7612354565b5b905060200201602081019061130d91906120c3565b6040517f9f2277f30000000000000000000000000000000000000000000000000000000081526004016113409190611d40565b60405180910390fd5b5f73ffffffffffffffffffffffffffffffffffffffff1688888381811061137357611372612354565b5b905060200201602081019061138891906120c3565b73ffffffffffffffffffffffffffffffffffffffff16036113d5576040517f3869bbe600000000000000000000000000000000000000000000000000000000815260040160405180910390fd5b5f8484838181106113e9576113e8612354565b5b90506020020160208101906113fe9190612524565b6bffffffffffffffffffffffff1603611443576040517f3869bbe600000000000000000000000000000000000000000000000000000000815260040160405180910390fd5b604051806080016040528060011515815260200187878481811061146a57611469612354565b5b905060200201602081019061147f9190612524565b6bffffffffffffffffffffffff1681526020018585848181106114a5576114a4612354565b5b90506020020160208101906114ba9190612524565b6bffffffffffffffffffffffff1681526020015f66ffffffffffffff1681525060055f8a8a858181106114f0576114ef612354565b5b905060200201602081019061150591906120c3565b73ffffffffffffffffffffffffffffffffffffffff1673ffffffffffffffffffffffffffffffffffffffff1681526020019081526020015f205f820151815f015f6101000a81548160ff0219169083151502179055506020820151815f0160016101000a8154816bffffffffffffffffffffffff02191690836bffffffffffffffffffffffff1602179055506040820151815f01600d6101000a8154816bffffffffffffffffffffffff02191690836bffffffffffffffffffffffff1602179055506060820151815f0160196101000a81548166ffffffffffffff021916908366ffffffffffffff1602179055509050508080600101915050611262565b50868660049190611615929190611a71565b5050505050505050565b61162761170f565b5f73ffffffffffffffffffffffffffffffffffffffff168173ffffffffffffffffffffffffffffffffffffffff160361165e575f80fd5b7f039ad854736757070884dd787ef1a7f58db33546639d1f3efddcf4a33fb8997e60025f9054906101000a900473ffffffffffffffffffffffffffffffffffffffff16826040516116b092919061254f565b60405180910390a18060025f6101000a81548173ffffffffffffffffffffffffffffffffffffffff021916908373ffffffffffffffffffffffffffffffffffffffff16021790555050565b61170361170f565b61170c816118ac565b50565b5f8054906101000a900473ffffffffffffffffffffffffffffffffffffffff1673ffffffffffffffffffffffffffffffffffffffff163373ffffffffffffffffffffffffffffffffffffffff161461179c576040517f08c379a0000000000000000000000000000000000000000000000000000000008152600401611793906125c0565b60405180910390fd5b565b6117a6610d14565b156117e6576040517f08c379a00000000000000000000000000000000000000000000000000000000081526004016117dd90612628565b60405180910390fd5b565b6117f06119d6565b5f600160146101000a81548160ff0219169083151502179055507f5db9ee0a495bf2e6ff9c91a7834c1ba4fdd244a5e8aa4e537bd38aeae4b073aa611833611a1f565b6040516118409190611d40565b60405180910390a1565b61185261179e565b60018060146101000a81548160ff0219169083151502179055507f62e78cea01bee320cd4e420270b5ea74000d11b0c9f74754ebdbfc544b05a258611895611a1f565b6040516118a29190611d40565b60405180910390a1565b3373ffffffffffffffffffffffffffffffffffffffff168173ffffffffffffffffffffffffffffffffffffffff160361191a576040517f08c379a000000000000000000000000000000000000000000000000000000000815260040161191190612690565b60405180910390fd5b8060015f6101000a81548173ffffffffffffffffffffffffffffffffffffffff021916908373ffffffffffffffffffffffffffffffffffffffff1602179055508073ffffffffffffffffffffffffffffffffffffffff165f8054906101000a900473ffffffffffffffffffffffffffffffffffffffff1673ffffffffffffffffffffffffffffffffffffffff167fed8889f560326eb138920d842192f0eb3dd22b4f139c87a2c57538e05bae127860405160405180910390a350565b6119de610d14565b611a1d576040517f08c379a0000000000000000000000000000000000000000000000000000000008152600401611a14906126f8565b60405180910390fd5b565b5f33905090565b60405180608001604052805f151581526020015f6bffffffffffffffffffffffff1681526020015f6bffffffffffffffffffffffff1681526020015f66ffffffffffffff1681525090565b828054828255905f5260205f20908101928215611afd579160200282015b82811115611afc57823573ffffffffffffffffffffffffffffffffffffffff16825f6101000a81548173ffffffffffffffffffffffffffffffffffffffff021916908373ffffffffffffffffffffffffffffffffffffffff16021790555091602001919060010190611a8f565b5b509050611b0a9190611b0e565b5090565b5b80821115611b25575f815f905550600101611b0f565b5090565b5f819050919050565b611b3b81611b29565b82525050565b5f73ffffffffffffffffffffffffffffffffffffffff82169050919050565b5f611b6a82611b41565b9050919050565b611b7a81611b60565b82525050565b5f606082019050611b935f830186611b32565b611ba06020830185611b32565b611bad6040830184611b71565b949350505050565b5f604051905090565b5f80fd5b5f80fd5b611bcf81611b29565b8114611bd9575f80fd5b50565b5f81359050611bea81611bc6565b92915050565b5f611bfa82611b41565b9050919050565b611c0a81611bf0565b8114611c14575f80fd5b50565b5f81359050611c2581611c01565b92915050565b5f8060408385031215611c4157611c40611bbe565b5b5f611c4e85828601611bdc565b9250506020611c5f85828601611c17565b9150509250929050565b5f81519050919050565b5f82825260208201905092915050565b5f819050602082019050919050565b611c9b81611b60565b82525050565b5f611cac8383611c92565b60208301905092915050565b5f602082019050919050565b5f611cce82611c69565b611cd88185611c73565b9350611ce383611c83565b805f5b83811015611d13578151611cfa8882611ca1565b9750611d0583611cb8565b925050600181019050611ce6565b5085935050505092915050565b5f6020820190508181035f830152611d388184611cc4565b905092915050565b5f602082019050611d535f830184611b71565b92915050565b5f80fd5b5f601f19601f8301169050919050565b7f4e487b71000000000000000000000000000000000000000000000000000000005f52604160045260245ffd5b611da382611d5d565b810181811067ffffffffffffffff82111715611dc257611dc1611d6d565b5b80604052505050565b5f611dd4611bb5565b9050611de08282611d9a565b919050565b5f67ffffffffffffffff821115611dff57611dfe611d6d565b5b602082029050602081019050919050565b5f80fd5b611e1d81611b60565b8114611e27575f80fd5b50565b5f81359050611e3881611e14565b92915050565b5f611e50611e4b84611de5565b611dcb565b90508083825260208201905060208402830185811115611e7357611e72611e10565b5b835b81811015611e9c5780611e888882611e2a565b845260208401935050602081019050611e75565b5050509392505050565b5f82601f830112611eba57611eb9611d59565b5b8135611eca848260208601611e3e565b91505092915050565b5f60208284031215611ee857611ee7611bbe565b5b5f82013567ffffffffffffffff811115611f0557611f04611bc2565b5b611f1184828501611ea6565b91505092915050565b5f60208284031215611f2f57611f2e611bbe565b5b5f611f3c84828501611bdc565b91505092915050565b5f602082019050611f585f830184611b32565b92915050565b5f80fd5b5f8083601f840112611f7757611f76611d59565b5b8235905067ffffffffffffffff811115611f9457611f93611f5e565b5b602083019150836001820283011115611fb057611faf611e10565b5b9250929050565b5f8060208385031215611fcd57611fcc611bbe565b5b5f83013567ffffffffffffffff811115611fea57611fe9611bc2565b5b611ff685828601611f62565b92509250509250929050565b5f8115159050919050565b61201681612002565b82525050565b5f60208201905061202f5f83018461200d565b92915050565b5f81519050919050565b5f82825260208201905092915050565b8281835e5f83830152505050565b5f61206782612035565b612071818561203f565b935061208181856020860161204f565b61208a81611d5d565b840191505092915050565b5f6040820190506120a85f83018561200d565b81810360208301526120ba818461205d565b90509392505050565b5f602082840312156120d8576120d7611bbe565b5b5f6120e584828501611e2a565b91505092915050565b5f6bffffffffffffffffffffffff82169050919050565b61210e816120ee565b82525050565b5f66ffffffffffffff82169050919050565b61212f81612114565b82525050565b5f6080820190506121485f83018761200d565b6121556020830186612105565b6121626040830185612105565b61216f6060830184612126565b95945050505050565b5f8083601f84011261218d5761218c611d59565b5b8235905067ffffffffffffffff8111156121aa576121a9611f5e565b5b6020830191508360208202830111156121c6576121c5611e10565b5b9250929050565b5f8083601f8401126121e2576121e1611d59565b5b8235905067ffffffffffffffff8111156121ff576121fe611f5e565b5b60208301915083602082028301111561221b5761221a611e10565b5b9250929050565b5f805f805f806060878903121561223c5761223b611bbe565b5b5f87013567ffffffffffffffff81111561225957612258611bc2565b5b61226589828a01612178565b9650965050602087013567ffffffffffffffff81111561228857612287611bc2565b5b61229489828a016121cd565b9450945050604087013567ffffffffffffffff8111156122b7576122b6611bc2565b5b6122c389828a016121cd565b92509250509295509295509295565b5f819050919050565b5f6122f56122f06122eb84611b41565b6122d2565b611b41565b9050919050565b5f612306826122db565b9050919050565b5f612317826122fc565b9050919050565b6123278161230d565b82525050565b5f6040820190506123405f830185611b32565b61234d602083018461231e565b9392505050565b7f4e487b71000000000000000000000000000000000000000000000000000000005f52603260045260245ffd5b7f4e487b71000000000000000000000000000000000000000000000000000000005f52601160045260245ffd5b5f6123b882611b29565b91506123c383611b29565b92508282019050808211156123db576123da612381565b5b92915050565b5f6123eb82611b29565b91507fffffffffffffffffffffffffffffffffffffffffffffffffffffffffffffffff820361241d5761241c612381565b5b600182019050919050565b5f61243282611b29565b915061243d83611b29565b925082820390508181111561245557612454612381565b5b92915050565b5f60408201905061246e5f830185611b32565b61247b6020830184611b32565b9392505050565b5f82825260208201905092915050565b7f4d7573742062652070726f706f736564206f776e6572000000000000000000005f82015250565b5f6124c6601683612482565b91506124d182612492565b602082019050919050565b5f6020820190508181035f8301526124f3816124ba565b9050919050565b612503816120ee565b811461250d575f80fd5b50565b5f8135905061251e816124fa565b92915050565b5f6020828403121561253957612538611bbe565b5b5f61254684828501612510565b91505092915050565b5f6040820190506125625f830185611b71565b61256f6020830184611b71565b9392505050565b7f4f6e6c792063616c6c61626c65206279206f776e6572000000000000000000005f82015250565b5f6125aa601683612482565b91506125b582612576565b602082019050919050565b5f6020820190508181035f8301526125d78161259e565b9050919050565b7f5061757361626c653a20706175736564000000000000000000000000000000005f82015250565b5f612612601083612482565b915061261d826125de565b602082019050919050565b5f6020820190508181035f83015261263f81612606565b9050919050565b7f43616e6e6f74207472616e7366657220746f2073656c660000000000000000005f82015250565b5f61267a601783612482565b915061268582612646565b602082019050919050565b5f6020820190508181035f8301526126a78161266e565b9050919050565b7f5061757361626c653a206e6f74207061757365640000000000000000000000005f82015250565b5f6126e2601483612482565b91506126ed826126ae565b602082019050919050565b5f6020820190508181035f83015261270f816126d6565b905091905056fea2646970667358221220f9608d49dd850cc58519048a4d0479e22d47c68388a7e526e39883cdf209c7eb64736f6c63430008190033",
					"opcodes": "PUSH1 0x80 PUSH1 0x40 MSTORE CALLVALUE DUP1 ISZERO PUSH2 0xF JUMPI PUSH0 DUP1 REVERT JUMPDEST POP PUSH1 0x40 MLOAD PUSH2 0x2C9B CODESIZE SUB DUP1 PUSH2 0x2C9B DUP4 CODECOPY DUP2 DUP2 ADD PUSH1 0x40 MSTORE DUP2 ADD SWAP1 PUSH2 0x31 SWAP2 SWAP1 PUSH2 0x399 JUMP JUMPDEST CALLER DUP1 PUSH0 DUP1 PUSH20 0xFFFFFFFFFFFFFFFFFFFFFFFFFFFFFFFFFFFFFFFF AND DUP3 PUSH20 0xFFFFFFFFFFFFFFFFFFFFFFFFFFFFFFFFFFFFFFFF AND SUB PUSH2 0xA2 JUMPI PUSH1 0x40 MLOAD PUSH32 0x8C379A000000000000000000000000000000000000000000000000000000000 DUP2 MSTORE PUSH1 0x4 ADD PUSH2 0x99 SWAP1 PUSH2 0x41E JUMP JUMPDEST PUSH1 0x40 MLOAD DUP1 SWAP2 SUB SWAP1 REVERT JUMPDEST DUP2 PUSH0 DUP1 PUSH2 0x100 EXP DUP2 SLOAD DUP2 PUSH20 0xFFFFFFFFFFFFFFFFFFFFFFFFFFFFFFFFFFFFFFFF MUL NOT AND SWAP1 DUP4 PUSH20 0xFFFFFFFFFFFFFFFFFFFFFFFFFFFFFFFFFFFFFFFF AND MUL OR SWAP1 SSTORE POP PUSH0 PUSH20 0xFFFFFFFFFFFFFFFFFFFFFFFFFFFFFFFFFFFFFFFF AND DUP2 PUSH20 0xFFFFFFFFFFFFFFFFFFFFFFFFFFFFFFFFFFFFFFFF AND EQ PUSH2 0x124 JUMPI PUSH2 0x123 DUP2 PUSH2 0x156 PUSH1 0x20 SHL PUSH1 0x20 SHR JUMP JUMPDEST JUMPDEST POP POP POP PUSH0 PUSH1 0x1 PUSH1 0x14 PUSH2 0x100 EXP DUP2 SLOAD DUP2 PUSH1 0xFF MUL NOT AND SWAP1 DUP4 ISZERO ISZERO MUL OR SWAP1 SSTORE POP PUSH2 0x150 DUP2 PUSH2 0x280 PUSH1 0x20 SHL PUSH1 0x20 SHR JUMP JUMPDEST POP PUSH2 0x542 JUMP JUMPDEST CALLER PUSH20 0xFFFFFFFFFFFFFFFFFFFFFFFFFFFFFFFFFFFFFFFF AND DUP2 PUSH20 0xFFFFFFFFFFFFFFFFFFFFFFFFFFFFFFFFFFFFFFFF AND SUB PUSH2 0x1C4 JUMPI PUSH1 0x40 MLOAD PUSH32 0x8C379A000000000000000000000000000000000000000000000000000000000 DUP2 MSTORE PUSH1 0x4 ADD PUSH2 0x1BB SWAP1 PUSH2 0x486 JUMP JUMPDEST PUSH1 0x40 MLOAD DUP1 SWAP2 SUB SWAP1 REVERT JUMPDEST DUP1 PUSH1 0x1 PUSH0 PUSH2 0x100 EXP DUP2 SLOAD DUP2 PUSH20 0xFFFFFFFFFFFFFFFFFFFFFFFFFFFFFFFFFFFFFFFF MUL NOT AND SWAP1 DUP4 PUSH20 0xFFFFFFFFFFFFFFFFFFFFFFFFFFFFFFFFFFFFFFFF AND MUL OR SWAP1 SSTORE POP DUP1 PUSH20 0xFFFFFFFFFFFFFFFFFFFFFFFFFFFFFFFFFFFFFFFF AND PUSH0 DUP1 SLOAD SWAP1 PUSH2 0x100 EXP SWAP1 DIV PUSH20 0xFFFFFFFFFFFFFFFFFFFFFFFFFFFFFFFFFFFFFFFF AND PUSH20 0xFFFFFFFFFFFFFFFFFFFFFFFFFFFFFFFFFFFFFFFF AND PUSH32 0xED8889F560326EB138920D842192F0EB3DD22B4F139C87A2C57538E05BAE1278 PUSH1 0x40 MLOAD PUSH1 0x40 MLOAD DUP1 SWAP2 SUB SWAP1 LOG3 POP JUMP JUMPDEST PUSH2 0x28E PUSH2 0x2D3 PUSH1 0x20 SHL PUSH1 0x20 SHR JUMP JUMPDEST PUSH32 0x4330086C73B1FE1E13CD47A61C692E7C4399B5DE08ED94B7AB824684AF09323 PUSH1 0x3 SLOAD DUP3 PUSH1 0x40 MLOAD PUSH2 0x2C1 SWAP3 SWAP2 SWAP1 PUSH2 0x4B3 JUMP JUMPDEST PUSH1 0x40 MLOAD DUP1 SWAP2 SUB SWAP1 LOG1 DUP1 PUSH1 0x3 DUP2 SWAP1 SSTORE POP POP JUMP JUMPDEST PUSH0 DUP1 SLOAD SWAP1 PUSH2 0x100 EXP SWAP1 DIV PUSH20 0xFFFFFFFFFFFFFFFFFFFFFFFFFFFFFFFFFFFFFFFF AND PUSH20 0xFFFFFFFFFFFFFFFFFFFFFFFFFFFFFFFFFFFFFFFF AND CALLER PUSH20 0xFFFFFFFFFFFFFFFFFFFFFFFFFFFFFFFFFFFFFFFF AND EQ PUSH2 0x360 JUMPI PUSH1 0x40 MLOAD PUSH32 0x8C379A000000000000000000000000000000000000000000000000000000000 DUP2 MSTORE PUSH1 0x4 ADD PUSH2 0x357 SWAP1 PUSH2 0x524 JUMP JUMPDEST PUSH1 0x40 MLOAD DUP1 SWAP2 SUB SWAP1 REVERT JUMPDEST JUMP JUMPDEST PUSH0 DUP1 REVERT JUMPDEST PUSH0 DUP2 SWAP1 POP SWAP2 SWAP1 POP JUMP JUMPDEST PUSH2 0x378 DUP2 PUSH2 0x366 JUMP JUMPDEST DUP2 EQ PUSH2 0x382 JUMPI PUSH0 DUP1 REVERT JUMPDEST POP JUMP JUMPDEST PUSH0 DUP2 MLOAD SWAP1 POP PUSH2 0x393 DUP2 PUSH2 0x36F JUMP JUMPDEST SWAP3 SWAP2 POP POP JUMP JUMPDEST PUSH0 PUSH1 0x20 DUP3 DUP5 SUB SLT ISZERO PUSH2 0x3AE JUMPI PUSH2 0x3AD PUSH2 0x362 JUMP JUMPDEST JUMPDEST PUSH0 PUSH2 0x3BB DUP5 DUP3 DUP6 ADD PUSH2 0x385 JUMP JUMPDEST SWAP2 POP POP SWAP3 SWAP2 POP POP JUMP JUMPDEST PUSH0 DUP3 DUP3 MSTORE PUSH1 0x20 DUP3 ADD SWAP1 POP SWAP3 SWAP2 POP POP JUMP JUMPDEST PUSH32 0x43616E6E6F7420736574206F776E657220746F207A65726F0000000000000000 PUSH0 DUP3 ADD MSTORE POP JUMP JUMPDEST PUSH0 PUSH2 0x408 PUSH1 0x18 DUP4 PUSH2 0x3C4 JUMP JUMPDEST SWAP2 POP PUSH2 0x413 DUP3 PUSH2 0x3D4 JUMP JUMPDEST PUSH1 0x20 DUP3 ADD SWAP1 POP SWAP2 SWAP1 POP JUMP JUMPDEST PUSH0 PUSH1 0x20 DUP3 ADD SWAP1 POP DUP2 DUP2 SUB PUSH0 DUP4 ADD MSTORE PUSH2 0x435 DUP2 PUSH2 0x3FC JUMP JUMPDEST SWAP1 POP SWAP2 SWAP1 POP JUMP JUMPDEST PUSH32 0x43616E6E6F74207472616E7366657220746F2073656C66000000000000000000 PUSH0 DUP3 ADD MSTORE POP JUMP JUMPDEST PUSH0 PUSH2 0x470 PUSH1 0x17 DUP4 PUSH2 0x3C4 JUMP JUMPDEST SWAP2 POP PUSH2 0x47B DUP3 PUSH2 0x43C JUMP JUMPDEST PUSH1 0x20 DUP3 ADD SWAP1 POP SWAP2 SWAP1 POP JUMP JUMPDEST PUSH0 PUSH1 0x20 DUP3 ADD SWAP1 POP DUP2 DUP2 SUB PUSH0 DUP4 ADD MSTORE PUSH2 0x49D DUP2 PUSH2 0x464 JUMP JUMPDEST SWAP1 POP SWAP2 SWAP1 POP JUMP JUMPDEST PUSH2 0x4AD DUP2 PUSH2 0x366 JUMP JUMPDEST DUP3 MSTORE POP POP JUMP JUMPDEST PUSH0 PUSH1 0x40 DUP3 ADD SWAP1 POP PUSH2 0x4C6 PUSH0 DUP4 ADD DUP6 PUSH2 0x4A4 JUMP JUMPDEST PUSH2 0x4D3 PUSH1 0x20 DUP4 ADD DUP5 PUSH2 0x4A4 JUMP JUMPDEST SWAP4 SWAP3 POP POP POP JUMP JUMPDEST PUSH32 0x4F6E6C792063616C6C61626C65206279206F776E657200000000000000000000 PUSH0 DUP3 ADD MSTORE POP JUMP JUMPDEST PUSH0 PUSH2 0x50E PUSH1 0x16 DUP4 PUSH2 0x3C4 JUMP JUMPDEST SWAP2 POP PUSH2 0x519 DUP3 PUSH2 0x4DA JUMP JUMPDEST PUSH1 0x20 DUP3 ADD SWAP1 POP SWAP2 SWAP1 POP JUMP JUMPDEST PUSH0 PUSH1 0x20 DUP3 ADD SWAP1 POP DUP2 DUP2 SUB PUSH0 DUP4 ADD MSTORE PUSH2 0x53B DUP2 PUSH2 0x502 JUMP JUMPDEST SWAP1 POP SWAP2 SWAP1 POP JUMP JUMPDEST PUSH2 0x274C DUP1 PUSH2 0x54F PUSH0 CODECOPY PUSH0 RETURN INVALID PUSH1 0x80 PUSH1 0x40 MSTORE PUSH1 0x4 CALLDATASIZE LT PUSH2 0x10B JUMPI PUSH0 CALLDATALOAD PUSH1 0xE0 SHR DUP1 PUSH4 0x6E04FF0D GT PUSH2 0x94 JUMPI DUP1 PUSH4 0x8456CB59 GT PUSH2 0x63 JUMPI DUP1 PUSH4 0x8456CB59 EQ PUSH2 0x36B JUMPI DUP1 PUSH4 0x8DA5CB5B EQ PUSH2 0x381 JUMPI DUP1 PUSH4 0xB1D52FA0 EQ PUSH2 0x3AB JUMPI DUP1 PUSH4 0xD777CC6D EQ PUSH2 0x3D3 JUMPI DUP1 PUSH4 0xF2FDE38B EQ PUSH2 0x3FB JUMPI PUSH2 0x14D JUMP JUMPDEST DUP1 PUSH4 0x6E04FF0D EQ PUSH2 0x2AF JUMPI DUP1 PUSH4 0x728584B7 EQ PUSH2 0x2EC JUMPI DUP1 PUSH4 0x79BA5097 EQ PUSH2 0x316 JUMPI DUP1 PUSH4 0x7B510FE8 EQ PUSH2 0x32C JUMPI PUSH2 0x14D JUMP JUMPDEST DUP1 PUSH4 0x3F4BA83A GT PUSH2 0xDB JUMPI DUP1 PUSH4 0x3F4BA83A EQ PUSH2 0x1F5 JUMPI DUP1 PUSH4 0x3F85861F EQ PUSH2 0x20B JUMPI DUP1 PUSH4 0x41D2052E EQ PUSH2 0x233 JUMPI DUP1 PUSH4 0x4585E33B EQ PUSH2 0x25D JUMPI DUP1 PUSH4 0x5C975ABB EQ PUSH2 0x285 JUMPI PUSH2 0x14D JUMP JUMPDEST DUP1 PUSH3 0xF714CE EQ PUSH2 0x151 JUMPI DUP1 PUSH4 0xB67DDCE EQ PUSH2 0x179 JUMPI DUP1 PUSH4 0x3441856F EQ PUSH2 0x1A3 JUMPI DUP1 PUSH4 0x3E4CA677 EQ PUSH2 0x1CD JUMPI PUSH2 0x14D JUMP JUMPDEST CALLDATASIZE PUSH2 0x14D JUMPI PUSH32 0xC6F3FB0FEC49E4877342D4625D77A632541F55B7AAE0F9D0B34C69B3478706DC CALLVALUE SELFBALANCE CALLER PUSH1 0x40 MLOAD PUSH2 0x143 SWAP4 SWAP3 SWAP2 SWAP1 PUSH2 0x1B80 JUMP JUMPDEST PUSH1 0x40 MLOAD DUP1 SWAP2 SUB SWAP1 LOG1 STOP JUMPDEST PUSH0 DUP1 REVERT JUMPDEST CALLVALUE DUP1 ISZERO PUSH2 0x15C JUMPI PUSH0 DUP1 REVERT JUMPDEST POP PUSH2 0x177 PUSH1 0x4 DUP1 CALLDATASIZE SUB DUP2 ADD SWAP1 PUSH2 0x172 SWAP2 SWAP1 PUSH2 0x1C2B JUMP JUMPDEST PUSH2 0x423 JUMP JUMPDEST STOP JUMPDEST CALLVALUE DUP1 ISZERO PUSH2 0x184 JUMPI PUSH0 DUP1 REVERT JUMPDEST POP PUSH2 0x18D PUSH2 0x4E3 JUMP JUMPDEST PUSH1 0x40 MLOAD PUSH2 0x19A SWAP2 SWAP1 PUSH2 0x1D20 JUMP JUMPDEST PUSH1 0x40 MLOAD DUP1 SWAP2 SUB SWAP1 RETURN JUMPDEST CALLVALUE DUP1 ISZERO PUSH2 0x1AE JUMPI PUSH0 DUP1 REVERT JUMPDEST POP PUSH2 0x1B7 PUSH2 0x846 JUMP JUMPDEST PUSH1 0x40 MLOAD PUSH2 0x1C4 SWAP2 SWAP1 PUSH2 0x1D40 JUMP JUMPDEST PUSH1 0x40 MLOAD DUP1 SWAP2 SUB SWAP1 RETURN JUMPDEST CALLVALUE DUP1 ISZERO PUSH2 0x1D8 JUMPI PUSH0 DUP1 REVERT JUMPDEST POP PUSH2 0x1F3 PUSH1 0x4 DUP1 CALLDATASIZE SUB DUP2 ADD SWAP1 PUSH2 0x1EE SWAP2 SWAP1 PUSH2 0x1ED3 JUMP JUMPDEST PUSH2 0x86E JUMP JUMPDEST STOP JUMPDEST CALLVALUE DUP1 ISZERO PUSH2 0x200 JUMPI PUSH0 DUP1 REVERT JUMPDEST POP PUSH2 0x209 PUSH2 0xBFE JUMP JUMPDEST STOP JUMPDEST CALLVALUE DUP1 ISZERO PUSH2 0x216 JUMPI PUSH0 DUP1 REVERT JUMPDEST POP PUSH2 0x231 PUSH1 0x4 DUP1 CALLDATASIZE SUB DUP2 ADD SWAP1 PUSH2 0x22C SWAP2 SWAP1 PUSH2 0x1F1A JUMP JUMPDEST PUSH2 0xC10 JUMP JUMPDEST STOP JUMPDEST CALLVALUE DUP1 ISZERO PUSH2 0x23E JUMPI PUSH0 DUP1 REVERT JUMPDEST POP PUSH2 0x247 PUSH2 0xC5D JUMP JUMPDEST PUSH1 0x40 MLOAD PUSH2 0x254 SWAP2 SWAP1 PUSH2 0x1F45 JUMP JUMPDEST PUSH1 0x40 MLOAD DUP1 SWAP2 SUB SWAP1 RETURN JUMPDEST CALLVALUE DUP1 ISZERO PUSH2 0x268 JUMPI PUSH0 DUP1 REVERT JUMPDEST POP PUSH2 0x283 PUSH1 0x4 DUP1 CALLDATASIZE SUB DUP2 ADD SWAP1 PUSH2 0x27E SWAP2 SWAP1 PUSH2 0x1FB7 JUMP JUMPDEST PUSH2 0xC66 JUMP JUMPDEST STOP JUMPDEST CALLVALUE DUP1 ISZERO PUSH2 0x290 JUMPI PUSH0 DUP1 REVERT JUMPDEST POP PUSH2 0x299 PUSH2 0xD14 JUMP JUMPDEST PUSH1 0x40 MLOAD PUSH2 0x2A6 SWAP2 SWAP1 PUSH2 0x201C JUMP JUMPDEST PUSH1 0x40 MLOAD DUP1 SWAP2 SUB SWAP1 RETURN JUMPDEST CALLVALUE DUP1 ISZERO PUSH2 0x2BA JUMPI PUSH0 DUP1 REVERT JUMPDEST POP PUSH2 0x2D5 PUSH1 0x4 DUP1 CALLDATASIZE SUB DUP2 ADD SWAP1 PUSH2 0x2D0 SWAP2 SWAP1 PUSH2 0x1FB7 JUMP JUMPDEST PUSH2 0xD2A JUMP JUMPDEST PUSH1 0x40 MLOAD PUSH2 0x2E3 SWAP3 SWAP2 SWAP1 PUSH2 0x2095 JUMP JUMPDEST PUSH1 0x40 MLOAD DUP1 SWAP2 SUB SWAP1 RETURN JUMPDEST CALLVALUE DUP1 ISZERO PUSH2 0x2F7 JUMPI PUSH0 DUP1 REVERT JUMPDEST POP PUSH2 0x300 PUSH2 0xD70 JUMP JUMPDEST PUSH1 0x40 MLOAD PUSH2 0x30D SWAP2 SWAP1 PUSH2 0x1D20 JUMP JUMPDEST PUSH1 0x40 MLOAD DUP1 SWAP2 SUB SWAP1 RETURN JUMPDEST CALLVALUE DUP1 ISZERO PUSH2 0x321 JUMPI PUSH0 DUP1 REVERT JUMPDEST POP PUSH2 0x32A PUSH2 0xDFB JUMP JUMPDEST STOP JUMPDEST CALLVALUE DUP1 ISZERO PUSH2 0x337 JUMPI PUSH0 DUP1 REVERT JUMPDEST POP PUSH2 0x352 PUSH1 0x4 DUP1 CALLDATASIZE SUB DUP2 ADD SWAP1 PUSH2 0x34D SWAP2 SWAP1 PUSH2 0x20C3 JUMP JUMPDEST PUSH2 0xF8A JUMP JUMPDEST PUSH1 0x40 MLOAD PUSH2 0x362 SWAP5 SWAP4 SWAP3 SWAP2 SWAP1 PUSH2 0x2135 JUMP JUMPDEST PUSH1 0x40 MLOAD DUP1 SWAP2 SUB SWAP1 RETURN JUMPDEST CALLVALUE DUP1 ISZERO PUSH2 0x376 JUMPI PUSH0 DUP1 REVERT JUMPDEST POP PUSH2 0x37F PUSH2 0x10BD JUMP JUMPDEST STOP JUMPDEST CALLVALUE DUP1 ISZERO PUSH2 0x38C JUMPI PUSH0 DUP1 REVERT JUMPDEST POP PUSH2 0x395 PUSH2 0x10CF JUMP JUMPDEST PUSH1 0x40 MLOAD PUSH2 0x3A2 SWAP2 SWAP1 PUSH2 0x1D40 JUMP JUMPDEST PUSH1 0x40 MLOAD DUP1 SWAP2 SUB SWAP1 RETURN JUMPDEST CALLVALUE DUP1 ISZERO PUSH2 0x3B6 JUMPI PUSH0 DUP1 REVERT JUMPDEST POP PUSH2 0x3D1 PUSH1 0x4 DUP1 CALLDATASIZE SUB DUP2 ADD SWAP1 PUSH2 0x3CC SWAP2 SWAP1 PUSH2 0x2222 JUMP JUMPDEST PUSH2 0x10F6 JUMP JUMPDEST STOP JUMPDEST CALLVALUE DUP1 ISZERO PUSH2 0x3DE JUMPI PUSH0 DUP1 REVERT JUMPDEST POP PUSH2 0x3F9 PUSH1 0x4 DUP1 CALLDATASIZE SUB DUP2 ADD SWAP1 PUSH2 0x3F4 SWAP2 SWAP1 PUSH2 0x20C3 JUMP JUMPDEST PUSH2 0x161F JUMP JUMPDEST STOP JUMPDEST CALLVALUE DUP1 ISZERO PUSH2 0x406 JUMPI PUSH0 DUP1 REVERT JUMPDEST POP PUSH2 0x421 PUSH1 0x4 DUP1 CALLDATASIZE SUB DUP2 ADD SWAP1 PUSH2 0x41C SWAP2 SWAP1 PUSH2 0x20C3 JUMP JUMPDEST PUSH2 0x16FB JUMP JUMPDEST STOP JUMPDEST PUSH2 0x42B PUSH2 0x170F JUMP JUMPDEST PUSH0 PUSH20 0xFFFFFFFFFFFFFFFFFFFFFFFFFFFFFFFFFFFFFFFF AND DUP2 PUSH20 0xFFFFFFFFFFFFFFFFFFFFFFFFFFFFFFFFFFFFFFFF AND SUB PUSH2 0x462 JUMPI PUSH0 DUP1 REVERT JUMPDEST PUSH32 0x6141B54B56B8A52A8C6F5CD2A857F6117B18FFBF4D46BD3106F300A839CBF5EA DUP3 DUP3 PUSH1 0x40 MLOAD PUSH2 0x493 SWAP3 SWAP2 SWAP1 PUSH2 0x232D JUMP JUMPDEST PUSH1 0x40 MLOAD DUP1 SWAP2 SUB SWAP1 LOG1 DUP1 PUSH20 0xFFFFFFFFFFFFFFFFFFFFFFFFFFFFFFFFFFFFFFFF AND PUSH2 0x8FC DUP4 SWAP1 DUP2 ISZERO MUL SWAP1 PUSH1 0x40 MLOAD PUSH0 PUSH1 0x40 MLOAD DUP1 DUP4 SUB DUP2 DUP6 DUP9 DUP9 CALL SWAP4 POP POP POP POP ISZERO DUP1 ISZERO PUSH2 0x4DE JUMPI RETURNDATASIZE PUSH0 DUP1 RETURNDATACOPY RETURNDATASIZE PUSH0 REVERT JUMPDEST POP POP POP JUMP JUMPDEST PUSH1 0x60 PUSH0 PUSH1 0x4 DUP1 SLOAD DUP1 PUSH1 0x20 MUL PUSH1 0x20 ADD PUSH1 0x40 MLOAD SWAP1 DUP2 ADD PUSH1 0x40 MSTORE DUP1 SWAP3 SWAP2 SWAP1 DUP2 DUP2 MSTORE PUSH1 0x20 ADD DUP3 DUP1 SLOAD DUP1 ISZERO PUSH2 0x565 JUMPI PUSH1 0x20 MUL DUP3 ADD SWAP2 SWAP1 PUSH0 MSTORE PUSH1 0x20 PUSH0 KECCAK256 SWAP1 JUMPDEST DUP2 PUSH0 SWAP1 SLOAD SWAP1 PUSH2 0x100 EXP SWAP1 DIV PUSH20 0xFFFFFFFFFFFFFFFFFFFFFFFFFFFFFFFFFFFFFFFF AND PUSH20 0xFFFFFFFFFFFFFFFFFFFFFFFFFFFFFFFFFFFFFFFF AND DUP2 MSTORE PUSH1 0x20 ADD SWAP1 PUSH1 0x1 ADD SWAP1 DUP1 DUP4 GT PUSH2 0x51C JUMPI JUMPDEST POP POP POP POP POP SWAP1 POP PUSH0 DUP2 MLOAD PUSH8 0xFFFFFFFFFFFFFFFF DUP2 GT ISZERO PUSH2 0x588 JUMPI PUSH2 0x587 PUSH2 0x1D6D JUMP JUMPDEST JUMPDEST PUSH1 0x40 MLOAD SWAP1 DUP1 DUP3 MSTORE DUP1 PUSH1 0x20 MUL PUSH1 0x20 ADD DUP3 ADD PUSH1 0x40 MSTORE DUP1 ISZERO PUSH2 0x5B6 JUMPI DUP2 PUSH1 0x20 ADD PUSH1 0x20 DUP3 MUL DUP1 CALLDATASIZE DUP4 CALLDATACOPY DUP1 DUP3 ADD SWAP2 POP POP SWAP1 POP JUMPDEST POP SWAP1 POP PUSH0 DUP1 PUSH1 0x3 SLOAD SWAP1 POP PUSH0 SELFBALANCE SWAP1 POP PUSH2 0x5CC PUSH2 0x1A26 JUMP JUMPDEST PUSH0 JUMPDEST DUP7 MLOAD DUP2 LT ISZERO PUSH2 0x82D JUMPI PUSH1 0x5 PUSH0 DUP9 DUP4 DUP2 MLOAD DUP2 LT PUSH2 0x5ED JUMPI PUSH2 0x5EC PUSH2 0x2354 JUMP JUMPDEST JUMPDEST PUSH1 0x20 MUL PUSH1 0x20 ADD ADD MLOAD PUSH20 0xFFFFFFFFFFFFFFFFFFFFFFFFFFFFFFFFFFFFFFFF AND PUSH20 0xFFFFFFFFFFFFFFFFFFFFFFFFFFFFFFFFFFFFFFFF AND DUP2 MSTORE PUSH1 0x20 ADD SWAP1 DUP2 MSTORE PUSH1 0x20 ADD PUSH0 KECCAK256 PUSH1 0x40 MLOAD DUP1 PUSH1 0x80 ADD PUSH1 0x40 MSTORE SWAP1 DUP2 PUSH0 DUP3 ADD PUSH0 SWAP1 SLOAD SWAP1 PUSH2 0x100 EXP SWAP1 DIV PUSH1 0xFF AND ISZERO ISZERO ISZERO ISZERO DUP2 MSTORE PUSH1 0x20 ADD PUSH0 DUP3 ADD PUSH1 0x1 SWAP1 SLOAD SWAP1 PUSH2 0x100 EXP SWAP1 DIV PUSH12 0xFFFFFFFFFFFFFFFFFFFFFFFF AND PUSH12 0xFFFFFFFFFFFFFFFFFFFFFFFF AND PUSH12 0xFFFFFFFFFFFFFFFFFFFFFFFF AND DUP2 MSTORE PUSH1 0x20 ADD PUSH0 DUP3 ADD PUSH1 0xD SWAP1 SLOAD SWAP1 PUSH2 0x100 EXP SWAP1 DIV PUSH12 0xFFFFFFFFFFFFFFFFFFFFFFFF AND PUSH12 0xFFFFFFFFFFFFFFFFFFFFFFFF AND PUSH12 0xFFFFFFFFFFFFFFFFFFFFFFFF AND DUP2 MSTORE PUSH1 0x20 ADD PUSH0 DUP3 ADD PUSH1 0x19 SWAP1 SLOAD SWAP1 PUSH2 0x100 EXP SWAP1 DIV PUSH7 0xFFFFFFFFFFFFFF AND PUSH7 0xFFFFFFFFFFFFFF AND PUSH7 0xFFFFFFFFFFFFFF AND DUP2 MSTORE POP POP SWAP2 POP TIMESTAMP DUP5 DUP4 PUSH1 0x60 ADD MLOAD PUSH7 0xFFFFFFFFFFFFFF AND PUSH2 0x716 SWAP2 SWAP1 PUSH2 0x23AE JUMP JUMPDEST GT ISZERO DUP1 ISZERO PUSH2 0x736 JUMPI POP DUP2 PUSH1 0x40 ADD MLOAD PUSH12 0xFFFFFFFFFFFFFFFFFFFFFFFF AND DUP4 LT ISZERO JUMPDEST DUP1 ISZERO PUSH2 0x784 JUMPI POP DUP2 PUSH1 0x20 ADD MLOAD PUSH12 0xFFFFFFFFFFFFFFFFFFFFFFFF AND DUP8 DUP3 DUP2 MLOAD DUP2 LT PUSH2 0x763 JUMPI PUSH2 0x762 PUSH2 0x2354 JUMP JUMPDEST JUMPDEST PUSH1 0x20 MUL PUSH1 0x20 ADD ADD MLOAD PUSH20 0xFFFFFFFFFFFFFFFFFFFFFFFFFFFFFFFFFFFFFFFF AND BALANCE LT JUMPDEST ISZERO PUSH2 0x820 JUMPI DUP7 DUP2 DUP2 MLOAD DUP2 LT PUSH2 0x79C JUMPI PUSH2 0x79B PUSH2 0x2354 JUMP JUMPDEST JUMPDEST PUSH1 0x20 MUL PUSH1 0x20 ADD ADD MLOAD DUP7 DUP7 DUP2 MLOAD DUP2 LT PUSH2 0x7B7 JUMPI PUSH2 0x7B6 PUSH2 0x2354 JUMP JUMPDEST JUMPDEST PUSH1 0x20 MUL PUSH1 0x20 ADD ADD SWAP1 PUSH20 0xFFFFFFFFFFFFFFFFFFFFFFFFFFFFFFFFFFFFFFFF AND SWAP1 DUP2 PUSH20 0xFFFFFFFFFFFFFFFFFFFFFFFFFFFFFFFFFFFFFFFF AND DUP2 MSTORE POP POP DUP5 DUP1 PUSH2 0x7FC SWAP1 PUSH2 0x23E1 JUMP JUMPDEST SWAP6 POP POP DUP2 PUSH1 0x40 ADD MLOAD PUSH12 0xFFFFFFFFFFFFFFFFFFFFFFFF AND DUP4 PUSH2 0x81D SWAP2 SWAP1 PUSH2 0x2428 JUMP JUMPDEST SWAP3 POP JUMPDEST DUP1 DUP1 PUSH1 0x1 ADD SWAP2 POP POP PUSH2 0x5CE JUMP JUMPDEST POP DUP6 MLOAD DUP5 EQ PUSH2 0x83A JUMPI DUP4 DUP6 MSTORE JUMPDEST DUP5 SWAP7 POP POP POP POP POP POP POP SWAP1 JUMP JUMPDEST PUSH0 PUSH1 0x2 PUSH0 SWAP1 SLOAD SWAP1 PUSH2 0x100 EXP SWAP1 DIV PUSH20 0xFFFFFFFFFFFFFFFFFFFFFFFFFFFFFFFFFFFFFFFF AND SWAP1 POP SWAP1 JUMP JUMPDEST PUSH2 0x876 PUSH2 0x179E JUMP JUMPDEST PUSH0 PUSH1 0x3 SLOAD SWAP1 POP PUSH2 0x884 PUSH2 0x1A26 JUMP JUMPDEST PUSH0 JUMPDEST DUP4 MLOAD DUP2 LT ISZERO PUSH2 0xBF7 JUMPI PUSH1 0x5 PUSH0 DUP6 DUP4 DUP2 MLOAD DUP2 LT PUSH2 0x8A5 JUMPI PUSH2 0x8A4 PUSH2 0x2354 JUMP JUMPDEST JUMPDEST PUSH1 0x20 MUL PUSH1 0x20 ADD ADD MLOAD PUSH20 0xFFFFFFFFFFFFFFFFFFFFFFFFFFFFFFFFFFFFFFFF AND PUSH20 0xFFFFFFFFFFFFFFFFFFFFFFFFFFFFFFFFFFFFFFFF AND DUP2 MSTORE PUSH1 0x20 ADD SWAP1 DUP2 MSTORE PUSH1 0x20 ADD PUSH0 KECCAK256 PUSH1 0x40 MLOAD DUP1 PUSH1 0x80 ADD PUSH1 0x40 MSTORE SWAP1 DUP2 PUSH0 DUP3 ADD PUSH0 SWAP1 SLOAD SWAP1 PUSH2 0x100 EXP SWAP1 DIV PUSH1 0xFF AND ISZERO ISZERO ISZERO ISZERO DUP2 MSTORE PUSH1 0x20 ADD PUSH0 DUP3 ADD PUSH1 0x1 SWAP1 SLOAD SWAP1 PUSH2 0x100 EXP SWAP1 DIV PUSH12 0xFFFFFFFFFFFFFFFFFFFFFFFF AND PUSH12 0xFFFFFFFFFFFFFFFFFFFFFFFF AND PUSH12 0xFFFFFFFFFFFFFFFFFFFFFFFF AND DUP2 MSTORE PUSH1 0x20 ADD PUSH0 DUP3 ADD PUSH1 0xD SWAP1 SLOAD SWAP1 PUSH2 0x100 EXP SWAP1 DIV PUSH12 0xFFFFFFFFFFFFFFFFFFFFFFFF AND PUSH12 0xFFFFFFFFFFFFFFFFFFFFFFFF AND PUSH12 0xFFFFFFFFFFFFFFFFFFFFFFFF AND DUP2 MSTORE PUSH1 0x20 ADD PUSH0 DUP3 ADD PUSH1 0x19 SWAP1 SLOAD SWAP1 PUSH2 0x100 EXP SWAP1 DIV PUSH7 0xFFFFFFFFFFFFFF AND PUSH7 0xFFFFFFFFFFFFFF AND PUSH7 0xFFFFFFFFFFFFFF AND DUP2 MSTORE POP POP SWAP2 POP DUP2 PUSH0 ADD MLOAD DUP1 ISZERO PUSH2 0x9DC JUMPI POP TIMESTAMP DUP4 DUP4 PUSH1 0x60 ADD MLOAD PUSH7 0xFFFFFFFFFFFFFF AND PUSH2 0x9D9 SWAP2 SWAP1 PUSH2 0x23AE JUMP JUMPDEST GT ISZERO JUMPDEST DUP1 ISZERO PUSH2 0xA2A JUMPI POP DUP2 PUSH1 0x20 ADD MLOAD PUSH12 0xFFFFFFFFFFFFFFFFFFFFFFFF AND DUP5 DUP3 DUP2 MLOAD DUP2 LT PUSH2 0xA09 JUMPI PUSH2 0xA08 PUSH2 0x2354 JUMP JUMPDEST JUMPDEST PUSH1 0x20 MUL PUSH1 0x20 ADD ADD MLOAD PUSH20 0xFFFFFFFFFFFFFFFFFFFFFFFFFFFFFFFFFFFFFFFF AND BALANCE LT JUMPDEST ISZERO PUSH2 0xBD8 JUMPI PUSH0 DUP5 DUP3 DUP2 MLOAD DUP2 LT PUSH2 0xA43 JUMPI PUSH2 0xA42 PUSH2 0x2354 JUMP JUMPDEST JUMPDEST PUSH1 0x20 MUL PUSH1 0x20 ADD ADD MLOAD PUSH20 0xFFFFFFFFFFFFFFFFFFFFFFFFFFFFFFFFFFFFFFFF AND PUSH2 0x8FC DUP5 PUSH1 0x40 ADD MLOAD PUSH12 0xFFFFFFFFFFFFFFFFFFFFFFFF AND SWAP1 DUP2 ISZERO MUL SWAP1 PUSH1 0x40 MLOAD PUSH0 PUSH1 0x40 MLOAD DUP1 DUP4 SUB DUP2 DUP6 DUP9 DUP9 CALL SWAP4 POP POP POP POP SWAP1 POP DUP1 ISZERO PUSH2 0xB78 JUMPI TIMESTAMP PUSH1 0x5 PUSH0 DUP8 DUP6 DUP2 MLOAD DUP2 LT PUSH2 0xAAF JUMPI PUSH2 0xAAE PUSH2 0x2354 JUMP JUMPDEST JUMPDEST PUSH1 0x20 MUL PUSH1 0x20 ADD ADD MLOAD PUSH20 0xFFFFFFFFFFFFFFFFFFFFFFFFFFFFFFFFFFFFFFFF AND PUSH20 0xFFFFFFFFFFFFFFFFFFFFFFFFFFFFFFFFFFFFFFFF AND DUP2 MSTORE PUSH1 0x20 ADD SWAP1 DUP2 MSTORE PUSH1 0x20 ADD PUSH0 KECCAK256 PUSH0 ADD PUSH1 0x19 PUSH2 0x100 EXP DUP2 SLOAD DUP2 PUSH7 0xFFFFFFFFFFFFFF MUL NOT AND SWAP1 DUP4 PUSH7 0xFFFFFFFFFFFFFF AND MUL OR SWAP1 SSTORE POP DUP5 DUP3 DUP2 MLOAD DUP2 LT PUSH2 0xB29 JUMPI PUSH2 0xB28 PUSH2 0x2354 JUMP JUMPDEST JUMPDEST PUSH1 0x20 MUL PUSH1 0x20 ADD ADD MLOAD PUSH20 0xFFFFFFFFFFFFFFFFFFFFFFFFFFFFFFFFFFFFFFFF AND PUSH32 0x9EEC55C371A49CE19E0A5792787C79B32DCF7D3490AA737436B49C0978CE9CE9 PUSH1 0x40 MLOAD PUSH1 0x40 MLOAD DUP1 SWAP2 SUB SWAP1 LOG2 PUSH2 0xBD6 JUMP JUMPDEST DUP5 DUP3 DUP2 MLOAD DUP2 LT PUSH2 0xB8B JUMPI PUSH2 0xB8A PUSH2 0x2354 JUMP JUMPDEST JUMPDEST PUSH1 0x20 MUL PUSH1 0x20 ADD ADD MLOAD PUSH20 0xFFFFFFFFFFFFFFFFFFFFFFFFFFFFFFFFFFFFFFFF AND PUSH32 0xA9FF7A9B96721B0E16ADB7DE9DB0764FBFD6A4516D4D165F9564E8C3755EB105 PUSH1 0x40 MLOAD PUSH1 0x40 MLOAD DUP1 SWAP2 SUB SWAP1 LOG2 JUMPDEST POP JUMPDEST PUSH2 0xD6D8 GAS LT ISZERO PUSH2 0xBEA JUMPI POP POP POP PUSH2 0xBFB JUMP JUMPDEST DUP1 DUP1 PUSH1 0x1 ADD SWAP2 POP POP PUSH2 0x886 JUMP JUMPDEST POP POP POP JUMPDEST POP JUMP JUMPDEST PUSH2 0xC06 PUSH2 0x170F JUMP JUMPDEST PUSH2 0xC0E PUSH2 0x17E8 JUMP JUMPDEST JUMP JUMPDEST PUSH2 0xC18 PUSH2 0x170F JUMP JUMPDEST PUSH32 0x4330086C73B1FE1E13CD47A61C692E7C4399B5DE08ED94B7AB824684AF09323 PUSH1 0x3 SLOAD DUP3 PUSH1 0x40 MLOAD PUSH2 0xC4B SWAP3 SWAP2 SWAP1 PUSH2 0x245B JUMP JUMPDEST PUSH1 0x40 MLOAD DUP1 SWAP2 SUB SWAP1 LOG1 DUP1 PUSH1 0x3 DUP2 SWAP1 SSTORE POP POP JUMP JUMPDEST PUSH0 PUSH1 0x3 SLOAD SWAP1 POP SWAP1 JUMP JUMPDEST PUSH1 0x2 PUSH0 SWAP1 SLOAD SWAP1 PUSH2 0x100 EXP SWAP1 DIV PUSH20 0xFFFFFFFFFFFFFFFFFFFFFFFFFFFFFFFFFFFFFFFF AND PUSH20 0xFFFFFFFFFFFFFFFFFFFFFFFFFFFFFFFFFFFFFFFF AND CALLER PUSH20 0xFFFFFFFFFFFFFFFFFFFFFFFFFFFFFFFFFFFFFFFF AND EQ PUSH2 0xCEC JUMPI PUSH1 0x40 MLOAD PUSH32 0xA73D374100000000000000000000000000000000000000000000000000000000 DUP2 MSTORE PUSH1 0x4 ADD PUSH1 0x40 MLOAD DUP1 SWAP2 SUB SWAP1 REVERT JUMPDEST PUSH2 0xCF4 PUSH2 0x179E JUMP JUMPDEST PUSH0 DUP3 DUP3 DUP2 ADD SWAP1 PUSH2 0xD04 SWAP2 SWAP1 PUSH2 0x1ED3 JUMP JUMPDEST SWAP1 POP PUSH2 0xD0F DUP2 PUSH2 0x86E JUMP JUMPDEST POP POP POP JUMP JUMPDEST PUSH0 PUSH1 0x1 PUSH1 0x14 SWAP1 SLOAD SWAP1 PUSH2 0x100 EXP SWAP1 DIV PUSH1 0xFF AND SWAP1 POP SWAP1 JUMP JUMPDEST PUSH0 PUSH1 0x60 PUSH2 0xD35 PUSH2 0x179E JUMP JUMPDEST PUSH0 PUSH2 0xD3E PUSH2 0x4E3 JUMP JUMPDEST SWAP1 POP PUSH0 DUP2 MLOAD GT SWAP3 POP DUP1 PUSH1 0x40 MLOAD PUSH1 0x20 ADD PUSH2 0xD57 SWAP2 SWAP1 PUSH2 0x1D20 JUMP JUMPDEST PUSH1 0x40 MLOAD PUSH1 0x20 DUP2 DUP4 SUB SUB DUP2 MSTORE SWAP1 PUSH1 0x40 MSTORE SWAP2 POP POP SWAP3 POP SWAP3 SWAP1 POP JUMP JUMPDEST PUSH1 0x60 PUSH1 0x4 DUP1 SLOAD DUP1 PUSH1 0x20 MUL PUSH1 0x20 ADD PUSH1 0x40 MLOAD SWAP1 DUP2 ADD PUSH1 0x40 MSTORE DUP1 SWAP3 SWAP2 SWAP1 DUP2 DUP2 MSTORE PUSH1 0x20 ADD DUP3 DUP1 SLOAD DUP1 ISZERO PUSH2 0xDF1 JUMPI PUSH1 0x20 MUL DUP3 ADD SWAP2 SWAP1 PUSH0 MSTORE PUSH1 0x20 PUSH0 KECCAK256 SWAP1 JUMPDEST DUP2 PUSH0 SWAP1 SLOAD SWAP1 PUSH2 0x100 EXP SWAP1 DIV PUSH20 0xFFFFFFFFFFFFFFFFFFFFFFFFFFFFFFFFFFFFFFFF AND PUSH20 0xFFFFFFFFFFFFFFFFFFFFFFFFFFFFFFFFFFFFFFFF AND DUP2 MSTORE PUSH1 0x20 ADD SWAP1 PUSH1 0x1 ADD SWAP1 DUP1 DUP4 GT PUSH2 0xDA8 JUMPI JUMPDEST POP POP POP POP POP SWAP1 POP SWAP1 JUMP JUMPDEST PUSH1 0x1 PUSH0 SWAP1 SLOAD SWAP1 PUSH2 0x100 EXP SWAP1 DIV PUSH20 0xFFFFFFFFFFFFFFFFFFFFFFFFFFFFFFFFFFFFFFFF AND PUSH20 0xFFFFFFFFFFFFFFFFFFFFFFFFFFFFFFFFFFFFFFFF AND CALLER PUSH20 0xFFFFFFFFFFFFFFFFFFFFFFFFFFFFFFFFFFFFFFFF AND EQ PUSH2 0xE8A JUMPI PUSH1 0x40 MLOAD PUSH32 0x8C379A000000000000000000000000000000000000000000000000000000000 DUP2 MSTORE PUSH1 0x4 ADD PUSH2 0xE81 SWAP1 PUSH2 0x24DC JUMP JUMPDEST PUSH1 0x40 MLOAD DUP1 SWAP2 SUB SWAP1 REVERT JUMPDEST PUSH0 DUP1 PUSH0 SWAP1 SLOAD SWAP1 PUSH2 0x100 EXP SWAP1 DIV PUSH20 0xFFFFFFFFFFFFFFFFFFFFFFFFFFFFFFFFFFFFFFFF AND SWAP1 POP CALLER PUSH0 DUP1 PUSH2 0x100 EXP DUP2 SLOAD DUP2 PUSH20 0xFFFFFFFFFFFFFFFFFFFFFFFFFFFFFFFFFFFFFFFF MUL NOT AND SWAP1 DUP4 PUSH20 0xFFFFFFFFFFFFFFFFFFFFFFFFFFFFFFFFFFFFFFFF AND MUL OR SWAP1 SSTORE POP PUSH0 PUSH1 0x1 PUSH0 PUSH2 0x100 EXP DUP2 SLOAD DUP2 PUSH20 0xFFFFFFFFFFFFFFFFFFFFFFFFFFFFFFFFFFFFFFFF MUL NOT AND SWAP1 DUP4 PUSH20 0xFFFFFFFFFFFFFFFFFFFFFFFFFFFFFFFFFFFFFFFF AND MUL OR SWAP1 SSTORE POP CALLER PUSH20 0xFFFFFFFFFFFFFFFFFFFFFFFFFFFFFFFFFFFFFFFF AND DUP2 PUSH20 0xFFFFFFFFFFFFFFFFFFFFFFFFFFFFFFFFFFFFFFFF AND PUSH32 0x8BE0079C531659141344CD1FD0A4F28419497F9722A3DAAFE3B4186F6B6457E0 PUSH1 0x40 MLOAD PUSH1 0x40 MLOAD DUP1 SWAP2 SUB SWAP1 LOG3 POP JUMP JUMPDEST PUSH0 DUP1 PUSH0 DUP1 PUSH0 PUSH1 0x5 PUSH0 DUP8 PUSH20 0xFFFFFFFFFFFFFFFFFFFFFFFFFFFFFFFFFFFFFFFF AND PUSH20 0xFFFFFFFFFFFFFFFFFFFFFFFFFFFFFFFFFFFFFFFF AND DUP2 MSTORE PUSH1 0x20 ADD SWAP1 DUP2 MSTORE PUSH1 0x20 ADD PUSH0 KECCAK256 PUSH1 0x40 MLOAD DUP1 PUSH1 0x80 ADD PUSH1 0x40 MSTORE SWAP1 DUP2 PUSH0 DUP3 ADD PUSH0 SWAP1 SLOAD SWAP1 PUSH2 0x100 EXP SWAP1 DIV PUSH1 0xFF AND ISZERO ISZERO ISZERO ISZERO DUP2 MSTORE PUSH1 0x20 ADD PUSH0 DUP3 ADD PUSH1 0x1 SWAP1 SLOAD SWAP1 PUSH2 0x100 EXP SWAP1 DIV PUSH12 0xFFFFFFFFFFFFFFFFFFFFFFFF AND PUSH12 0xFFFFFFFFFFFFFFFFFFFFFFFF AND PUSH12 0xFFFFFFFFFFFFFFFFFFFFFFFF AND DUP2 MSTORE PUSH1 0x20 ADD PUSH0 DUP3 ADD PUSH1 0xD SWAP1 SLOAD SWAP1 PUSH2 0x100 EXP SWAP1 DIV PUSH12 0xFFFFFFFFFFFFFFFFFFFFFFFF AND PUSH12 0xFFFFFFFFFFFFFFFFFFFFFFFF AND PUSH12 0xFFFFFFFFFFFFFFFFFFFFFFFF AND DUP2 MSTORE PUSH1 0x20 ADD PUSH0 DUP3 ADD PUSH1 0x19 SWAP1 SLOAD SWAP1 PUSH2 0x100 EXP SWAP1 DIV PUSH7 0xFFFFFFFFFFFFFF AND PUSH7 0xFFFFFFFFFFFFFF AND PUSH7 0xFFFFFFFFFFFFFF AND DUP2 MSTORE POP POP SWAP1 POP DUP1 PUSH0 ADD MLOAD DUP2 PUSH1 0x20 ADD MLOAD DUP3 PUSH1 0x40 ADD MLOAD DUP4 PUSH1 0x60 ADD MLOAD SWAP5 POP SWAP5 POP SWAP5 POP SWAP5 POP POP SWAP2 SWAP4 POP SWAP2 SWAP4 JUMP JUMPDEST PUSH2 0x10C5 PUSH2 0x170F JUMP JUMPDEST PUSH2 0x10CD PUSH2 0x184A JUMP JUMPDEST JUMP JUMPDEST PUSH0 DUP1 PUSH0 SWAP1 SLOAD SWAP1 PUSH2 0x100 EXP SWAP1 DIV PUSH20 0xFFFFFFFFFFFFFFFFFFFFFFFFFFFFFFFFFFFFFFFF AND SWAP1 POP SWAP1 JUMP JUMPDEST PUSH2 0x10FE PUSH2 0x170F JUMP JUMPDEST DUP4 DUP4 SWAP1 POP DUP7 DUP7 SWAP1 POP EQ ISZERO DUP1 PUSH2 0x1119 JUMPI POP DUP2 DUP2 SWAP1 POP DUP7 DUP7 SWAP1 POP EQ ISZERO JUMPDEST ISZERO PUSH2 0x1150 JUMPI PUSH1 0x40 MLOAD PUSH32 0x3869BBE600000000000000000000000000000000000000000000000000000000 DUP2 MSTORE PUSH1 0x4 ADD PUSH1 0x40 MLOAD DUP1 SWAP2 SUB SWAP1 REVERT JUMPDEST PUSH0 PUSH1 0x4 DUP1 SLOAD DUP1 PUSH1 0x20 MUL PUSH1 0x20 ADD PUSH1 0x40 MLOAD SWAP1 DUP2 ADD PUSH1 0x40 MSTORE DUP1 SWAP3 SWAP2 SWAP1 DUP2 DUP2 MSTORE PUSH1 0x20 ADD DUP3 DUP1 SLOAD DUP1 ISZERO PUSH2 0x11D0 JUMPI PUSH1 0x20 MUL DUP3 ADD SWAP2 SWAP1 PUSH0 MSTORE PUSH1 0x20 PUSH0 KECCAK256 SWAP1 JUMPDEST DUP2 PUSH0 SWAP1 SLOAD SWAP1 PUSH2 0x100 EXP SWAP1 DIV PUSH20 0xFFFFFFFFFFFFFFFFFFFFFFFFFFFFFFFFFFFFFFFF AND PUSH20 0xFFFFFFFFFFFFFFFFFFFFFFFFFFFFFFFFFFFFFFFF AND DUP2 MSTORE PUSH1 0x20 ADD SWAP1 PUSH1 0x1 ADD SWAP1 DUP1 DUP4 GT PUSH2 0x1187 JUMPI JUMPDEST POP POP POP POP POP SWAP1 POP PUSH0 JUMPDEST DUP2 MLOAD DUP2 LT ISZERO PUSH2 0x125F JUMPI PUSH0 PUSH1 0x5 PUSH0 DUP5 DUP5 DUP2 MLOAD DUP2 LT PUSH2 0x11F9 JUMPI PUSH2 0x11F8 PUSH2 0x2354 JUMP JUMPDEST JUMPDEST PUSH1 0x20 MUL PUSH1 0x20 ADD ADD MLOAD PUSH20 0xFFFFFFFFFFFFFFFFFFFFFFFFFFFFFFFFFFFFFFFF AND PUSH20 0xFFFFFFFFFFFFFFFFFFFFFFFFFFFFFFFFFFFFFFFF AND DUP2 MSTORE PUSH1 0x20 ADD SWAP1 DUP2 MSTORE PUSH1 0x20 ADD PUSH0 KECCAK256 PUSH0 ADD PUSH0 PUSH2 0x100 EXP DUP2 SLOAD DUP2 PUSH1 0xFF MUL NOT AND SWAP1 DUP4 ISZERO ISZERO MUL OR SWAP1 SSTORE POP DUP1 DUP1 PUSH1 0x1 ADD SWAP2 POP POP PUSH2 0x11D9 JUMP JUMPDEST POP PUSH0 JUMPDEST DUP8 DUP8 SWAP1 POP DUP2 LT ISZERO PUSH2 0x1603 JUMPI PUSH1 0x5 PUSH0 DUP10 DUP10 DUP5 DUP2 DUP2 LT PUSH2 0x1283 JUMPI PUSH2 0x1282 PUSH2 0x2354 JUMP JUMPDEST JUMPDEST SWAP1 POP PUSH1 0x20 MUL ADD PUSH1 0x20 DUP2 ADD SWAP1 PUSH2 0x1298 SWAP2 SWAP1 PUSH2 0x20C3 JUMP JUMPDEST PUSH20 0xFFFFFFFFFFFFFFFFFFFFFFFFFFFFFFFFFFFFFFFF AND PUSH20 0xFFFFFFFFFFFFFFFFFFFFFFFFFFFFFFFFFFFFFFFF AND DUP2 MSTORE PUSH1 0x20 ADD SWAP1 DUP2 MSTORE PUSH1 0x20 ADD PUSH0 KECCAK256 PUSH0 ADD PUSH0 SWAP1 SLOAD SWAP1 PUSH2 0x100 EXP SWAP1 DIV PUSH1 0xFF AND ISZERO PUSH2 0x1349 JUMPI DUP8 DUP8 DUP3 DUP2 DUP2 LT PUSH2 0x12F8 JUMPI PUSH2 0x12F7 PUSH2 0x2354 JUMP JUMPDEST JUMPDEST SWAP1 POP PUSH1 0x20 MUL ADD PUSH1 0x20 DUP2 ADD SWAP1 PUSH2 0x130D SWAP2 SWAP1 PUSH2 0x20C3 JUMP JUMPDEST PUSH1 0x40 MLOAD PUSH32 0x9F2277F300000000000000000000000000000000000000000000000000000000 DUP2 MSTORE PUSH1 0x4 ADD PUSH2 0x1340 SWAP2 SWAP1 PUSH2 0x1D40 JUMP JUMPDEST PUSH1 0x40 MLOAD DUP1 SWAP2 SUB SWAP1 REVERT JUMPDEST PUSH0 PUSH20 0xFFFFFFFFFFFFFFFFFFFFFFFFFFFFFFFFFFFFFFFF AND DUP9 DUP9 DUP4 DUP2 DUP2 LT PUSH2 0x1373 JUMPI PUSH2 0x1372 PUSH2 0x2354 JUMP JUMPDEST JUMPDEST SWAP1 POP PUSH1 0x20 MUL ADD PUSH1 0x20 DUP2 ADD SWAP1 PUSH2 0x1388 SWAP2 SWAP1 PUSH2 0x20C3 JUMP JUMPDEST PUSH20 0xFFFFFFFFFFFFFFFFFFFFFFFFFFFFFFFFFFFFFFFF AND SUB PUSH2 0x13D5 JUMPI PUSH1 0x40 MLOAD PUSH32 0x3869BBE600000000000000000000000000000000000000000000000000000000 DUP2 MSTORE PUSH1 0x4 ADD PUSH1 0x40 MLOAD DUP1 SWAP2 SUB SWAP1 REVERT JUMPDEST PUSH0 DUP5 DUP5 DUP4 DUP2 DUP2 LT PUSH2 0x13E9 JUMPI PUSH2 0x13E8 PUSH2 0x2354 JUMP JUMPDEST JUMPDEST SWAP1 POP PUSH1 0x20 MUL ADD PUSH1 0x20 DUP2 ADD SWAP1 PUSH2 0x13FE SWAP2 SWAP1 PUSH2 0x2524 JUMP JUMPDEST PUSH12 0xFFFFFFFFFFFFFFFFFFFFFFFF AND SUB PUSH2 0x1443 JUMPI PUSH1 0x40 MLOAD PUSH32 0x3869BBE600000000000000000000000000000000000000000000000000000000 DUP2 MSTORE PUSH1 0x4 ADD PUSH1 0x40 MLOAD DUP1 SWAP2 SUB SWAP1 REVERT JUMPDEST PUSH1 0x40 MLOAD DUP1 PUSH1 0x80 ADD PUSH1 0x40 MSTORE DUP1 PUSH1 0x1 ISZERO ISZERO DUP2 MSTORE PUSH1 0x20 ADD DUP8 DUP8 DUP5 DUP2 DUP2 LT PUSH2 0x146A JUMPI PUSH2 0x1469 PUSH2 0x2354 JUMP JUMPDEST JUMPDEST SWAP1 POP PUSH1 0x20 MUL ADD PUSH1 0x20 DUP2 ADD SWAP1 PUSH2 0x147F SWAP2 SWAP1 PUSH2 0x2524 JUMP JUMPDEST PUSH12 0xFFFFFFFFFFFFFFFFFFFFFFFF AND DUP2 MSTORE PUSH1 0x20 ADD DUP6 DUP6 DUP5 DUP2 DUP2 LT PUSH2 0x14A5 JUMPI PUSH2 0x14A4 PUSH2 0x2354 JUMP JUMPDEST JUMPDEST SWAP1 POP PUSH1 0x20 MUL ADD PUSH1 0x20 DUP2 ADD SWAP1 PUSH2 0x14BA SWAP2 SWAP1 PUSH2 0x2524 JUMP JUMPDEST PUSH12 0xFFFFFFFFFFFFFFFFFFFFFFFF AND DUP2 MSTORE PUSH1 0x20 ADD PUSH0 PUSH7 0xFFFFFFFFFFFFFF AND DUP2 MSTORE POP PUSH1 0x5 PUSH0 DUP11 DUP11 DUP6 DUP2 DUP2 LT PUSH2 0x14F0 JUMPI PUSH2 0x14EF PUSH2 0x2354 JUMP JUMPDEST JUMPDEST SWAP1 POP PUSH1 0x20 MUL ADD PUSH1 0x20 DUP2 ADD SWAP1 PUSH2 0x1505 SWAP2 SWAP1 PUSH2 0x20C3 JUMP JUMPDEST PUSH20 0xFFFFFFFFFFFFFFFFFFFFFFFFFFFFFFFFFFFFFFFF AND PUSH20 0xFFFFFFFFFFFFFFFFFFFFFFFFFFFFFFFFFFFFFFFF AND DUP2 MSTORE PUSH1 0x20 ADD SWAP1 DUP2 MSTORE PUSH1 0x20 ADD PUSH0 KECCAK256 PUSH0 DUP3 ADD MLOAD DUP2 PUSH0 ADD PUSH0 PUSH2 0x100 EXP DUP2 SLOAD DUP2 PUSH1 0xFF MUL NOT AND SWAP1 DUP4 ISZERO ISZERO MUL OR SWAP1 SSTORE POP PUSH1 0x20 DUP3 ADD MLOAD DUP2 PUSH0 ADD PUSH1 0x1 PUSH2 0x100 EXP DUP2 SLOAD DUP2 PUSH12 0xFFFFFFFFFFFFFFFFFFFFFFFF MUL NOT AND SWAP1 DUP4 PUSH12 0xFFFFFFFFFFFFFFFFFFFFFFFF AND MUL OR SWAP1 SSTORE POP PUSH1 0x40 DUP3 ADD MLOAD DUP2 PUSH0 ADD PUSH1 0xD PUSH2 0x100 EXP DUP2 SLOAD DUP2 PUSH12 0xFFFFFFFFFFFFFFFFFFFFFFFF MUL NOT AND SWAP1 DUP4 PUSH12 0xFFFFFFFFFFFFFFFFFFFFFFFF AND MUL OR SWAP1 SSTORE POP PUSH1 0x60 DUP3 ADD MLOAD DUP2 PUSH0 ADD PUSH1 0x19 PUSH2 0x100 EXP DUP2 SLOAD DUP2 PUSH7 0xFFFFFFFFFFFFFF MUL NOT AND SWAP1 DUP4 PUSH7 0xFFFFFFFFFFFFFF AND MUL OR SWAP1 SSTORE POP SWAP1 POP POP DUP1 DUP1 PUSH1 0x1 ADD SWAP2 POP POP PUSH2 0x1262 JUMP JUMPDEST POP DUP7 DUP7 PUSH1 0x4 SWAP2 SWAP1 PUSH2 0x1615 SWAP3 SWAP2 SWAP1 PUSH2 0x1A71 JUMP JUMPDEST POP POP POP POP POP POP POP POP JUMP JUMPDEST PUSH2 0x1627 PUSH2 0x170F JUMP JUMPDEST PUSH0 PUSH20 0xFFFFFFFFFFFFFFFFFFFFFFFFFFFFFFFFFFFFFFFF AND DUP2 PUSH20 0xFFFFFFFFFFFFFFFFFFFFFFFFFFFFFFFFFFFFFFFF AND SUB PUSH2 0x165E JUMPI PUSH0 DUP1 REVERT JUMPDEST PUSH32 0x39AD854736757070884DD787EF1A7F58DB33546639D1F3EFDDCF4A33FB8997E PUSH1 0x2 PUSH0 SWAP1 SLOAD SWAP1 PUSH2 0x100 EXP SWAP1 DIV PUSH20 0xFFFFFFFFFFFFFFFFFFFFFFFFFFFFFFFFFFFFFFFF AND DUP3 PUSH1 0x40 MLOAD PUSH2 0x16B0 SWAP3 SWAP2 SWAP1 PUSH2 0x254F JUMP JUMPDEST PUSH1 0x40 MLOAD DUP1 SWAP2 SUB SWAP1 LOG1 DUP1 PUSH1 0x2 PUSH0 PUSH2 0x100 EXP DUP2 SLOAD DUP2 PUSH20 0xFFFFFFFFFFFFFFFFFFFFFFFFFFFFFFFFFFFFFFFF MUL NOT AND SWAP1 DUP4 PUSH20 0xFFFFFFFFFFFFFFFFFFFFFFFFFFFFFFFFFFFFFFFF AND MUL OR SWAP1 SSTORE POP POP JUMP JUMPDEST PUSH2 0x1703 PUSH2 0x170F JUMP JUMPDEST PUSH2 0x170C DUP2 PUSH2 0x18AC JUMP JUMPDEST POP JUMP JUMPDEST PUSH0 DUP1 SLOAD SWAP1 PUSH2 0x100 EXP SWAP1 DIV PUSH20 0xFFFFFFFFFFFFFFFFFFFFFFFFFFFFFFFFFFFFFFFF AND PUSH20 0xFFFFFFFFFFFFFFFFFFFFFFFFFFFFFFFFFFFFFFFF AND CALLER PUSH20 0xFFFFFFFFFFFFFFFFFFFFFFFFFFFFFFFFFFFFFFFF AND EQ PUSH2 0x179C JUMPI PUSH1 0x40 MLOAD PUSH32 0x8C379A000000000000000000000000000000000000000000000000000000000 DUP2 MSTORE PUSH1 0x4 ADD PUSH2 0x1793 SWAP1 PUSH2 0x25C0 JUMP JUMPDEST PUSH1 0x40 MLOAD DUP1 SWAP2 SUB SWAP1 REVERT JUMPDEST JUMP JUMPDEST PUSH2 0x17A6 PUSH2 0xD14 JUMP JUMPDEST ISZERO PUSH2 0x17E6 JUMPI PUSH1 0x40 MLOAD PUSH32 0x8C379A000000000000000000000000000000000000000000000000000000000 DUP2 MSTORE PUSH1 0x4 ADD PUSH2 0x17DD SWAP1 PUSH2 0x2628 JUMP JUMPDEST PUSH1 0x40 MLOAD DUP1 SWAP2 SUB SWAP1 REVERT JUMPDEST JUMP JUMPDEST PUSH2 0x17F0 PUSH2 0x19D6 JUMP JUMPDEST PUSH0 PUSH1 0x1 PUSH1 0x14 PUSH2 0x100 EXP DUP2 SLOAD DUP2 PUSH1 0xFF MUL NOT AND SWAP1 DUP4 ISZERO ISZERO MUL OR SWAP1 SSTORE POP PUSH32 0x5DB9EE0A495BF2E6FF9C91A7834C1BA4FDD244A5E8AA4E537BD38AEAE4B073AA PUSH2 0x1833 PUSH2 0x1A1F JUMP JUMPDEST PUSH1 0x40 MLOAD PUSH2 0x1840 SWAP2 SWAP1 PUSH2 0x1D40 JUMP JUMPDEST PUSH1 0x40 MLOAD DUP1 SWAP2 SUB SWAP1 LOG1 JUMP JUMPDEST PUSH2 0x1852 PUSH2 0x179E JUMP JUMPDEST PUSH1 0x1 DUP1 PUSH1 0x14 PUSH2 0x100 EXP DUP2 SLOAD DUP2 PUSH1 0xFF MUL NOT AND SWAP1 DUP4 ISZERO ISZERO MUL OR SWAP1 SSTORE POP PUSH32 0x62E78CEA01BEE320CD4E420270B5EA74000D11B0C9F74754EBDBFC544B05A258 PUSH2 0x1895 PUSH2 0x1A1F JUMP JUMPDEST PUSH1 0x40 MLOAD PUSH2 0x18A2 SWAP2 SWAP1 PUSH2 0x1D40 JUMP JUMPDEST PUSH1 0x40 MLOAD DUP1 SWAP2 SUB SWAP1 LOG1 JUMP JUMPDEST CALLER PUSH20 0xFFFFFFFFFFFFFFFFFFFFFFFFFFFFFFFFFFFFFFFF AND DUP2 PUSH20 0xFFFFFFFFFFFFFFFFFFFFFFFFFFFFFFFFFFFFFFFF AND SUB PUSH2 0x191A JUMPI PUSH1 0x40 MLOAD PUSH32 0x8C379A000000000000000000000000000000000000000000000000000000000 DUP2 MSTORE PUSH1 0x4 ADD PUSH2 0x1911 SWAP1 PUSH2 0x2690 JUMP JUMPDEST PUSH1 0x40 MLOAD DUP1 SWAP2 SUB SWAP1 REVERT JUMPDEST DUP1 PUSH1 0x1 PUSH0 PUSH2 0x100 EXP DUP2 SLOAD DUP2 PUSH20 0xFFFFFFFFFFFFFFFFFFFFFFFFFFFFFFFFFFFFFFFF MUL NOT AND SWAP1 DUP4 PUSH20 0xFFFFFFFFFFFFFFFFFFFFFFFFFFFFFFFFFFFFFFFF AND MUL OR SWAP1 SSTORE POP DUP1 PUSH20 0xFFFFFFFFFFFFFFFFFFFFFFFFFFFFFFFFFFFFFFFF AND PUSH0 DUP1 SLOAD SWAP1 PUSH2 0x100 EXP SWAP1 DIV PUSH20 0xFFFFFFFFFFFFFFFFFFFFFFFFFFFFFFFFFFFFFFFF AND PUSH20 0xFFFFFFFFFFFFFFFFFFFFFFFFFFFFFFFFFFFFFFFF AND PUSH32 0xED8889F560326EB138920D842192F0EB3DD22B4F139C87A2C57538E05BAE1278 PUSH1 0x40 MLOAD PUSH1 0x40 MLOAD DUP1 SWAP2 SUB SWAP1 LOG3 POP JUMP JUMPDEST PUSH2 0x19DE PUSH2 0xD14 JUMP JUMPDEST PUSH2 0x1A1D JUMPI PUSH1 0x40 MLOAD PUSH32 0x8C379A000000000000000000000000000000000000000000000000000000000 DUP2 MSTORE PUSH1 0x4 ADD PUSH2 0x1A14 SWAP1 PUSH2 0x26F8 JUMP JUMPDEST PUSH1 0x40 MLOAD DUP1 SWAP2 SUB SWAP1 REVERT JUMPDEST JUMP JUMPDEST PUSH0 CALLER SWAP1 POP SWAP1 JUMP JUMPDEST PUSH1 0x40 MLOAD DUP1 PUSH1 0x80 ADD PUSH1 0x40 MSTORE DUP1 PUSH0 ISZERO ISZERO DUP2 MSTORE PUSH1 0x20 ADD PUSH0 PUSH12 0xFFFFFFFFFFFFFFFFFFFFFFFF AND DUP2 MSTORE PUSH1 0x20 ADD PUSH0 PUSH12 0xFFFFFFFFFFFFFFFFFFFFFFFF AND DUP2 MSTORE PUSH1 0x20 ADD PUSH0 PUSH7 0xFFFFFFFFFFFFFF AND DUP2 MSTORE POP SWAP1 JUMP JUMPDEST DUP3 DUP1 SLOAD DUP3 DUP3 SSTORE SWAP1 PUSH0 MSTORE PUSH1 0x20 PUSH0 KECCAK256 SWAP1 DUP2 ADD SWAP3 DUP3 ISZERO PUSH2 0x1AFD JUMPI SWAP2 PUSH1 0x20 MUL DUP3 ADD JUMPDEST DUP3 DUP2 GT ISZERO PUSH2 0x1AFC JUMPI DUP3 CALLDATALOAD PUSH20 0xFFFFFFFFFFFFFFFFFFFFFFFFFFFFFFFFFFFFFFFF AND DUP3 PUSH0 PUSH2 0x100 EXP DUP2 SLOAD DUP2 PUSH20 0xFFFFFFFFFFFFFFFFFFFFFFFFFFFFFFFFFFFFFFFF MUL NOT AND SWAP1 DUP4 PUSH20 0xFFFFFFFFFFFFFFFFFFFFFFFFFFFFFFFFFFFFFFFF AND MUL OR SWAP1 SSTORE POP SWAP2 PUSH1 0x20 ADD SWAP2 SWAP1 PUSH1 0x1 ADD SWAP1 PUSH2 0x1A8F JUMP JUMPDEST JUMPDEST POP SWAP1 POP PUSH2 0x1B0A SWAP2 SWAP1 PUSH2 0x1B0E JUMP JUMPDEST POP SWAP1 JUMP JUMPDEST JUMPDEST DUP1 DUP3 GT ISZERO PUSH2 0x1B25 JUMPI PUSH0 DUP2 PUSH0 SWAP1 SSTORE POP PUSH1 0x1 ADD PUSH2 0x1B0F JUMP JUMPDEST POP SWAP1 JUMP JUMPDEST PUSH0 DUP2 SWAP1 POP SWAP2 SWAP1 POP JUMP JUMPDEST PUSH2 0x1B3B DUP2 PUSH2 0x1B29 JUMP JUMPDEST DUP3 MSTORE POP POP JUMP JUMPDEST PUSH0 PUSH20 0xFFFFFFFFFFFFFFFFFFFFFFFFFFFFFFFFFFFFFFFF DUP3 AND SWAP1 POP SWAP2 SWAP1 POP JUMP JUMPDEST PUSH0 PUSH2 0x1B6A DUP3 PUSH2 0x1B41 JUMP JUMPDEST SWAP1 POP SWAP2 SWAP1 POP JUMP JUMPDEST PUSH2 0x1B7A DUP2 PUSH2 0x1B60 JUMP JUMPDEST DUP3 MSTORE POP POP JUMP JUMPDEST PUSH0 PUSH1 0x60 DUP3 ADD SWAP1 POP PUSH2 0x1B93 PUSH0 DUP4 ADD DUP7 PUSH2 0x1B32 JUMP JUMPDEST PUSH2 0x1BA0 PUSH1 0x20 DUP4 ADD DUP6 PUSH2 0x1B32 JUMP JUMPDEST PUSH2 0x1BAD PUSH1 0x40 DUP4 ADD DUP5 PUSH2 0x1B71 JUMP JUMPDEST SWAP5 SWAP4 POP POP POP POP JUMP JUMPDEST PUSH0 PUSH1 0x40 MLOAD SWAP1 POP SWAP1 JUMP JUMPDEST PUSH0 DUP1 REVERT JUMPDEST PUSH0 DUP1 REVERT JUMPDEST PUSH2 0x1BCF DUP2 PUSH2 0x1B29 JUMP JUMPDEST DUP2 EQ PUSH2 0x1BD9 JUMPI PUSH0 DUP1 REVERT JUMPDEST POP JUMP JUMPDEST PUSH0 DUP2 CALLDATALOAD SWAP1 POP PUSH2 0x1BEA DUP2 PUSH2 0x1BC6 JUMP JUMPDEST SWAP3 SWAP2 POP POP JUMP JUMPDEST PUSH0 PUSH2 0x1BFA DUP3 PUSH2 0x1B41 JUMP JUMPDEST SWAP1 POP SWAP2 SWAP1 POP JUMP JUMPDEST PUSH2 0x1C0A DUP2 PUSH2 0x1BF0 JUMP JUMPDEST DUP2 EQ PUSH2 0x1C14 JUMPI PUSH0 DUP1 REVERT JUMPDEST POP JUMP JUMPDEST PUSH0 DUP2 CALLDATALOAD SWAP1 POP PUSH2 0x1C25 DUP2 PUSH2 0x1C01 JUMP JUMPDEST SWAP3 SWAP2 POP POP JUMP JUMPDEST PUSH0 DUP1 PUSH1 0x40 DUP4 DUP6 SUB SLT ISZERO PUSH2 0x1C41 JUMPI PUSH2 0x1C40 PUSH2 0x1BBE JUMP JUMPDEST JUMPDEST PUSH0 PUSH2 0x1C4E DUP6 DUP3 DUP7 ADD PUSH2 0x1BDC JUMP JUMPDEST SWAP3 POP POP PUSH1 0x20 PUSH2 0x1C5F DUP6 DUP3 DUP7 ADD PUSH2 0x1C17 JUMP JUMPDEST SWAP2 POP POP SWAP3 POP SWAP3 SWAP1 POP JUMP JUMPDEST PUSH0 DUP2 MLOAD SWAP1 POP SWAP2 SWAP1 POP JUMP JUMPDEST PUSH0 DUP3 DUP3 MSTORE PUSH1 0x20 DUP3 ADD SWAP1 POP SWAP3 SWAP2 POP POP JUMP JUMPDEST PUSH0 DUP2 SWAP1 POP PUSH1 0x20 DUP3 ADD SWAP1 POP SWAP2 SWAP1 POP JUMP JUMPDEST PUSH2 0x1C9B DUP2 PUSH2 0x1B60 JUMP JUMPDEST DUP3 MSTORE POP POP JUMP JUMPDEST PUSH0 PUSH2 0x1CAC DUP4 DUP4 PUSH2 0x1C92 JUMP JUMPDEST PUSH1 0x20 DUP4 ADD SWAP1 POP SWAP3 SWAP2 POP POP JUMP JUMPDEST PUSH0 PUSH1 0x20 DUP3 ADD SWAP1 POP SWAP2 SWAP1 POP JUMP JUMPDEST PUSH0 PUSH2 0x1CCE DUP3 PUSH2 0x1C69 JUMP JUMPDEST PUSH2 0x1CD8 DUP2 DUP6 PUSH2 0x1C73 JUMP JUMPDEST SWAP4 POP PUSH2 0x1CE3 DUP4 PUSH2 0x1C83 JUMP JUMPDEST DUP1 PUSH0 JUMPDEST DUP4 DUP2 LT ISZERO PUSH2 0x1D13 JUMPI DUP2 MLOAD PUSH2 0x1CFA DUP9 DUP3 PUSH2 0x1CA1 JUMP JUMPDEST SWAP8 POP PUSH2 0x1D05 DUP4 PUSH2 0x1CB8 JUMP JUMPDEST SWAP3 POP POP PUSH1 0x1 DUP2 ADD SWAP1 POP PUSH2 0x1CE6 JUMP JUMPDEST POP DUP6 SWAP4 POP POP POP POP SWAP3 SWAP2 POP POP JUMP JUMPDEST PUSH0 PUSH1 0x20 DUP3 ADD SWAP1 POP DUP2 DUP2 SUB PUSH0 DUP4 ADD MSTORE PUSH2 0x1D38 DUP2 DUP5 PUSH2 0x1CC4 JUMP JUMPDEST SWAP1 POP SWAP3 SWAP2 POP POP JUMP JUMPDEST PUSH0 PUSH1 0x20 DUP3 ADD SWAP1 POP PUSH2 0x1D53 PUSH0 DUP4 ADD DUP5 PUSH2 0x1B71 JUMP JUMPDEST SWAP3 SWAP2 POP POP JUMP JUMPDEST PUSH0 DUP1 REVERT JUMPDEST PUSH0 PUSH1 0x1F NOT PUSH1 0x1F DUP4 ADD AND SWAP1 POP SWAP2 SWAP1 POP JUMP JUMPDEST PUSH32 0x4E487B7100000000000000000000000000000000000000000000000000000000 PUSH0 MSTORE PUSH1 0x41 PUSH1 0x4 MSTORE PUSH1 0x24 PUSH0 REVERT JUMPDEST PUSH2 0x1DA3 DUP3 PUSH2 0x1D5D JUMP JUMPDEST DUP2 ADD DUP2 DUP2 LT PUSH8 0xFFFFFFFFFFFFFFFF DUP3 GT OR ISZERO PUSH2 0x1DC2 JUMPI PUSH2 0x1DC1 PUSH2 0x1D6D JUMP JUMPDEST JUMPDEST DUP1 PUSH1 0x40 MSTORE POP POP POP JUMP JUMPDEST PUSH0 PUSH2 0x1DD4 PUSH2 0x1BB5 JUMP JUMPDEST SWAP1 POP PUSH2 0x1DE0 DUP3 DUP3 PUSH2 0x1D9A JUMP JUMPDEST SWAP2 SWAP1 POP JUMP JUMPDEST PUSH0 PUSH8 0xFFFFFFFFFFFFFFFF DUP3 GT ISZERO PUSH2 0x1DFF JUMPI PUSH2 0x1DFE PUSH2 0x1D6D JUMP JUMPDEST JUMPDEST PUSH1 0x20 DUP3 MUL SWAP1 POP PUSH1 0x20 DUP2 ADD SWAP1 POP SWAP2 SWAP1 POP JUMP JUMPDEST PUSH0 DUP1 REVERT JUMPDEST PUSH2 0x1E1D DUP2 PUSH2 0x1B60 JUMP JUMPDEST DUP2 EQ PUSH2 0x1E27 JUMPI PUSH0 DUP1 REVERT JUMPDEST POP JUMP JUMPDEST PUSH0 DUP2 CALLDATALOAD SWAP1 POP PUSH2 0x1E38 DUP2 PUSH2 0x1E14 JUMP JUMPDEST SWAP3 SWAP2 POP POP JUMP JUMPDEST PUSH0 PUSH2 0x1E50 PUSH2 0x1E4B DUP5 PUSH2 0x1DE5 JUMP JUMPDEST PUSH2 0x1DCB JUMP JUMPDEST SWAP1 POP DUP1 DUP4 DUP3 MSTORE PUSH1 0x20 DUP3 ADD SWAP1 POP PUSH1 0x20 DUP5 MUL DUP4 ADD DUP6 DUP2 GT ISZERO PUSH2 0x1E73 JUMPI PUSH2 0x1E72 PUSH2 0x1E10 JUMP JUMPDEST JUMPDEST DUP4 JUMPDEST DUP2 DUP2 LT ISZERO PUSH2 0x1E9C JUMPI DUP1 PUSH2 0x1E88 DUP9 DUP3 PUSH2 0x1E2A JUMP JUMPDEST DUP5 MSTORE PUSH1 0x20 DUP5 ADD SWAP4 POP POP PUSH1 0x20 DUP2 ADD SWAP1 POP PUSH2 0x1E75 JUMP JUMPDEST POP POP POP SWAP4 SWAP3 POP POP POP JUMP JUMPDEST PUSH0 DUP3 PUSH1 0x1F DUP4 ADD SLT PUSH2 0x1EBA JUMPI PUSH2 0x1EB9 PUSH2 0x1D59 JUMP JUMPDEST JUMPDEST DUP2 CALLDATALOAD PUSH2 0x1ECA DUP5 DUP3 PUSH1 0x20 DUP7 ADD PUSH2 0x1E3E JUMP JUMPDEST SWAP2 POP POP SWAP3 SWAP2 POP POP JUMP JUMPDEST PUSH0 PUSH1 0x20 DUP3 DUP5 SUB SLT ISZERO PUSH2 0x1EE8 JUMPI PUSH2 0x1EE7 PUSH2 0x1BBE JUMP JUMPDEST JUMPDEST PUSH0 DUP3 ADD CALLDATALOAD PUSH8 0xFFFFFFFFFFFFFFFF DUP2 GT ISZERO PUSH2 0x1F05 JUMPI PUSH2 0x1F04 PUSH2 0x1BC2 JUMP JUMPDEST JUMPDEST PUSH2 0x1F11 DUP5 DUP3 DUP6 ADD PUSH2 0x1EA6 JUMP JUMPDEST SWAP2 POP POP SWAP3 SWAP2 POP POP JUMP JUMPDEST PUSH0 PUSH1 0x20 DUP3 DUP5 SUB SLT ISZERO PUSH2 0x1F2F JUMPI PUSH2 0x1F2E PUSH2 0x1BBE JUMP JUMPDEST JUMPDEST PUSH0 PUSH2 0x1F3C DUP5 DUP3 DUP6 ADD PUSH2 0x1BDC JUMP JUMPDEST SWAP2 POP POP SWAP3 SWAP2 POP POP JUMP JUMPDEST PUSH0 PUSH1 0x20 DUP3 ADD SWAP1 POP PUSH2 0x1F58 PUSH0 DUP4 ADD DUP5 PUSH2 0x1B32 JUMP JUMPDEST SWAP3 SWAP2 POP POP JUMP JUMPDEST PUSH0 DUP1 REVERT JUMPDEST PUSH0 DUP1 DUP4 PUSH1 0x1F DUP5 ADD SLT PUSH2 0x1F77 JUMPI PUSH2 0x1F76 PUSH2 0x1D59 JUMP JUMPDEST JUMPDEST DUP3 CALLDATALOAD SWAP1 POP PUSH8 0xFFFFFFFFFFFFFFFF DUP2 GT ISZERO PUSH2 0x1F94 JUMPI PUSH2 0x1F93 PUSH2 0x1F5E JUMP JUMPDEST JUMPDEST PUSH1 0x20 DUP4 ADD SWAP2 POP DUP4 PUSH1 0x1 DUP3 MUL DUP4 ADD GT ISZERO PUSH2 0x1FB0 JUMPI PUSH2 0x1FAF PUSH2 0x1E10 JUMP JUMPDEST JUMPDEST SWAP3 POP SWAP3 SWAP1 POP JUMP JUMPDEST PUSH0 DUP1 PUSH1 0x20 DUP4 DUP6 SUB SLT ISZERO PUSH2 0x1FCD JUMPI PUSH2 0x1FCC PUSH2 0x1BBE JUMP JUMPDEST JUMPDEST PUSH0 DUP4 ADD CALLDATALOAD PUSH8 0xFFFFFFFFFFFFFFFF DUP2 GT ISZERO PUSH2 0x1FEA JUMPI PUSH2 0x1FE9 PUSH2 0x1BC2 JUMP JUMPDEST JUMPDEST PUSH2 0x1FF6 DUP6 DUP3 DUP7 ADD PUSH2 0x1F62 JUMP JUMPDEST SWAP3 POP SWAP3 POP POP SWAP3 POP SWAP3 SWAP1 POP JUMP JUMPDEST PUSH0 DUP2 ISZERO ISZERO SWAP1 POP SWAP2 SWAP1 POP JUMP JUMPDEST PUSH2 0x2016 DUP2 PUSH2 0x2002 JUMP JUMPDEST DUP3 MSTORE POP POP JUMP JUMPDEST PUSH0 PUSH1 0x20 DUP3 ADD SWAP1 POP PUSH2 0x202F PUSH0 DUP4 ADD DUP5 PUSH2 0x200D JUMP JUMPDEST SWAP3 SWAP2 POP POP JUMP JUMPDEST PUSH0 DUP2 MLOAD SWAP1 POP SWAP2 SWAP1 POP JUMP JUMPDEST PUSH0 DUP3 DUP3 MSTORE PUSH1 0x20 DUP3 ADD SWAP1 POP SWAP3 SWAP2 POP POP JUMP JUMPDEST DUP3 DUP2 DUP4 MCOPY PUSH0 DUP4 DUP4 ADD MSTORE POP POP POP JUMP JUMPDEST PUSH0 PUSH2 0x2067 DUP3 PUSH2 0x2035 JUMP JUMPDEST PUSH2 0x2071 DUP2 DUP6 PUSH2 0x203F JUMP JUMPDEST SWAP4 POP PUSH2 0x2081 DUP2 DUP6 PUSH1 0x20 DUP7 ADD PUSH2 0x204F JUMP JUMPDEST PUSH2 0x208A DUP2 PUSH2 0x1D5D JUMP JUMPDEST DUP5 ADD SWAP2 POP POP SWAP3 SWAP2 POP POP JUMP JUMPDEST PUSH0 PUSH1 0x40 DUP3 ADD SWAP1 POP PUSH2 0x20A8 PUSH0 DUP4 ADD DUP6 PUSH2 0x200D JUMP JUMPDEST DUP2 DUP2 SUB PUSH1 0x20 DUP4 ADD MSTORE PUSH2 0x20BA DUP2 DUP5 PUSH2 0x205D JUMP JUMPDEST SWAP1 POP SWAP4 SWAP3 POP POP POP JUMP JUMPDEST PUSH0 PUSH1 0x20 DUP3 DUP5 SUB SLT ISZERO PUSH2 0x20D8 JUMPI PUSH2 0x20D7 PUSH2 0x1BBE JUMP JUMPDEST JUMPDEST PUSH0 PUSH2 0x20E5 DUP5 DUP3 DUP6 ADD PUSH2 0x1E2A JUMP JUMPDEST SWAP2 POP POP SWAP3 SWAP2 POP POP JUMP JUMPDEST PUSH0 PUSH12 0xFFFFFFFFFFFFFFFFFFFFFFFF DUP3 AND SWAP1 POP SWAP2 SWAP1 POP JUMP JUMPDEST PUSH2 0x210E DUP2 PUSH2 0x20EE JUMP JUMPDEST DUP3 MSTORE POP POP JUMP JUMPDEST PUSH0 PUSH7 0xFFFFFFFFFFFFFF DUP3 AND SWAP1 POP SWAP2 SWAP1 POP JUMP JUMPDEST PUSH2 0x212F DUP2 PUSH2 0x2114 JUMP JUMPDEST DUP3 MSTORE POP POP JUMP JUMPDEST PUSH0 PUSH1 0x80 DUP3 ADD SWAP1 POP PUSH2 0x2148 PUSH0 DUP4 ADD DUP8 PUSH2 0x200D JUMP JUMPDEST PUSH2 0x2155 PUSH1 0x20 DUP4 ADD DUP7 PUSH2 0x2105 JUMP JUMPDEST PUSH2 0x2162 PUSH1 0x40 DUP4 ADD DUP6 PUSH2 0x2105 JUMP JUMPDEST PUSH2 0x216F PUSH1 0x60 DUP4 ADD DUP5 PUSH2 0x2126 JUMP JUMPDEST SWAP6 SWAP5 POP POP POP POP POP JUMP JUMPDEST PUSH0 DUP1 DUP4 PUSH1 0x1F DUP5 ADD SLT PUSH2 0x218D JUMPI PUSH2 0x218C PUSH2 0x1D59 JUMP JUMPDEST JUMPDEST DUP3 CALLDATALOAD SWAP1 POP PUSH8 0xFFFFFFFFFFFFFFFF DUP2 GT ISZERO PUSH2 0x21AA JUMPI PUSH2 0x21A9 PUSH2 0x1F5E JUMP JUMPDEST JUMPDEST PUSH1 0x20 DUP4 ADD SWAP2 POP DUP4 PUSH1 0x20 DUP3 MUL DUP4 ADD GT ISZERO PUSH2 0x21C6 JUMPI PUSH2 0x21C5 PUSH2 0x1E10 JUMP JUMPDEST JUMPDEST SWAP3 POP SWAP3 SWAP1 POP JUMP JUMPDEST PUSH0 DUP1 DUP4 PUSH1 0x1F DUP5 ADD SLT PUSH2 0x21E2 JUMPI PUSH2 0x21E1 PUSH2 0x1D59 JUMP JUMPDEST JUMPDEST DUP3 CALLDATALOAD SWAP1 POP PUSH8 0xFFFFFFFFFFFFFFFF DUP2 GT ISZERO PUSH2 0x21FF JUMPI PUSH2 0x21FE PUSH2 0x1F5E JUMP JUMPDEST JUMPDEST PUSH1 0x20 DUP4 ADD SWAP2 POP DUP4 PUSH1 0x20 DUP3 MUL DUP4 ADD GT ISZERO PUSH2 0x221B JUMPI PUSH2 0x221A PUSH2 0x1E10 JUMP JUMPDEST JUMPDEST SWAP3 POP SWAP3 SWAP1 POP JUMP JUMPDEST PUSH0 DUP1 PUSH0 DUP1 PUSH0 DUP1 PUSH1 0x60 DUP8 DUP10 SUB SLT ISZERO PUSH2 0x223C JUMPI PUSH2 0x223B PUSH2 0x1BBE JUMP JUMPDEST JUMPDEST PUSH0 DUP8 ADD CALLDATALOAD PUSH8 0xFFFFFFFFFFFFFFFF DUP2 GT ISZERO PUSH2 0x2259 JUMPI PUSH2 0x2258 PUSH2 0x1BC2 JUMP JUMPDEST JUMPDEST PUSH2 0x2265 DUP10 DUP3 DUP11 ADD PUSH2 0x2178 JUMP JUMPDEST SWAP7 POP SWAP7 POP POP PUSH1 0x20 DUP8 ADD CALLDATALOAD PUSH8 0xFFFFFFFFFFFFFFFF DUP2 GT ISZERO PUSH2 0x2288 JUMPI PUSH2 0x2287 PUSH2 0x1BC2 JUMP JUMPDEST JUMPDEST PUSH2 0x2294 DUP10 DUP3 DUP11 ADD PUSH2 0x21CD JUMP JUMPDEST SWAP5 POP SWAP5 POP POP PUSH1 0x40 DUP8 ADD CALLDATALOAD PUSH8 0xFFFFFFFFFFFFFFFF DUP2 GT ISZERO PUSH2 0x22B7 JUMPI PUSH2 0x22B6 PUSH2 0x1BC2 JUMP JUMPDEST JUMPDEST PUSH2 0x22C3 DUP10 DUP3 DUP11 ADD PUSH2 0x21CD JUMP JUMPDEST SWAP3 POP SWAP3 POP POP SWAP3 SWAP6 POP SWAP3 SWAP6 POP SWAP3 SWAP6 JUMP JUMPDEST PUSH0 DUP2 SWAP1 POP SWAP2 SWAP1 POP JUMP JUMPDEST PUSH0 PUSH2 0x22F5 PUSH2 0x22F0 PUSH2 0x22EB DUP5 PUSH2 0x1B41 JUMP JUMPDEST PUSH2 0x22D2 JUMP JUMPDEST PUSH2 0x1B41 JUMP JUMPDEST SWAP1 POP SWAP2 SWAP1 POP JUMP JUMPDEST PUSH0 PUSH2 0x2306 DUP3 PUSH2 0x22DB JUMP JUMPDEST SWAP1 POP SWAP2 SWAP1 POP JUMP JUMPDEST PUSH0 PUSH2 0x2317 DUP3 PUSH2 0x22FC JUMP JUMPDEST SWAP1 POP SWAP2 SWAP1 POP JUMP JUMPDEST PUSH2 0x2327 DUP2 PUSH2 0x230D JUMP JUMPDEST DUP3 MSTORE POP POP JUMP JUMPDEST PUSH0 PUSH1 0x40 DUP3 ADD SWAP1 POP PUSH2 0x2340 PUSH0 DUP4 ADD DUP6 PUSH2 0x1B32 JUMP JUMPDEST PUSH2 0x234D PUSH1 0x20 DUP4 ADD DUP5 PUSH2 0x231E JUMP JUMPDEST SWAP4 SWAP3 POP POP POP JUMP JUMPDEST PUSH32 0x4E487B7100000000000000000000000000000000000000000000000000000000 PUSH0 MSTORE PUSH1 0x32 PUSH1 0x4 MSTORE PUSH1 0x24 PUSH0 REVERT JUMPDEST PUSH32 0x4E487B7100000000000000000000000000000000000000000000000000000000 PUSH0 MSTORE PUSH1 0x11 PUSH1 0x4 MSTORE PUSH1 0x24 PUSH0 REVERT JUMPDEST PUSH0 PUSH2 0x23B8 DUP3 PUSH2 0x1B29 JUMP JUMPDEST SWAP2 POP PUSH2 0x23C3 DUP4 PUSH2 0x1B29 JUMP JUMPDEST SWAP3 POP DUP3 DUP3 ADD SWAP1 POP DUP1 DUP3 GT ISZERO PUSH2 0x23DB JUMPI PUSH2 0x23DA PUSH2 0x2381 JUMP JUMPDEST JUMPDEST SWAP3 SWAP2 POP POP JUMP JUMPDEST PUSH0 PUSH2 0x23EB DUP3 PUSH2 0x1B29 JUMP JUMPDEST SWAP2 POP PUSH32 0xFFFFFFFFFFFFFFFFFFFFFFFFFFFFFFFFFFFFFFFFFFFFFFFFFFFFFFFFFFFFFFFF DUP3 SUB PUSH2 0x241D JUMPI PUSH2 0x241C PUSH2 0x2381 JUMP JUMPDEST JUMPDEST PUSH1 0x1 DUP3 ADD SWAP1 POP SWAP2 SWAP1 POP JUMP JUMPDEST PUSH0 PUSH2 0x2432 DUP3 PUSH2 0x1B29 JUMP JUMPDEST SWAP2 POP PUSH2 0x243D DUP4 PUSH2 0x1B29 JUMP JUMPDEST SWAP3 POP DUP3 DUP3 SUB SWAP1 POP DUP2 DUP2 GT ISZERO PUSH2 0x2455 JUMPI PUSH2 0x2454 PUSH2 0x2381 JUMP JUMPDEST JUMPDEST SWAP3 SWAP2 POP POP JUMP JUMPDEST PUSH0 PUSH1 0x40 DUP3 ADD SWAP1 POP PUSH2 0x246E PUSH0 DUP4 ADD DUP6 PUSH2 0x1B32 JUMP JUMPDEST PUSH2 0x247B PUSH1 0x20 DUP4 ADD DUP5 PUSH2 0x1B32 JUMP JUMPDEST SWAP4 SWAP3 POP POP POP JUMP JUMPDEST PUSH0 DUP3 DUP3 MSTORE PUSH1 0x20 DUP3 ADD SWAP1 POP SWAP3 SWAP2 POP POP JUMP JUMPDEST PUSH32 0x4D7573742062652070726F706F736564206F776E657200000000000000000000 PUSH0 DUP3 ADD MSTORE POP JUMP JUMPDEST PUSH0 PUSH2 0x24C6 PUSH1 0x16 DUP4 PUSH2 0x2482 JUMP JUMPDEST SWAP2 POP PUSH2 0x24D1 DUP3 PUSH2 0x2492 JUMP JUMPDEST PUSH1 0x20 DUP3 ADD SWAP1 POP SWAP2 SWAP1 POP JUMP JUMPDEST PUSH0 PUSH1 0x20 DUP3 ADD SWAP1 POP DUP2 DUP2 SUB PUSH0 DUP4 ADD MSTORE PUSH2 0x24F3 DUP2 PUSH2 0x24BA JUMP JUMPDEST SWAP1 POP SWAP2 SWAP1 POP JUMP JUMPDEST PUSH2 0x2503 DUP2 PUSH2 0x20EE JUMP JUMPDEST DUP2 EQ PUSH2 0x250D JUMPI PUSH0 DUP1 REVERT JUMPDEST POP JUMP JUMPDEST PUSH0 DUP2 CALLDATALOAD SWAP1 POP PUSH2 0x251E DUP2 PUSH2 0x24FA JUMP JUMPDEST SWAP3 SWAP2 POP POP JUMP JUMPDEST PUSH0 PUSH1 0x20 DUP3 DUP5 SUB SLT ISZERO PUSH2 0x2539 JUMPI PUSH2 0x2538 PUSH2 0x1BBE JUMP JUMPDEST JUMPDEST PUSH0 PUSH2 0x2546 DUP5 DUP3 DUP6 ADD PUSH2 0x2510 JUMP JUMPDEST SWAP2 POP POP SWAP3 SWAP2 POP POP JUMP JUMPDEST PUSH0 PUSH1 0x40 DUP3 ADD SWAP1 POP PUSH2 0x2562 PUSH0 DUP4 ADD DUP6 PUSH2 0x1B71 JUMP JUMPDEST PUSH2 0x256F PUSH1 0x20 DUP4 ADD DUP5 PUSH2 0x1B71 JUMP JUMPDEST SWAP4 SWAP3 POP POP POP JUMP JUMPDEST PUSH32 0x4F6E6C792063616C6C61626C65206279206F776E657200000000000000000000 PUSH0 DUP3 ADD MSTORE POP JUMP JUMPDEST PUSH0 PUSH2 0x25AA PUSH1 0x16 DUP4 PUSH2 0x2482 JUMP JUMPDEST SWAP2 POP PUSH2 0x25B5 DUP3 PUSH2 0x2576 JUMP JUMPDEST PUSH1 0x20 DUP3 ADD SWAP1 POP SWAP2 SWAP1 POP JUMP JUMPDEST PUSH0 PUSH1 0x20 DUP3 ADD SWAP1 POP DUP2 DUP2 SUB PUSH0 DUP4 ADD MSTORE PUSH2 0x25D7 DUP2 PUSH2 0x259E JUMP JUMPDEST SWAP1 POP SWAP2 SWAP1 POP JUMP JUMPDEST PUSH32 0x5061757361626C653A2070617573656400000000000000000000000000000000 PUSH0 DUP3 ADD MSTORE POP JUMP JUMPDEST PUSH0 PUSH2 0x2612 PUSH1 0x10 DUP4 PUSH2 0x2482 JUMP JUMPDEST SWAP2 POP PUSH2 0x261D DUP3 PUSH2 0x25DE JUMP JUMPDEST PUSH1 0x20 DUP3 ADD SWAP1 POP SWAP2 SWAP1 POP JUMP JUMPDEST PUSH0 PUSH1 0x20 DUP3 ADD SWAP1 POP DUP2 DUP2 SUB PUSH0 DUP4 ADD MSTORE PUSH2 0x263F DUP2 PUSH2 0x2606 JUMP JUMPDEST SWAP1 POP SWAP2 SWAP1 POP JUMP JUMPDEST PUSH32 0x43616E6E6F74207472616E7366657220746F2073656C66000000000000000000 PUSH0 DUP3 ADD MSTORE POP JUMP JUMPDEST PUSH0 PUSH2 0x267A PUSH1 0x17 DUP4 PUSH2 0x2482 JUMP JUMPDEST SWAP2 POP PUSH2 0x2685 DUP3 PUSH2 0x2646 JUMP JUMPDEST PUSH1 0x20 DUP3 ADD SWAP1 POP SWAP2 SWAP1 POP JUMP JUMPDEST PUSH0 PUSH1 0x20 DUP3 ADD SWAP1 POP DUP2 DUP2 SUB PUSH0 DUP4 ADD MSTORE PUSH2 0x26A7 DUP2 PUSH2 0x266E JUMP JUMPDEST SWAP1 POP SWAP2 SWAP1 POP JUMP JUMPDEST PUSH32 0x5061757361626C653A206E6F7420706175736564000000000000000000000000 PUSH0 DUP3 ADD MSTORE POP JUMP JUMPDEST PUSH0 PUSH2 0x26E2 PUSH1 0x14 DUP4 PUSH2 0x2482 JUMP JUMPDEST SWAP2 POP PUSH2 0x26ED DUP3 PUSH2 0x26AE JUMP JUMPDEST PUSH1 0x20 DUP3 ADD SWAP1 POP SWAP2 SWAP1 POP JUMP JUMPDEST PUSH0 PUSH1 0x20 DUP3 ADD SWAP1 POP DUP2 DUP2 SUB PUSH0 DUP4 ADD MSTORE PUSH2 0x270F DUP2 PUSH2 0x26D6 JUMP JUMPDEST SWAP1 POP SWAP2 SWAP1 POP JUMP INVALID LOG2 PUSH5 0x6970667358 0x22 SLT KECCAK256 0xF9 PUSH1 0x8D BLOBHASH 0xDD DUP6 0xC 0xC5 DUP6 NOT DIV DUP11 0x4D DIV PUSH26 0xE22D47C68388A7E526E39883CDF209C7EB64736F6C6343000819 STOP CALLER "
				},
				"gasEstimates": {
					"creation": {
						"codeDepositCost": "2012000",
						"executionCost": "infinite",
						"totalCost": "infinite"
					},
					"external": {
						"acceptOwnership()": "54600",
						"checkUpkeep(bytes)": "infinite",
						"getAccountInfo(address)": "infinite",
						"getForwarderAddress()": "2583",
						"getMinWaitPeriodSeconds()": "2499",
						"getUnderfundedAddresses()": "infinite",
						"getWatchList()": "infinite",
						"owner()": "2559",
						"pause()": "30229",
						"paused()": "2635",
						"performUpkeep(bytes)": "infinite",
						"setForwarderAddress(address)": "infinite",
						"setMinWaitPeriodSeconds(uint256)": "infinite",
						"setWatchList(address[],uint96[],uint96[])": "infinite",
						"topUp(address[])": "infinite",
						"transferOwnership(address)": "30755",
						"unpause()": "30226",
						"withdraw(uint256,address)": "infinite"
					}
				},
				"methodIdentifiers": {
					"acceptOwnership()": "79ba5097",
					"checkUpkeep(bytes)": "6e04ff0d",
					"getAccountInfo(address)": "7b510fe8",
					"getForwarderAddress()": "3441856f",
					"getMinWaitPeriodSeconds()": "41d2052e",
					"getUnderfundedAddresses()": "0b67ddce",
					"getWatchList()": "728584b7",
					"owner()": "8da5cb5b",
					"pause()": "8456cb59",
					"paused()": "5c975abb",
					"performUpkeep(bytes)": "4585e33b",
					"setForwarderAddress(address)": "d777cc6d",
					"setMinWaitPeriodSeconds(uint256)": "3f85861f",
					"setWatchList(address[],uint96[],uint96[])": "b1d52fa0",
					"topUp(address[])": "3e4ca677",
					"transferOwnership(address)": "f2fde38b",
					"unpause()": "3f4ba83a",
					"withdraw(uint256,address)": "00f714ce"
				}
			},
			"storageLayout": {
				"storage": [
					{
						"astId": 48,
						"contract": "docs.chain.link/samples/Automation/tutorials/EthBalanceMonitor.sol:EthBalanceMonitor",
						"label": "s_owner",
						"offset": 0,
						"slot": "0",
						"type": "t_address"
					},
					{
						"astId": 50,
						"contract": "docs.chain.link/samples/Automation/tutorials/EthBalanceMonitor.sol:EthBalanceMonitor",
						"label": "s_pendingOwner",
						"offset": 0,
						"slot": "1",
						"type": "t_address"
					},
					{
						"astId": 236,
						"contract": "docs.chain.link/samples/Automation/tutorials/EthBalanceMonitor.sol:EthBalanceMonitor",
						"label": "_paused",
						"offset": 20,
						"slot": "1",
						"type": "t_bool"
					},
					{
						"astId": 424,
						"contract": "docs.chain.link/samples/Automation/tutorials/EthBalanceMonitor.sol:EthBalanceMonitor",
						"label": "s_forwarderAddress",
						"offset": 0,
						"slot": "2",
						"type": "t_address"
					},
					{
						"astId": 426,
						"contract": "docs.chain.link/samples/Automation/tutorials/EthBalanceMonitor.sol:EthBalanceMonitor",
						"label": "s_minWaitPeriodSeconds",
						"offset": 0,
						"slot": "3",
						"type": "t_uint256"
					},
					{
						"astId": 429,
						"contract": "docs.chain.link/samples/Automation/tutorials/EthBalanceMonitor.sol:EthBalanceMonitor",
						"label": "s_watchList",
						"offset": 0,
						"slot": "4",
						"type": "t_array(t_address)dyn_storage"
					},
					{
						"astId": 434,
						"contract": "docs.chain.link/samples/Automation/tutorials/EthBalanceMonitor.sol:EthBalanceMonitor",
						"label": "s_targets",
						"offset": 0,
						"slot": "5",
						"type": "t_mapping(t_address,t_struct(Target)422_storage)"
					}
				],
				"types": {
					"t_address": {
						"encoding": "inplace",
						"label": "address",
						"numberOfBytes": "20"
					},
					"t_array(t_address)dyn_storage": {
						"base": "t_address",
						"encoding": "dynamic_array",
						"label": "address[]",
						"numberOfBytes": "32"
					},
					"t_bool": {
						"encoding": "inplace",
						"label": "bool",
						"numberOfBytes": "1"
					},
					"t_mapping(t_address,t_struct(Target)422_storage)": {
						"encoding": "mapping",
						"key": "t_address",
						"label": "mapping(address => struct EthBalanceMonitor.Target)",
						"numberOfBytes": "32",
						"value": "t_struct(Target)422_storage"
					},
					"t_struct(Target)422_storage": {
						"encoding": "inplace",
						"label": "struct EthBalanceMonitor.Target",
						"members": [
							{
								"astId": 415,
								"contract": "docs.chain.link/samples/Automation/tutorials/EthBalanceMonitor.sol:EthBalanceMonitor",
								"label": "isActive",
								"offset": 0,
								"slot": "0",
								"type": "t_bool"
							},
							{
								"astId": 417,
								"contract": "docs.chain.link/samples/Automation/tutorials/EthBalanceMonitor.sol:EthBalanceMonitor",
								"label": "minBalanceWei",
								"offset": 1,
								"slot": "0",
								"type": "t_uint96"
							},
							{
								"astId": 419,
								"contract": "docs.chain.link/samples/Automation/tutorials/EthBalanceMonitor.sol:EthBalanceMonitor",
								"label": "topUpAmountWei",
								"offset": 13,
								"slot": "0",
								"type": "t_uint96"
							},
							{
								"astId": 421,
								"contract": "docs.chain.link/samples/Automation/tutorials/EthBalanceMonitor.sol:EthBalanceMonitor",
								"label": "lastTopUpTimestamp",
								"offset": 25,
								"slot": "0",
								"type": "t_uint56"
							}
						],
						"numberOfBytes": "32"
					},
					"t_uint256": {
						"encoding": "inplace",
						"label": "uint256",
						"numberOfBytes": "32"
					},
					"t_uint56": {
						"encoding": "inplace",
						"label": "uint56",
						"numberOfBytes": "7"
					},
					"t_uint96": {
						"encoding": "inplace",
						"label": "uint96",
						"numberOfBytes": "12"
					}
				}
			},
			"userdoc": {
				"kind": "user",
				"methods": {
					"acceptOwnership()": {
						"notice": "Allows an ownership transfer to be completed by the recipient."
					},
					"checkUpkeep(bytes)": {
						"notice": "Get list of addresses that are underfunded and return payload compatible with Chainlink Automation Network"
					},
					"getAccountInfo(address)": {
						"notice": "Gets configuration information for an address on the watchlist"
					},
					"getForwarderAddress()": {
						"notice": "Gets the forwarder address of the Chainlink Automation upkeep"
					},
					"getMinWaitPeriodSeconds()": {
						"notice": "Gets the minimum wait period"
					},
					"getUnderfundedAddresses()": {
						"notice": "Gets a list of addresses that are under funded"
					},
					"getWatchList()": {
						"notice": "Gets the list of addresses being watched"
					},
					"owner()": {
						"notice": "Get the current owner"
					},
					"pause()": {
						"notice": "Pauses the contract, which prevents executing performUpkeep"
					},
					"performUpkeep(bytes)": {
						"notice": "Called by Chainlink Automation Node to send funds to underfunded addresses"
					},
					"setForwarderAddress(address)": {
						"notice": "Sets the upkeep's unique forwarder address for upkeeps in Automation versions 2.0 and later https://docs.chain.link/chainlink-automation/guides/forwarder"
					},
					"setMinWaitPeriodSeconds(uint256)": {
						"notice": "Sets the minimum wait period (in seconds) for addresses between funding"
					},
					"setWatchList(address[],uint96[],uint96[])": {
						"notice": "Sets the list of addresses to watch and their funding parameters"
					},
					"topUp(address[])": {
						"notice": "Send funds to the addresses provided"
					},
					"transferOwnership(address)": {
						"notice": "Allows an owner to begin transferring ownership to a new address."
					},
					"unpause()": {
						"notice": "Unpauses the contract"
					},
					"withdraw(uint256,address)": {
						"notice": "Withdraws the contract balance"
					}
				},
				"notice": "THIS IS AN EXAMPLE CONTRACT THAT USES HARDCODED VALUES FOR CLARITY. THIS IS AN EXAMPLE CONTRACT THAT USES UN-AUDITED CODE. DO NOT USE THIS CODE IN PRODUCTION.",
				"version": 1
			}
		}
	}
}